{
  "_format": "hh-sol-artifact-1",
  "contractName": "UniversalTokenSale",
  "sourceName": "contracts/UniversalTokenSale.sol",
  "abi": [
    {
      "inputs": [],
      "stateMutability": "nonpayable",
      "type": "constructor"
    },
    {
      "inputs": [],
      "name": "AdditionsOverflow",
      "type": "error"
    },
    {
      "inputs": [],
      "name": "ApprovalFailed",
      "type": "error"
    },
    {
      "inputs": [],
      "name": "CantBeIdenticalAddresses",
      "type": "error"
    },
    {
      "inputs": [],
      "name": "CantBeZeroAddress",
      "type": "error"
    },
    {
      "inputs": [],
      "name": "IdenticalAddresses",
      "type": "error"
    },
    {
      "inputs": [
        {
          "internalType": "string",
          "name": "message",
          "type": "string"
        }
      ],
      "name": "InsufficientAmount",
      "type": "error"
    },
    {
      "inputs": [],
      "name": "InsufficientInputAmount",
      "type": "error"
    },
    {
      "inputs": [],
      "name": "InsufficientLiquidity",
      "type": "error"
    },
    {
      "inputs": [
        {
          "internalType": "uint256",
          "name": "amount",
          "type": "uint256"
        }
      ],
      "name": "InvalidAmount",
      "type": "error"
    },
    {
      "inputs": [],
      "name": "InvalidPath",
      "type": "error"
    },
    {
      "inputs": [],
      "name": "InvalidPathLength",
      "type": "error"
    },
    {
      "inputs": [],
      "name": "MultiplicationsOverflow",
      "type": "error"
    },
    {
      "inputs": [
        {
          "internalType": "address",
          "name": "owner",
          "type": "address"
        }
      ],
      "name": "OwnableInvalidOwner",
      "type": "error"
    },
    {
      "inputs": [
        {
          "internalType": "address",
          "name": "account",
          "type": "address"
        }
      ],
      "name": "OwnableUnauthorizedAccount",
      "type": "error"
    },
    {
      "inputs": [],
      "name": "Unauthorized",
      "type": "error"
    },
    {
      "inputs": [],
      "name": "ZeroAddress",
      "type": "error"
    },
    {
      "anonymous": false,
      "inputs": [
        {
          "indexed": true,
          "internalType": "address",
          "name": "buyer",
          "type": "address"
        },
        {
          "indexed": false,
          "internalType": "address",
          "name": "externalPaymentToken",
          "type": "address"
        },
        {
          "indexed": false,
          "internalType": "uint256",
          "name": "externalPaymentAmount",
          "type": "uint256"
        },
        {
          "indexed": false,
          "internalType": "address",
          "name": "paymentToken",
          "type": "address"
        },
        {
          "indexed": false,
          "internalType": "uint256",
          "name": "paymentAmount",
          "type": "uint256"
        },
        {
          "indexed": false,
          "internalType": "uint256",
          "name": "uTokenAmount",
          "type": "uint256"
        }
      ],
      "name": "BuyUToken",
      "type": "event"
    },
    {
      "anonymous": false,
      "inputs": [
        {
          "indexed": true,
          "internalType": "address",
          "name": "previousOwner",
          "type": "address"
        },
        {
          "indexed": true,
          "internalType": "address",
          "name": "newOwner",
          "type": "address"
        }
      ],
      "name": "OwnershipTransferred",
      "type": "event"
    },
    {
      "anonymous": false,
      "inputs": [
        {
          "indexed": true,
          "internalType": "address",
          "name": "seller",
          "type": "address"
        },
        {
          "indexed": false,
          "internalType": "uint256",
          "name": "uTokenAmount",
          "type": "uint256"
        },
        {
          "indexed": false,
          "internalType": "address",
          "name": "targetToken",
          "type": "address"
        },
        {
          "indexed": false,
          "internalType": "uint256",
          "name": "outputAmount",
          "type": "uint256"
        },
        {
          "indexed": false,
          "internalType": "uint256",
          "name": "gasFee",
          "type": "uint256"
        }
      ],
      "name": "SaleUToken",
      "type": "event"
    },
    {
      "anonymous": false,
      "inputs": [
        {
          "indexed": false,
          "internalType": "address",
          "name": "sender",
          "type": "address"
        },
        {
          "indexed": true,
          "internalType": "address",
          "name": "recipient",
          "type": "address"
        },
        {
          "indexed": true,
          "internalType": "address",
          "name": "inputToken",
          "type": "address"
        },
        {
          "indexed": true,
          "internalType": "address",
          "name": "targetToken",
          "type": "address"
        },
        {
          "indexed": false,
          "internalType": "uint256",
          "name": "inputAmount",
          "type": "uint256"
        },
        {
          "indexed": false,
          "internalType": "uint256",
          "name": "outputAmount",
          "type": "uint256"
        }
      ],
      "name": "TokenSwap",
      "type": "event"
    },
    {
      "inputs": [],
      "name": "GAS_LIMIT",
      "outputs": [
        {
          "internalType": "uint256",
          "name": "",
          "type": "uint256"
        }
      ],
      "stateMutability": "view",
      "type": "function"
    },
    {
      "inputs": [],
      "name": "GATEWAY",
      "outputs": [
        {
          "internalType": "contract IGatewayZEVM",
          "name": "",
          "type": "address"
        }
      ],
      "stateMutability": "view",
      "type": "function"
    },
    {
      "inputs": [],
      "name": "UNDERLYING_TOKEN",
      "outputs": [
        {
          "internalType": "contract UToken",
          "name": "",
          "type": "address"
        }
      ],
      "stateMutability": "view",
      "type": "function"
    },
    {
      "inputs": [],
      "name": "UNISWAP_ROUTER",
      "outputs": [
        {
          "internalType": "address",
          "name": "",
          "type": "address"
        }
      ],
      "stateMutability": "view",
      "type": "function"
    },
    {
      "inputs": [],
      "name": "WZeta",
      "outputs": [
        {
          "internalType": "address",
          "name": "",
          "type": "address"
        }
      ],
      "stateMutability": "view",
      "type": "function"
    },
    {
      "inputs": [
        {
          "components": [
            {
              "internalType": "bytes",
              "name": "sender",
              "type": "bytes"
            },
            {
              "internalType": "address",
              "name": "senderEVM",
              "type": "address"
            },
            {
              "internalType": "uint256",
              "name": "chainID",
              "type": "uint256"
            }
          ],
          "internalType": "struct MessageContext",
          "name": "context",
          "type": "tuple"
        },
        {
          "internalType": "address",
          "name": "zrc20",
          "type": "address"
        },
        {
          "internalType": "uint256",
          "name": "amount",
          "type": "uint256"
        },
        {
          "internalType": "bytes",
          "name": "",
          "type": "bytes"
        }
      ],
      "name": "onCall",
      "outputs": [],
      "stateMutability": "nonpayable",
      "type": "function"
    },
    {
      "inputs": [
        {
          "components": [
            {
              "internalType": "address",
              "name": "sender",
              "type": "address"
            },
            {
              "internalType": "address",
              "name": "asset",
              "type": "address"
            },
            {
              "internalType": "uint256",
              "name": "amount",
              "type": "uint256"
            },
            {
              "internalType": "bytes",
              "name": "revertMessage",
              "type": "bytes"
            }
          ],
          "internalType": "struct RevertContext",
          "name": "context",
          "type": "tuple"
        }
      ],
      "name": "onRevert",
      "outputs": [],
      "stateMutability": "nonpayable",
      "type": "function"
    },
    {
      "inputs": [],
      "name": "owner",
      "outputs": [
        {
          "internalType": "address",
          "name": "",
          "type": "address"
        }
      ],
      "stateMutability": "view",
      "type": "function"
    },
    {
      "inputs": [
        {
          "internalType": "address",
          "name": "inputToken",
          "type": "address"
        },
        {
          "internalType": "address",
          "name": "targetToken",
          "type": "address"
        }
      ],
      "name": "quoteMinInput",
      "outputs": [
        {
          "internalType": "uint256",
          "name": "",
          "type": "uint256"
        }
      ],
      "stateMutability": "view",
      "type": "function"
    },
    {
      "inputs": [],
      "name": "renounceOwnership",
      "outputs": [],
      "stateMutability": "nonpayable",
      "type": "function"
    },
    {
      "inputs": [
        {
          "internalType": "uint256",
          "name": "amount",
          "type": "uint256"
        }
      ],
      "name": "saleUToken",
      "outputs": [],
      "stateMutability": "nonpayable",
      "type": "function"
    },
    {
      "inputs": [
        {
          "internalType": "uint256",
          "name": "amount",
          "type": "uint256"
        },
        {
          "internalType": "address",
          "name": "targetToken",
          "type": "address"
        }
      ],
      "name": "saleUToken",
      "outputs": [],
      "stateMutability": "nonpayable",
      "type": "function"
    },
    {
      "inputs": [
        {
          "internalType": "address",
          "name": "recipient",
          "type": "address"
        },
        {
          "internalType": "contract IZRC20",
          "name": "token",
          "type": "address"
        },
        {
          "internalType": "uint256",
          "name": "amount",
          "type": "uint256"
        }
      ],
      "name": "sweep",
      "outputs": [],
      "stateMutability": "nonpayable",
      "type": "function"
    },
    {
      "inputs": [
        {
          "internalType": "address",
          "name": "recipient",
          "type": "address"
        },
        {
          "internalType": "contract IZRC20",
          "name": "token",
          "type": "address"
        }
      ],
      "name": "sweepAll",
      "outputs": [],
      "stateMutability": "nonpayable",
      "type": "function"
    },
    {
      "inputs": [
        {
          "internalType": "address",
          "name": "newOwner",
          "type": "address"
        }
      ],
      "name": "transferOwnership",
      "outputs": [],
      "stateMutability": "nonpayable",
      "type": "function"
    }
  ],
  "bytecode": "0x60a0806040523461015e573315610188575f8054336001600160a01b0319821681178355916001600160a01b03909116907f8be0079c531659141344cd1fd0a4f28419497f9722a3daafe3b4186f6b6457e09080a3610c61818101906001600160401b038211838310176101625760209183916124c583393081520301905ff0801561017d576080526040516315ab88c960e31b8152602081600481732ca7d64a7efe2d62a725e2b35cf7230d6677ffee5afa90811561017d575f9161010e575b50600180546001600160a01b0319166001600160a01b0392909216919091179055604051612329908161019c82396080518181816101a20152818161021b015281816105330152610f6d0152f35b905060203d602011610176575b601f8101601f191682016001600160401b038111838210176101625760209183916040528101031261015e57516001600160a01b038116810361015e575f6100c0565b5f80fd5b634e487b7160e01b5f52604160045260245ffd5b503d61011b565b6040513d5f823e3d90fd5b631e4fbdf760e01b5f525f60045260245ffdfe60806040526004361015610011575f80fd5b5f3560e01c8063091d2788146101045780631b3614b8146100ff57806329db1be6146100fa578063338c5371146100f55780634fde5c26146100f05780635bcfd616146100eb57806362c06767146100e657806363c1fdf5146100e15780636dc8d1fb146100dc578063715018a6146100d75780638da5cb5b146100d2578063c9028a36146100cd578063d8264920146100c8578063f2fde38b146100c35763f7c0d791146100be575f80fd5b610aec565b610a76565b610a4f565b6107f0565b6107c9565b610772565b6106b5565b61050b565b6103ff565b610371565b6101ff565b6101d1565b61018d565b610151565b610117565b5f91031261011357565b5f80fd5b34610113575f366003190112610113576020604051624c4b408152f35b6001600160a01b031690565b6001600160a01b0381160361011357565b3461011357604036600319011261011357602061018560043561017381610140565b6024359061018082610140565b610d1e565b604051908152f35b34610113575f366003190112610113576040517f00000000000000000000000000000000000000000000000000000000000000006001600160a01b03168152602090f35b34610113575f366003190112610113576020604051736c533f7fe93fae114d0954697069df33c9b74fd78152f35b3461011357602036600319011261011357600435801561035f577f00000000000000000000000000000000000000000000000000000000000000006001600160a01b0316803b15610113575f6040518092632770a7eb60e21b825281838161026b883360048401610ec5565b03925af1801561034057610345575b5061029161028c61028c600154610134565b610134565b6020604051809263a9059cbb60e01b8252815f816102b3883360048401610ec5565b03925af1801561034057610313575b505f8051602061227483398151915261030e6102df600154610134565b604080518581526001600160a01b0390921660208301528101939093525f606084015233929081906080820190565b0390a2005b6103349060203d602011610339575b61032c8183610b28565b810190610ee0565b6102c2565b503d610322565b610b6f565b806103535f61035993610b28565b80610109565b5f61027a565b633728b83d60e01b5f5260045260245ffd5b34610113576080366003190112610113576004356001600160401b0381116101135760606003198236030112610113576024356103ad81610140565b606435916044356001600160401b0384116101135736602385011215610113576004840135926001600160401b0384116101135736602485870101116101135760246103fd950192600401610ef8565b005b346101135760603660031901126101135760043561041c81610140565b6024359061042982610140565b6044359161043561167f565b6040516370a0823160e01b81526001600160a01b039190911691906020818061046130600483016107b6565b0381865afa908115610340575f916104dc575b5083116104c857916020916104a0935f60405180968195829463a9059cbb60e01b845260048401610ec5565b03925af18015610340576104b057005b6103fd9060203d6020116103395761032c8183610b28565b633728b83d60e01b5f52600483905260245ffd5b6104fe915060203d602011610504575b6104f68183610b28565b810190611143565b5f610474565b503d6104ec565b346101135760403660031901126101135760043560243561052b81610140565b81156106a1577f00000000000000000000000000000000000000000000000000000000000000006001600160a01b0316803b15610113575f6040518092632770a7eb60e21b8252818381610583893360048401610ec5565b03925af180156103405761068d575b506105a881836105a3600154610134565b6116a5565b9060018060a09594951b036105be600154610134565b6040516001600160a01b038616929091169030905f805160206122b483398151915290806105ee8a8c8684611125565b0390a48315610679576040513360601b6001600160601b03191660208201525f8051602061227483398151915294939261030e92909161064a9183918790879061064581603481015b03601f198101835282610b28565b61187f565b604080519687526001600160a01b03909316602087015291850192909252606084015233929081906080820190565b633728b83d60e01b5f52600484905260245ffd5b806103535f61069b93610b28565b5f610592565b633728b83d60e01b5f52600482905260245ffd5b34610113576040366003190112610113576004356106d281610140565b6024356106de81610140565b6106e661167f565b6040516370a0823160e01b8152916001600160a01b0391909116906020838061071230600483016107b6565b0381855afa928315610340575f93610751575b5082156104c857916020916104a0935f60405180968195829463a9059cbb60e01b845260048401610ec5565b61076b91935060203d602011610504576104f68183610b28565b915f610725565b34610113575f3660031901126101135761078a61167f565b5f80546001600160a01b0319811682556001600160a01b03165f805160206122d48339815191528280a3005b6001600160a01b03909116815260200190565b34610113575f366003190112610113575f546040516001600160a01b039091168152602090f35b34610113576020366003190112610113576004356001600160401b038111610113576080600319823603011261011357736c533f7fe93fae114d0954697069df33c9b74fd73303610a415761084f8160646108579301906004016110ae565b810190611152565b6108618151610134565b60208201916108708351610134565b606082019061088261028c8351610134565b6001600160a01b0382160361095057505080604060806108a7930151910151906111fa565b6108b761028c61028c8551610134565b91602060405180946370a0823160e01b825281806108d830600483016107b6565b03915afa938415610340576104a0946020945f91610933575b50838110610929575b5061028c61028c61090b9251610134565b905f60405180968195829463a9059cbb60e01b845260048401610ec5565b925061028c6108fa565b61094a9150853d8711610504576104f68183610b28565b5f6108f1565b61096461028c604085949795015192610134565b602060405180926370a0823160e01b8252818061098430600483016107b6565b03915afa918215610340575f946020936109d7938791610a24575b50828110610a1a575b5061028c61028c6109b99251610134565b9060405195868094819363a9059cbb60e01b83528a60048401610ec5565b03925af1918215610340576080926109fd575b5001516108b761028c61028c8551610134565b610a159060203d6020116103395761032c8183610b28565b6109ea565b915061028c6109a8565b610a3b9150853d8711610504576104f68183610b28565b5f61099f565b6282b42960e81b5f5260045ffd5b34610113575f3660031901126101135760206040515f805160206122948339815191528152f35b3461011357602036600319011261011357600435610a9381610140565b610a9b61167f565b6001600160a01b03168015610ad9575f80546001600160a01b03198116831782556001600160a01b0316905f805160206122d48339815191529080a3005b631e4fbdf760e01b5f525f60045260245ffd5b34610113575f366003190112610113576001546040516001600160a01b039091168152602090f35b634e487b7160e01b5f52604160045260245ffd5b601f909101601f19168101906001600160401b03821190821017610b4b57604052565b610b14565b91908260409103126101135760208251610b6981610140565b92015190565b6040513d5f823e3d90fd5b60405190610b8960a083610b28565b565b6001600160401b038111610b4b5760051b60200190565b60405160809190610bb38382610b28565b6003815291601f1901366020840137565b60405160609190610bd58382610b28565b6002815291601f1901366020840137565b634e487b7160e01b5f52603260045260245ffd5b805115610c075760200190565b610be6565b805160011015610c075760400190565b805160021015610c075760600190565b8051821015610c075760209160051b010190565b6001600160a01b039091169052565b602081830312610113578051906001600160401b03821161011357019080601f83011215610113578151610c8281610b8b565b92610c906040519485610b28565b81845260208085019260051b82010192831161011357602001905b828210610cb85750505090565b8151815260209182019101610cab565b90602080835192838152019201905f5b818110610ce55750505090565b82516001600160a01b0316845260209384019390920191600101610cd8565b604090610d1b939281528160208201520190610cc8565b90565b6040805163d9eeebed60e01b815292839060049082906001600160a01b03165afa918215610340575f905f93610e6d575b506001600160a01b0382811691908116828114610e665791610dda94915f9493610d7a600154610134565b92610d8484610134565b809114918215610e5c575b50508514610e2957610dbf9150610db6610da7610bc4565b94610db186610bfa565b610c40565b610db184610c0c565b6040516307c0329d60e21b8152938492839260048401610d04565b03815f805160206122948339815191525afa801561034057610e03915f91610e07575b50610bfa565b5190565b610e2391503d805f833e610e1b8183610b28565b810190610c4f565b5f610dfd565b610e4e610e5792610e45610e3b610ba2565b96610db188610bfa565b610db186610c0c565b610db184610c1c565b610dbf565b1490505f80610d8f565b5050505090565b9050610e9291925060403d604011610e9a575b610e8a8183610b28565b810190610b50565b91905f610d4f565b503d610e80565b919060206040840193736c533f7fe93fae114d0954697069df33c9b74fd781520152565b6001600160a01b039091168152602081019190915260400190565b90816020910312610113575180151581036101135790565b9192509250736c533f7fe93fae114d0954697069df33c9b74fd73303610a4157610f2f610f2882610f34936110ae565b36916110e0565b611207565b908091610f42600154610134565b610f4b81610134565b6001600160a01b03861691908203611062575b5050610f6b600154610134565b7f00000000000000000000000000000000000000000000000000000000000000006001600160a01b03169390610fa390859083611575565b801561035f57843b15610113575f60405180966340c10f1960e01b8252818381610fd1878a60048401610ec5565b03925af1918215610340577f24132e3aeb39612835bbb282392ef60ccfefa3e7d4a4f4dca3d4e86bda8445bb956110499361104e575b50611013600154610134565b604080516001600160a01b03998a16815260208101979097529088169086015260608501526080840152931692819060a0820190565b0390a2565b806103535f61105c93610b28565b5f611007565b61106f91945083866112c4565b9260018060a01b03611082600154610134565b16906040515f805160206122b48339815191523091806110a489893084611125565b0390a45f80610f5e565b903590601e198136030182121561011357018035906001600160401b0382116101135760200191813603831361011357565b9192916001600160401b038211610b4b5760405191611109601f8201601f191660200184610b28565b829481845281830111610113578281602093845f960137010152565b604091949392606082019560018060a01b0316825260208201520152565b90816020910312610113575190565b908160a0910312610113576040519060a08201906001600160401b03821183831017610b4b57608091604052803561118981610140565b8352602081013561119981610140565b60208401526040810135604084015260608101356111b681610140565b60608401520135608082015290565b634e487b7160e01b5f52601160045260245ffd5b9060c882018092116111e757565b6111c5565b90600182018092116111e757565b919082018092116111e757565b6014815103611217576014015190565b60405162461bcd60e51b815260206004820152601c60248201527b092dcecc2d8d2c840c2c8c8e4cae6e640c4f2e8cae640d8cadccee8d60231b6044820152606490fd5b908160209103126101135751610d1b81610140565b919260809361129592979695978452602084015260a0604084015260a0830190610cc8565b6001600160a01b0390951660608201520152565b5f198101919082116111e757565b919082039182116111e757565b9160405163c45a015560e01b81526020816004815f805160206122948339815191525afa908115610340575f916114e7575b506040516315ab88c960e31b8152916020836004815f805160206122948339815191525afa9182156103405784935f936114b2575b5061135b905f611339610bc4565b9687926113498a610db186610bfa565b61135686610db186610c0c565b611b09565b6001600160a01b0383811690831681149190821561149f575b50159081611496575b50611470575b50506020604051809463095ea7b360e01b8252815f816113b4875f8051602061229483398151915260048401610ec5565b03926001600160a01b03165af1908115610340576113fd935f92611453575b506113dd426111d9565b9060405194859283926338ed173960e01b84528686309260048701611270565b0381835f805160206122948339815191525af190811561034057610e03925f92611433575b5061142d90516112a9565b90610c2c565b61142d91925061144c903d805f833e610e1b8183610b28565b9190611422565b61146b9060203d6020116103395761032c8183610b28565b6113d3565b61148f919350610e4e611481610ba2565b94610e4587610db188610bfa565b5f80611383565b9050155f61137d565b6001600160a01b0388161491505f611374565b61135b9193506114d99060203d6020116114e0575b6114d18183610b28565b81019061125b565b929061132b565b503d6114c7565b611500915060203d6020116114e0576114d18183610b28565b5f6112f6565b90816020910312610113575160ff811681036101135790565b9060ff8091169116039060ff82116111e757565b60ff16604d81116111e757600a0a90565b811561154e570490565b634e487b7160e01b5f52601260045260245ffd5b818102929181159184041417156111e757565b60405163313ce56760e01b8152929091602090849060049082906001600160a01b03165afa928315610340575f9361165a575b5060405163313ce56760e01b815290602090829060049082906001600160a01b03165afa908115610340575f9161162b575b5060ff811660ff84168181145f146115f457505050905090565b10156116155761160a610d1b9361160f9261151f565b611533565b90611562565b61160a61162591610d1b9461151f565b90611544565b61164d915060203d602011611653575b6116458183610b28565b810190611506565b5f6115da565b503d61163b565b6004919350611677602091823d8411611653576116458183610b28565b9391506115a8565b5f546001600160a01b0316330361169257565b63118cdaa760e01b5f523360045260245ffd5b6040805163d9eeebed60e01b815294919391929190856004816001600160a01b0385165afa938415610340575f955f956117b5575b506116e58282610d1e565b831061172d5761171292856001600160a01b03888116908416036117175761170c916112b7565b906112c4565b929190565b90611727818961170c9486611b8c565b906112b7565b60405163240bf61760e11b815260206004820152605360248201527f54686520696e70757420616d6f756e74206973206c657373207468616e20746860448201527f65206d696e20616d6f756e7420726571756972656420746f20636f76657220746064820152726865207769746864726177206761732066656560681b608482015260a490fd5b9094506117d291955060403d604011610e9a57610e8a8183610b28565b949094935f6116da565b805180835260209291819084018484015e5f828201840152601f01601f1916010190565b919290611815906080845260808401906117dc565b92602083015260018060a01b03166040820152606081830391015260018060a01b03825116815260208201511515602082015260018060a01b036040830151166040820152608080611876606085015160a0606086015260a08501906117dc565b93015191015290565b90936001600160a01b03848116908616818103611a4b575060206118c45f926118a885886111fa565b60405194858094819363095ea7b360e01b835260048301610ea1565b03925af1908115610340575f91611a2c575b5015611a1d576119719361197f915b6119206118f185611207565b926119046118fd610b7a565b9485610c40565b6119118960208601610c40565b86604085015260608401610c40565b60808281019182526040805184516001600160a01b03908116602080840191909152860151811682840152918501516060808301919091529094015116908301525160a082015293849060c0820190565b03601f198101855284610b28565b611987610b7a565b926119923085610c40565b600160208501525f60408501526060840152624c4b406080840152736c533f7fe93fae114d0954697069df33c9b74fd73b15610113576119e85f936040519586948594637c0dcb5f60e01b865260048601611800565b038183736c533f7fe93fae114d0954697069df33c9b74fd75af1801561034057611a0f5750565b806103535f610b8993610b28565b6340b27c2160e11b5f5260045ffd5b611a45915060203d6020116103395761032c8183610b28565b5f6118d6565b906020604051809263095ea7b360e01b8252815f81611a6d8960048301610ea1565b03925af1908115610340575f91611aea575b5015611a1d576020604051809263095ea7b360e01b8252815f81611aa68a60048301610ea1565b03925af1908115610340575f91611acb575b5015611a1d576119719361197f916118e5565b611ae4915060203d6020116103395761032c8183610b28565b5f611ab8565b611b03915060203d6020116103395761032c8183610b28565b5f611a7f565b9091926002815103611b7d57805115610c075760018060a01b03602082015116815160011015610c07576040820151611b5491611b50916001600160a01b03169085611d30565b1590565b611b7557611b6f92611b6592611e08565b61142d81516112a9565b51101590565b505050505f90565b6366b045ff60e11b5f5260045ffd5b91909260405163c45a015560e01b81526020816004815f805160206122948339815191525afa908115610340575f91611d11575b506040516315ab88c960e31b81526020816004815f805160206122948339815191525afa908115610340578585915f93611cee575b50611c009293611d30565b15611cd95750611c1f611c11610bc4565b92610db685610db186610bfa565b6020604051809463095ea7b360e01b8252815f81611c4e875f8051602061229483398151915260048401610ec5565b03926001600160a01b03165af1928315610340575f93611cbc575b50611c93611c76426111d9565b604051634401edf760e11b81529586948594309260048701611270565b0381835f805160206122948339815191525af1801561034057610e03915f91610e075750610bfa565b611cd49060203d6020116103395761032c8183610b28565b611c69565b91611ce990610e4e611481610ba2565b611c1f565b611c009350611d0b9060203d6020116114e0576114d18183610b28565b92611bf5565b611d2a915060203d6020116114e0576114d18183610b28565b5f611bc0565b8282611d3b92611ee1565b90602060405180926370a0823160e01b82528180611d5c87600483016107b6565b03916001600160a01b03165afa908115610340575f91611de9575b5015159182611d8557505090565b611da992509060209160405180809581946370a0823160e01b8352600483016107b6565b03916001600160a01b03165afa908115610340575f91611dca575b50151590565b611de3915060203d602011610504576104f68183610b28565b5f611dc4565b611e02915060203d602011610504576104f68183610b28565b5f611d77565b92916002815110611ed257805191611e1f83610b8b565b92611e2d6040519485610b28565b808452611e3c601f1991610b8b565b013660208501378290611e4e84610bfa565b525f5b611e5b83516112a9565b811015611ecb5780611eb2611ea1611e85611e7860019588610c2c565b516001600160a01b031690565b611e9a611e78611e94866111ec565b89610c2c565b908a61202a565b90611eac8489610c2c565b51612108565b611ec4611ebe836111ec565b87610c2c565b5201611e51565b5093505050565b6320db826760e01b5f5260045ffd5b906001600160a01b03838116908216808214611fd1571015611fcb5791905b6001600160a01b03831615611fbc576040516001600160601b0319606094851b8116602083019081529390941b9093166034840152610d1b9261028c9261063791611fb49190611f51816048810186565b5190206040516001600160f81b03196020820190815260609590951b6001600160601b031916602182015260358101919091527f96e8ac4277198ff8b6f785478aa9a39f403cb768dd02cbee326c3e7da348845f60558201529182906075820190565b519020610134565b633c5a83ed60e11b5f5260045ffd5b90611f00565b63658f3e7f60e11b5f5260045ffd5b51906001600160701b038216820361011357565b908160609103126101135761200881611fe0565b91604061201760208401611fe0565b92015163ffffffff811681036101135790565b6001600160a01b0382811693919082168481146120f9578410156120f357825b6001600160a01b03169182156120e45761028c61028c61206f92600496606095612182565b604051630240bc6b60e21b815293849182905afa918215610340575f905f936120af575b506001600160701b0392831693921691036120ab5791565b9091565b90506120d491925060603d6060116120dd575b6120cc8183610b28565b810190611ff4565b5091905f612093565b503d6120c2565b63d92e233d60e01b5f5260045ffd5b8161204a565b630bd969eb60e41b5f5260045ffd5b9190918015612173578215801561216b575b61215c5761213461212d61213a926121de565b9283612243565b9261221c565b90810190811061214d57610d1b91611544565b63a259879560e01b5f5260045ffd5b63bb55fd2760e01b5f5260045ffd5b50811561211a565b63098fb56160e01b5f5260045ffd5b60405163e6a4390560e01b81526001600160a01b039283166004820152928216602484015260209183916044918391165afa908115610340575f916121c5575090565b610d1b915060203d6020116114e0576114d18183610b28565b5f908015908115612202575b50156121f35790565b632bcb93b560e11b5f5260045ffd5b9150506103e56122158183029283611544565b145f6121ea565b5f9080159081156122305750156121f35790565b9150506103e86122158183029283611544565b905f91801591821561225a575b5050156121f35790565b8082029350915061226b9083611544565b145f8061225056fe35f6d962f68d9953d52d9fcc8f41291affc5b94c86f698d18649e5ed1ad9b71c0000000000000000000000002ca7d64a7efe2d62a725e2b35cf7230d6677ffee782d2b6f5d2967549af971556c413c54ebc0ee64511fe01280ae124e67fc4dac8be0079c531659141344cd1fd0a4f28419497f9722a3daafe3b4186f6b6457e0a264697066735822122058c70c34f7815e767f1c3994c1292b111ccd4a49ce480f987abfb21d4d1f375864736f6c634300081a003360806040523461038157610c616020813803918261001c81610385565b93849283398101031261038157516001600160a01b03811690819003610381576100466040610385565b9060068252652aaa37b5b2b760d11b60208301526100646040610385565b600381526255544b60e81b602082015282519091906001600160401b03811161029257600354600181811c91168015610377575b602082101461027457601f8111610314575b506020601f82116001146102b157819293945f926102a6575b50508160011b915f199060031b1c1916176003555b81516001600160401b03811161029257600454600181811c91168015610288575b602082101461027457601f8111610211575b50602092601f82116001146101b057928192935f926101a5575b50508160011b915f199060031b1c1916176004555b801561019257600580546001600160a01b03198116831790915560405191906001600160a01b03167f8be0079c531659141344cd1fd0a4f28419497f9722a3daafe3b4186f6b6457e05f80a36108b690816103ab8239f35b631e4fbdf760e01b5f525f60045260245ffd5b015190505f80610125565b601f1982169360045f52805f20915f5b8681106101f957508360019596106101e1575b505050811b0160045561013a565b01515f1960f88460031b161c191690555f80806101d3565b919260206001819286850151815501940192016101c0565b60045f527f8a35acfbc15ff81a39ae7d344fd709f28e8600b4aa8c65c6b64bfe7fe36bd19b601f830160051c8101916020841061026a575b601f0160051c01905b81811061025f575061010b565b5f8155600101610252565b9091508190610249565b634e487b7160e01b5f52602260045260245ffd5b90607f16906100f9565b634e487b7160e01b5f52604160045260245ffd5b015190505f806100c3565b601f1982169060035f52805f20915f5b8181106102fc575095836001959697106102e4575b505050811b016003556100d8565b01515f1960f88460031b161c191690555f80806102d6565b9192602060018192868b0151815501940192016102c1565b60035f527fc2575a0e9e593c00f959f8c92f12db2869c3395a3b0502d05e2516446f71f85b601f830160051c8101916020841061036d575b601f0160051c01905b81811061036257506100aa565b5f8155600101610355565b909150819061034c565b90607f1690610098565b5f80fd5b6040519190601f01601f191682016001600160401b038111838210176102925760405256fe6080806040526004361015610012575f80fd5b5f3560e01c90816306fdde03146105d057508063095ea7b31461052857806318160ddd1461050b57806323b872dd146104d3578063313ce567146104b857806340c10f191461041f57806370a08231146103e8578063715018a6146103a05780638da5cb5b1461037857806395d89b411461025d5780639dc29fac146101ae578063a9059cbb1461017d578063dd62ed3e1461012d5763f2fde38b146100b6575f80fd5b34610129576020366003190112610129576100cf6106c9565b6100d7610819565b6001600160a01b0316801561011657600580546001600160a01b0319811683179091556001600160a01b03165f805160206108418339815191525f80a3005b631e4fbdf760e01b5f525f60045260245ffd5b5f80fd5b34610129576040366003190112610129576101466106c9565b61014e6106df565b6001600160a01b039182165f908152600160209081526040808320949093168252928352819020549051908152f35b34610129576040366003190112610129576101a36101996106c9565b6024359033610795565b602060405160018152f35b34610129576040366003190112610129576101c76106c9565b602435906101d3610819565b6101de8233836106f5565b6001600160a01b0316801561024a57805f525f60205260405f2054828110610231576020835f945f80516020610861833981519152938587528684520360408620558060025403600255604051908152a3005b9063391434e360e21b5f5260045260245260445260645ffd5b634b637e8f60e11b5f525f60045260245ffd5b34610129575f366003190112610129576040515f6004548060011c9060018116801561036e575b60208310811461035a5782855290811561033e57506001146102e8575b50819003601f01601f19168101906001600160401b038211818310176102d4576102d08291826040528261069f565b0390f35b634e487b7160e01b5f52604160045260245ffd5b60045f9081529091507f8a35acfbc15ff81a39ae7d344fd709f28e8600b4aa8c65c6b64bfe7fe36bd19b5b828210610328575060209150820101826102a1565b6001816020925483858801015201910190610313565b90506020925060ff191682840152151560051b820101826102a1565b634e487b7160e01b5f52602260045260245ffd5b91607f1691610284565b34610129575f366003190112610129576005546040516001600160a01b039091168152602090f35b34610129575f366003190112610129576103b8610819565b600580546001600160a01b031981169091555f906001600160a01b03165f805160206108418339815191528280a3005b34610129576020366003190112610129576001600160a01b036104096106c9565b165f525f602052602060405f2054604051908152f35b34610129576040366003190112610129576104386106c9565b60243590610444610819565b6001600160a01b03169081156104a557600254908082018092116104915760205f80516020610861833981519152915f9360025584845283825260408420818154019055604051908152a3005b634e487b7160e01b5f52601160045260245ffd5b63ec442f0560e01b5f525f60045260245ffd5b34610129575f36600319011261012957602060405160128152f35b34610129576060366003190112610129576101a36104ef6106c9565b6104f76106df565b604435916105068333836106f5565b610795565b34610129575f366003190112610129576020600254604051908152f35b34610129576040366003190112610129576105416106c9565b6024359033156105bd576001600160a01b03169081156105aa57335f52600160205260405f20825f526020528060405f20556040519081527f8c5be1e5ebec7d5bd14f71427d1e84f3dd0314c0f7b2291e5b200ac8c7c3b92560203392a3602060405160018152f35b634a1406b160e11b5f525f60045260245ffd5b63e602df0560e01b5f525f60045260245ffd5b34610129575f366003190112610129575f6003548060011c90600181168015610695575b60208310811461035a5782855290811561033e575060011461063f5750819003601f01601f19168101906001600160401b038211818310176102d4576102d08291826040528261069f565b60035f9081529091507fc2575a0e9e593c00f959f8c92f12db2869c3395a3b0502d05e2516446f71f85b5b82821061067f575060209150820101826102a1565b600181602092548385880101520191019061066a565b91607f16916105f4565b602060409281835280519182918282860152018484015e5f828201840152601f01601f1916010190565b600435906001600160a01b038216820361012957565b602435906001600160a01b038216820361012957565b6001600160a01b039081165f818152600160208181526040808420958716845294905292902054939291840161072c575b50505050565b8284106107725780156105bd576001600160a01b038216156105aa575f52600160205260405f209060018060a01b03165f5260205260405f20910390555f808080610726565b508290637dc7a0d960e11b5f5260018060a01b031660045260245260445260645ffd5b6001600160a01b031690811561024a576001600160a01b03169182156104a557815f525f60205260405f205481811061080057815f8051602061086183398151915292602092855f525f84520360405f2055845f525f825260405f20818154019055604051908152a3565b8263391434e360e21b5f5260045260245260445260645ffd5b6005546001600160a01b0316330361082d57565b63118cdaa760e01b5f523360045260245ffdfe8be0079c531659141344cd1fd0a4f28419497f9722a3daafe3b4186f6b6457e0ddf252ad1be2c89b69c2b068fc378daa952ba7f163c4a11628f55a4df523b3efa26469706673582212200d952041aa45dc692c4895355b4d4b0f32dbc09b8545d0bf0fa36544968b659d64736f6c634300081a0033",
  "linkReferences": {},
  "deployedLinkReferences": {}
}