{
  "_format": "hh-sol-artifact-1",
  "contractName": "UniversalTokenSale",
  "sourceName": "contracts/test/UniversalTokenSale.sol",
  "abi": [
    {
      "inputs": [],
      "stateMutability": "nonpayable",
      "type": "constructor"
    },
    {
      "inputs": [],
      "name": "AdditionsOverflow",
      "type": "error"
    },
    {
      "inputs": [],
      "name": "ApprovalFailed",
      "type": "error"
    },
    {
      "inputs": [],
      "name": "CantBeIdenticalAddresses",
      "type": "error"
    },
    {
      "inputs": [],
      "name": "CantBeZeroAddress",
      "type": "error"
    },
    {
      "inputs": [],
      "name": "IdenticalAddresses",
      "type": "error"
    },
    {
      "inputs": [
        {
          "internalType": "string",
          "name": "message",
          "type": "string"
        }
      ],
      "name": "InsufficientAmount",
      "type": "error"
    },
    {
      "inputs": [],
      "name": "InsufficientInputAmount",
      "type": "error"
    },
    {
      "inputs": [],
      "name": "InsufficientLiquidity",
      "type": "error"
    },
    {
      "inputs": [
        {
          "internalType": "uint256",
          "name": "amount",
          "type": "uint256"
        }
      ],
      "name": "InvalidAmount",
      "type": "error"
    },
    {
      "inputs": [],
      "name": "InvalidPath",
      "type": "error"
    },
    {
      "inputs": [],
      "name": "InvalidPathLength",
      "type": "error"
    },
    {
      "inputs": [],
      "name": "MultiplicationsOverflow",
      "type": "error"
    },
    {
      "inputs": [
        {
          "internalType": "address",
          "name": "owner",
          "type": "address"
        }
      ],
      "name": "OwnableInvalidOwner",
      "type": "error"
    },
    {
      "inputs": [
        {
          "internalType": "address",
          "name": "account",
          "type": "address"
        }
      ],
      "name": "OwnableUnauthorizedAccount",
      "type": "error"
    },
    {
      "inputs": [],
      "name": "Unauthorized",
      "type": "error"
    },
    {
      "inputs": [],
      "name": "ZeroAddress",
      "type": "error"
    },
    {
      "anonymous": false,
      "inputs": [
        {
          "indexed": true,
          "internalType": "address",
          "name": "buyer",
          "type": "address"
        },
        {
          "indexed": false,
          "internalType": "address",
          "name": "externalPaymentToken",
          "type": "address"
        },
        {
          "indexed": false,
          "internalType": "uint256",
          "name": "externalPaymentAmount",
          "type": "uint256"
        },
        {
          "indexed": false,
          "internalType": "address",
          "name": "paymentToken",
          "type": "address"
        },
        {
          "indexed": false,
          "internalType": "uint256",
          "name": "paymentAmount",
          "type": "uint256"
        },
        {
          "indexed": false,
          "internalType": "uint256",
          "name": "uTokenAmount",
          "type": "uint256"
        }
      ],
      "name": "BuyUToken",
      "type": "event"
    },
    {
      "anonymous": false,
      "inputs": [
        {
          "indexed": true,
          "internalType": "address",
          "name": "previousOwner",
          "type": "address"
        },
        {
          "indexed": true,
          "internalType": "address",
          "name": "newOwner",
          "type": "address"
        }
      ],
      "name": "OwnershipTransferred",
      "type": "event"
    },
    {
      "anonymous": false,
      "inputs": [
        {
          "indexed": true,
          "internalType": "address",
          "name": "seller",
          "type": "address"
        },
        {
          "indexed": false,
          "internalType": "uint256",
          "name": "uTokenAmount",
          "type": "uint256"
        },
        {
          "indexed": false,
          "internalType": "address",
          "name": "targetToken",
          "type": "address"
        },
        {
          "indexed": false,
          "internalType": "uint256",
          "name": "outputAmount",
          "type": "uint256"
        },
        {
          "indexed": false,
          "internalType": "uint256",
          "name": "gasFee",
          "type": "uint256"
        }
      ],
      "name": "SaleUToken",
      "type": "event"
    },
    {
      "anonymous": false,
      "inputs": [
        {
          "indexed": false,
          "internalType": "address",
          "name": "sender",
          "type": "address"
        },
        {
          "indexed": true,
          "internalType": "address",
          "name": "recipient",
          "type": "address"
        },
        {
          "indexed": true,
          "internalType": "address",
          "name": "inputToken",
          "type": "address"
        },
        {
          "indexed": true,
          "internalType": "address",
          "name": "targetToken",
          "type": "address"
        },
        {
          "indexed": false,
          "internalType": "uint256",
          "name": "inputAmount",
          "type": "uint256"
        },
        {
          "indexed": false,
          "internalType": "uint256",
          "name": "outputAmount",
          "type": "uint256"
        }
      ],
      "name": "TokenSwap",
      "type": "event"
    },
    {
      "inputs": [],
      "name": "GAS_LIMIT",
      "outputs": [
        {
          "internalType": "uint256",
          "name": "",
          "type": "uint256"
        }
      ],
      "stateMutability": "view",
      "type": "function"
    },
    {
      "inputs": [],
      "name": "GATEWAY",
      "outputs": [
        {
          "internalType": "contract IGatewayZEVM",
          "name": "",
          "type": "address"
        }
      ],
      "stateMutability": "view",
      "type": "function"
    },
    {
      "inputs": [],
      "name": "UNDERLYING_TOKEN",
      "outputs": [
        {
          "internalType": "contract UToken",
          "name": "",
          "type": "address"
        }
      ],
      "stateMutability": "view",
      "type": "function"
    },
    {
      "inputs": [],
      "name": "UNISWAP_ROUTER",
      "outputs": [
        {
          "internalType": "address",
          "name": "",
          "type": "address"
        }
      ],
      "stateMutability": "view",
      "type": "function"
    },
    {
      "inputs": [],
      "name": "WZeta",
      "outputs": [
        {
          "internalType": "address",
          "name": "",
          "type": "address"
        }
      ],
      "stateMutability": "view",
      "type": "function"
    },
    {
      "inputs": [
        {
          "components": [
            {
              "internalType": "bytes",
              "name": "sender",
              "type": "bytes"
            },
            {
              "internalType": "address",
              "name": "senderEVM",
              "type": "address"
            },
            {
              "internalType": "uint256",
              "name": "chainID",
              "type": "uint256"
            }
          ],
          "internalType": "struct MessageContext",
          "name": "context",
          "type": "tuple"
        },
        {
          "internalType": "address",
          "name": "zrc20",
          "type": "address"
        },
        {
          "internalType": "uint256",
          "name": "amount",
          "type": "uint256"
        },
        {
          "internalType": "bytes",
          "name": "",
          "type": "bytes"
        }
      ],
      "name": "onCall",
      "outputs": [],
      "stateMutability": "nonpayable",
      "type": "function"
    },
    {
      "inputs": [
        {
          "components": [
            {
              "internalType": "address",
              "name": "sender",
              "type": "address"
            },
            {
              "internalType": "address",
              "name": "asset",
              "type": "address"
            },
            {
              "internalType": "uint256",
              "name": "amount",
              "type": "uint256"
            },
            {
              "internalType": "bytes",
              "name": "revertMessage",
              "type": "bytes"
            }
          ],
          "internalType": "struct RevertContext",
          "name": "context",
          "type": "tuple"
        }
      ],
      "name": "onRevert",
      "outputs": [],
      "stateMutability": "nonpayable",
      "type": "function"
    },
    {
      "inputs": [],
      "name": "owner",
      "outputs": [
        {
          "internalType": "address",
          "name": "",
          "type": "address"
        }
      ],
      "stateMutability": "view",
      "type": "function"
    },
    {
      "inputs": [
        {
          "internalType": "address",
          "name": "inputToken",
          "type": "address"
        },
        {
          "internalType": "address",
          "name": "targetToken",
          "type": "address"
        }
      ],
      "name": "quoteMinInput",
      "outputs": [
        {
          "internalType": "uint256",
          "name": "",
          "type": "uint256"
        }
      ],
      "stateMutability": "view",
      "type": "function"
    },
    {
      "inputs": [],
      "name": "renounceOwnership",
      "outputs": [],
      "stateMutability": "nonpayable",
      "type": "function"
    },
    {
      "inputs": [
        {
          "internalType": "uint256",
          "name": "amount",
          "type": "uint256"
        }
      ],
      "name": "saleUToken",
      "outputs": [],
      "stateMutability": "nonpayable",
      "type": "function"
    },
    {
      "inputs": [
        {
          "internalType": "uint256",
          "name": "amount",
          "type": "uint256"
        },
        {
          "internalType": "address",
          "name": "targetToken",
          "type": "address"
        }
      ],
      "name": "saleUToken",
      "outputs": [],
      "stateMutability": "nonpayable",
      "type": "function"
    },
    {
      "inputs": [
        {
          "internalType": "address",
          "name": "recipient",
          "type": "address"
        },
        {
          "internalType": "contract IZRC20",
          "name": "token",
          "type": "address"
        },
        {
          "internalType": "uint256",
          "name": "amount",
          "type": "uint256"
        }
      ],
      "name": "sweep",
      "outputs": [],
      "stateMutability": "nonpayable",
      "type": "function"
    },
    {
      "inputs": [
        {
          "internalType": "address",
          "name": "recipient",
          "type": "address"
        },
        {
          "internalType": "contract IZRC20",
          "name": "token",
          "type": "address"
        }
      ],
      "name": "sweepAll",
      "outputs": [],
      "stateMutability": "nonpayable",
      "type": "function"
    },
    {
      "inputs": [
        {
          "internalType": "address",
          "name": "newOwner",
          "type": "address"
        }
      ],
      "name": "transferOwnership",
      "outputs": [],
      "stateMutability": "nonpayable",
      "type": "function"
    }
  ],
  "bytecode": "0x60a080604052346101bb5733156101a55760008054336001600160a01b0319821681178355916001600160a01b03909116907f8be0079c531659141344cd1fd0a4f28419497f9722a3daafe3b4186f6b6457e09080a3610cdc818101906001600160401b0382118383101761018f57602091839161259083393081520301906000f08015610183576080526040516315ab88c960e31b8152602081600481732ca7d64a7efe2d62a725e2b35cf7230d6677ffee5afa90811561018357600091610111575b50600180546001600160a01b0319166001600160a01b03929092169190911790556040516123cf90816101c182396080518181816101a901528181610223015281816105460152610fa80152f35b60203d60201161017c575b601f8101601f191682016001600160401b03811183821017610168576020918391604052810103126101645751906001600160a01b03821682036101615750386100c3565b80fd5b5080fd5b634e487b7160e01b84526041600452602484fd5b503d61011c565b6040513d6000823e3d90fd5b634e487b7160e01b600052604160045260246000fd5b631e4fbdf760e01b600052600060045260246000fd5b600080fdfe6080604052600436101561001257600080fd5b60003560e01c8063091d2788146101075780631b3614b81461010257806329db1be6146100fd578063338c5371146100f85780634fde5c26146100f35780635bcfd616146100ee57806362c06767146100e957806363c1fdf5146100e45780636dc8d1fb146100df578063715018a6146100da5780638da5cb5b146100d5578063c9028a36146100d0578063d8264920146100cb578063f2fde38b146100c65763f7c0d791146100c157600080fd5b610b1a565b610a9f565b610a76565b610812565b6107e9565b61078f565b6106d0565b61051e565b61040e565b610380565b610207565b6101d8565b610193565b610157565b61011c565b600091031261011757565b600080fd5b34610117576000366003190112610117576020604051624c4b408152f35b6001600160a01b031690565b6001600160a01b0381160361011757565b3461011757604036600319011261011757602061018b60043561017981610146565b6024359061018682610146565b610d53565b604051908152f35b34610117576000366003190112610117576040517f00000000000000000000000000000000000000000000000000000000000000006001600160a01b03168152602090f35b34610117576000366003190112610117576020604051736c533f7fe93fae114d0954697069df33c9b74fd78152f35b3461011757602036600319011261011757600435801561036c577f00000000000000000000000000000000000000000000000000000000000000006001600160a01b0316803b156101175760006040518092632770a7eb60e21b8252818381610274883360048401610f00565b03925af1801561034c57610351575b5061029a61029561029560015461013a565b61013a565b6020604051809263a9059cbb60e01b8252816000816102bd883360048401610f00565b03925af1801561034c5761031f575b5060008051602061231a83398151915261031a6102ea60015461013a565b604080518581526001600160a01b0390921660208301528101939093526000606084015233929081906080820190565b0390a2005b6103409060203d602011610345575b6103388183610b59565b810190610f1b565b6102cc565b503d61032e565b610ba0565b80610360600061036693610b59565b8061010c565b38610283565b633728b83d60e01b60005260045260246000fd5b34610117576080366003190112610117576004356001600160401b0381116101175760606003198236030112610117576024356103bc81610146565b606435916044356001600160401b0384116101175736602385011215610117576004840135926001600160401b03841161011757366024858701011161011757602461040c950192600401610f33565b005b346101175760603660031901126101175760043561042b81610146565b6024359061043882610146565b604435916104446116d1565b6040516370a0823160e01b81526001600160a01b039190911691906020818061047030600483016107d6565b0381865afa90811561034c576000916104ef575b5083116104d957916020916104b193600060405180968195829463a9059cbb60e01b845260048401610f00565b03925af1801561034c576104c157005b61040c9060203d602011610345576103388183610b59565b633728b83d60e01b600052600483905260246000fd5b610511915060203d602011610517575b6105098183610b59565b810190611182565b38610484565b503d6104ff565b346101175760403660031901126101175760043560243561053e81610146565b81156106ba577f00000000000000000000000000000000000000000000000000000000000000006001600160a01b0316803b156101175760006040518092632770a7eb60e21b8252818381610597893360048401610f00565b03925af1801561034c576106a5575b506105bc81836105b760015461013a565b6116fa565b9060018060a09594951b036105d260015461013a565b6040516001600160a01b0386169290911690309060008051602061235a83398151915290806106038a8c8684611164565b0390a4831561068f576040513360601b6001600160601b031916602082015260008051602061231a83398151915294939261031a9290916106609183918790879061065b81603481015b03601f198101835282610b59565b6118f3565b604080519687526001600160a01b03909316602087015291850192909252606084015233929081906080820190565b633728b83d60e01b600052600484905260246000fd5b8061036060006106b493610b59565b386105a6565b633728b83d60e01b600052600482905260246000fd5b34610117576040366003190112610117576004356106ed81610146565b6024356106f981610146565b6107016116d1565b6040516370a0823160e01b8152916001600160a01b0391909116906020838061072d30600483016107d6565b0381855afa92831561034c5760009361076e575b5082156104d957916020916104b193600060405180968195829463a9059cbb60e01b845260048401610f00565b61078891935060203d602011610517576105098183610b59565b9138610741565b34610117576000366003190112610117576107a86116d1565b600080546001600160a01b0319811682556001600160a01b031660008051602061237a8339815191528280a3005b6001600160a01b03909116815260200190565b34610117576000366003190112610117576000546040516001600160a01b039091168152602090f35b34610117576020366003190112610117576004356001600160401b038111610117576080600319823603011261011757736c533f7fe93fae114d0954697069df33c9b74fd73303610a66576108718160646108799301906004016110ec565b810190611191565b610883815161013a565b6020820191610892835161013a565b60608201906108a4610295835161013a565b6001600160a01b0382160361097457505080604060806108c99301519101519061123b565b6108d9610295610295855161013a565b91602060405180946370a0823160e01b825281806108fa30600483016107d6565b03915afa93841561034c576104b194602094600091610957575b5083811061094d575b5061029561029561092e925161013a565b90600060405180968195829463a9059cbb60e01b845260048401610f00565b925061029561091d565b61096e9150853d8711610517576105098183610b59565b38610914565b61098861029560408594979501519261013a565b602060405180926370a0823160e01b825281806109a830600483016107d6565b03915afa91821561034c576000946020936109fc938791610a49575b50828110610a3f575b506102956102956109de925161013a565b9060405195868094819363a9059cbb60e01b83528a60048401610f00565b03925af191821561034c57608092610a22575b5001516108d9610295610295855161013a565b610a3a9060203d602011610345576103388183610b59565b610a0f565b91506102956109cd565b610a609150853d8711610517576105098183610b59565b386109c4565b6282b42960e81b60005260046000fd5b3461011757600036600319011261011757602060405160008051602061233a8339815191528152f35b3461011757602036600319011261011757600435610abc81610146565b610ac46116d1565b6001600160a01b03168015610b0457600080546001600160a01b03198116831782556001600160a01b03169060008051602061237a8339815191529080a3005b631e4fbdf760e01b600052600060045260246000fd5b34610117576000366003190112610117576001546040516001600160a01b039091168152602090f35b634e487b7160e01b600052604160045260246000fd5b601f909101601f19168101906001600160401b03821190821017610b7c57604052565b610b43565b91908260409103126101175760208251610b9a81610146565b92015190565b6040513d6000823e3d90fd5b60405190610bbb60a083610b59565b565b6001600160401b038111610b7c5760051b60200190565b60405160809190610be58382610b59565b6003815291601f1901366020840137565b60405160609190610c078382610b59565b6002815291601f1901366020840137565b634e487b7160e01b600052603260045260246000fd5b805115610c3b5760200190565b610c18565b805160011015610c3b5760400190565b805160021015610c3b5760600190565b8051821015610c3b5760209160051b010190565b6001600160a01b039091169052565b602081830312610117578051906001600160401b03821161011757019080601f83011215610117578151610cb681610bbd565b92610cc46040519485610b59565b81845260208085019260051b82010192831161011757602001905b828210610cec5750505090565b8151815260209182019101610cdf565b906020808351928381520192019060005b818110610d1a5750505090565b82516001600160a01b0316845260209384019390920191600101610d0d565b604090610d50939281528160208201520190610cfc565b90565b6040805163d9eeebed60e01b815292839060049082906001600160a01b03165afa91821561034c57600090600093610ea8575b506001600160a01b0382811691908116828114610ea15791610e12949160009493610db260015461013a565b92610dbc8461013a565b809114918215610e97575b50508514610e6457610df79150610dee610ddf610bf6565b94610de986610c2e565b610c74565b610de984610c40565b6040516307c0329d60e21b8152938492839260048401610d39565b038160008051602061233a8339815191525afa801561034c57610e3d91600091610e41575b50610c2e565b5190565b610e5e91503d806000833e610e568183610b59565b810190610c83565b38610e37565b610e89610e9292610e80610e76610bd4565b96610de988610c2e565b610de986610c40565b610de984610c50565b610df7565b1490503880610dc7565b5050505090565b9050610ecd91925060403d604011610ed5575b610ec58183610b59565b810190610b81565b919038610d86565b503d610ebb565b919060206040840193736c533f7fe93fae114d0954697069df33c9b74fd781520152565b6001600160a01b039091168152602081019190915260400190565b90816020910312610117575180151581036101175790565b9192509250736c533f7fe93fae114d0954697069df33c9b74fd73303610a6657610f6a610f6382610f6f936110ec565b369161111e565b611248565b908091610f7d60015461013a565b610f868161013a565b6001600160a01b0386169190820361109f575b5050610fa660015461013a565b7f00000000000000000000000000000000000000000000000000000000000000006001600160a01b03169390610fde908590836115c4565b801561036c57843b1561011757600060405180966340c10f1960e01b825281838161100d878a60048401610f00565b03925af191821561034c577f24132e3aeb39612835bbb282392ef60ccfefa3e7d4a4f4dca3d4e86bda8445bb956110859361108a575b5061104f60015461013a565b604080516001600160a01b03998a16815260208101979097529088169086015260608501526080840152931692819060a0820190565b0390a2565b80610360600061109993610b59565b38611043565b6110ac9194508386611306565b9260018060a01b036110bf60015461013a565b169060405160008051602061235a8339815191523091806110e289893084611164565b0390a43880610f99565b903590601e198136030182121561011757018035906001600160401b0382116101175760200191813603831361011757565b9192916001600160401b038211610b7c5760405191611147601f8201601f191660200184610b59565b829481845281830111610117578281602093846000960137010152565b604091949392606082019560018060a01b0316825260208201520152565b90816020910312610117575190565b908160a0910312610117576040519060a08201906001600160401b03821183831017610b7c5760809160405280356111c881610146565b835260208101356111d881610146565b60208401526040810135604084015260608101356111f581610146565b60608401520135608082015290565b634e487b7160e01b600052601160045260246000fd5b9060c8820180921161122857565b611204565b906001820180921161122857565b9190820180921161122857565b6014815103611258576014015190565b60405162461bcd60e51b815260206004820152601c60248201527b092dcecc2d8d2c840c2c8c8e4cae6e640c4f2e8cae640d8cadccee8d60231b6044820152606490fd5b908160209103126101175751610d5081610146565b91926080936112d692979695978452602084015260a0604084015260a0830190610cfc565b6001600160a01b0390951660608201520152565b60001981019190821161122857565b9190820391821161122857565b9160405163c45a015560e01b815260208160048160008051602061233a8339815191525afa90811561034c57600091611534575b506040516315ab88c960e31b81529160208360048160008051602061233a8339815191525afa91821561034c5784936000936114ff575b506113a2906000611380610bf6565b9687926113908a610de986610c2e565b61139d86610de986610c40565b611b88565b6001600160a01b038381169083168114919082156114ec575b501590816114e3575b506114bd575b50506020604051809463095ea7b360e01b8252816000816113fd8760008051602061233a83398151915260048401610f00565b03926001600160a01b03165af190811561034c57611447936000926114a0575b506114274261121a565b9060405194859283926338ed173960e01b845286863092600487016112b1565b03818360008051602061233a8339815191525af190811561034c57610e3d9260009261147f575b5061147990516112ea565b90610c60565b611479919250611499903d806000833e610e568183610b59565b919061146e565b6114b89060203d602011610345576103388183610b59565b61141d565b6114dc919350610e896114ce610bd4565b94610e8087610de988610c2e565b38806113ca565b905015386113c4565b6001600160a01b038816149150386113bb565b6113a29193506115269060203d60201161152d575b61151e8183610b59565b81019061129c565b9290611371565b503d611514565b61154d915060203d60201161152d5761151e8183610b59565b3861133a565b90816020910312610117575160ff811681036101175790565b9060ff8091169116039060ff821161122857565b60ff16604d811161122857600a0a90565b811561159b570490565b634e487b7160e01b600052601260045260246000fd5b8181029291811591840414171561122857565b60405163313ce56760e01b8152929091602090849060049082906001600160a01b03165afa92831561034c576000936116ac575b5060405163313ce56760e01b815290602090829060049082906001600160a01b03165afa90811561034c5760009161167d575b5060ff811660ff841681811460001461164657505050905090565b10156116675761165c610d50936116619261156c565b611580565b906115b1565b61165c61167791610d509461156c565b90611591565b61169f915060203d6020116116a5575b6116978183610b59565b810190611553565b3861162b565b503d61168d565b60049193506116c9602091823d84116116a5576116978183610b59565b9391506115f8565b6000546001600160a01b031633036116e557565b63118cdaa760e01b6000523360045260246000fd5b6040805163d9eeebed60e01b815294919391929190856004816001600160a01b0385165afa93841561034c5760009560009561180c575b5061173c8282610d53565b83106117845761176992856001600160a01b038881169084160361176e57611763916112f9565b90611306565b929190565b9061177e81896117639486611c0e565b906112f9565b60405163240bf61760e11b815260206004820152605360248201527f54686520696e70757420616d6f756e74206973206c657373207468616e20746860448201527f65206d696e20616d6f756e7420726571756972656420746f20636f76657220746064820152726865207769746864726177206761732066656560681b608482015260a490fd5b90945061182991955060403d604011610ed557610ec58183610b59565b9490949338611731565b919082519283825260005b84811061185f575050826000602080949584010152601f8019910116010190565b8060208092840101518282860101520161183e565b91929061188990608084526080840190611833565b92602083015260018060a01b03166040820152606081830391015260018060a01b03825116815260208201511515602082015260018060a01b0360408301511660408201526080806118ea606085015160a0606086015260a0850190611833565b93015191015290565b90936001600160a01b03848116908616818103611ac65750602061193960009261191d858861123b565b60405194858094819363095ea7b360e01b835260048301610edc565b03925af190811561034c57600091611aa7575b5015611a96576119e7936119f5915b61199661196785611248565b9261197a611973610bac565b9485610c74565b6119878960208601610c74565b86604085015260608401610c74565b60808281019182526040805184516001600160a01b03908116602080840191909152860151811682840152918501516060808301919091529094015116908301525160a082015293849060c0820190565b03601f198101855284610b59565b6119fd610bac565b92611a083085610c74565b60016020850152600060408501526060840152624c4b406080840152736c533f7fe93fae114d0954697069df33c9b74fd73b1561011757611a606000936040519586948594637c0dcb5f60e01b865260048601611874565b038183736c533f7fe93fae114d0954697069df33c9b74fd75af1801561034c57611a875750565b806103606000610bbb93610b59565b6340b27c2160e11b60005260046000fd5b611ac0915060203d602011610345576103388183610b59565b3861194c565b906020604051809263095ea7b360e01b825281600081611ae98960048301610edc565b03925af190811561034c57600091611b69575b5015611a96576020604051809263095ea7b360e01b825281600081611b248a60048301610edc565b03925af190811561034c57600091611b4a575b5015611a96576119e7936119f59161195b565b611b63915060203d602011610345576103388183610b59565b38611b37565b611b82915060203d602011610345576103388183610b59565b38611afc565b9091926002815103611bfd57805115610c3b5760018060a01b03602082015116815160011015610c3b576040820151611bd391611bcf916001600160a01b03169085611dbb565b1590565b611bf457611bee92611be492611e95565b61147981516112ea565b51101590565b50505050600090565b6366b045ff60e11b60005260046000fd5b91909260405163c45a015560e01b815260208160048160008051602061233a8339815191525afa90811561034c57600091611d9c575b506040516315ab88c960e31b815260208160048160008051602061233a8339815191525afa90811561034c57858591600093611d79575b50611c869293611dbb565b15611d645750611ca5611c97610bf6565b92610dee85610de986610c2e565b6020604051809463095ea7b360e01b825281600081611cd68760008051602061233a83398151915260048401610f00565b03926001600160a01b03165af192831561034c57600093611d47575b50611d1c611cff4261121a565b604051634401edf760e11b815295869485943092600487016112b1565b03818360008051602061233a8339815191525af1801561034c57610e3d91600091610e415750610c2e565b611d5f9060203d602011610345576103388183610b59565b611cf2565b91611d7490610e896114ce610bd4565b611ca5565b611c869350611d969060203d60201161152d5761151e8183610b59565b92611c7b565b611db5915060203d60201161152d5761151e8183610b59565b38611c44565b8282611dc692611f71565b90602060405180926370a0823160e01b82528180611de787600483016107d6565b03916001600160a01b03165afa90811561034c57600091611e76575b5015159182611e1157505090565b611e3592509060209160405180809581946370a0823160e01b8352600483016107d6565b03916001600160a01b03165afa90811561034c57600091611e57575b50151590565b611e70915060203d602011610517576105098183610b59565b38611e51565b611e8f915060203d602011610517576105098183610b59565b38611e03565b92916002815110611f6057805191611eac83610bbd565b92611eba6040519485610b59565b808452611ec9601f1991610bbd565b013660208501378290611edb84610c2e565b5260005b611ee983516112ea565b811015611f595780611f40611f2f611f13611f0660019588610c60565b516001600160a01b031690565b611f28611f06611f228661122d565b89610c60565b908a6120be565b90611f3a8489610c60565b516121a2565b611f52611f4c8361122d565b87610c60565b5201611edf565b5093505050565b6320db826760e01b60005260046000fd5b906001600160a01b0383811690821680821461206357101561205d5791905b6001600160a01b0383161561204c576040516001600160601b0319606094851b8116602083019081529390941b9093166034840152610d50926102959261064d916120449190611fe1816048810186565b5190206040516001600160f81b03196020820190815260609590951b6001600160601b031916602182015260358101919091527f96e8ac4277198ff8b6f785478aa9a39f403cb768dd02cbee326c3e7da348845f60558201529182906075820190565b51902061013a565b633c5a83ed60e11b60005260046000fd5b90611f90565b63658f3e7f60e11b60005260046000fd5b51906001600160701b038216820361011757565b908160609103126101175761209c81612074565b9160406120ab60208401612074565b92015163ffffffff811681036101175790565b6001600160a01b0382811693919082168481146121915784101561218b57825b6001600160a01b031691821561217a5761029561029561210392600496606095612222565b604051630240bc6b60e21b815293849182905afa91821561034c57600090600093612145575b506001600160701b0392831693921691036121415791565b9091565b905061216a91925060603d606011612173575b6121628183610b59565b810190612088565b50919038612129565b503d612158565b63d92e233d60e01b60005260046000fd5b816120de565b630bd969eb60e41b60005260046000fd5b91909180156122115782158015612209575b6121f8576121ce6121c76121d49261227f565b92836122e8565b926122c0565b9081019081106121e757610d5091611591565b63a259879560e01b60005260046000fd5b63bb55fd2760e01b60005260046000fd5b5081156121b4565b63098fb56160e01b60005260046000fd5b60405163e6a4390560e01b81526001600160a01b039283166004820152928216602484015260209183916044918391165afa90811561034c57600091612266575090565b610d50915060203d60201161152d5761151e8183610b59565b60009080159081156122a6575b50156122955790565b632bcb93b560e11b60005260046000fd5b9150506103e56122b98183029283611591565b143861228c565b60009080159081156122d55750156122955790565b9150506103e86122b98183029283611591565b906000918015918215612300575b5050156122955790565b808202935091506123119083611591565b1438806122f656fe35f6d962f68d9953d52d9fcc8f41291affc5b94c86f698d18649e5ed1ad9b71c0000000000000000000000002ca7d64a7efe2d62a725e2b35cf7230d6677ffee782d2b6f5d2967549af971556c413c54ebc0ee64511fe01280ae124e67fc4dac8be0079c531659141344cd1fd0a4f28419497f9722a3daafe3b4186f6b6457e0a264697066735822122004dadd7f5b99078b3920294f82f1275e00c18b35824993d4e4b7c83f93dbb17664736f6c634300081a003360806040523461039957610cdc6020813803918261001c8161039e565b93849283398101031261039957516001600160a01b0381169081900361039957610046604061039e565b9060068252652aaa37b5b2b760d11b6020830152610064604061039e565b600381526255544b60e81b602082015282519091906001600160401b0381116102a257600354600181811c9116801561038f575b602082101461028257601f811161032a575b506020601f82116001146102c357819293946000926102b8575b50508160011b916000199060031b1c1916176003555b81516001600160401b0381116102a257600454600181811c91168015610298575b602082101461028257601f811161021d575b50602092601f82116001146101b857928192936000926101ad575b50508160011b916000199060031b1c1916176004555b801561019757600580546001600160a01b03198116831790915560405191906001600160a01b03167f8be0079c531659141344cd1fd0a4f28419497f9722a3daafe3b4186f6b6457e0600080a361091890816103c48239f35b631e4fbdf760e01b600052600060045260246000fd5b015190503880610128565b601f198216936004600052806000209160005b86811061020557508360019596106101ec575b505050811b0160045561013e565b015160001960f88460031b161c191690553880806101de565b919260206001819286850151815501940192016101cb565b60046000527f8a35acfbc15ff81a39ae7d344fd709f28e8600b4aa8c65c6b64bfe7fe36bd19b601f830160051c81019160208410610278575b601f0160051c01905b81811061026c575061010d565b6000815560010161025f565b9091508190610256565b634e487b7160e01b600052602260045260246000fd5b90607f16906100fb565b634e487b7160e01b600052604160045260246000fd5b0151905038806100c4565b601f198216906003600052806000209160005b818110610312575095836001959697106102f9575b505050811b016003556100da565b015160001960f88460031b161c191690553880806102eb565b9192602060018192868b0151815501940192016102d6565b60036000527fc2575a0e9e593c00f959f8c92f12db2869c3395a3b0502d05e2516446f71f85b601f830160051c81019160208410610385575b601f0160051c01905b81811061037957506100aa565b6000815560010161036c565b9091508190610363565b90607f1690610098565b600080fd5b6040519190601f01601f191682016001600160401b038111838210176102a25760405256fe608080604052600436101561001357600080fd5b60003560e01c90816306fdde031461060457508063095ea7b31461055257806318160ddd1461053457806323b872dd146104fc578063313ce567146104e057806340c10f191461043e57806370a0823114610404578063715018a6146103b95780638da5cb5b1461039057806395d89b41146102705780639dc29fac146101b8578063a9059cbb14610187578063dd62ed3e146101365763f2fde38b146100b957600080fd5b34610131576020366003190112610131576100d261071f565b6100da610879565b6001600160a01b0316801561011b57600580546001600160a01b0319811683179091556001600160a01b03166000805160206108a3833981519152600080a3005b631e4fbdf760e01b600052600060045260246000fd5b600080fd5b346101315760403660031901126101315761014f61071f565b610157610735565b6001600160a01b039182166000908152600160209081526040808320949093168252928352819020549051908152f35b34610131576040366003190112610131576101ad6101a361071f565b60243590336107f2565b602060405160018152f35b34610131576040366003190112610131576101d161071f565b602435906101dd610879565b6101e882338361074b565b6001600160a01b031690811561025a576000908282528160205260408220548181106102425760208285936000805160206108c383398151915293869787528684520360408620558060025403600255604051908152a380f35b60649363391434e360e21b8452600452602452604452fd5b634b637e8f60e11b600052600060045260246000fd5b346101315760003660031901126101315760405160006004548060011c90600181168015610386575b6020831081146103725782855290811561035657506001146102ff575b50819003601f01601f19168101906001600160401b038211818310176102e9576102e5829182604052826106d6565b0390f35b634e487b7160e01b600052604160045260246000fd5b600460009081529091507f8a35acfbc15ff81a39ae7d344fd709f28e8600b4aa8c65c6b64bfe7fe36bd19b5b828210610340575060209150820101826102b6565b600181602092548385880101520191019061032b565b90506020925060ff191682840152151560051b820101826102b6565b634e487b7160e01b84526022600452602484fd5b91607f1691610299565b34610131576000366003190112610131576005546040516001600160a01b039091168152602090f35b34610131576000366003190112610131576103d2610879565b600580546001600160a01b031981169091556000906001600160a01b03166000805160206108a38339815191528280a3005b34610131576020366003190112610131576001600160a01b0361042561071f565b1660005260006020526020604060002054604051908152f35b346101315760403660031901126101315761045761071f565b60243590610463610879565b6001600160a01b031680156104ca57600254918083018093116104b4576020926002556000805160206108c3833981519152600093849284845283825260408420818154019055604051908152a380f35b634e487b7160e01b600052601160045260246000fd5b63ec442f0560e01b600052600060045260246000fd5b3461013157600036600319011261013157602060405160128152f35b34610131576060366003190112610131576101ad61051861071f565b610520610735565b6044359161052f83338361074b565b6107f2565b34610131576000366003190112610131576020600254604051908152f35b346101315760403660031901126101315761056b61071f565b6024359033156105ee576001600160a01b03169081156105d857336000526001602052604060002082600052602052806040600020556040519081527f8c5be1e5ebec7d5bd14f71427d1e84f3dd0314c0f7b2291e5b200ac8c7c3b92560203392a3602060405160018152f35b634a1406b160e11b600052600060045260246000fd5b63e602df0560e01b600052600060045260246000fd5b346101315760003660031901126101315760006003548060011c906001811680156106cc575b6020831081146103725782855290811561035657506001146106755750819003601f01601f19168101906001600160401b038211818310176102e9576102e5829182604052826106d6565b600360009081529091507fc2575a0e9e593c00f959f8c92f12db2869c3395a3b0502d05e2516446f71f85b5b8282106106b6575060209150820101826102b6565b60018160209254838588010152019101906106a1565b91607f169161062a565b91909160208152825180602083015260005b818110610709575060409293506000838284010152601f8019910116010190565b80602080928701015160408286010152016106e8565b600435906001600160a01b038216820361013157565b602435906001600160a01b038216820361013157565b6001600160a01b0390811660008181526001602081815260408084209587168452949052929020549392918401610783575b50505050565b8284106107cd5780156105ee576001600160a01b038216156105d857600052600160205260406000209060018060a01b03166000526020526040600020910390553880808061077d565b508290637dc7a0d960e11b60005260018060a01b031660045260245260445260646000fd5b6001600160a01b031690811561025a576001600160a01b03169182156104ca57600082815280602052604081205482811061085f5791604082826000805160206108c3833981519152958760209652828652038282205586815280845220818154019055604051908152a3565b916064928463391434e360e21b8452600452602452604452fd5b6005546001600160a01b0316330361088d57565b63118cdaa760e01b6000523360045260246000fdfe8be0079c531659141344cd1fd0a4f28419497f9722a3daafe3b4186f6b6457e0ddf252ad1be2c89b69c2b068fc378daa952ba7f163c4a11628f55a4df523b3efa264697066735822122096115607ec634b38a5b886a1161bfa63a83550279fefa0f8629046aaf3c31d9964736f6c634300081a0033",
  "linkReferences": {},
  "deployedLinkReferences": {}
}