{
  "_format": "hh-sol-artifact-1",
  "contractName": "TestToken",
  "sourceName": "contracts/test/TestToken.sol",
  "abi": [
    {
      "inputs": [
        {
          "internalType": "string",
          "name": "name_",
          "type": "string"
        },
        {
          "internalType": "string",
          "name": "symbol_",
          "type": "string"
        }
      ],
      "stateMutability": "nonpayable",
      "type": "constructor"
    },
    {
      "inputs": [
        {
          "internalType": "address",
          "name": "spender",
          "type": "address"
        },
        {
          "internalType": "uint256",
          "name": "allowance",
          "type": "uint256"
        },
        {
          "internalType": "uint256",
          "name": "needed",
          "type": "uint256"
        }
      ],
      "name": "ERC20InsufficientAllowance",
      "type": "error"
    },
    {
      "inputs": [
        {
          "internalType": "address",
          "name": "sender",
          "type": "address"
        },
        {
          "internalType": "uint256",
          "name": "balance",
          "type": "uint256"
        },
        {
          "internalType": "uint256",
          "name": "needed",
          "type": "uint256"
        }
      ],
      "name": "ERC20InsufficientBalance",
      "type": "error"
    },
    {
      "inputs": [
        {
          "internalType": "address",
          "name": "approver",
          "type": "address"
        }
      ],
      "name": "ERC20InvalidApprover",
      "type": "error"
    },
    {
      "inputs": [
        {
          "internalType": "address",
          "name": "receiver",
          "type": "address"
        }
      ],
      "name": "ERC20InvalidReceiver",
      "type": "error"
    },
    {
      "inputs": [
        {
          "internalType": "address",
          "name": "sender",
          "type": "address"
        }
      ],
      "name": "ERC20InvalidSender",
      "type": "error"
    },
    {
      "inputs": [
        {
          "internalType": "address",
          "name": "spender",
          "type": "address"
        }
      ],
      "name": "ERC20InvalidSpender",
      "type": "error"
    },
    {
      "anonymous": false,
      "inputs": [
        {
          "indexed": true,
          "internalType": "address",
          "name": "owner",
          "type": "address"
        },
        {
          "indexed": true,
          "internalType": "address",
          "name": "spender",
          "type": "address"
        },
        {
          "indexed": false,
          "internalType": "uint256",
          "name": "value",
          "type": "uint256"
        }
      ],
      "name": "Approval",
      "type": "event"
    },
    {
      "anonymous": false,
      "inputs": [
        {
          "indexed": true,
          "internalType": "address",
          "name": "from",
          "type": "address"
        },
        {
          "indexed": true,
          "internalType": "address",
          "name": "to",
          "type": "address"
        },
        {
          "indexed": false,
          "internalType": "uint256",
          "name": "value",
          "type": "uint256"
        }
      ],
      "name": "Transfer",
      "type": "event"
    },
    {
      "inputs": [
        {
          "internalType": "address",
          "name": "owner",
          "type": "address"
        },
        {
          "internalType": "address",
          "name": "spender",
          "type": "address"
        }
      ],
      "name": "allowance",
      "outputs": [
        {
          "internalType": "uint256",
          "name": "",
          "type": "uint256"
        }
      ],
      "stateMutability": "view",
      "type": "function"
    },
    {
      "inputs": [
        {
          "internalType": "address",
          "name": "spender",
          "type": "address"
        },
        {
          "internalType": "uint256",
          "name": "value",
          "type": "uint256"
        }
      ],
      "name": "approve",
      "outputs": [
        {
          "internalType": "bool",
          "name": "",
          "type": "bool"
        }
      ],
      "stateMutability": "nonpayable",
      "type": "function"
    },
    {
      "inputs": [
        {
          "internalType": "address",
          "name": "account",
          "type": "address"
        }
      ],
      "name": "balanceOf",
      "outputs": [
        {
          "internalType": "uint256",
          "name": "",
          "type": "uint256"
        }
      ],
      "stateMutability": "view",
      "type": "function"
    },
    {
      "inputs": [
        {
          "internalType": "uint256",
          "name": "_value",
          "type": "uint256"
        }
      ],
      "name": "burn",
      "outputs": [],
      "stateMutability": "nonpayable",
      "type": "function"
    },
    {
      "inputs": [
        {
          "internalType": "address",
          "name": "_account",
          "type": "address"
        },
        {
          "internalType": "uint256",
          "name": "_value",
          "type": "uint256"
        }
      ],
      "name": "burnFrom",
      "outputs": [],
      "stateMutability": "nonpayable",
      "type": "function"
    },
    {
      "inputs": [],
      "name": "decimals",
      "outputs": [
        {
          "internalType": "uint8",
          "name": "",
          "type": "uint8"
        }
      ],
      "stateMutability": "view",
      "type": "function"
    },
    {
      "inputs": [
        {
          "internalType": "uint256",
          "name": "_amount",
          "type": "uint256"
        }
      ],
      "name": "mint",
      "outputs": [],
      "stateMutability": "nonpayable",
      "type": "function"
    },
    {
      "inputs": [
        {
          "internalType": "address",
          "name": "_receiver",
          "type": "address"
        },
        {
          "internalType": "uint256",
          "name": "_amount",
          "type": "uint256"
        }
      ],
      "name": "mintFor",
      "outputs": [],
      "stateMutability": "nonpayable",
      "type": "function"
    },
    {
      "inputs": [],
      "name": "name",
      "outputs": [
        {
          "internalType": "string",
          "name": "",
          "type": "string"
        }
      ],
      "stateMutability": "view",
      "type": "function"
    },
    {
      "inputs": [],
      "name": "symbol",
      "outputs": [
        {
          "internalType": "string",
          "name": "",
          "type": "string"
        }
      ],
      "stateMutability": "view",
      "type": "function"
    },
    {
      "inputs": [],
      "name": "totalSupply",
      "outputs": [
        {
          "internalType": "uint256",
          "name": "",
          "type": "uint256"
        }
      ],
      "stateMutability": "view",
      "type": "function"
    },
    {
      "inputs": [
        {
          "internalType": "address",
          "name": "to",
          "type": "address"
        },
        {
          "internalType": "uint256",
          "name": "value",
          "type": "uint256"
        }
      ],
      "name": "transfer",
      "outputs": [
        {
          "internalType": "bool",
          "name": "",
          "type": "bool"
        }
      ],
      "stateMutability": "nonpayable",
      "type": "function"
    },
    {
      "inputs": [
        {
          "internalType": "address",
          "name": "from",
          "type": "address"
        },
        {
          "internalType": "address",
          "name": "to",
          "type": "address"
        },
        {
          "internalType": "uint256",
          "name": "value",
          "type": "uint256"
        }
      ],
      "name": "transferFrom",
      "outputs": [
        {
          "internalType": "bool",
          "name": "",
          "type": "bool"
        }
      ],
      "stateMutability": "nonpayable",
      "type": "function"
    }
  ],
  "bytecode": "0x6080604052346103c457610d2e80380380610019816103c9565b9283398101906040818303126103c45780516001600160401b0381116103c457826100459183016103ee565b60208201519092906001600160401b0381116103c45761006592016103ee565b81516001600160401b0381116102cf57600354600181811c911680156103ba575b60208210146102af57601f8111610355575b50602092601f82116001146102f057928192936000926102e5575b50508160011b916000199060031b1c1916176003555b80516001600160401b0381116102cf57600454600181811c911680156102c5575b60208210146102af57601f811161024a575b50602091601f82116001146101e6579181926000926101db575b50508160011b916000199060031b1c1916176004555b33156101c55760025469021e19e0c9bab240000081018091116101af576002556000338152806020526040812069021e19e0c9bab240000081540190556040519069021e19e0c9bab240000082527fddf252ad1be2c89b69c2b068fc378daa952ba7f163c4a11628f55a4df523b3ef60203393a36040516108d4908161045a8239f35b634e487b7160e01b600052601160045260246000fd5b63ec442f0560e01b600052600060045260246000fd5b015190503880610116565b601f198216926004600052806000209160005b85811061023257508360019510610219575b505050811b0160045561012c565b015160001960f88460031b161c1916905538808061020b565b919260206001819286850151815501940192016101f9565b60046000527f8a35acfbc15ff81a39ae7d344fd709f28e8600b4aa8c65c6b64bfe7fe36bd19b601f830160051c810191602084106102a5575b601f0160051c01905b81811061029957506100fc565b6000815560010161028c565b9091508190610283565b634e487b7160e01b600052602260045260246000fd5b90607f16906100ea565b634e487b7160e01b600052604160045260246000fd5b0151905038806100b3565b601f198216936003600052806000209160005b86811061033d5750836001959610610324575b505050811b016003556100c9565b015160001960f88460031b161c19169055388080610316565b91926020600181928685015181550194019201610303565b60036000527fc2575a0e9e593c00f959f8c92f12db2869c3395a3b0502d05e2516446f71f85b601f830160051c810191602084106103b0575b601f0160051c01905b8181106103a45750610098565b60008155600101610397565b909150819061038e565b90607f1690610086565b600080fd5b6040519190601f01601f191682016001600160401b038111838210176102cf57604052565b81601f820112156103c4578051906001600160401b0382116102cf5761041d601f8301601f19166020016103c9565b92828452602083830101116103c45760005b82811061044457505060206000918301015290565b8060208092840101518282870101520161042f56fe608080604052600436101561001357600080fd5b60003560e01c90816306fdde031461051657508063095ea7b31461049057806318160ddd1461047257806323b872dd14610385578063313ce5671461036957806342966c681461034157806370a082311461030757806379cc6790146102c357806395d89b41146101a3578063a0712d681461017b578063a9059cbb1461014a578063da1919b3146101045763dd62ed3e146100ae57600080fd5b346100ff5760403660031901126100ff576100c7610631565b6100cf610647565b6001600160a01b039182166000908152600160209081526040808320949093168252928352819020549051908152f35b600080fd5b346100ff5760403660031901126100ff57610148610120610631565b602435906101386001600160a01b038216151561069c565b61014382151561065d565b61081b565b005b346100ff5760403660031901126100ff57610170610166610631565b60243590336106f9565b602060405160018152f35b346100ff5760203660031901126100ff5761014860043561019d81151561065d565b3361081b565b346100ff5760003660031901126100ff5760405160006004548060011c906001811680156102b9575b6020831081146102a5578285529081156102895750600114610232575b50819003601f01601f19168101906001600160401b0382118183101761021c57610218829182604052826105e8565b0390f35b634e487b7160e01b600052604160045260246000fd5b600460009081529091507f8a35acfbc15ff81a39ae7d344fd709f28e8600b4aa8c65c6b64bfe7fe36bd19b5b828210610273575060209150820101826101e9565b600181602092548385880101520191019061025e565b90506020925060ff191682840152151560051b820101826101e9565b634e487b7160e01b84526022600452602484fd5b91607f16916101cc565b346100ff5760403660031901126100ff576101486102df610631565b602435906102f76001600160a01b038216151561069c565b61030282151561065d565b6107ac565b346100ff5760203660031901126100ff576001600160a01b03610328610631565b1660005260006020526020604060002054604051908152f35b346100ff5760203660031901126100ff5761014860043561036381151561065d565b336107ac565b346100ff5760003660031901126100ff57602060405160128152f35b346100ff5760603660031901126100ff5761039e610631565b6103a6610647565b6001600160a01b03821660008181526001602081815260408084203385529091529091205491936044359392909181016103e6575b5061017093506106f9565b83811061045557841561043f57331561042957610170946000526001602052604060002060018060a01b03331660005260205283604060002091039055846103db565b634a1406b160e11b600052600060045260246000fd5b63e602df0560e01b600052600060045260246000fd5b8390637dc7a0d960e11b6000523360045260245260445260646000fd5b346100ff5760003660031901126100ff576020600254604051908152f35b346100ff5760403660031901126100ff576104a9610631565b60243590331561043f576001600160a01b031690811561042957336000526001602052604060002082600052602052806040600020556040519081527f8c5be1e5ebec7d5bd14f71427d1e84f3dd0314c0f7b2291e5b200ac8c7c3b92560203392a3602060405160018152f35b346100ff5760003660031901126100ff5760006003548060011c906001811680156105de575b6020831081146102a55782855290811561028957506001146105875750819003601f01601f19168101906001600160401b0382118183101761021c57610218829182604052826105e8565b600360009081529091507fc2575a0e9e593c00f959f8c92f12db2869c3395a3b0502d05e2516446f71f85b5b8282106105c8575060209150820101826101e9565b60018160209254838588010152019101906105b3565b91607f169161053c565b91909160208152825180602083015260005b81811061061b575060409293506000838284010152601f8019910116010190565b80602080928701015160408286010152016105fa565b600435906001600160a01b03821682036100ff57565b602435906001600160a01b03821682036100ff57565b1561066457565b60405162461bcd60e51b815260206004820152601060248201526f125b98dbdc9c9958dd08185b5bdd5b9d60821b6044820152606490fd5b156106a357565b60405162461bcd60e51b815260206004820152602860248201527f496e636f727265637420726563656976657220616464726573733a207a65726f604482015267206164647265737360c01b6064820152608490fd5b6001600160a01b0316908115610796576001600160a01b031691821561078057600082815280602052604081205482811061076657916040828260008051602061087f833981519152958760209652828652038282205586815280845220818154019055604051908152a3565b916064928463391434e360e21b8452600452602452604452fd5b63ec442f0560e01b600052600060045260246000fd5b634b637e8f60e11b600052600060045260246000fd5b6001600160a01b0316801561079657600091818352826020526040832054818110610802578160008051602061087f833981519152926020928587528684520360408620558060025403600255604051908152a3565b6064939263391434e360e21b8452600452602452604452fd5b6001600160a01b0316908115610780576002548181018091116108685760025560008051602061087f833981519152602060009284845283825260408420818154019055604051908152a3565b634e487b7160e01b600052601160045260246000fdfeddf252ad1be2c89b69c2b068fc378daa952ba7f163c4a11628f55a4df523b3efa264697066735822122002b60ad2b3949a7621bd1d181645ff0d73aeb79dff140e0a05b25ed61e3e9b0864736f6c634300081a0033",
  "linkReferences": {},
  "deployedLinkReferences": {}
}