{
  "_format": "hh-sol-artifact-1",
  "contractName": "TestToken",
  "sourceName": "contracts/test/TestToken.sol",
  "abi": [
    {
      "inputs": [
        {
          "internalType": "string",
          "name": "name_",
          "type": "string"
        },
        {
          "internalType": "string",
          "name": "symbol_",
          "type": "string"
        }
      ],
      "stateMutability": "nonpayable",
      "type": "constructor"
    },
    {
      "inputs": [
        {
          "internalType": "address",
          "name": "spender",
          "type": "address"
        },
        {
          "internalType": "uint256",
          "name": "allowance",
          "type": "uint256"
        },
        {
          "internalType": "uint256",
          "name": "needed",
          "type": "uint256"
        }
      ],
      "name": "ERC20InsufficientAllowance",
      "type": "error"
    },
    {
      "inputs": [
        {
          "internalType": "address",
          "name": "sender",
          "type": "address"
        },
        {
          "internalType": "uint256",
          "name": "balance",
          "type": "uint256"
        },
        {
          "internalType": "uint256",
          "name": "needed",
          "type": "uint256"
        }
      ],
      "name": "ERC20InsufficientBalance",
      "type": "error"
    },
    {
      "inputs": [
        {
          "internalType": "address",
          "name": "approver",
          "type": "address"
        }
      ],
      "name": "ERC20InvalidApprover",
      "type": "error"
    },
    {
      "inputs": [
        {
          "internalType": "address",
          "name": "receiver",
          "type": "address"
        }
      ],
      "name": "ERC20InvalidReceiver",
      "type": "error"
    },
    {
      "inputs": [
        {
          "internalType": "address",
          "name": "sender",
          "type": "address"
        }
      ],
      "name": "ERC20InvalidSender",
      "type": "error"
    },
    {
      "inputs": [
        {
          "internalType": "address",
          "name": "spender",
          "type": "address"
        }
      ],
      "name": "ERC20InvalidSpender",
      "type": "error"
    },
    {
      "anonymous": false,
      "inputs": [
        {
          "indexed": true,
          "internalType": "address",
          "name": "owner",
          "type": "address"
        },
        {
          "indexed": true,
          "internalType": "address",
          "name": "spender",
          "type": "address"
        },
        {
          "indexed": false,
          "internalType": "uint256",
          "name": "value",
          "type": "uint256"
        }
      ],
      "name": "Approval",
      "type": "event"
    },
    {
      "anonymous": false,
      "inputs": [
        {
          "indexed": true,
          "internalType": "address",
          "name": "from",
          "type": "address"
        },
        {
          "indexed": true,
          "internalType": "address",
          "name": "to",
          "type": "address"
        },
        {
          "indexed": false,
          "internalType": "uint256",
          "name": "value",
          "type": "uint256"
        }
      ],
      "name": "Transfer",
      "type": "event"
    },
    {
      "inputs": [
        {
          "internalType": "address",
          "name": "owner",
          "type": "address"
        },
        {
          "internalType": "address",
          "name": "spender",
          "type": "address"
        }
      ],
      "name": "allowance",
      "outputs": [
        {
          "internalType": "uint256",
          "name": "",
          "type": "uint256"
        }
      ],
      "stateMutability": "view",
      "type": "function"
    },
    {
      "inputs": [
        {
          "internalType": "address",
          "name": "spender",
          "type": "address"
        },
        {
          "internalType": "uint256",
          "name": "value",
          "type": "uint256"
        }
      ],
      "name": "approve",
      "outputs": [
        {
          "internalType": "bool",
          "name": "",
          "type": "bool"
        }
      ],
      "stateMutability": "nonpayable",
      "type": "function"
    },
    {
      "inputs": [
        {
          "internalType": "address",
          "name": "account",
          "type": "address"
        }
      ],
      "name": "balanceOf",
      "outputs": [
        {
          "internalType": "uint256",
          "name": "",
          "type": "uint256"
        }
      ],
      "stateMutability": "view",
      "type": "function"
    },
    {
      "inputs": [
        {
          "internalType": "uint256",
          "name": "_value",
          "type": "uint256"
        }
      ],
      "name": "burn",
      "outputs": [],
      "stateMutability": "nonpayable",
      "type": "function"
    },
    {
      "inputs": [
        {
          "internalType": "address",
          "name": "_account",
          "type": "address"
        },
        {
          "internalType": "uint256",
          "name": "_value",
          "type": "uint256"
        }
      ],
      "name": "burnFrom",
      "outputs": [],
      "stateMutability": "nonpayable",
      "type": "function"
    },
    {
      "inputs": [],
      "name": "decimals",
      "outputs": [
        {
          "internalType": "uint8",
          "name": "",
          "type": "uint8"
        }
      ],
      "stateMutability": "view",
      "type": "function"
    },
    {
      "inputs": [
        {
          "internalType": "uint256",
          "name": "_amount",
          "type": "uint256"
        }
      ],
      "name": "mint",
      "outputs": [],
      "stateMutability": "nonpayable",
      "type": "function"
    },
    {
      "inputs": [
        {
          "internalType": "address",
          "name": "_receiver",
          "type": "address"
        },
        {
          "internalType": "uint256",
          "name": "_amount",
          "type": "uint256"
        }
      ],
      "name": "mintFor",
      "outputs": [],
      "stateMutability": "nonpayable",
      "type": "function"
    },
    {
      "inputs": [],
      "name": "name",
      "outputs": [
        {
          "internalType": "string",
          "name": "",
          "type": "string"
        }
      ],
      "stateMutability": "view",
      "type": "function"
    },
    {
      "inputs": [],
      "name": "symbol",
      "outputs": [
        {
          "internalType": "string",
          "name": "",
          "type": "string"
        }
      ],
      "stateMutability": "view",
      "type": "function"
    },
    {
      "inputs": [],
      "name": "totalSupply",
      "outputs": [
        {
          "internalType": "uint256",
          "name": "",
          "type": "uint256"
        }
      ],
      "stateMutability": "view",
      "type": "function"
    },
    {
      "inputs": [
        {
          "internalType": "address",
          "name": "to",
          "type": "address"
        },
        {
          "internalType": "uint256",
          "name": "value",
          "type": "uint256"
        }
      ],
      "name": "transfer",
      "outputs": [
        {
          "internalType": "bool",
          "name": "",
          "type": "bool"
        }
      ],
      "stateMutability": "nonpayable",
      "type": "function"
    },
    {
      "inputs": [
        {
          "internalType": "address",
          "name": "from",
          "type": "address"
        },
        {
          "internalType": "address",
          "name": "to",
          "type": "address"
        },
        {
          "internalType": "uint256",
          "name": "value",
          "type": "uint256"
        }
      ],
      "name": "transferFrom",
      "outputs": [
        {
          "internalType": "bool",
          "name": "",
          "type": "bool"
        }
      ],
      "stateMutability": "nonpayable",
      "type": "function"
    }
  ],
  "bytecode": "0x6080604052346103a957610cad80380380610019816103ad565b9283398101906040818303126103a95780516001600160401b0381116103a957826100459183016103d2565b60208201519092906001600160401b0381116103a95761006592016103d2565b81516001600160401b0381116102bc57600354600181811c9116801561039f575b602082101461029e57601f811161033c575b50602092601f82116001146102db57928192935f926102d0575b50508160011b915f199060031b1c1916176003555b80516001600160401b0381116102bc57600454600181811c911680156102b2575b602082101461029e57601f811161023b575b50602091601f82116001146101db579181925f926101d0575b50508160011b915f199060031b1c1916176004555b33156101bd5760025469021e19e0c9bab240000081018091116101a957600255335f525f60205260405f2069021e19e0c9bab2400000815401905560405169021e19e0c9bab240000081525f7fddf252ad1be2c89b69c2b068fc378daa952ba7f163c4a11628f55a4df523b3ef60203393a360405161088990816104248239f35b634e487b7160e01b5f52601160045260245ffd5b63ec442f0560e01b5f525f60045260245ffd5b015190505f80610113565b601f1982169260045f52805f20915f5b8581106102235750836001951061020b575b505050811b01600455610128565b01515f1960f88460031b161c191690555f80806101fd565b919260206001819286850151815501940192016101eb565b60045f527f8a35acfbc15ff81a39ae7d344fd709f28e8600b4aa8c65c6b64bfe7fe36bd19b601f830160051c81019160208410610294575b601f0160051c01905b81811061028957506100fa565b5f815560010161027c565b9091508190610273565b634e487b7160e01b5f52602260045260245ffd5b90607f16906100e8565b634e487b7160e01b5f52604160045260245ffd5b015190505f806100b2565b601f1982169360035f52805f20915f5b868110610324575083600195961061030c575b505050811b016003556100c7565b01515f1960f88460031b161c191690555f80806102fe565b919260206001819286850151815501940192016102eb565b60035f527fc2575a0e9e593c00f959f8c92f12db2869c3395a3b0502d05e2516446f71f85b601f830160051c81019160208410610395575b601f0160051c01905b81811061038a5750610098565b5f815560010161037d565b9091508190610374565b90607f1690610086565b5f80fd5b6040519190601f01601f191682016001600160401b038111838210176102bc57604052565b81601f820112156103a9578051906001600160401b0382116102bc57610401601f8301601f19166020016103ad565b92828452602083830101116103a957815f9260208093018386015e830101529056fe6080806040526004361015610012575f80fd5b5f3560e01c90816306fdde03146104f657508063095ea7b31461047457806318160ddd1461045757806323b872dd14610377578063313ce5671461035c57806342966c681461033457806370a08231146102fd57806379cc6790146102b957806395d89b411461019e578063a0712d6814610176578063a9059cbb14610145578063da1919b3146100ff5763dd62ed3e146100ab575f80fd5b346100fb5760403660031901126100fb576100c46105ef565b6100cc610605565b6001600160a01b039182165f908152600160209081526040808320949093168252928352819020549051908152f35b5f80fd5b346100fb5760403660031901126100fb5761014361011b6105ef565b602435906101336001600160a01b038216151561065a565b61013e82151561061b565b6107d2565b005b346100fb5760403660031901126100fb5761016b6101616105ef565b60243590336106b7565b602060405160018152f35b346100fb5760203660031901126100fb5761014360043561019881151561061b565b336107d2565b346100fb575f3660031901126100fb576040515f6004548060011c906001811680156102af575b60208310811461029b5782855290811561027f5750600114610229575b50819003601f01601f19168101906001600160401b0382118183101761021557610211829182604052826105c5565b0390f35b634e487b7160e01b5f52604160045260245ffd5b60045f9081529091507f8a35acfbc15ff81a39ae7d344fd709f28e8600b4aa8c65c6b64bfe7fe36bd19b5b828210610269575060209150820101826101e2565b6001816020925483858801015201910190610254565b90506020925060ff191682840152151560051b820101826101e2565b634e487b7160e01b5f52602260045260245ffd5b91607f16916101c5565b346100fb5760403660031901126100fb576101436102d56105ef565b602435906102ed6001600160a01b038216151561065a565b6102f882151561061b565b610761565b346100fb5760203660031901126100fb576001600160a01b0361031e6105ef565b165f525f602052602060405f2054604051908152f35b346100fb5760203660031901126100fb5761014360043561035681151561061b565b33610761565b346100fb575f3660031901126100fb57602060405160128152f35b346100fb5760603660031901126100fb576103906105ef565b610398610605565b6001600160a01b0382165f8181526001602081815260408084203385529091529091205491936044359392909181016103d7575b5061016b93506106b7565b83811061043c5784156104295733156104165761016b945f52600160205260405f2060018060a01b0333165f526020528360405f2091039055846103cc565b634a1406b160e11b5f525f60045260245ffd5b63e602df0560e01b5f525f60045260245ffd5b8390637dc7a0d960e11b5f523360045260245260445260645ffd5b346100fb575f3660031901126100fb576020600254604051908152f35b346100fb5760403660031901126100fb5761048d6105ef565b602435903315610429576001600160a01b031690811561041657335f52600160205260405f20825f526020528060405f20556040519081527f8c5be1e5ebec7d5bd14f71427d1e84f3dd0314c0f7b2291e5b200ac8c7c3b92560203392a3602060405160018152f35b346100fb575f3660031901126100fb575f6003548060011c906001811680156105bb575b60208310811461029b5782855290811561027f57506001146105655750819003601f01601f19168101906001600160401b0382118183101761021557610211829182604052826105c5565b60035f9081529091507fc2575a0e9e593c00f959f8c92f12db2869c3395a3b0502d05e2516446f71f85b5b8282106105a5575060209150820101826101e2565b6001816020925483858801015201910190610590565b91607f169161051a565b602060409281835280519182918282860152018484015e5f828201840152601f01601f1916010190565b600435906001600160a01b03821682036100fb57565b602435906001600160a01b03821682036100fb57565b1561062257565b60405162461bcd60e51b815260206004820152601060248201526f125b98dbdc9c9958dd08185b5bdd5b9d60821b6044820152606490fd5b1561066157565b60405162461bcd60e51b815260206004820152602860248201527f496e636f727265637420726563656976657220616464726573733a207a65726f604482015267206164647265737360c01b6064820152608490fd5b6001600160a01b031690811561074e576001600160a01b031691821561073b57815f525f60205260405f205481811061072257815f8051602061083483398151915292602092855f525f84520360405f2055845f525f825260405f20818154019055604051908152a3565b8263391434e360e21b5f5260045260245260445260645ffd5b63ec442f0560e01b5f525f60045260245ffd5b634b637e8f60e11b5f525f60045260245ffd5b9091906001600160a01b0316801561074e57805f525f60205260405f20548381106107b8576020845f94955f80516020610834833981519152938587528684520360408620558060025403600255604051908152a3565b915063391434e360e21b5f5260045260245260445260645ffd5b6001600160a01b031690811561073b576002549080820180921161081f5760205f80516020610834833981519152915f9360025584845283825260408420818154019055604051908152a3565b634e487b7160e01b5f52601160045260245ffdfeddf252ad1be2c89b69c2b068fc378daa952ba7f163c4a11628f55a4df523b3efa2646970667358221220bb0a5e4db23c0e090dcc50814c86ee71e374a31daaa5cf466091b7c9bf2c3eaa64736f6c634300081a0033",
  "linkReferences": {},
  "deployedLinkReferences": {}
}