{
  "_format": "hh-sol-artifact-1",
  "contractName": "HelperContract",
  "sourceName": "contracts/test/helpers/HelperContract.sol",
  "abi": [
    {
      "inputs": [],
      "stateMutability": "nonpayable",
      "type": "constructor"
    },
    {
      "inputs": [
        {
          "internalType": "address",
          "name": "token",
          "type": "address"
        },
        {
          "internalType": "uint256",
          "name": "amount",
          "type": "uint256"
        }
      ],
      "name": "ApprovalFailed",
      "type": "error"
    },
    {
      "inputs": [],
      "name": "CantBeIdenticalAddresses",
      "type": "error"
    },
    {
      "inputs": [],
      "name": "CantBeZeroAddress",
      "type": "error"
    },
    {
      "inputs": [
        {
          "internalType": "address",
          "name": "token",
          "type": "address"
        },
        {
          "internalType": "uint256",
          "name": "amount",
          "type": "uint256"
        }
      ],
      "name": "InsufficientAmount",
      "type": "error"
    },
    {
      "inputs": [],
      "name": "InsufficientWithdrawGasFeeAmount",
      "type": "error"
    },
    {
      "inputs": [],
      "name": "NotGateway",
      "type": "error"
    },
    {
      "inputs": [
        {
          "internalType": "address",
          "name": "owner",
          "type": "address"
        }
      ],
      "name": "OwnableInvalidOwner",
      "type": "error"
    },
    {
      "inputs": [
        {
          "internalType": "address",
          "name": "account",
          "type": "address"
        }
      ],
      "name": "OwnableUnauthorizedAccount",
      "type": "error"
    },
    {
      "inputs": [
        {
          "internalType": "address",
          "name": "token",
          "type": "address"
        },
        {
          "internalType": "uint256",
          "name": "amount",
          "type": "uint256"
        }
      ],
      "name": "TransferFailed",
      "type": "error"
    },
    {
      "inputs": [],
      "name": "ZeroAddress",
      "type": "error"
    },
    {
      "inputs": [],
      "name": "ZeroAmount",
      "type": "error"
    },
    {
      "anonymous": false,
      "inputs": [
        {
          "indexed": true,
          "internalType": "address",
          "name": "previousOwner",
          "type": "address"
        },
        {
          "indexed": true,
          "internalType": "address",
          "name": "newOwner",
          "type": "address"
        }
      ],
      "name": "OwnershipTransferred",
      "type": "event"
    },
    {
      "anonymous": false,
      "inputs": [
        {
          "indexed": true,
          "internalType": "address",
          "name": "sender",
          "type": "address"
        },
        {
          "indexed": true,
          "internalType": "address",
          "name": "recipient",
          "type": "address"
        },
        {
          "indexed": true,
          "internalType": "address",
          "name": "token",
          "type": "address"
        },
        {
          "indexed": false,
          "internalType": "uint256",
          "name": "amountIn",
          "type": "uint256"
        }
      ],
      "name": "TransferAmountIn",
      "type": "event"
    },
    {
      "anonymous": false,
      "inputs": [
        {
          "indexed": true,
          "internalType": "address",
          "name": "sender",
          "type": "address"
        },
        {
          "indexed": true,
          "internalType": "address",
          "name": "recipient",
          "type": "address"
        },
        {
          "indexed": true,
          "internalType": "address",
          "name": "targetToken",
          "type": "address"
        },
        {
          "indexed": false,
          "internalType": "address",
          "name": "gasToken",
          "type": "address"
        },
        {
          "indexed": false,
          "internalType": "uint256",
          "name": "amountOut",
          "type": "uint256"
        },
        {
          "indexed": false,
          "internalType": "uint256",
          "name": "gasFee",
          "type": "uint256"
        }
      ],
      "name": "TransferAmountOut",
      "type": "event"
    },
    {
      "inputs": [],
      "name": "GAS_LIMIT",
      "outputs": [
        {
          "internalType": "uint256",
          "name": "",
          "type": "uint256"
        }
      ],
      "stateMutability": "view",
      "type": "function"
    },
    {
      "inputs": [],
      "name": "GATEWAY",
      "outputs": [
        {
          "internalType": "contract IGatewayZEVM",
          "name": "",
          "type": "address"
        }
      ],
      "stateMutability": "view",
      "type": "function"
    },
    {
      "inputs": [],
      "name": "UNISWAP_ROUTER",
      "outputs": [
        {
          "internalType": "contract IUniswapV2Router02",
          "name": "",
          "type": "address"
        }
      ],
      "stateMutability": "view",
      "type": "function"
    },
    {
      "inputs": [
        {
          "components": [
            {
              "internalType": "bytes",
              "name": "sender",
              "type": "bytes"
            },
            {
              "internalType": "address",
              "name": "senderEVM",
              "type": "address"
            },
            {
              "internalType": "uint256",
              "name": "chainID",
              "type": "uint256"
            }
          ],
          "internalType": "struct MessageContext",
          "name": "context",
          "type": "tuple"
        },
        {
          "internalType": "address",
          "name": "zrc20",
          "type": "address"
        },
        {
          "internalType": "uint256",
          "name": "amount",
          "type": "uint256"
        },
        {
          "internalType": "bytes",
          "name": "message",
          "type": "bytes"
        }
      ],
      "name": "onCall",
      "outputs": [],
      "stateMutability": "nonpayable",
      "type": "function"
    },
    {
      "inputs": [],
      "name": "owner",
      "outputs": [
        {
          "internalType": "address",
          "name": "",
          "type": "address"
        }
      ],
      "stateMutability": "view",
      "type": "function"
    },
    {
      "inputs": [],
      "name": "renounceOwnership",
      "outputs": [],
      "stateMutability": "nonpayable",
      "type": "function"
    },
    {
      "inputs": [
        {
          "internalType": "address",
          "name": "recipient",
          "type": "address"
        },
        {
          "internalType": "address",
          "name": "token",
          "type": "address"
        },
        {
          "internalType": "uint256",
          "name": "amount",
          "type": "uint256"
        }
      ],
      "name": "sweep",
      "outputs": [],
      "stateMutability": "nonpayable",
      "type": "function"
    },
    {
      "inputs": [
        {
          "internalType": "address",
          "name": "recipient",
          "type": "address"
        },
        {
          "internalType": "address",
          "name": "token",
          "type": "address"
        }
      ],
      "name": "sweepAll",
      "outputs": [
        {
          "internalType": "uint256",
          "name": "amount",
          "type": "uint256"
        }
      ],
      "stateMutability": "nonpayable",
      "type": "function"
    },
    {
      "inputs": [
        {
          "internalType": "address",
          "name": "newOwner",
          "type": "address"
        }
      ],
      "name": "transferOwnership",
      "outputs": [],
      "stateMutability": "nonpayable",
      "type": "function"
    },
    {
      "inputs": [
        {
          "internalType": "address",
          "name": "recipient",
          "type": "address"
        },
        {
          "internalType": "address",
          "name": "token",
          "type": "address"
        },
        {
          "internalType": "uint256",
          "name": "amount",
          "type": "uint256"
        }
      ],
      "name": "transferToDestinationChain",
      "outputs": [],
      "stateMutability": "nonpayable",
      "type": "function"
    }
  ],
  "bytecode": "0x60808060405234607e5733156068576000543360018060a01b0382167f8be0079c531659141344cd1fd0a4f28419497f9722a3daafe3b4186f6b6457e0600080a36001600160a81b0319163360ff60a01b191617600160a01b1760005561156290816100848239f35b631e4fbdf760e01b600052600060045260246000fd5b600080fdfe608080604052600436101561001357600080fd5b600090813560e01c908163091d2788146111fc5750806310c785bb14610785578063338c53711461075c5780635bcfd616146105af57806362c067671461040e5780636dc8d1fb1461019d578063715018a6146101555780638da5cb5b1461012e578063d8264920146101055763f2fde38b1461008f57600080fd5b34610102576020366003190112610102576100a861122f565b6100b06114a3565b6001600160a01b031680156100ee5781546001600160a01b03198116821783556001600160a01b031660008051602061150d8339815191528380a380f35b631e4fbdf760e01b82526004829052602482fd5b80fd5b503461010257806003193601126101025760206040516000805160206114cd8339815191528152f35b5034610102578060031936011261010257546040516001600160a01b039091168152602090f35b503461010257806003193601126101025761016e6114a3565b80546001600160a01b03198116825581906001600160a01b031660008051602061150d8339815191528280a380f35b5034610102576040366003190112610102576101b761122f565b6101bf611219565b6101c76114a3565b6001600160a01b03169182159182156103ab5747925b825460ff60a01b191683556101f06114a3565b6001600160a01b0382161561039c57156102a45760ff825460a01c168061029b575b610284578180808581945af13d1561027f573d61022e816112ff565b9061023c604051928361127f565b81528260203d92013e5b1561026957602092505b805460ff60a01b1916600160a01b179055604051908152f35b90604492630e21dcbb60e11b8352600452602452fd5b610246565b509060449263dce8ba4160e01b8352600452602452fd5b50478311610212565b8180610327575b61028457826102d4946020928460405180988195829463a9059cbb60e01b8452600484016112d0565b03925af192831561031a576020936102ed575b50610250565b61030c90843d8611610313575b610304818361127f565b8101906112b8565b50386102e7565b503d6102fa565b50604051903d90823e3d90fd5b506040516370a0823160e01b8152306004820152602081602481885afa90811561039157839161035a575b5083116102ab565b90506020813d602011610389575b816103756020938361127f565b81010312610384575138610352565b600080fd5b3d9150610368565b6040513d85823e3d90fd5b63d92e233d60e01b8352600483fd5b6040516370a0823160e01b8152306004820152602081602481885afa9081156103915783916103dc575b50926101dd565b90506020813d602011610406575b816103f76020938361127f565b810103126103845751386103d5565b3d91506103ea565b50346101025761041d36611245565b906104299392936114a3565b6001600160a01b0384161561039c576001600160a01b031692836104cd5760ff835460a01c16806104c4575b6104ae578280808481945af13d156104a9573d610471816112ff565b9061047f604051928361127f565b81528360203d92013e5b156104945750905080f35b604492630e21dcbb60e11b8352600452602452fd5b610489565b5060449263dce8ba4160e01b8352600452602452fd5b50478211610455565b60ff835460a01c168061053f575b6104ae5760405163a9059cbb60e01b81529293602092849283918791839161050691600484016112d0565b03925af1801561053457610518575080f35b6105309060203d60201161031357610304818361127f565b5080f35b6040513d84823e3d90fd5b506040516370a0823160e01b8152306004820152602081602481885afa9081156105a4578491610572575b5082116104db565b90506020813d60201161059c575b8161058d6020938361127f565b8101031261038457513861056a565b3d9150610580565b6040513d86823e3d90fd5b5034610102576080366003190112610102576004356001600160401b0381116107585760606003198236030112610758576105e8611219565b60443590606435906001600160401b0382116107545736602383011215610754576004820135916001600160401b03831161073d5782810194366024870111610750576000805160206114ed8339815191523303610741576024019461064d866112eb565b9361070a575b505060405163a9059cbb60e01b81526001600160a01b039190911693602082806106818787600484016112d0565b038189895af19081156106ff577f5c0b2687af59be796860e892fb2379234b81c830471c77c10d5ce9f6051ecbd1926020926106e4575b506001600160a01b03906106cb906112eb565b6040519586526001600160a01b0390941694931692a480f35b6106fa90833d851161031357610304818361127f565b6106b8565b6040513d88823e3d90fd5b6020908290031261073d576024013560018060a01b03811680910361073d5780610735575b80610653565b91503861072f565b8580fd5b63e7e601db60e01b8752600487fd5b8680fd5b8480fd5b5080fd5b503461010257806003193601126101025760206040516000805160206114ed8339815191528152f35b50346101025761079436611245565b9081156111ed576001600160a01b03831691821580156111dc575b6111cd576040516323b872dd60e01b8152336004820152306024820152604481018290526001600160a01b03831694906020816064818a8a5af190811561118c5787916111ae575b5015611197576040805163d9eeebed60e01b8152939084600481895afa92831561118c578794889461114a575b506001600160a01b03851694878603610b9557509050828110610b86578261084b91611432565b838603610a8f5761085c8382611455565b60405163095ea7b360e01b81526000805160206114ed833981519152600482015260248101919091526020816044818b895af1908115610a84578891610a65575b5015610a44575b60405160609290921b6001600160601b0319166020830152601482526108cb60348361127f565b60405160a081016001600160401b03811182821017610a3057604052878152876020820181815260408301948286526040958651610909888261127f565b6002815261060f60f31b6020820152606086019081526080860191624c4b4083526000805160206114ed8339815191523b1561073d576109b78d9260809261096c978c519a8b998a99637c0dcb5f60e01b8b528760048c015260848b0190611462565b60248a018e905260448a01979097528887036003190160648a0152516001600160a01b0390811687529051151560208701529051168b8501525160a060608501819052840190611462565b92519101520381836000805160206114ed8339815191525af18015610a2657610a12575b50815193845260208401528201527f9126b3c2fd39c8fb2b42ece9d488a00436f92405aa3c5d526437e03bf31e47b460603392a480f35b87610a1f9198929861127f565b95386109db565b83513d8a823e3d90fd5b634e487b7160e01b89526041600452602489fd5b8684610a5285604494611455565b906322f3ebb360e21b8352600452602452fd5b610a7e915060203d60201161031357610304818361127f565b3861089d565b6040513d8a823e3d90fd5b60405163095ea7b360e01b81526000805160206114ed8339815191526004820152602481018490526020816044818b895af1908115610a84578891610b67575b5015610b505760405163095ea7b360e01b81526000805160206114ed8339815191526004820152602481018290526020816044818b8b5af1908115610a84578891610b31575b506108a4576322f3ebb360e21b87526004869052602452604486fd5b610b4a915060203d60201161031357610304818361127f565b38610b15565b60448784866322f3ebb360e21b8352600452602452fd5b610b80915060203d60201161031357610304818361127f565b38610acf565b63548ea0cf60e11b8752600487fd5b6040516315ab88c960e31b8152906020826004816000805160206114cd8339815191525afa918215611001578a9261110e575b50610c598a60405193610bdc60808661127f565b60038552606094859036906020013760405190610bfa60808361127f565b60038252853660208401378c610c0f8361132e565b52610c1982611351565b6001600160a01b03909116905289610c3082611361565b52604051809381926307c0329d60e21b83528b60048401526040602484015260448301906113f5565b03816000805160206114cd8339815191525afa801561104557610c83918c916110fa575b5061132e565b5183106110eb5760405163c45a015560e01b8152906020826004816000805160206114cd8339815191525afa918215611045578b926110af575b506040516315ab88c960e31b8152946020866004816000805160206114cd8339815191525afa9586156110a4578c96611064575b50888b101561105f57905b6001600160a01b03821615611050576040516001600160601b0319606093841b8116602083019081529290931b90921660348301526028825290610d4160488261127f565b5190209060405191602083019160ff60f81b835260018060601b03199060601b16602184015260358301527f96e8ac4277198ff8b6f785478aa9a39f403cb768dd02cbee326c3e7da348845f605583015260558252610da160758361127f565b905190206040516370a0823160e01b81526001600160a01b03909116600482018190529091906020836024818d5afa80156110455788938c9161100c575b5015159081610f91575b5015610f475750506040519150610e0160608361127f565b60028252604036602084013784610e228389610e1c8261132e565b52611351565b525b60405163095ea7b360e01b81526000805160206114cd8339815191526004820152602481018290526020816044818c8c5af18015610f3c57610f1f575b5060c8420191824211610f0b57610ea289916040519485928392634401edf760e11b845289600485015286602485015260a0604485015260a48401906113f5565b9030606484015260848301520381836000805160206114cd8339815191525af1918215610a8457610ee492610edd918a91610ee9575061132e565b5190611432565b61084b565b610f0591503d808c833e610efd818361127f565b810190611371565b38610c7d565b634e487b7160e01b89526011600452602489fd5b610f379060203d60201161031357610304818361127f565b610e61565b6040513d8b823e3d90fd5b604051610f8b91610f5960808361127f565b6003825236602083013780948a610f6f8361132e565b52610f7982611351565b6001600160a01b039091169052611361565b52610e24565b925050604051916370a0823160e01b835260048301526020826024818a5afa80156110015787928b91610fc8575b50151538610de9565b9250506020823d602011610ff9575b81610fe46020938361127f565b81010312610ff55786915138610fbf565b8980fd5b3d9150610fd7565b6040513d8c823e3d90fd5b9350506020833d60201161103d575b816110286020938361127f565b810103126110395787925138610ddf565b8a80fd5b3d915061101b565b6040513d8d823e3d90fd5b633c5a83ed60e11b8c5260048cfd5b610cfc565b9095506020813d60201161109c575b816110806020938361127f565b81010312611098576110919061131a565b9438610cf1565b8b80fd5b3d9150611073565b6040513d8e823e3d90fd5b9091506020813d6020116110e3575b816110cb6020938361127f565b81010312611039576110dc9061131a565b9038610cbd565b3d91506110be565b63548ea0cf60e11b8a5260048afd5b610f0591503d808e833e610efd818361127f565b9091506020813d602011611142575b8161112a6020938361127f565b81010312610ff55761113b9061131a565b9038610bc8565b3d915061111d565b945092506040843d604011611184575b816111676040938361127f565b8101031261075057602061117a8561131a565b9401519238610824565b3d915061115a565b6040513d89823e3d90fd5b6044868387630e21dcbb60e11b8352600452602452fd5b6111c7915060203d60201161031357610304818361127f565b386107f7565b63d92e233d60e01b8552600485fd5b506001600160a01b038216156107af565b631f2a200560e01b8452600484fd5b90503461075857816003193601126107585780624c4b4060209252f35b602435906001600160a01b038216820361038457565b600435906001600160a01b038216820361038457565b6060906003190112610384576004356001600160a01b038116810361038457906024356001600160a01b0381168103610384579060443590565b601f909101601f19168101906001600160401b038211908210176112a257604052565b634e487b7160e01b600052604160045260246000fd5b90816020910312610384575180151581036103845790565b6001600160a01b039091168152602081019190915260400190565b356001600160a01b03811681036103845790565b6001600160401b0381116112a257601f01601f191660200190565b51906001600160a01b038216820361038457565b80511561133b5760200190565b634e487b7160e01b600052603260045260246000fd5b80516001101561133b5760400190565b80516002101561133b5760600190565b602081830312610384578051906001600160401b03821161038457019080601f83011215610384578151916001600160401b0383116112a2578260051b9060208201936113c1604051958661127f565b845260208085019282010192831161038457602001905b8282106113e55750505090565b81518152602091820191016113d8565b906020808351928381520192019060005b8181106114135750505090565b82516001600160a01b0316845260209384019390920191600101611406565b9190820391821161143f57565b634e487b7160e01b600052601160045260246000fd5b9190820180921161143f57565b919082519283825260005b84811061148e575050826000602080949584010152601f8019910116010190565b8060208092840101518282860101520161146d565b6000546001600160a01b031633036114b757565b63118cdaa760e01b6000523360045260246000fdfe0000000000000000000000002ca7d64a7efe2d62a725e2b35cf7230d6677ffee0000000000000000000000006c533f7fe93fae114d0954697069df33c9b74fd78be0079c531659141344cd1fd0a4f28419497f9722a3daafe3b4186f6b6457e0a26469706673582212201f4bda79acab17f672ce0ea9c95f4633b03c4b97d687c4330d6101bef6292a2e64736f6c634300081a0033",
  "linkReferences": {},
  "deployedLinkReferences": {}
}