{
  "_format": "hh-sol-artifact-1",
  "contractName": "VaultExtension",
  "sourceName": "contracts/_VaultExtension.sol",
  "abi": [
    {
      "inputs": [
        {
          "internalType": "contract IVault",
          "name": "mainVault",
          "type": "address"
        },
        {
          "internalType": "contract IVaultAdmin",
          "name": "vaultAdmin",
          "type": "address"
        }
      ],
      "stateMutability": "nonpayable",
      "type": "constructor"
    },
    {
      "inputs": [
        {
          "internalType": "address",
          "name": "target",
          "type": "address"
        }
      ],
      "name": "AddressEmptyCode",
      "type": "error"
    },
    {
      "inputs": [],
      "name": "AfterAddLiquidityHookFailed",
      "type": "error"
    },
    {
      "inputs": [],
      "name": "AfterInitializeHookFailed",
      "type": "error"
    },
    {
      "inputs": [],
      "name": "AfterRemoveLiquidityHookFailed",
      "type": "error"
    },
    {
      "inputs": [],
      "name": "AfterSwapHookFailed",
      "type": "error"
    },
    {
      "inputs": [],
      "name": "AmountGivenZero",
      "type": "error"
    },
    {
      "inputs": [
        {
          "internalType": "contract IERC20",
          "name": "tokenIn",
          "type": "address"
        },
        {
          "internalType": "uint256",
          "name": "amountIn",
          "type": "uint256"
        },
        {
          "internalType": "uint256",
          "name": "maxAmountIn",
          "type": "uint256"
        }
      ],
      "name": "AmountInAboveMax",
      "type": "error"
    },
    {
      "inputs": [
        {
          "internalType": "contract IERC20",
          "name": "tokenOut",
          "type": "address"
        },
        {
          "internalType": "uint256",
          "name": "amountOut",
          "type": "uint256"
        },
        {
          "internalType": "uint256",
          "name": "minAmountOut",
          "type": "uint256"
        }
      ],
      "name": "AmountOutBelowMin",
      "type": "error"
    },
    {
      "inputs": [],
      "name": "BalanceNotSettled",
      "type": "error"
    },
    {
      "inputs": [],
      "name": "BalanceOverflow",
      "type": "error"
    },
    {
      "inputs": [],
      "name": "BeforeAddLiquidityHookFailed",
      "type": "error"
    },
    {
      "inputs": [],
      "name": "BeforeInitializeHookFailed",
      "type": "error"
    },
    {
      "inputs": [],
      "name": "BeforeRemoveLiquidityHookFailed",
      "type": "error"
    },
    {
      "inputs": [],
      "name": "BeforeSwapHookFailed",
      "type": "error"
    },
    {
      "inputs": [
        {
          "internalType": "uint256",
          "name": "amountIn",
          "type": "uint256"
        },
        {
          "internalType": "uint256",
          "name": "maxAmountIn",
          "type": "uint256"
        }
      ],
      "name": "BptAmountInAboveMax",
      "type": "error"
    },
    {
      "inputs": [
        {
          "internalType": "uint256",
          "name": "amountOut",
          "type": "uint256"
        },
        {
          "internalType": "uint256",
          "name": "minAmountOut",
          "type": "uint256"
        }
      ],
      "name": "BptAmountOutBelowMin",
      "type": "error"
    },
    {
      "inputs": [
        {
          "internalType": "contract IERC4626",
          "name": "wrappedToken",
          "type": "address"
        }
      ],
      "name": "BufferAlreadyInitialized",
      "type": "error"
    },
    {
      "inputs": [
        {
          "internalType": "contract IERC4626",
          "name": "wrappedToken",
          "type": "address"
        }
      ],
      "name": "BufferNotInitialized",
      "type": "error"
    },
    {
      "inputs": [],
      "name": "BufferSharesInvalidOwner",
      "type": "error"
    },
    {
      "inputs": [],
      "name": "BufferSharesInvalidReceiver",
      "type": "error"
    },
    {
      "inputs": [
        {
          "internalType": "uint256",
          "name": "totalSupply",
          "type": "uint256"
        }
      ],
      "name": "BufferTotalSupplyTooLow",
      "type": "error"
    },
    {
      "inputs": [],
      "name": "CannotReceiveEth",
      "type": "error"
    },
    {
      "inputs": [],
      "name": "CannotSwapSameToken",
      "type": "error"
    },
    {
      "inputs": [],
      "name": "CodecOverflow",
      "type": "error"
    },
    {
      "inputs": [],
      "name": "DoesNotSupportAddLiquidityCustom",
      "type": "error"
    },
    {
      "inputs": [],
      "name": "DoesNotSupportDonation",
      "type": "error"
    },
    {
      "inputs": [],
      "name": "DoesNotSupportRemoveLiquidityCustom",
      "type": "error"
    },
    {
      "inputs": [],
      "name": "DoesNotSupportUnbalancedLiquidity",
      "type": "error"
    },
    {
      "inputs": [],
      "name": "DynamicSwapFeeHookFailed",
      "type": "error"
    },
    {
      "inputs": [
        {
          "internalType": "address",
          "name": "spender",
          "type": "address"
        },
        {
          "internalType": "uint256",
          "name": "allowance",
          "type": "uint256"
        },
        {
          "internalType": "uint256",
          "name": "needed",
          "type": "uint256"
        }
      ],
      "name": "ERC20InsufficientAllowance",
      "type": "error"
    },
    {
      "inputs": [
        {
          "internalType": "address",
          "name": "sender",
          "type": "address"
        },
        {
          "internalType": "uint256",
          "name": "balance",
          "type": "uint256"
        },
        {
          "internalType": "uint256",
          "name": "needed",
          "type": "uint256"
        }
      ],
      "name": "ERC20InsufficientBalance",
      "type": "error"
    },
    {
      "inputs": [
        {
          "internalType": "address",
          "name": "approver",
          "type": "address"
        }
      ],
      "name": "ERC20InvalidApprover",
      "type": "error"
    },
    {
      "inputs": [
        {
          "internalType": "address",
          "name": "receiver",
          "type": "address"
        }
      ],
      "name": "ERC20InvalidReceiver",
      "type": "error"
    },
    {
      "inputs": [
        {
          "internalType": "address",
          "name": "sender",
          "type": "address"
        }
      ],
      "name": "ERC20InvalidSender",
      "type": "error"
    },
    {
      "inputs": [
        {
          "internalType": "address",
          "name": "spender",
          "type": "address"
        }
      ],
      "name": "ERC20InvalidSpender",
      "type": "error"
    },
    {
      "inputs": [],
      "name": "ErrorSelectorNotFound",
      "type": "error"
    },
    {
      "inputs": [],
      "name": "FailedCall",
      "type": "error"
    },
    {
      "inputs": [],
      "name": "FeePrecisionTooHigh",
      "type": "error"
    },
    {
      "inputs": [
        {
          "internalType": "contract IERC20",
          "name": "tokenIn",
          "type": "address"
        },
        {
          "internalType": "uint256",
          "name": "amountIn",
          "type": "uint256"
        },
        {
          "internalType": "uint256",
          "name": "maxAmountIn",
          "type": "uint256"
        }
      ],
      "name": "HookAdjustedAmountInAboveMax",
      "type": "error"
    },
    {
      "inputs": [
        {
          "internalType": "contract IERC20",
          "name": "tokenOut",
          "type": "address"
        },
        {
          "internalType": "uint256",
          "name": "amountOut",
          "type": "uint256"
        },
        {
          "internalType": "uint256",
          "name": "minAmountOut",
          "type": "uint256"
        }
      ],
      "name": "HookAdjustedAmountOutBelowMin",
      "type": "error"
    },
    {
      "inputs": [
        {
          "internalType": "uint256",
          "name": "amount",
          "type": "uint256"
        },
        {
          "internalType": "uint256",
          "name": "limit",
          "type": "uint256"
        }
      ],
      "name": "HookAdjustedSwapLimit",
      "type": "error"
    },
    {
      "inputs": [
        {
          "internalType": "address",
          "name": "poolHooksContract",
          "type": "address"
        },
        {
          "internalType": "address",
          "name": "pool",
          "type": "address"
        },
        {
          "internalType": "address",
          "name": "poolFactory",
          "type": "address"
        }
      ],
      "name": "HookRegistrationFailed",
      "type": "error"
    },
    {
      "inputs": [],
      "name": "InputLengthMismatch",
      "type": "error"
    },
    {
      "inputs": [
        {
          "internalType": "uint256",
          "name": "balance",
          "type": "uint256"
        },
        {
          "internalType": "uint256",
          "name": "needed",
          "type": "uint256"
        }
      ],
      "name": "InsufficientBalance",
      "type": "error"
    },
    {
      "inputs": [],
      "name": "InvalidAddLiquidityKind",
      "type": "error"
    },
    {
      "inputs": [],
      "name": "InvalidRemoveLiquidityKind",
      "type": "error"
    },
    {
      "inputs": [],
      "name": "InvalidToken",
      "type": "error"
    },
    {
      "inputs": [],
      "name": "InvalidTokenConfiguration",
      "type": "error"
    },
    {
      "inputs": [],
      "name": "InvalidTokenDecimals",
      "type": "error"
    },
    {
      "inputs": [],
      "name": "InvalidTokenType",
      "type": "error"
    },
    {
      "inputs": [
        {
          "internalType": "contract IERC4626",
          "name": "wrappedToken",
          "type": "address"
        }
      ],
      "name": "InvalidUnderlyingToken",
      "type": "error"
    },
    {
      "inputs": [
        {
          "internalType": "uint256",
          "name": "issuedShares",
          "type": "uint256"
        },
        {
          "internalType": "uint256",
          "name": "minIssuedShares",
          "type": "uint256"
        }
      ],
      "name": "IssuedSharesBelowMin",
      "type": "error"
    },
    {
      "inputs": [],
      "name": "MaxTokens",
      "type": "error"
    },
    {
      "inputs": [],
      "name": "MinTokens",
      "type": "error"
    },
    {
      "inputs": [],
      "name": "NotEnoughBufferShares",
      "type": "error"
    },
    {
      "inputs": [
        {
          "internalType": "contract IERC4626",
          "name": "wrappedToken",
          "type": "address"
        },
        {
          "internalType": "uint256",
          "name": "expectedUnderlyingAmount",
          "type": "uint256"
        },
        {
          "internalType": "uint256",
          "name": "actualUnderlyingAmount",
          "type": "uint256"
        }
      ],
      "name": "NotEnoughUnderlying",
      "type": "error"
    },
    {
      "inputs": [
        {
          "internalType": "contract IERC4626",
          "name": "wrappedToken",
          "type": "address"
        },
        {
          "internalType": "uint256",
          "name": "expectedWrappedAmount",
          "type": "uint256"
        },
        {
          "internalType": "uint256",
          "name": "actualWrappedAmount",
          "type": "uint256"
        }
      ],
      "name": "NotEnoughWrapped",
      "type": "error"
    },
    {
      "inputs": [],
      "name": "NotStaticCall",
      "type": "error"
    },
    {
      "inputs": [],
      "name": "NotVaultDelegateCall",
      "type": "error"
    },
    {
      "inputs": [],
      "name": "OutOfBounds",
      "type": "error"
    },
    {
      "inputs": [],
      "name": "PauseBufferPeriodDurationTooLarge",
      "type": "error"
    },
    {
      "inputs": [],
      "name": "PercentageAboveMax",
      "type": "error"
    },
    {
      "inputs": [
        {
          "internalType": "address",
          "name": "pool",
          "type": "address"
        }
      ],
      "name": "PoolAlreadyInitialized",
      "type": "error"
    },
    {
      "inputs": [
        {
          "internalType": "address",
          "name": "pool",
          "type": "address"
        }
      ],
      "name": "PoolAlreadyRegistered",
      "type": "error"
    },
    {
      "inputs": [
        {
          "internalType": "address",
          "name": "pool",
          "type": "address"
        }
      ],
      "name": "PoolInRecoveryMode",
      "type": "error"
    },
    {
      "inputs": [
        {
          "internalType": "address",
          "name": "pool",
          "type": "address"
        }
      ],
      "name": "PoolNotInRecoveryMode",
      "type": "error"
    },
    {
      "inputs": [
        {
          "internalType": "address",
          "name": "pool",
          "type": "address"
        }
      ],
      "name": "PoolNotInitialized",
      "type": "error"
    },
    {
      "inputs": [
        {
          "internalType": "address",
          "name": "pool",
          "type": "address"
        }
      ],
      "name": "PoolNotPaused",
      "type": "error"
    },
    {
      "inputs": [
        {
          "internalType": "address",
          "name": "pool",
          "type": "address"
        }
      ],
      "name": "PoolNotRegistered",
      "type": "error"
    },
    {
      "inputs": [
        {
          "internalType": "address",
          "name": "pool",
          "type": "address"
        }
      ],
      "name": "PoolPauseWindowExpired",
      "type": "error"
    },
    {
      "inputs": [
        {
          "internalType": "address",
          "name": "pool",
          "type": "address"
        }
      ],
      "name": "PoolPaused",
      "type": "error"
    },
    {
      "inputs": [
        {
          "internalType": "uint256",
          "name": "totalSupply",
          "type": "uint256"
        }
      ],
      "name": "PoolTotalSupplyTooLow",
      "type": "error"
    },
    {
      "inputs": [],
      "name": "ProtocolFeesExceedTotalCollected",
      "type": "error"
    },
    {
      "inputs": [],
      "name": "QueriesDisabled",
      "type": "error"
    },
    {
      "inputs": [],
      "name": "QueriesDisabledPermanently",
      "type": "error"
    },
    {
      "inputs": [],
      "name": "QuoteResultSpoofed",
      "type": "error"
    },
    {
      "inputs": [],
      "name": "ReentrancyGuardReentrantCall",
      "type": "error"
    },
    {
      "inputs": [
        {
          "internalType": "bytes",
          "name": "result",
          "type": "bytes"
        }
      ],
      "name": "Result",
      "type": "error"
    },
    {
      "inputs": [],
      "name": "RouterNotTrusted",
      "type": "error"
    },
    {
      "inputs": [
        {
          "internalType": "uint256",
          "name": "value",
          "type": "uint256"
        }
      ],
      "name": "SafeCastOverflowedUintToInt",
      "type": "error"
    },
    {
      "inputs": [
        {
          "internalType": "address",
          "name": "sender",
          "type": "address"
        }
      ],
      "name": "SenderIsNotVault",
      "type": "error"
    },
    {
      "inputs": [],
      "name": "SwapFeePercentageTooHigh",
      "type": "error"
    },
    {
      "inputs": [],
      "name": "SwapFeePercentageTooLow",
      "type": "error"
    },
    {
      "inputs": [
        {
          "internalType": "uint256",
          "name": "amount",
          "type": "uint256"
        },
        {
          "internalType": "uint256",
          "name": "limit",
          "type": "uint256"
        }
      ],
      "name": "SwapLimit",
      "type": "error"
    },
    {
      "inputs": [
        {
          "internalType": "contract IERC20",
          "name": "token",
          "type": "address"
        }
      ],
      "name": "TokenAlreadyRegistered",
      "type": "error"
    },
    {
      "inputs": [
        {
          "internalType": "contract IERC20",
          "name": "token",
          "type": "address"
        }
      ],
      "name": "TokenNotRegistered",
      "type": "error"
    },
    {
      "inputs": [
        {
          "internalType": "address",
          "name": "pool",
          "type": "address"
        },
        {
          "internalType": "address",
          "name": "expectedToken",
          "type": "address"
        },
        {
          "internalType": "address",
          "name": "actualToken",
          "type": "address"
        }
      ],
      "name": "TokensMismatch",
      "type": "error"
    },
    {
      "inputs": [],
      "name": "TokensNotSorted",
      "type": "error"
    },
    {
      "inputs": [],
      "name": "TradeAmountTooSmall",
      "type": "error"
    },
    {
      "inputs": [],
      "name": "VaultBuffersArePaused",
      "type": "error"
    },
    {
      "inputs": [],
      "name": "VaultIsNotUnlocked",
      "type": "error"
    },
    {
      "inputs": [],
      "name": "VaultNotPaused",
      "type": "error"
    },
    {
      "inputs": [],
      "name": "VaultPauseWindowDurationTooLarge",
      "type": "error"
    },
    {
      "inputs": [],
      "name": "VaultPauseWindowExpired",
      "type": "error"
    },
    {
      "inputs": [],
      "name": "VaultPaused",
      "type": "error"
    },
    {
      "inputs": [
        {
          "internalType": "contract IERC4626",
          "name": "wrappedToken",
          "type": "address"
        }
      ],
      "name": "WrapAmountTooSmall",
      "type": "error"
    },
    {
      "inputs": [],
      "name": "WrongProtocolFeeControllerDeployment",
      "type": "error"
    },
    {
      "inputs": [
        {
          "internalType": "contract IERC4626",
          "name": "wrappedToken",
          "type": "address"
        },
        {
          "internalType": "address",
          "name": "underlyingToken",
          "type": "address"
        }
      ],
      "name": "WrongUnderlyingToken",
      "type": "error"
    },
    {
      "inputs": [],
      "name": "WrongVaultAdminDeployment",
      "type": "error"
    },
    {
      "inputs": [],
      "name": "WrongVaultExtensionDeployment",
      "type": "error"
    },
    {
      "anonymous": false,
      "inputs": [
        {
          "indexed": true,
          "internalType": "address",
          "name": "pool",
          "type": "address"
        },
        {
          "indexed": true,
          "internalType": "address",
          "name": "token",
          "type": "address"
        },
        {
          "indexed": false,
          "internalType": "uint256",
          "name": "tokenIndex",
          "type": "uint256"
        }
      ],
      "name": "AddedNewTokenToPool",
      "type": "event"
    },
    {
      "anonymous": false,
      "inputs": [
        {
          "indexed": true,
          "internalType": "address",
          "name": "pool",
          "type": "address"
        },
        {
          "indexed": false,
          "internalType": "uint256",
          "name": "aggregateSwapFeePercentage",
          "type": "uint256"
        }
      ],
      "name": "AggregateSwapFeePercentageChanged",
      "type": "event"
    },
    {
      "anonymous": false,
      "inputs": [
        {
          "indexed": true,
          "internalType": "address",
          "name": "pool",
          "type": "address"
        },
        {
          "indexed": false,
          "internalType": "uint256",
          "name": "aggregateYieldFeePercentage",
          "type": "uint256"
        }
      ],
      "name": "AggregateYieldFeePercentageChanged",
      "type": "event"
    },
    {
      "anonymous": false,
      "inputs": [
        {
          "indexed": true,
          "internalType": "address",
          "name": "pool",
          "type": "address"
        },
        {
          "indexed": true,
          "internalType": "address",
          "name": "owner",
          "type": "address"
        },
        {
          "indexed": true,
          "internalType": "address",
          "name": "spender",
          "type": "address"
        },
        {
          "indexed": false,
          "internalType": "uint256",
          "name": "value",
          "type": "uint256"
        }
      ],
      "name": "Approval",
      "type": "event"
    },
    {
      "anonymous": false,
      "inputs": [
        {
          "indexed": true,
          "internalType": "contract IAuthorizer",
          "name": "newAuthorizer",
          "type": "address"
        }
      ],
      "name": "AuthorizerChanged",
      "type": "event"
    },
    {
      "anonymous": false,
      "inputs": [
        {
          "indexed": true,
          "internalType": "contract IERC4626",
          "name": "wrappedToken",
          "type": "address"
        },
        {
          "indexed": true,
          "internalType": "address",
          "name": "from",
          "type": "address"
        },
        {
          "indexed": false,
          "internalType": "uint256",
          "name": "burnedShares",
          "type": "uint256"
        }
      ],
      "name": "BufferSharesBurned",
      "type": "event"
    },
    {
      "anonymous": false,
      "inputs": [
        {
          "indexed": true,
          "internalType": "contract IERC4626",
          "name": "wrappedToken",
          "type": "address"
        },
        {
          "indexed": true,
          "internalType": "address",
          "name": "to",
          "type": "address"
        },
        {
          "indexed": false,
          "internalType": "uint256",
          "name": "issuedShares",
          "type": "uint256"
        }
      ],
      "name": "BufferSharesMinted",
      "type": "event"
    },
    {
      "anonymous": false,
      "inputs": [
        {
          "indexed": true,
          "internalType": "address",
          "name": "pool",
          "type": "address"
        },
        {
          "indexed": true,
          "internalType": "address",
          "name": "liquidityProvider",
          "type": "address"
        },
        {
          "indexed": true,
          "internalType": "enum AddLiquidityKind",
          "name": "kind",
          "type": "uint8"
        },
        {
          "indexed": false,
          "internalType": "uint256",
          "name": "totalSupply",
          "type": "uint256"
        },
        {
          "indexed": false,
          "internalType": "uint256[]",
          "name": "amountsAddedRaw",
          "type": "uint256[]"
        },
        {
          "indexed": false,
          "internalType": "uint256[]",
          "name": "swapFeeAmountsRaw",
          "type": "uint256[]"
        }
      ],
      "name": "LiquidityAdded",
      "type": "event"
    },
    {
      "anonymous": false,
      "inputs": [
        {
          "indexed": true,
          "internalType": "contract IERC4626",
          "name": "wrappedToken",
          "type": "address"
        },
        {
          "indexed": false,
          "internalType": "uint256",
          "name": "amountUnderlying",
          "type": "uint256"
        },
        {
          "indexed": false,
          "internalType": "uint256",
          "name": "amountWrapped",
          "type": "uint256"
        },
        {
          "indexed": false,
          "internalType": "bytes32",
          "name": "bufferBalances",
          "type": "bytes32"
        }
      ],
      "name": "LiquidityAddedToBuffer",
      "type": "event"
    },
    {
      "anonymous": false,
      "inputs": [
        {
          "indexed": true,
          "internalType": "address",
          "name": "pool",
          "type": "address"
        },
        {
          "indexed": true,
          "internalType": "address",
          "name": "liquidityProvider",
          "type": "address"
        },
        {
          "indexed": true,
          "internalType": "enum RemoveLiquidityKind",
          "name": "kind",
          "type": "uint8"
        },
        {
          "indexed": false,
          "internalType": "uint256",
          "name": "totalSupply",
          "type": "uint256"
        },
        {
          "indexed": false,
          "internalType": "uint256[]",
          "name": "amountsRemovedRaw",
          "type": "uint256[]"
        },
        {
          "indexed": false,
          "internalType": "uint256[]",
          "name": "swapFeeAmountsRaw",
          "type": "uint256[]"
        }
      ],
      "name": "LiquidityRemoved",
      "type": "event"
    },
    {
      "anonymous": false,
      "inputs": [
        {
          "indexed": true,
          "internalType": "contract IERC4626",
          "name": "wrappedToken",
          "type": "address"
        },
        {
          "indexed": false,
          "internalType": "uint256",
          "name": "amountUnderlying",
          "type": "uint256"
        },
        {
          "indexed": false,
          "internalType": "uint256",
          "name": "amountWrapped",
          "type": "uint256"
        },
        {
          "indexed": false,
          "internalType": "bytes32",
          "name": "bufferBalances",
          "type": "bytes32"
        }
      ],
      "name": "LiquidityRemovedFromBuffer",
      "type": "event"
    },
    {
      "anonymous": false,
      "inputs": [
        {
          "indexed": true,
          "internalType": "address",
          "name": "pool",
          "type": "address"
        }
      ],
      "name": "PoolInitialized",
      "type": "event"
    },
    {
      "anonymous": false,
      "inputs": [
        {
          "indexed": true,
          "internalType": "address",
          "name": "pool",
          "type": "address"
        },
        {
          "indexed": false,
          "internalType": "bool",
          "name": "paused",
          "type": "bool"
        }
      ],
      "name": "PoolPausedStateChanged",
      "type": "event"
    },
    {
      "anonymous": false,
      "inputs": [
        {
          "indexed": true,
          "internalType": "address",
          "name": "pool",
          "type": "address"
        },
        {
          "indexed": false,
          "internalType": "bool",
          "name": "recoveryMode",
          "type": "bool"
        }
      ],
      "name": "PoolRecoveryModeStateChanged",
      "type": "event"
    },
    {
      "anonymous": false,
      "inputs": [
        {
          "indexed": true,
          "internalType": "address",
          "name": "pool",
          "type": "address"
        },
        {
          "indexed": true,
          "internalType": "address",
          "name": "factory",
          "type": "address"
        },
        {
          "components": [
            {
              "internalType": "contract IERC20",
              "name": "token",
              "type": "address"
            },
            {
              "internalType": "uint256",
              "name": "chainId",
              "type": "uint256"
            },
            {
              "internalType": "enum TokenType",
              "name": "tokenType",
              "type": "uint8"
            },
            {
              "internalType": "contract IRateProvider",
              "name": "rateProvider",
              "type": "address"
            },
            {
              "internalType": "bool",
              "name": "paysYieldFees",
              "type": "bool"
            }
          ],
          "indexed": false,
          "internalType": "struct TokenConfig[]",
          "name": "tokenConfig",
          "type": "tuple[]"
        },
        {
          "indexed": false,
          "internalType": "uint256",
          "name": "swapFeePercentage",
          "type": "uint256"
        },
        {
          "indexed": false,
          "internalType": "uint32",
          "name": "pauseWindowEndTime",
          "type": "uint32"
        },
        {
          "components": [
            {
              "internalType": "address",
              "name": "pauseManager",
              "type": "address"
            },
            {
              "internalType": "address",
              "name": "swapFeeManager",
              "type": "address"
            },
            {
              "internalType": "address",
              "name": "poolCreator",
              "type": "address"
            }
          ],
          "indexed": false,
          "internalType": "struct PoolRoleAccounts",
          "name": "roleAccounts",
          "type": "tuple"
        },
        {
          "components": [
            {
              "internalType": "bool",
              "name": "disableUnbalancedLiquidity",
              "type": "bool"
            },
            {
              "internalType": "bool",
              "name": "enableAddLiquidityCustom",
              "type": "bool"
            },
            {
              "internalType": "bool",
              "name": "enableRemoveLiquidityCustom",
              "type": "bool"
            },
            {
              "internalType": "bool",
              "name": "enableDonation",
              "type": "bool"
            }
          ],
          "indexed": false,
          "internalType": "struct LiquidityManagement",
          "name": "liquidityManagement",
          "type": "tuple"
        }
      ],
      "name": "PoolRegistered",
      "type": "event"
    },
    {
      "anonymous": false,
      "inputs": [
        {
          "indexed": true,
          "internalType": "contract IProtocolFeeController",
          "name": "newProtocolFeeController",
          "type": "address"
        }
      ],
      "name": "ProtocolFeeControllerChanged",
      "type": "event"
    },
    {
      "anonymous": false,
      "inputs": [
        {
          "indexed": true,
          "internalType": "address",
          "name": "pool",
          "type": "address"
        },
        {
          "indexed": true,
          "internalType": "contract IERC20",
          "name": "tokenIn",
          "type": "address"
        },
        {
          "indexed": true,
          "internalType": "contract IERC20",
          "name": "tokenOut",
          "type": "address"
        },
        {
          "indexed": false,
          "internalType": "uint256",
          "name": "amountIn",
          "type": "uint256"
        },
        {
          "indexed": false,
          "internalType": "uint256",
          "name": "amountOut",
          "type": "uint256"
        },
        {
          "indexed": false,
          "internalType": "uint256",
          "name": "swapFeePercentage",
          "type": "uint256"
        },
        {
          "indexed": false,
          "internalType": "uint256",
          "name": "swapFeeAmount",
          "type": "uint256"
        }
      ],
      "name": "Swap",
      "type": "event"
    },
    {
      "anonymous": false,
      "inputs": [
        {
          "indexed": true,
          "internalType": "address",
          "name": "pool",
          "type": "address"
        },
        {
          "indexed": false,
          "internalType": "uint256",
          "name": "swapFeePercentage",
          "type": "uint256"
        }
      ],
      "name": "SwapFeePercentageChanged",
      "type": "event"
    },
    {
      "anonymous": false,
      "inputs": [
        {
          "indexed": true,
          "internalType": "address",
          "name": "pool",
          "type": "address"
        },
        {
          "indexed": true,
          "internalType": "address",
          "name": "from",
          "type": "address"
        },
        {
          "indexed": true,
          "internalType": "address",
          "name": "to",
          "type": "address"
        },
        {
          "indexed": false,
          "internalType": "uint256",
          "name": "value",
          "type": "uint256"
        }
      ],
      "name": "Transfer",
      "type": "event"
    },
    {
      "anonymous": false,
      "inputs": [
        {
          "indexed": true,
          "internalType": "contract IERC4626",
          "name": "wrappedToken",
          "type": "address"
        },
        {
          "indexed": false,
          "internalType": "uint256",
          "name": "burnedShares",
          "type": "uint256"
        },
        {
          "indexed": false,
          "internalType": "uint256",
          "name": "withdrawnUnderlying",
          "type": "uint256"
        },
        {
          "indexed": false,
          "internalType": "bytes32",
          "name": "bufferBalances",
          "type": "bytes32"
        }
      ],
      "name": "Unwrap",
      "type": "event"
    },
    {
      "anonymous": false,
      "inputs": [
        {
          "indexed": true,
          "internalType": "address",
          "name": "pool",
          "type": "address"
        },
        {
          "indexed": true,
          "internalType": "bytes32",
          "name": "eventKey",
          "type": "bytes32"
        },
        {
          "indexed": false,
          "internalType": "bytes",
          "name": "eventData",
          "type": "bytes"
        }
      ],
      "name": "VaultAuxiliary",
      "type": "event"
    },
    {
      "anonymous": false,
      "inputs": [
        {
          "indexed": false,
          "internalType": "bool",
          "name": "paused",
          "type": "bool"
        }
      ],
      "name": "VaultBuffersPausedStateChanged",
      "type": "event"
    },
    {
      "anonymous": false,
      "inputs": [
        {
          "indexed": false,
          "internalType": "bool",
          "name": "paused",
          "type": "bool"
        }
      ],
      "name": "VaultPausedStateChanged",
      "type": "event"
    },
    {
      "anonymous": false,
      "inputs": [],
      "name": "VaultQueriesDisabled",
      "type": "event"
    },
    {
      "anonymous": false,
      "inputs": [],
      "name": "VaultQueriesEnabled",
      "type": "event"
    },
    {
      "anonymous": false,
      "inputs": [
        {
          "indexed": true,
          "internalType": "contract IERC4626",
          "name": "wrappedToken",
          "type": "address"
        },
        {
          "indexed": false,
          "internalType": "uint256",
          "name": "depositedUnderlying",
          "type": "uint256"
        },
        {
          "indexed": false,
          "internalType": "uint256",
          "name": "mintedShares",
          "type": "uint256"
        },
        {
          "indexed": false,
          "internalType": "bytes32",
          "name": "bufferBalances",
          "type": "bytes32"
        }
      ],
      "name": "Wrap",
      "type": "event"
    },
    {
      "stateMutability": "payable",
      "type": "fallback"
    },
    {
      "inputs": [
        {
          "internalType": "address",
          "name": "token",
          "type": "address"
        },
        {
          "internalType": "address",
          "name": "owner",
          "type": "address"
        },
        {
          "internalType": "address",
          "name": "spender",
          "type": "address"
        }
      ],
      "name": "allowance",
      "outputs": [
        {
          "internalType": "uint256",
          "name": "",
          "type": "uint256"
        }
      ],
      "stateMutability": "view",
      "type": "function"
    },
    {
      "inputs": [
        {
          "internalType": "address",
          "name": "owner",
          "type": "address"
        },
        {
          "internalType": "address",
          "name": "spender",
          "type": "address"
        },
        {
          "internalType": "uint256",
          "name": "amount",
          "type": "uint256"
        }
      ],
      "name": "approve",
      "outputs": [
        {
          "internalType": "bool",
          "name": "",
          "type": "bool"
        }
      ],
      "stateMutability": "nonpayable",
      "type": "function"
    },
    {
      "inputs": [
        {
          "internalType": "address",
          "name": "token",
          "type": "address"
        },
        {
          "internalType": "address",
          "name": "account",
          "type": "address"
        }
      ],
      "name": "balanceOf",
      "outputs": [
        {
          "internalType": "uint256",
          "name": "",
          "type": "uint256"
        }
      ],
      "stateMutability": "view",
      "type": "function"
    },
    {
      "inputs": [
        {
          "internalType": "bytes32",
          "name": "eventKey",
          "type": "bytes32"
        },
        {
          "internalType": "bytes",
          "name": "eventData",
          "type": "bytes"
        }
      ],
      "name": "emitAuxiliaryEvent",
      "outputs": [],
      "stateMutability": "nonpayable",
      "type": "function"
    },
    {
      "inputs": [
        {
          "internalType": "address",
          "name": "pool",
          "type": "address"
        }
      ],
      "name": "getAddLiquidityCalledFlag",
      "outputs": [
        {
          "internalType": "bool",
          "name": "",
          "type": "bool"
        }
      ],
      "stateMutability": "view",
      "type": "function"
    },
    {
      "inputs": [
        {
          "internalType": "address",
          "name": "pool",
          "type": "address"
        },
        {
          "internalType": "contract IERC20",
          "name": "token",
          "type": "address"
        }
      ],
      "name": "getAggregateSwapFeeAmount",
      "outputs": [
        {
          "internalType": "uint256",
          "name": "",
          "type": "uint256"
        }
      ],
      "stateMutability": "view",
      "type": "function"
    },
    {
      "inputs": [
        {
          "internalType": "address",
          "name": "pool",
          "type": "address"
        },
        {
          "internalType": "contract IERC20",
          "name": "token",
          "type": "address"
        }
      ],
      "name": "getAggregateYieldFeeAmount",
      "outputs": [
        {
          "internalType": "uint256",
          "name": "",
          "type": "uint256"
        }
      ],
      "stateMutability": "view",
      "type": "function"
    },
    {
      "inputs": [],
      "name": "getAuthorizer",
      "outputs": [
        {
          "internalType": "contract IAuthorizer",
          "name": "",
          "type": "address"
        }
      ],
      "stateMutability": "view",
      "type": "function"
    },
    {
      "inputs": [
        {
          "internalType": "address",
          "name": "pool",
          "type": "address"
        }
      ],
      "name": "getBptRate",
      "outputs": [
        {
          "internalType": "uint256",
          "name": "rate",
          "type": "uint256"
        }
      ],
      "stateMutability": "view",
      "type": "function"
    },
    {
      "inputs": [
        {
          "internalType": "address",
          "name": "pool",
          "type": "address"
        }
      ],
      "name": "getCurrentLiveBalances",
      "outputs": [
        {
          "internalType": "uint256[]",
          "name": "balancesLiveScaled18",
          "type": "uint256[]"
        }
      ],
      "stateMutability": "view",
      "type": "function"
    },
    {
      "inputs": [
        {
          "internalType": "contract IERC4626",
          "name": "wrappedToken",
          "type": "address"
        }
      ],
      "name": "getERC4626BufferAsset",
      "outputs": [
        {
          "internalType": "address",
          "name": "asset",
          "type": "address"
        }
      ],
      "stateMutability": "view",
      "type": "function"
    },
    {
      "inputs": [],
      "name": "getNonzeroDeltaCount",
      "outputs": [
        {
          "internalType": "uint256",
          "name": "",
          "type": "uint256"
        }
      ],
      "stateMutability": "view",
      "type": "function"
    },
    {
      "inputs": [
        {
          "internalType": "address",
          "name": "pool",
          "type": "address"
        }
      ],
      "name": "getPoolConfig",
      "outputs": [
        {
          "components": [
            {
              "components": [
                {
                  "internalType": "bool",
                  "name": "disableUnbalancedLiquidity",
                  "type": "bool"
                },
                {
                  "internalType": "bool",
                  "name": "enableAddLiquidityCustom",
                  "type": "bool"
                },
                {
                  "internalType": "bool",
                  "name": "enableRemoveLiquidityCustom",
                  "type": "bool"
                },
                {
                  "internalType": "bool",
                  "name": "enableDonation",
                  "type": "bool"
                }
              ],
              "internalType": "struct LiquidityManagement",
              "name": "liquidityManagement",
              "type": "tuple"
            },
            {
              "internalType": "uint256",
              "name": "staticSwapFeePercentage",
              "type": "uint256"
            },
            {
              "internalType": "uint256",
              "name": "aggregateSwapFeePercentage",
              "type": "uint256"
            },
            {
              "internalType": "uint256",
              "name": "aggregateYieldFeePercentage",
              "type": "uint256"
            },
            {
              "internalType": "uint40",
              "name": "tokenDecimalDiffs",
              "type": "uint40"
            },
            {
              "internalType": "uint32",
              "name": "pauseWindowEndTime",
              "type": "uint32"
            },
            {
              "internalType": "bool",
              "name": "isPoolRegistered",
              "type": "bool"
            },
            {
              "internalType": "bool",
              "name": "isPoolInitialized",
              "type": "bool"
            },
            {
              "internalType": "bool",
              "name": "isPoolPaused",
              "type": "bool"
            },
            {
              "internalType": "bool",
              "name": "isPoolInRecoveryMode",
              "type": "bool"
            }
          ],
          "internalType": "struct PoolConfig",
          "name": "",
          "type": "tuple"
        }
      ],
      "stateMutability": "view",
      "type": "function"
    },
    {
      "inputs": [
        {
          "internalType": "address",
          "name": "pool",
          "type": "address"
        }
      ],
      "name": "getPoolData",
      "outputs": [
        {
          "components": [
            {
              "internalType": "PoolConfigBits",
              "name": "poolConfigBits",
              "type": "bytes32"
            },
            {
              "internalType": "contract IERC20[]",
              "name": "tokens",
              "type": "address[]"
            },
            {
              "components": [
                {
                  "internalType": "enum TokenType",
                  "name": "tokenType",
                  "type": "uint8"
                },
                {
                  "internalType": "contract IRateProvider",
                  "name": "rateProvider",
                  "type": "address"
                },
                {
                  "internalType": "bool",
                  "name": "paysYieldFees",
                  "type": "bool"
                }
              ],
              "internalType": "struct TokenInfo[]",
              "name": "tokenInfo",
              "type": "tuple[]"
            },
            {
              "internalType": "uint256[]",
              "name": "balancesRaw",
              "type": "uint256[]"
            },
            {
              "internalType": "uint256[]",
              "name": "balancesLiveScaled18",
              "type": "uint256[]"
            },
            {
              "internalType": "uint256[]",
              "name": "tokenRates",
              "type": "uint256[]"
            },
            {
              "internalType": "uint256[]",
              "name": "decimalScalingFactors",
              "type": "uint256[]"
            }
          ],
          "internalType": "struct PoolData",
          "name": "",
          "type": "tuple"
        }
      ],
      "stateMutability": "view",
      "type": "function"
    },
    {
      "inputs": [
        {
          "internalType": "address",
          "name": "pool",
          "type": "address"
        }
      ],
      "name": "getPoolPausedState",
      "outputs": [
        {
          "internalType": "bool",
          "name": "",
          "type": "bool"
        },
        {
          "internalType": "uint32",
          "name": "",
          "type": "uint32"
        },
        {
          "internalType": "uint32",
          "name": "",
          "type": "uint32"
        },
        {
          "internalType": "address",
          "name": "",
          "type": "address"
        }
      ],
      "stateMutability": "view",
      "type": "function"
    },
    {
      "inputs": [
        {
          "internalType": "address",
          "name": "pool",
          "type": "address"
        }
      ],
      "name": "getPoolRoleAccounts",
      "outputs": [
        {
          "components": [
            {
              "internalType": "address",
              "name": "pauseManager",
              "type": "address"
            },
            {
              "internalType": "address",
              "name": "swapFeeManager",
              "type": "address"
            },
            {
              "internalType": "address",
              "name": "poolCreator",
              "type": "address"
            }
          ],
          "internalType": "struct PoolRoleAccounts",
          "name": "",
          "type": "tuple"
        }
      ],
      "stateMutability": "view",
      "type": "function"
    },
    {
      "inputs": [
        {
          "internalType": "address",
          "name": "pool",
          "type": "address"
        },
        {
          "internalType": "uint256",
          "name": "chainId",
          "type": "uint256"
        }
      ],
      "name": "getPoolTokenByChainId",
      "outputs": [
        {
          "internalType": "contract IERC20",
          "name": "token",
          "type": "address"
        }
      ],
      "stateMutability": "view",
      "type": "function"
    },
    {
      "inputs": [
        {
          "internalType": "address",
          "name": "pool",
          "type": "address"
        }
      ],
      "name": "getPoolTokenInfo",
      "outputs": [
        {
          "internalType": "contract IERC20[]",
          "name": "tokens",
          "type": "address[]"
        },
        {
          "components": [
            {
              "internalType": "enum TokenType",
              "name": "tokenType",
              "type": "uint8"
            },
            {
              "internalType": "contract IRateProvider",
              "name": "rateProvider",
              "type": "address"
            },
            {
              "internalType": "bool",
              "name": "paysYieldFees",
              "type": "bool"
            }
          ],
          "internalType": "struct TokenInfo[]",
          "name": "tokenInfo",
          "type": "tuple[]"
        },
        {
          "internalType": "uint256[]",
          "name": "balancesRaw",
          "type": "uint256[]"
        },
        {
          "internalType": "uint256[]",
          "name": "lastBalancesLiveScaled18",
          "type": "uint256[]"
        }
      ],
      "stateMutability": "view",
      "type": "function"
    },
    {
      "inputs": [
        {
          "internalType": "address",
          "name": "pool",
          "type": "address"
        }
      ],
      "name": "getPoolTokenRates",
      "outputs": [
        {
          "internalType": "uint256[]",
          "name": "decimalScalingFactors",
          "type": "uint256[]"
        },
        {
          "internalType": "uint256[]",
          "name": "tokenRates",
          "type": "uint256[]"
        }
      ],
      "stateMutability": "view",
      "type": "function"
    },
    {
      "inputs": [
        {
          "internalType": "address",
          "name": "pool",
          "type": "address"
        }
      ],
      "name": "getPoolTokens",
      "outputs": [
        {
          "internalType": "contract IERC20[]",
          "name": "tokens",
          "type": "address[]"
        }
      ],
      "stateMutability": "view",
      "type": "function"
    },
    {
      "inputs": [],
      "name": "getProtocolFeeController",
      "outputs": [
        {
          "internalType": "contract IProtocolFeeController",
          "name": "",
          "type": "address"
        }
      ],
      "stateMutability": "view",
      "type": "function"
    },
    {
      "inputs": [
        {
          "internalType": "contract IERC20",
          "name": "token",
          "type": "address"
        }
      ],
      "name": "getReservesOf",
      "outputs": [
        {
          "internalType": "uint256",
          "name": "",
          "type": "uint256"
        }
      ],
      "stateMutability": "view",
      "type": "function"
    },
    {
      "inputs": [
        {
          "internalType": "address",
          "name": "pool",
          "type": "address"
        }
      ],
      "name": "getStaticSwapFeePercentage",
      "outputs": [
        {
          "internalType": "uint256",
          "name": "",
          "type": "uint256"
        }
      ],
      "stateMutability": "view",
      "type": "function"
    },
    {
      "inputs": [
        {
          "internalType": "contract IERC20",
          "name": "token",
          "type": "address"
        }
      ],
      "name": "getTokenDelta",
      "outputs": [
        {
          "internalType": "int256",
          "name": "",
          "type": "int256"
        }
      ],
      "stateMutability": "view",
      "type": "function"
    },
    {
      "inputs": [],
      "name": "getVaultAdmin",
      "outputs": [
        {
          "internalType": "address",
          "name": "",
          "type": "address"
        }
      ],
      "stateMutability": "view",
      "type": "function"
    },
    {
      "inputs": [
        {
          "internalType": "address",
          "name": "pool",
          "type": "address"
        },
        {
          "internalType": "address",
          "name": "to",
          "type": "address"
        },
        {
          "internalType": "contract IERC20[]",
          "name": "tokens",
          "type": "address[]"
        },
        {
          "internalType": "uint256[]",
          "name": "exactAmountsIn",
          "type": "uint256[]"
        },
        {
          "internalType": "uint256",
          "name": "minBptAmountOut",
          "type": "uint256"
        },
        {
          "internalType": "bytes",
          "name": "userData",
          "type": "bytes"
        }
      ],
      "name": "initialize",
      "outputs": [
        {
          "internalType": "uint256",
          "name": "bptAmountOut",
          "type": "uint256"
        }
      ],
      "stateMutability": "nonpayable",
      "type": "function"
    },
    {
      "inputs": [
        {
          "internalType": "contract IERC4626",
          "name": "wrappedToken",
          "type": "address"
        }
      ],
      "name": "isERC4626BufferInitialized",
      "outputs": [
        {
          "internalType": "bool",
          "name": "",
          "type": "bool"
        }
      ],
      "stateMutability": "view",
      "type": "function"
    },
    {
      "inputs": [
        {
          "internalType": "address",
          "name": "pool",
          "type": "address"
        }
      ],
      "name": "isPoolInRecoveryMode",
      "outputs": [
        {
          "internalType": "bool",
          "name": "",
          "type": "bool"
        }
      ],
      "stateMutability": "view",
      "type": "function"
    },
    {
      "inputs": [
        {
          "internalType": "address",
          "name": "pool",
          "type": "address"
        }
      ],
      "name": "isPoolInitialized",
      "outputs": [
        {
          "internalType": "bool",
          "name": "",
          "type": "bool"
        }
      ],
      "stateMutability": "view",
      "type": "function"
    },
    {
      "inputs": [
        {
          "internalType": "address",
          "name": "pool",
          "type": "address"
        }
      ],
      "name": "isPoolPaused",
      "outputs": [
        {
          "internalType": "bool",
          "name": "",
          "type": "bool"
        }
      ],
      "stateMutability": "view",
      "type": "function"
    },
    {
      "inputs": [
        {
          "internalType": "address",
          "name": "pool",
          "type": "address"
        }
      ],
      "name": "isPoolRegistered",
      "outputs": [
        {
          "internalType": "bool",
          "name": "",
          "type": "bool"
        }
      ],
      "stateMutability": "view",
      "type": "function"
    },
    {
      "inputs": [],
      "name": "isQueryDisabled",
      "outputs": [
        {
          "internalType": "bool",
          "name": "",
          "type": "bool"
        }
      ],
      "stateMutability": "view",
      "type": "function"
    },
    {
      "inputs": [],
      "name": "isQueryDisabledPermanently",
      "outputs": [
        {
          "internalType": "bool",
          "name": "",
          "type": "bool"
        }
      ],
      "stateMutability": "view",
      "type": "function"
    },
    {
      "inputs": [],
      "name": "isUnlocked",
      "outputs": [
        {
          "internalType": "bool",
          "name": "",
          "type": "bool"
        }
      ],
      "stateMutability": "view",
      "type": "function"
    },
    {
      "inputs": [
        {
          "internalType": "bytes",
          "name": "data",
          "type": "bytes"
        }
      ],
      "name": "quote",
      "outputs": [
        {
          "internalType": "bytes",
          "name": "result",
          "type": "bytes"
        }
      ],
      "stateMutability": "nonpayable",
      "type": "function"
    },
    {
      "inputs": [
        {
          "internalType": "bytes",
          "name": "data",
          "type": "bytes"
        }
      ],
      "name": "quoteAndRevert",
      "outputs": [],
      "stateMutability": "nonpayable",
      "type": "function"
    },
    {
      "inputs": [],
      "name": "reentrancyGuardEntered",
      "outputs": [
        {
          "internalType": "bool",
          "name": "",
          "type": "bool"
        }
      ],
      "stateMutability": "view",
      "type": "function"
    },
    {
      "inputs": [
        {
          "internalType": "address",
          "name": "pool",
          "type": "address"
        },
        {
          "components": [
            {
              "internalType": "contract IERC20",
              "name": "token",
              "type": "address"
            },
            {
              "internalType": "uint256",
              "name": "chainId",
              "type": "uint256"
            },
            {
              "internalType": "enum TokenType",
              "name": "tokenType",
              "type": "uint8"
            },
            {
              "internalType": "contract IRateProvider",
              "name": "rateProvider",
              "type": "address"
            },
            {
              "internalType": "bool",
              "name": "paysYieldFees",
              "type": "bool"
            }
          ],
          "internalType": "struct TokenConfig[]",
          "name": "tokenConfig",
          "type": "tuple[]"
        },
        {
          "internalType": "uint256",
          "name": "swapFeePercentage",
          "type": "uint256"
        },
        {
          "internalType": "uint32",
          "name": "pauseWindowEndTime",
          "type": "uint32"
        },
        {
          "internalType": "bool",
          "name": "protocolFeeExempt",
          "type": "bool"
        },
        {
          "components": [
            {
              "internalType": "address",
              "name": "pauseManager",
              "type": "address"
            },
            {
              "internalType": "address",
              "name": "swapFeeManager",
              "type": "address"
            },
            {
              "internalType": "address",
              "name": "poolCreator",
              "type": "address"
            }
          ],
          "internalType": "struct PoolRoleAccounts",
          "name": "roleAccounts",
          "type": "tuple"
        },
        {
          "internalType": "address",
          "name": "poolHooksContract",
          "type": "address"
        },
        {
          "components": [
            {
              "internalType": "bool",
              "name": "disableUnbalancedLiquidity",
              "type": "bool"
            },
            {
              "internalType": "bool",
              "name": "enableAddLiquidityCustom",
              "type": "bool"
            },
            {
              "internalType": "bool",
              "name": "enableRemoveLiquidityCustom",
              "type": "bool"
            },
            {
              "internalType": "bool",
              "name": "enableDonation",
              "type": "bool"
            }
          ],
          "internalType": "struct LiquidityManagement",
          "name": "liquidityManagement",
          "type": "tuple"
        }
      ],
      "name": "registerPool",
      "outputs": [],
      "stateMutability": "nonpayable",
      "type": "function"
    },
    {
      "inputs": [
        {
          "internalType": "address",
          "name": "pool",
          "type": "address"
        },
        {
          "internalType": "address",
          "name": "from",
          "type": "address"
        },
        {
          "internalType": "uint256",
          "name": "exactBptAmountIn",
          "type": "uint256"
        },
        {
          "internalType": "uint256[]",
          "name": "minAmountsOut",
          "type": "uint256[]"
        }
      ],
      "name": "removeLiquidityRecovery",
      "outputs": [
        {
          "internalType": "uint256[]",
          "name": "amountsOutRaw",
          "type": "uint256[]"
        }
      ],
      "stateMutability": "nonpayable",
      "type": "function"
    },
    {
      "inputs": [
        {
          "internalType": "address",
          "name": "token",
          "type": "address"
        }
      ],
      "name": "totalSupply",
      "outputs": [
        {
          "internalType": "uint256",
          "name": "",
          "type": "uint256"
        }
      ],
      "stateMutability": "view",
      "type": "function"
    },
    {
      "inputs": [],
      "name": "vault",
      "outputs": [
        {
          "internalType": "contract IVault",
          "name": "",
          "type": "address"
        }
      ],
      "stateMutability": "view",
      "type": "function"
    },
    {
      "stateMutability": "payable",
      "type": "receive"
    }
  ],
  "bytecode": "0x61020080604052346103885760408161485e80380380916100208285610395565b833981010312610388576020610035826103ce565b910151906001600160a01b0382168083036103885761007760405161005b604082610395565b600a8152691a5cd55b9b1bd8dad95960b21b60208201526103fe565b60c0526100ae60405161008b604082610395565b60118152701b9bdb96995c9bd1195b1d1850dbdd5b9d607a1b60208201526103fe565b60e0526100df6040516100c2604082610395565b600b81526a746f6b656e44656c74617360a81b60208201526103fe565b610100526101186040516100f4604082610395565b6012815271185919131a5c5d5a591a5d1e50d85b1b195960721b60208201526103fe565b6101205261014860405161012d604082610395565b60098152681cd95cdcda5bdb925960ba1b60208201526103fe565b6101405260405163fbfa77cf60e01b8152602081600481855afa9081156102fd57600091610356575b506001600160a01b0383811691160361034557604051634546891d60e11b8152602081600481855afa9081156102fd57600091610326575b5061016052604051631060fdbd60e11b8152602081600481855afa9182156102fd57600492602092600091610309575b506101a05260405163cd51c12f60e01b815292839182905afa9081156102fd576000916102ce575b50610180526101c0526101e05260405161436390816104fb823960805181505060a05181505060c051818181610f640152818161292f01526132ac015260e051818181611a3d01528181613e670152613ed40152610100518181816110d40152613e1e0152610120518181816112b801526115ae015261014051818181611296015261158c0152610160518150506101805181612a3701526101a0518181816105b6015261287b01526101c051818181611e32015261257901526101e05181818161063e01526125390152f35b6102f0915060203d6020116102f6575b6102e88183610395565b8101906103e2565b38610201565b503d6102de565b6040513d6000823e3d90fd5b6103209150833d85116102f6576102e88183610395565b386101d9565b61033f915060203d6020116102f6576102e88183610395565b386101a9565b634166145b60e11b60005260046000fd5b90506020813d60201161038d575b8161037160209383610395565b8101031261038857610382906103ce565b38610171565b600080fd5b3d9150610364565b601f909101601f19168101906001600160401b038211908210176103b857604052565b634e487b7160e01b600052604160045260246000fd5b51906001600160a01b038216820361038857565b90816020910312610388575163ffffffff811681036103885790565b61047761048560405192610413604085610395565b600c84526b5661756c7453746f7261676560a01b6020850152604051928391600161046960208501977f62616c616e6365722d6c6162732e76332e73746f726167652e00000000000000895260398601906104cf565b601760f91b815201906104cf565b03601f198101835282610395565b51902060001981019081116104b9576040519060208201908152602082526104ae604083610395565b9051902060ff191690565b634e487b7160e01b600052601160045260246000fd5b9081519160005b8381106104e7575050016000815290565b80602080928401015181850152016104d656fe60806040526004361015610018575b3661252857612517565b60003560e01c8062fdfa13146102a757806313d21cdf146102a257806313ef8a5d1461029d57806315e32046146102985780631ba0ae45146102935780634afbaf5a1461028e5780634f037ee714610289578063532cec7c14610284578063535cfd8a1461027f57806367e0e0761461027a5780636844846b146102755780636c9bc73214610270578063757d64b31461026b578063759d702e146102665780637e361bde146102615780638380edb71461025c57806385e0b9991461025757806385f2dbd414610252578063927da1051461024d57806396787092146102485780639e825ff514610243578063a07d60401461023e578063aaabadc514610239578063ace9b89b14610234578063b45090f91461022f578063b4aef0ab1461022a578063ba8a2be014610225578063be7d628a14610220578063c673bdaf1461021b578063c808824714610216578063ca4f280314610211578063d0f0442f1461020c578063d2c725e014610207578063db81718714610202578063e1f21c67146101fd578063e4dc2aa4146101f8578063e9ddeb26146101f3578063edfa3568146101ee578063f29486a1146101e9578063f7888aec146101e45763fbfa77cf0361000e57611e1c565b611dc1565b611d19565b611c04565b611b2a565b611aae565b611a65565b611a20565b6119f3565b61198f565b6118ef565b611847565b6117fd565b6117af565b6116b8565b611620565b6115d2565b611560565b61152b565b611155565b6110a8565b611063565b611013565b610fe2565b610f8e565b610f47565b610e3f565b610cea565b610ad2565b610a34565b6109e5565b6108d1565b61080b565b6107a2565b6106ba565b61066d565b610628565b610570565b610545565b610450565b610306565b6001600160a01b031690565b6001600160a01b038116036102c957565b600080fd5b61010435906102dc826102b8565b565b60409060031901126102c9576004356102f6816102b8565b90602435610303816102b8565b90565b346102c9576020610346610319366102de565b90610322612577565b61032b816125ba565b6001600160a01b031660009081526006845260409020611efd565b5460801c604051908152f35b906020808351928381520192019060005b8181106103705750505090565b82516001600160a01b0316845260209384019390920191600101610363565b6002111561039957565b634e487b7160e01b600052602160045260246000fd5b90604060609280516103c08161038f565b83526020818101516001600160a01b0316908401520151151560408201520190565b906020808351928381520192019060005b8181106104005750505090565b909192602061041260019286516103af565b94019291016103f3565b906020808351928381520192019060005b81811061043a5750505090565b825184526020938401939092019160010161042d565b346102c95760203660031901126102c957610536610492600435610473816102b8565b61047b611f14565b50610484612577565b61048d816125f1565b61262b565b604051918291602083528051602084015260c061052261050d6104f76104e16104cb602087015160e060408b01526101008a0190610352565b6040870151898203601f190160608b01526103e2565b6060860151888203601f190160808a015261041c565b6080850151878203601f190160a089015261041c565b60a0840151868203601f19018488015261041c565b910151838203601f190160e085015261041c565b0390f35b60009103126102c957565b346102c95760003660031901126102c95761055e612577565b602060ff600954166040519015158152f35b346102c95760203660031901126102c957608060043561058f816102b8565b610597612577565b6105a0816125ba565b63ffffffff6105ae82612834565b9190926105db7f000000000000000000000000000000000000000000000000000000000000000084611f61565b9060018060a01b031660005260016020528160018060a01b03604060002054169360405195151586521660208501521660408301526060820152f35b6001600160a01b0316600452602490565b346102c95760003660031901126102c9576040517f00000000000000000000000000000000000000000000000000000000000000006001600160a01b03168152602090f35b346102c95760203660031901126102c95760043561068a816102b8565b610692612577565b60018060a01b0316600052600e602052602060018060a01b0360406000205416604051908152f35b346102c95760203660031901126102c9576004356106d7816102b8565b6106df612577565b6106e8816125f1565b61071c602060806106f88461262b565b015160405180938192631309bd3d60e31b835260406004840152604483019061041c565b6001602483015203816001600160a01b0386165afa801561079d576105369261075892600092610768575b5061075190611e61565b54906128f1565b6040519081529081906020820190565b61075191925061078f9060203d602011610796575b6107878183610c2f565b810190611f80565b9190610747565b503d61077d565b611fb5565b346102c95760203660031901126102c9576004356107bf816102b8565b6107c7612577565b6107d0816125ba565b6001600160a01b031660009081526020818152604090912054600190811c165b6040519015158152f35b90602061030392818152019061041c565b346102c95760203660031901126102c9576105366080610841600435610830816102b8565b610838612577565b61048d816125ba565b015160405191829160208352602083019061041c565b929061086f9095949295608085526080850190610352565b83810360208501526020808751928381520196019060005b8181106108b557505050846108a79184610303969703604086015261041c565b91606081840391015261041c565b90919660206108c76001928a516103af565b9801929101610887565b346102c95760203660031901126102c9576004356108ee816102b8565b6108f6612577565b6108ff816125ba565b6001600160a01b038116600090815260056020526040902061092861092383611e7b565b611fc1565b9081519261093584612034565b9361093f81612084565b9161094982612084565b9360005b838110610965576040518061053688888c8c85610857565b806109d4610975600193856120b6565b546109a361099e8b6109986109938761098d8c611e95565b936120db565b6120f4565b90611efd565b61210d565b6109ad848d6120db565b526109b8838c6120db565b506001600160801b0381166109cd848a6120db565b5260801c90565b6109de82896120db565b520161094d565b346102c95760203660031901126102c957600435610a02816102b8565b610a0a612577565b60018060a01b0316600052600e602052602060018060a01b03604060002054161515604051908152f35b346102c95760203660031901126102c9576020610a6c600435610a56816102b8565b610a5e612577565b610a67816125ba565b612834565b506040519015158152f35b9181601f840112156102c9578235916001600160401b0383116102c957602083818601950101116102c957565b60206003198201126102c957600435906001600160401b0382116102c957610ace91600401610a77565b9091565b346102c957600080610ae336610aa4565b90610aec61291c565b610af4612577565b8160405192839283378101838152039082335af1610b1061214d565b908015610b445790610b2681610b409333612982565b50604051630b56c9f760e31b815291829160048301611bbb565b0390fd5b506004815110610b7b5760208101516001600160e01b0319166314a9360960e31b01612973576328f9554160e01b60005260046000fd5b63a728568960e01b60005260046000fd5b634e487b7160e01b600052604160045260246000fd5b60a081019081106001600160401b03821117610bbd57604052565b610b8c565b606081019081106001600160401b03821117610bbd57604052565b61014081019081106001600160401b03821117610bbd57604052565b608081019081106001600160401b03821117610bbd57604052565b60e081019081106001600160401b03821117610bbd57604052565b601f909101601f19168101906001600160401b03821190821017610bbd57604052565b604051906102dc608083610c2f565b604051906102dc61014083610c2f565b604051906102dc606083610c2f565b6001600160401b038111610bbd5760051b60200190565b6084359081151582036102c957565b359081151582036102c957565b6064359063ffffffff821682036102c957565b60609060a31901126102c95760a490565b6080906101231901126102c95761012490565b346102c9576101a03660031901126102c957600435610d08816102b8565b602435906001600160401b0382116102c957366023830112156102c957816004013591610d3483610c80565b90610d426040519283610c2f565b838252602460a0602084019502820101903682116102c957602401935b818510610da357610da18484604435610d76610cb3565b610d7e610c97565b90610d8836610cc6565b92610d916102ce565b94610d9b36610cd7565b9661217d565b005b60a0853603126102c95760405190610dba82610ba2565b8535610dc5816102b8565b82526020860135602083015260408601359060028210156102c95782602092604060a09501526060880135610df9816102b8565b6060820152610e0a60808901610ca6565b6080820152815201940193610d5f565b9091610e316103039360408452604084019061041c565b91602081840391015261041c565b346102c95760203660031901126102c957600435610e5c816102b8565b610e64612577565b610e6d816125ba565b6001600160a01b0381166000908152602081815260408083205460028352818420915182548082529285528385209094919390928592918301915b818110610f25575050610ebd92500383610c2f565b610ec982518092613168565b91610ed382612084565b9360005b838110610eed5760405180610536888883610e1a565b600190610f14610f0f61099e610f0286611e95565b610998610993868a6120db565b6131c1565b610f1e82896120db565b5201610ed7565b84546001600160a01b0316835260019485019487945060209093019201610ea8565b346102c95760003660031901126102c957610f60612577565b60207f0000000000000000000000000000000000000000000000000000000000000000546040519015158152f35b346102c9576020610f9e366102de565b90610fa7612577565b610fb0816125ba565b6001600160a01b0316600090815260068352604090206001600160801b0391610fd891611efd565b5416604051908152f35b346102c95760003660031901126102c957610ffb612577565b600a546040516001600160a01b039091168152602090f35b346102c95760603660031901126102c957602061105b600435611035816102b8565b602435611041816102b8565b6044359161104e836102b8565b611056612577565b61324b565b604051908152f35b346102c95760203660031901126102c957600435611080816102b8565b611088612577565b60018060a01b031660005260086020526020604060002054604051908152f35b346102c95760203660031901126102c957602061105b6004356110ca816102b8565b6110d2612577565b7f0000000000000000000000000000000000000000000000000000000000000000613292565b9080601f830112156102c957813561110f81610c80565b9261111d6040519485610c2f565b81845260208085019260051b8201019283116102c957602001905b8282106111455750505090565b8135815260209182019101611138565b346102c95760803660031901126102c957600435611172816102b8565b6024359061117f826102b8565b604435916064356001600160401b0381116102c9576111a29036906004016110f8565b926111ab612577565b6111b36132aa565b6111bb6129e3565b6111c4836125f1565b60018060a01b038316928360005260006020526111e56040600020546139cf565b15611516576111f381611eaf565b946111fc61229b565b9061120961092384611e7b565b808352519561121e6040840197808952612084565b956080840196875260005b8851811015611261578061124f6112426001938d6120b6565b546001600160801b031690565b61125a828b516120db565b5201611229565b50879694959661127d8887516112768a611e61565b54906132e4565b976112888251612084565b93606087019485526112dc897f0000000000000000000000000000000000000000000000000000000000000000547f0000000000000000000000000000000000000000000000000000000000000000613334565b151560a0880181815294906114fa575b60005b845181101561140857808c6113048851151590565b6113bd575b90611313916120db565b5161131e828a6120db565b511161137e57808a611377828f61135d828f9261135861134761099360019b61137197516120db565b61135184846120db565b51906133fc565b6120db565b5193519361136b83866120db565b516122ef565b926120db565b52016112ef565b8b886113a7836113a08161139a8f6113b99861099391516120db565b956120db565b51926120db565b516317bc2f2360e11b600052916122fc565b6000fd5b6113d6916113ca916120db565b5160208b0151906133d9565b6113e18289516120db565b528b611400826113716113f5828c516120db565b5161136b83866120db565b52808c611309565b508894508a9186918b61141a81611eaf565b9560005b885181101561145c578061144b8b6114448361143c6001968e6120b6565b5492516120db565b519061341f565b611455828b6120b6565b550161141e565b61053687600088887ffbe5b0d79fb94f1e81c0a92bf86ae9d3a19e9d1bf6202c0d3e75120f65d5d8a5848a6114d36114b78c6114b28d61149e8133888661342d565b6114a6613496565b6114ea575b85836134eb565b611e61565b5495516040516001600160a01b03909316969293849384612313565b0390a46114de612a1c565b604051918291826107fa565b6114f58187856134b8565b6114ab565b61150c6115068b611ec9565b546133a9565b60208901526112ec565b8363ef029adf60e01b60005260045260246000fd5b346102c95760003660031901126102c957611544612577565b60095460405160089190911c6001600160a01b03168152602090f35b346102c95760203660031901126102c95760206107f0600435611582816102b8565b61158a612577565b7f0000000000000000000000000000000000000000000000000000000000000000547f0000000000000000000000000000000000000000000000000000000000000000613334565b346102c95760203660031901126102c9576004356115ef816102b8565b6115f7612577565b611600816125ba565b60018060a01b03166000526000602052602061105b6040600020546133a9565b346102c95760003660031901126102c957611639612577565b60206001600754166040519015158152f35b6001600160401b038111610bbd57601f01601f191660200190565b9291926116728261164b565b916116806040519384610c2f565b8294818452818301116102c9578281602093846000960137010152565b9080601f830112156102c95781602061030393359101611666565b346102c95760c03660031901126102c9576004356116d5816102b8565b602435906116e2826102b8565b604435906001600160401b0382116102c957366023830112156102c95781600401359161170e83610c80565b9261171c6040519485610c2f565b8084526024602085019160051b830101913683116102c957602401905b82821061179557505060643590506001600160401b0381116102c9576117639036906004016110f8565b60a4359260843591906001600160401b0385116102c9576105369561178f61075896369060040161169d565b9461233e565b6020809183356117a4816102b8565b815201910190611739565b346102c95760203660031901126102c9576004356117cc816102b8565b6117d4612577565b6117dd816125ba565b60018060a01b0316600052600060205260206107f06040600020546139cf565b346102c95760203660031901126102c95760043561181a816102b8565b611822612577565b60018060a01b0316600052600060205260206001604060002054166040519015158152f35b346102c95760403660031901126102c9576024356001600160401b0381116102c957611877903690600401610a77565b61187f612577565b611888336125ba565b80604051926020845281602085015260408401376000604082840101527f4bc4412e210115456903c65b5277d299a505e79f2eb852b92b1ca52d85856428600435926040813394601f80199101168101030190a3005b906020610303928181520190610352565b346102c95760203660031901126102c95760043561190c816102b8565b611914612577565b61191d816125ba565b60018060a01b03166000526002602052604060002060405190816020825491828152019160005260206000209060005b818110611970576105368561196481870382610c2f565b604051918291826118de565b82546001600160a01b031684526020909301926001928301920161194d565b346102c95760403660031901126102c9576004356119ac816102b8565b602435906119b8612577565b6119c1816125ba565b6001600160a01b0390811660009081526004602090815260408083209483529381529083902054925192909116825290f35b346102c95760003660031901126102c957602060008051602061430e833981519152546040519015158152f35b346102c95760003660031901126102c957611a39612577565b60207f000000000000000000000000000000000000000000000000000000000000000054604051908152f35b346102c95760603660031901126102c957611aa3600435611a85816102b8565b602435611a91816102b8565b60443591611a9d612577565b336138b5565b602060405160018152f35b346102c95760203660031901126102c957600435611acb816102b8565b611ad3612577565b60018060a01b031660005260116020526020604060002054604051908152f35b80516001600160a01b03908116835260208083015182169084015260409182015116910152565b6060810192916102dc9190611af3565b346102c95760203660031901126102c957600435611b47816102b8565b611b4f612015565b50611b58612577565b611b61816125ba565b60018060a01b03166000526001602052610536604060002060405190611b8682610bc2565b80546001600160a01b039081168352600182015481166020840152600290910154166040808301919091525191829182611b1a565b91909160208152825180602083015260005b818110611bee575060409293506000838284010152601f8019910116010190565b8060208092870101516040828601015201611bcd565b346102c957610536611c4e600080611c35611c1e36610aa4565b611c2661291c565b611c2e612577565b3691611666565b60208151910182335af1611c4761214d565b9033612982565b60405191829182611bbb565b6060809180511515845260208101511515602085015260408101511515604085015201511515910152565b6102dc909291926101806101206101a0830195611ca3848251611c5a565b60208101516080850152604081015160a0850152606081015160c0850152611cd9608082015160e086019064ffffffffff169052565b60a081015163ffffffff1661010085015260c081015115158483015260e08101511515610140850152610100810151151561016085015201511515910152565b346102c95760203660031901126102c957610536611db5600435611d3c816102b8565b604051611d4881610bdd565b604051611d5481610bf9565b60008152600060208201526000604082015260006060820152815260006020820152600060408201526000606082015260006080820152600060a0820152600060c0820152600060e082015260006101008201526000610120820152612411565b60405191829182611c85565b346102c95760403660031901126102c9576020611e13600435611de3816102b8565b60243590611df0826102b8565b611df8612577565b6001600160a01b03166000908152600f845260409020611efd565b54604051908152f35b346102c95760003660031901126102c9576040517f00000000000000000000000000000000000000000000000000000000000000006001600160a01b03168152602090f35b6001600160a01b0316600090815260116020526040902090565b6001600160a01b0316600090815260026020526040902090565b6001600160a01b0316600090815260036020526040902090565b6001600160a01b0316600090815260056020526040902090565b6001600160a01b0316600090815260208190526040902090565b6001600160a01b03166000908152600f6020526040902090565b9060018060a01b0316600052602052604060002090565b60405190611f2182610c14565b606060c0836000815282602082015282604082015282808201528260808201528260a08201520152565b634e487b7160e01b600052601160045260246000fd5b9063ffffffff8091169116019063ffffffff8211611f7b57565b611f4b565b908160209103126102c9575190565b91906020611fa760019260408652604086019061041c565b93611fb18361038f565b0152565b6040513d6000823e3d90fd5b906040519182815491828252602082019060005260206000209260005b818110611ff35750506102dc92500383610c2f565b84546001600160a01b0316835260019485019487945060209093019201611fde565b6040519061202282610bc2565b60006040838281528260208201520152565b9061203e82610c80565b61204b6040519182610c2f565b828152809261205c601f1991610c80565b019060005b82811061206d57505050565b602090612078612015565b82828501015201612061565b9061208e82610c80565b61209b6040519182610c2f565b82815280926120ac601f1991610c80565b0190602036910137565b90600052602052604060002090565b634e487b7160e01b600052603260045260246000fd5b80518210156120ef5760209160051b010190565b6120c5565b516001600160a01b031690565b61210a8261038f565b52565b9060405161211a81610bc2565b604060ff82945481811661212d8161038f565b8452600881901c6001600160a01b0316602085015260a81c161515910152565b3d15612178573d9061215e8261164b565b9161216c6040519384610c2f565b82523d6000602084013e565b606090565b94969263ffffffff91969492612191612577565b6121996129e3565b6121a1612a30565b604051976121ae89610c14565b88526020880152166040860152151560608501526060853603126102c95761222a6122319261223b9660408051916121e583610bc2565b80356121f0816102b8565b83526020810135612200816102b8565b60208401520135612210816102b8565b604082015260808701526001600160a01b031660a0860152565b3690612243565b60c0830152612c7a565b6102dc612a1c565b91908260809103126102c95760405161225b81610bf9565b606061229681839561226c81610ca6565b855261227a60208201610ca6565b602086015261228b60408201610ca6565b604086015201610ca6565b910152565b6040519060c082016001600160401b03811183821017610bbd57604052600060a08360608152826020820152826040820152606080820152606060808201520152565b620f423f19810191908211611f7b57565b91908203918211611f7b57565b6001600160a01b0316600452602452604452606490565b91612330906103039492845260606020850152606084019061041c565b91604081840391015261041c565b929190945061234b612577565b6123536132aa565b61235c836125ba565b6123646129e3565b61236c612a30565b61237583612834565b506123f2576123838361262b565b8051600190811c166123d3576020810151518351036123c2576123ba956123b460c083015160a08401519086613607565b94613699565b610303612a1c565b63aaad13f760e01b60005260046000fd5b63218e374760e01b60009081526001600160a01b038516600452602490fd5b63d971f59760e01b60009081526001600160a01b038416600452602490fd5b5061241a612577565b612423816125ba565b61242c90611ec9565b5460018116600182811c16612440836139bb565b9061244a846139cf565b92612454856133a9565b61245d866139f9565b61246687613a3c565b61246f88613a51565b9161247989613a7b565b936124838a613a89565b159961248e81613aa4565b9061249881613abb565b906124a290613ac8565b916124ab610c52565b9c15158d52151560208d0152151560408c0152151560608b01526124cd610c61565b998a5260208a01526040890152606088015264ffffffffff16608087015263ffffffff1660a0860152151560c0850152151560e08401521515610100830152151561012082015290565b637911c44b60e11b60005260046000fd5b3461251757366000803760008036817f00000000000000000000000000000000000000000000000000000000000000006001600160a01b03165af43d6000803e15612572573d6000f35b3d6000fd5b7f00000000000000000000000000000000000000000000000000000000000000006001600160a01b031630036125a957565b634fe92d9b60e11b60005260046000fd5b6001600160a01b0316600081815260208190526040902054600116156125dd5750565b6327946f5760e21b60005260045260246000fd5b6001600160a01b0316600081815260208190526040902054600190811c16156126175750565b634bdace1360e01b60005260045260246000fd5b90612634611f14565b6001600160a01b0390921660009081526005602090815260408083208383528184205460038452828520600285529290942080549487529286019261267890611fc1565b835261268384612034565b926040870193845261269485612084565b92606088019384526126a586612084565b60808901526126b5868951613168565b60c08901526126c386612084565b9060a089019182526126d98951600190811c1690565b9283612820575b8361280d575b8960005b8981106126fd5750505050505050505050565b8860019289838a61273c826127288161272261099e8e6109988f8561099391516120db565b946120b6565b5496518361273683836120db565b526120db565b50612746816131c1565b612751838c516120db565b52612767876001600160801b0387168487614129565b8a15612803576040810151151590816127e6575b5061278e575b505050505b018a906126ea565b826127b26127aa836127a36127b89751613a3c565b95516120db565b519560801c90565b906141d7565b8d83826127c9575b8b919250612781565b6127d786936127dd956122ef565b91614129565b38808d836127c0565b879150516127f38161038f565b6127fc8161038f565b143861277b565b5050505050612786565b925061281989516139cf565b15926126e6565b925061282c8951613a3c565b1515926126e0565b6001600160a01b03166000908152602081905260409020549063ffffffff61285b836139bb565b92612864613a65565b1c169180612870579190565b5063ffffffff6128a07f000000000000000000000000000000000000000000000000000000000000000084611f61565b164211159190565b90600582029180830460051490151715611f7b57565b81810292918115918404141715611f7b57565b81156128db570490565b634e487b7160e01b600052601260045260246000fd5b90670de0b6b3a7640000820291808304670de0b6b3a76400001490151715611f7b57610303916128d1565b32612962576001600754166129515760017f000000000000000000000000000000000000000000000000000000000000000055565b633d0cc44360e11b60005260046000fd5b6333fc255960e11b60005260046000fd5b805115610b7b57805190602001fd5b906129a8575080511561299757805190602001fd5b63d6bda27560e01b60005260046000fd5b815115806129da575b6129b9575090565b639996b31560e01b60009081526001600160a01b0391909116600452602490fd5b50803b156129b1565b60008051602061430e83398151915254612a0b57600160008051602061430e83398151915255565b633ee5aeb560e01b60005260046000fd5b600060008051602061430e83398151915255565b63ffffffff7f00000000000000000000000000000000000000000000000000000000000000001642111580612a77575b612a6657565b6336a7e2cd60e21b60005260046000fd5b506001600754811c16612a60565b90805190612a928261038f565b612a9b8261038f565b825460208201516040909201516001600160b01b031990911660ff939093169290921760089190911b610100600160a81b03161790151560a81b60ff60a81b16179055565b80546001600160a01b0319166001600160a01b03909216919091179055565b908160209103126102c9575160ff811681036102c95790565b805490600160401b821015610bbd57600182018082558210156120ef576000908152602090200180546001600160a01b0319166001600160a01b03909216919091179055565b81516102dc92600291612b7a906001600160a01b031684612ae0565b6020810151612b95906001600160a01b031660018501612ae0565b604001516001600160a01b03169101612ae0565b91908260409103126102c9576020825192015190565b919492959390956101408301610140845287518091526020610160850198019060005b818110612c215750505060c09291612c10612c1a926102dc97986020860152604085019063ffffffff169052565b6060830190611af3565b0190611c5a565b909198602060a060019260808d518580851b03815116835284810151858401526040810151612c4f8161038f565b60408401528580851b036060820151166060840152015115156080820152019a019101919091612be2565b90612c8e612c8783611ec9565b5460011690565b6131545780515160028110613143576008811161313257612cae81612084565b906000805b828210612eb9575050506080820180516001600160a01b0385166000908152600160205260409020612ce59190612b5e565b612d556040612cfd612cf8600a546102ac565b6102ac565b612d09828551016120f4565b90612d176060880151151590565b83516377ff76e760e01b81526001600160a01b03808b1660048301529093166024840152151560448301529092839190829060009082906064820190565b03925af190811561079d57847ff07672a9fb06f17c0b3751a5652d73b5254b207d02ecb7780c85278096ee16fc94600092600094612e74575b50612e6f9293612e23612e01612e2893612dfb612df5612de7612dd9612dcb60c0612db7600190565b9b019a612dc58c5151151590565b90613ad8565b8a5160200151151590613afc565b895160400151151590613b15565b885160600151151590613b23565b91613b34565b90613bd3565b95612e1e60408b0197612e18895163ffffffff1690565b90613c25565b613c76565b613cb1565b612e3188611ec9565b55612e536020870196612e4588518a613cd3565b519651935163ffffffff1690565b9351905190604051948594339960018060a01b03169886612bbf565b0390a3565b612e019450612e6f935090612e23612ea6612e289360403d604011612eb2575b612e9e8183610c2f565b810190612ba9565b96909550505090612d8e565b503d612e94565b612ec48286516120db565b51612ecf81516102ac565b6001600160a01b0381169290919083158015613120575b61310f576001600160a01b03168084106130fe5783146130ea57612f5481612fbe84612fb960608d9601936020612fb0612f23612cf888516102ac565b1598612f966040850198612f7f612f458b5192612f3f8461038f565b516102ac565b612f76608089019d8e51151590565b91612f67612f60610c71565b9586612101565b6001600160a01b031684890152565b15156040830152565b612f9188612f8c85611e95565b611efd565b612a85565b6001600160a01b0316600090815260046020526040902090565b910151906120b6565b612ae0565b8051612fc98161038f565b612fd28161038f565b6130af57508115916130a4575b506130935760206004925b60405163313ce56760e01b815293849182905afa91821561079d57600092613063575b50601260ff8316111561302b5763686d360760e01b60005260046000fd5b61304960ff6001936012031661304185886120db565b9060ff169052565b61305b8161305689611e7b565b612b18565b910190612cb3565b61308591925060203d811161308c575b61307d8183610c2f565b810190612aff565b903861300d565b503d613073565b636fa2831960e11b60005260046000fd5b511515905038612fdf565b60019150516130bd8161038f565b6130c68161038f565b036130d957613093576020600492612fea565b63a1e9dd9d60e01b60005260046000fd5b6327a5b1a760e11b6000526113b982610617565b636e8f194760e01b60005260046000fd5b63c1ab6dc160e01b60005260046000fd5b506001600160a01b0389168414612ee6565b630e0f7beb60e31b60005260046000fd5b635ed4ba8f60e01b60005260046000fd5b6301b6ee3960e71b6000526113b982610617565b9064ffffffffff61317882612084565b92613181613a49565b1c1660005b8281106131935750505090565b601f8261319f836128a8565b1c1690604d8211611f7b57600191600a0a6131ba82876120db565b5201613186565b80516131cc8161038f565b6131d58161038f565b806131e8575050670de0b6b3a764000090565b806131f460019261038f565b0361309357602061320c612cf88260049401516102ac565b6040516333cd77e760e11b815292839182905afa90811561079d57600091613232575090565b610303915060203d602011610796576107878183610c2f565b9091906001600160a01b038084169083160361326a5750505060001990565b6001600160a01b0316600090815260106020526040902061328e92612f8c91611efd565b5490565b9060018060a01b031660005260205260406000205490565b7f000000000000000000000000000000000000000000000000000000000000000054156132d357565b63604dd39b60e11b60005260046000fd5b92916132f08451612084565b9360005b815181101561332e578061331d8561331886613312600196886120db565b516128be565b6128d1565b61332782896120db565b52016132f4565b50505050565b9060005260205260406000209060005260205260406000205490565b60ff60019116019060ff8211611f7b57565b6103036133786133786133786133786001613350565b613350565b610303613378613378613378613378613378613378613378613378613378613378613378613378613362565b62ffffff9060ff6133b861337d565b161c1664174876e80081029080820464174876e8001490151715611f7b5790565b906133e3916128be565b6001670de0b6b3a7640000600019830104019015150290565b9061340690613df0565b90600160ff1b8214611f7b576102dc9160000390613e15565b906103039160801c90613f0d565b919093929361343d82828561324b565b6001810161344e575b505050509050565b80861161346c5794613462949503926138b5565b8038808080613446565b637dc7a0d960e11b60009081526001600160a01b0384166004526024919091526044869052606490fd5b3215806134a05790565b506001600754161590565b91908201809211611f7b57565b9032612962576134dc9160018060a01b0316600052600f6020526040600020611efd565b8054918201809211611f7b5755565b90916001600160a01b0383169182156135f35761350b84612f8c83611ee3565b548083116135dc5782900361352385612f8c84611ee3565b556135378261353183611e61565b546122ef565b61354081613f54565b61354982611e61565b556001600160a01b031690813b156102c9576040516323de665160e01b81526001600160a01b0394909416600485015260006024850181905260448501829052936000805160206142ee833981519152916135bd91868160648183895af16135c2575b506040519081529081906020820190565b0390a4565b806135d0886135d693610c2f565b8061053a565b386135ac565b63391434e360e21b6000526113b9908390866122fc565b634b637e8f60e11b6000526113b984610617565b9190825191815181518185149182159261368e575b50506123c25761362b83612084565b9360005b84811061363e57505050505090565b80670de0b6b3a764000061367c613657600194866120db565b51613677613665858a6120db565b51613670868a6120db565b51926128be565b6128be565b0461368782896120db565b520161362f565b14159050388061361c565b9291959694966136a884611eaf565b9560005b6020890151805182101561376a57610993826136c7926120db565b6136d7612cf861099384896120db565b6001600160a01b03821690810361372b5750906137016001926136fa838b6120db565b5190613f75565b61371a8b613713836113a0818d6120db565b5190613f0d565b613724828b6120b6565b55016136ac565b6113b99088613740612cf8610993878c6120db565b6001621d9e5f60e01b03196000526001600160a01b03918216600452811660245216604452606490565b505087519198909790965094939192506002191660021780855261378d82611ec9565b55604051631309bd3d60e31b81526001600160a01b03821695602090829081906137ba9060048301611f8f565b0381895afa801561079d576137e091600091613896575b506137db81613f54565b6122de565b966137ea82613f87565b6137f5888484614055565b80881061387d575060019392859261385361383f60206138357fa26a52d8d53702bba7f137907b8e1f99ff87f6d450144270ca25e72481cca87196611e61565b5497015151612084565b604051938493898060a01b03169784612313565b0390a47fcad8c9d32507393b6508ca4a888b81979919b477510585bde8488f153072d6f3600080a2565b638d261d5d60e01b600052600488905260245260446000fd5b6138af915060203d602011610796576107878183610c2f565b386137d1565b926001600160a01b03821692909183156139a7576001600160a01b03821694851561399357836138ff84612f8c85612f8c8660018060a01b03166000526010602052604060002090565b556001600160a01b031692833b156102c957604051630ad0fe5760e31b81526001600160a01b039283166004820152929091166024830152604482018190527fa0175360a15bca328baf7ea85c7b784d58b222a50d0ce760b10dba336d226a61916135bd919060008160648183895af161398457506040519081529081906020820190565b806135d060006135d693610c2f565b634a1406b160e11b6000526113b983610617565b63e602df0560e01b6000526113b990610617565b60019060ff6139c983613350565b161c1690565b60019060ff6139c961337884613350565b60ff6139ea61337d565b1660188101809111611f7b5790565b62ffffff90613a066139e0565b1c1664174876e80081029080820464174876e8001490151715611f7b5790565b613a2e6139e0565b60188101809111611f7b5790565b62ffffff90613a06613a26565b613a2e613a26565b64ffffffffff90613a60613a49565b1c1690565b613a6d613a49565b60288101809111611f7b5790565b63ffffffff90613a60613a65565b60019060ff613a9d61337861337885613350565b161c161590565b60019060ff6139c961337861337861337886613350565b60019060ff6139c9613362565b60019060ff6139c9613378613362565b6103039160ff613aee6133786133786001613350565b16916001831b1916911b1790565b6103039160ff613aee6133786133786133786001613350565b6103039160ff613aee613362565b6103039160ff613aee613378613362565b60009190825b8151841015613bc757613b4d84836120db565b5190613b58856128a8565b916000610100841015613bb85783610100036101008111611f7b578060ff108160ff180218600511613bb85760078260051c16613ba9575090601f60ff6001949316831b921b191617930192613b3a565b63e4337c0560e01b8152600490fd5b632d0483c560e21b8152600490fd5b64ffffffffff16925050565b613bdb613a49565b916000610100841015613bb85783610100036101008111611f7b578060ff108160ff180218602811613bb857808260281c16613ba9575064ffffffffff809116831b921b19161790565b613c2d613a65565b916000610100841015613bb85783610100036101008111611f7b578060ff108160ff180218602011613bb857808260201c16613ba9575063ffffffff809116831b921b19161790565b90670de0b5cad2bef0008111613ca0576103039164174876e800613c986139e0565b920490614246565b6301d1b96560e61b60005260046000fd5b90670de0b5cad2bef0008111613ca0576103039164174876e800613c98613a26565b60405163ce20ece760e01b81526001600160a01b038216929190602081600481875afa90811561079d57600091613dd1575b508210613dc05760405163654cf15d60e01b8152602081600481875afa90811561079d57600091613da1575b508211613d90578181613d7a613d747f89d41522342fabac1471ca6073a5623e5caf367b03ca6e9a001478d0cf8be4a195613d6e613d8b96611ec9565b546142a9565b91611ec9565b556040519081529081906020820190565b0390a2565b637f47834b60e01b60005260046000fd5b613dba915060203d602011610796576107878183610c2f565b38613d31565b6317f640d160e31b60005260046000fd5b613dea915060203d602011610796576107878183610c2f565b38613d05565b6001600160ff1b038111613e015790565b63123baf0360e11b60005260045260246000fd5b908015613f09577f000000000000000000000000000000000000000000000000000000000000000091613e488184613292565b82810192831260008212908015821691151617611f7b5782613eb157507f00000000000000000000000000000000000000000000000000000000000000009283546000198101908111611f7b576102dc94559060018060a01b0316600052602052604060002055565b15613ed2575b6102dc929060018060a01b0316600052602052604060002055565b7f000000000000000000000000000000000000000000000000000000000000000092835460018101809111611f7b57909355613eb7565b5050565b906001600160801b0382118015613f44575b613f335760801b908101809111611f7b5790565b6389560ca160e01b60005260046000fd5b506001600160801b038111613f1f565b620f42408110613f615750565b6334e3483f60e21b60005260045260246000fd5b613f816102dc92613df0565b90613e15565b613f9081611e61565b805490620f42408201809211611f7b5755613fbc613fad82611ee3565b60008052602052604060002090565b620f4240815401905560018060a01b0316600080826000805160206142ee83398151915260405180613ff58190620f4240602083019252565b0390a4803b156102c957600060405180926323de665160e01b82528183816140356004820190620f42406040606084019360008152600060208201520152565b03925af1801561079d576140465750565b806135d060006102dc93610c2f565b6001600160a01b038216929083156141155761407a8261407483611e61565b546134ab565b61408784612f8c84611ee3565b83815401905561409681613f54565b61409f82611e61565b5560018060a01b0316926000846000805160206142ee833981519152604051806140ce87829190602083019252565b0390a4823b156102c9576040516323de665160e01b81526000600482018190526001600160a01b039093166024820152604481019190915291829081838160648101614035565b63ec442f0560e01b6000526113b983610617565b92826141398360608701516120db565b526141438161038f565b6141cf576002915b6141598260c08601516120db565b516141688360a08701516120db565b5193806001146141b05760021461418f57634e487b7160e01b600052605160045260246000fd5b61210a936141a26141a7926080946128be565b6133d9565b935b01516120db565b5061210a936141c46141c9926080946128be565b6142d6565b936141a9565b60019161414b565b9093926000946141eb8460808501516120db565b518181116141fb575b5050505050565b61423b959650614235939261422e9261421492036133d9565b9360a06142258260c08601516120db565b519301516120db565b51906128be565b906128f1565b9038808080806141f4565b906101008310156142985782610100036101008111611f7b578060ff108160ff180218601811614298578060181c6142875762ffffff90831b921b19161790565b63e4337c0560e01b60005260046000fd5b632d0483c560e21b60005260046000fd5b90670de0b5cad2bef0008111613ca0576103039164174876e80060ff6142cd61337d565b16920490614246565b670de0b6b3a7640000916142e9916128be565b049056fed1398bee19313d6bf672ccb116e51f4a1a947e91c757907f51fbb5b5e56c698f9b779b17422d0df92223018b32b4d1fa46e071723d6817e2486d003becc55f00a26469706673582212206bb90fb62c16c566b45a1cf4e85db6a3135ebc9744f0f63486771e2e2f91eff664736f6c634300081a0033",
  "linkReferences": {},
  "deployedLinkReferences": {}
}