{
  "_format": "hh-sol-artifact-1",
  "contractName": "GatewayZEVM",
  "sourceName": "contracts/zevm/GatewayZEVM.sol",
  "abi": [
    {
      "inputs": [],
      "stateMutability": "nonpayable",
      "type": "constructor"
    },
    {
      "inputs": [],
      "name": "AccessControlBadConfirmation",
      "type": "error"
    },
    {
      "inputs": [
        {
          "internalType": "address",
          "name": "account",
          "type": "address"
        },
        {
          "internalType": "bytes32",
          "name": "neededRole",
          "type": "bytes32"
        }
      ],
      "name": "AccessControlUnauthorizedAccount",
      "type": "error"
    },
    {
      "inputs": [
        {
          "internalType": "address",
          "name": "target",
          "type": "address"
        }
      ],
      "name": "AddressEmptyCode",
      "type": "error"
    },
    {
      "inputs": [],
      "name": "CallOnRevertNotSupported",
      "type": "error"
    },
    {
      "inputs": [],
      "name": "CallerIsNotProtocol",
      "type": "error"
    },
    {
      "inputs": [
        {
          "internalType": "address",
          "name": "implementation",
          "type": "address"
        }
      ],
      "name": "ERC1967InvalidImplementation",
      "type": "error"
    },
    {
      "inputs": [],
      "name": "ERC1967NonPayable",
      "type": "error"
    },
    {
      "inputs": [],
      "name": "EmptyAddress",
      "type": "error"
    },
    {
      "inputs": [],
      "name": "EnforcedPause",
      "type": "error"
    },
    {
      "inputs": [],
      "name": "ExpectedPause",
      "type": "error"
    },
    {
      "inputs": [],
      "name": "FailedInnerCall",
      "type": "error"
    },
    {
      "inputs": [
        {
          "internalType": "address",
          "name": "recipient",
          "type": "address"
        },
        {
          "internalType": "uint256",
          "name": "amount",
          "type": "uint256"
        }
      ],
      "name": "FailedZetaSent",
      "type": "error"
    },
    {
      "inputs": [
        {
          "internalType": "address",
          "name": "token",
          "type": "address"
        },
        {
          "internalType": "address",
          "name": "to",
          "type": "address"
        },
        {
          "internalType": "uint256",
          "name": "amount",
          "type": "uint256"
        }
      ],
      "name": "GasFeeTransferFailed",
      "type": "error"
    },
    {
      "inputs": [],
      "name": "InsufficientAmount",
      "type": "error"
    },
    {
      "inputs": [],
      "name": "InsufficientGasLimit",
      "type": "error"
    },
    {
      "inputs": [],
      "name": "InvalidInitialization",
      "type": "error"
    },
    {
      "inputs": [],
      "name": "InvalidTarget",
      "type": "error"
    },
    {
      "inputs": [
        {
          "internalType": "uint256",
          "name": "provided",
          "type": "uint256"
        },
        {
          "internalType": "uint256",
          "name": "maximum",
          "type": "uint256"
        }
      ],
      "name": "MessageSizeExceeded",
      "type": "error"
    },
    {
      "inputs": [],
      "name": "NotInitializing",
      "type": "error"
    },
    {
      "inputs": [],
      "name": "OnlyWZETAOrProtocol",
      "type": "error"
    },
    {
      "inputs": [],
      "name": "ReentrancyGuardReentrantCall",
      "type": "error"
    },
    {
      "inputs": [
        {
          "internalType": "uint256",
          "name": "provided",
          "type": "uint256"
        },
        {
          "internalType": "uint256",
          "name": "maximum",
          "type": "uint256"
        }
      ],
      "name": "RevertGasLimitExceeded",
      "type": "error"
    },
    {
      "inputs": [],
      "name": "UUPSUnauthorizedCallContext",
      "type": "error"
    },
    {
      "inputs": [
        {
          "internalType": "bytes32",
          "name": "slot",
          "type": "bytes32"
        }
      ],
      "name": "UUPSUnsupportedProxiableUUID",
      "type": "error"
    },
    {
      "inputs": [
        {
          "internalType": "address",
          "name": "token",
          "type": "address"
        },
        {
          "internalType": "address",
          "name": "recipient",
          "type": "address"
        },
        {
          "internalType": "uint256",
          "name": "amount",
          "type": "uint256"
        }
      ],
      "name": "WithdrawalFailed",
      "type": "error"
    },
    {
      "inputs": [
        {
          "internalType": "address",
          "name": "zrc20",
          "type": "address"
        },
        {
          "internalType": "uint256",
          "name": "amount",
          "type": "uint256"
        }
      ],
      "name": "ZRC20BurnFailed",
      "type": "error"
    },
    {
      "inputs": [
        {
          "internalType": "address",
          "name": "zrc20",
          "type": "address"
        },
        {
          "internalType": "address",
          "name": "to",
          "type": "address"
        },
        {
          "internalType": "uint256",
          "name": "amount",
          "type": "uint256"
        }
      ],
      "name": "ZRC20DepositFailed",
      "type": "error"
    },
    {
      "inputs": [
        {
          "internalType": "address",
          "name": "zrc20",
          "type": "address"
        },
        {
          "internalType": "address",
          "name": "from",
          "type": "address"
        },
        {
          "internalType": "address",
          "name": "to",
          "type": "address"
        },
        {
          "internalType": "uint256",
          "name": "amount",
          "type": "uint256"
        }
      ],
      "name": "ZRC20TransferFailed",
      "type": "error"
    },
    {
      "inputs": [],
      "name": "ZeroGasPrice",
      "type": "error"
    },
    {
      "anonymous": false,
      "inputs": [
        {
          "indexed": true,
          "internalType": "address",
          "name": "sender",
          "type": "address"
        },
        {
          "indexed": true,
          "internalType": "address",
          "name": "zrc20",
          "type": "address"
        },
        {
          "indexed": false,
          "internalType": "bytes",
          "name": "receiver",
          "type": "bytes"
        },
        {
          "indexed": false,
          "internalType": "bytes",
          "name": "message",
          "type": "bytes"
        },
        {
          "components": [
            {
              "internalType": "uint256",
              "name": "gasLimit",
              "type": "uint256"
            },
            {
              "internalType": "bool",
              "name": "isArbitraryCall",
              "type": "bool"
            }
          ],
          "indexed": false,
          "internalType": "struct CallOptions",
          "name": "callOptions",
          "type": "tuple"
        },
        {
          "components": [
            {
              "internalType": "address",
              "name": "revertAddress",
              "type": "address"
            },
            {
              "internalType": "bool",
              "name": "callOnRevert",
              "type": "bool"
            },
            {
              "internalType": "address",
              "name": "abortAddress",
              "type": "address"
            },
            {
              "internalType": "bytes",
              "name": "revertMessage",
              "type": "bytes"
            },
            {
              "internalType": "uint256",
              "name": "onRevertGasLimit",
              "type": "uint256"
            }
          ],
          "indexed": false,
          "internalType": "struct RevertOptions",
          "name": "revertOptions",
          "type": "tuple"
        }
      ],
      "name": "Called",
      "type": "event"
    },
    {
      "anonymous": false,
      "inputs": [
        {
          "indexed": false,
          "internalType": "uint64",
          "name": "version",
          "type": "uint64"
        }
      ],
      "name": "Initialized",
      "type": "event"
    },
    {
      "anonymous": false,
      "inputs": [
        {
          "indexed": false,
          "internalType": "address",
          "name": "account",
          "type": "address"
        }
      ],
      "name": "Paused",
      "type": "event"
    },
    {
      "anonymous": false,
      "inputs": [
        {
          "indexed": true,
          "internalType": "bytes32",
          "name": "role",
          "type": "bytes32"
        },
        {
          "indexed": true,
          "internalType": "bytes32",
          "name": "previousAdminRole",
          "type": "bytes32"
        },
        {
          "indexed": true,
          "internalType": "bytes32",
          "name": "newAdminRole",
          "type": "bytes32"
        }
      ],
      "name": "RoleAdminChanged",
      "type": "event"
    },
    {
      "anonymous": false,
      "inputs": [
        {
          "indexed": true,
          "internalType": "bytes32",
          "name": "role",
          "type": "bytes32"
        },
        {
          "indexed": true,
          "internalType": "address",
          "name": "account",
          "type": "address"
        },
        {
          "indexed": true,
          "internalType": "address",
          "name": "sender",
          "type": "address"
        }
      ],
      "name": "RoleGranted",
      "type": "event"
    },
    {
      "anonymous": false,
      "inputs": [
        {
          "indexed": true,
          "internalType": "bytes32",
          "name": "role",
          "type": "bytes32"
        },
        {
          "indexed": true,
          "internalType": "address",
          "name": "account",
          "type": "address"
        },
        {
          "indexed": true,
          "internalType": "address",
          "name": "sender",
          "type": "address"
        }
      ],
      "name": "RoleRevoked",
      "type": "event"
    },
    {
      "anonymous": false,
      "inputs": [
        {
          "indexed": false,
          "internalType": "address",
          "name": "account",
          "type": "address"
        }
      ],
      "name": "Unpaused",
      "type": "event"
    },
    {
      "anonymous": false,
      "inputs": [
        {
          "indexed": true,
          "internalType": "address",
          "name": "implementation",
          "type": "address"
        }
      ],
      "name": "Upgraded",
      "type": "event"
    },
    {
      "anonymous": false,
      "inputs": [
        {
          "indexed": true,
          "internalType": "address",
          "name": "sender",
          "type": "address"
        },
        {
          "indexed": true,
          "internalType": "uint256",
          "name": "chainId",
          "type": "uint256"
        },
        {
          "indexed": false,
          "internalType": "bytes",
          "name": "receiver",
          "type": "bytes"
        },
        {
          "indexed": false,
          "internalType": "address",
          "name": "zrc20",
          "type": "address"
        },
        {
          "indexed": false,
          "internalType": "uint256",
          "name": "value",
          "type": "uint256"
        },
        {
          "indexed": false,
          "internalType": "uint256",
          "name": "gasfee",
          "type": "uint256"
        },
        {
          "indexed": false,
          "internalType": "uint256",
          "name": "protocolFlatFee",
          "type": "uint256"
        },
        {
          "indexed": false,
          "internalType": "bytes",
          "name": "message",
          "type": "bytes"
        },
        {
          "components": [
            {
              "internalType": "uint256",
              "name": "gasLimit",
              "type": "uint256"
            },
            {
              "internalType": "bool",
              "name": "isArbitraryCall",
              "type": "bool"
            }
          ],
          "indexed": false,
          "internalType": "struct CallOptions",
          "name": "callOptions",
          "type": "tuple"
        },
        {
          "components": [
            {
              "internalType": "address",
              "name": "revertAddress",
              "type": "address"
            },
            {
              "internalType": "bool",
              "name": "callOnRevert",
              "type": "bool"
            },
            {
              "internalType": "address",
              "name": "abortAddress",
              "type": "address"
            },
            {
              "internalType": "bytes",
              "name": "revertMessage",
              "type": "bytes"
            },
            {
              "internalType": "uint256",
              "name": "onRevertGasLimit",
              "type": "uint256"
            }
          ],
          "indexed": false,
          "internalType": "struct RevertOptions",
          "name": "revertOptions",
          "type": "tuple"
        }
      ],
      "name": "Withdrawn",
      "type": "event"
    },
    {
      "anonymous": false,
      "inputs": [
        {
          "indexed": true,
          "internalType": "address",
          "name": "sender",
          "type": "address"
        },
        {
          "indexed": true,
          "internalType": "uint256",
          "name": "chainId",
          "type": "uint256"
        },
        {
          "indexed": false,
          "internalType": "bytes",
          "name": "receiver",
          "type": "bytes"
        },
        {
          "indexed": false,
          "internalType": "address",
          "name": "zrc20",
          "type": "address"
        },
        {
          "indexed": false,
          "internalType": "uint256",
          "name": "value",
          "type": "uint256"
        },
        {
          "indexed": false,
          "internalType": "uint256",
          "name": "gasfee",
          "type": "uint256"
        },
        {
          "indexed": false,
          "internalType": "uint256",
          "name": "protocolFlatFee",
          "type": "uint256"
        },
        {
          "indexed": false,
          "internalType": "bytes",
          "name": "message",
          "type": "bytes"
        },
        {
          "components": [
            {
              "internalType": "uint256",
              "name": "gasLimit",
              "type": "uint256"
            },
            {
              "internalType": "bool",
              "name": "isArbitraryCall",
              "type": "bool"
            }
          ],
          "indexed": false,
          "internalType": "struct CallOptions",
          "name": "callOptions",
          "type": "tuple"
        },
        {
          "components": [
            {
              "internalType": "address",
              "name": "revertAddress",
              "type": "address"
            },
            {
              "internalType": "bool",
              "name": "callOnRevert",
              "type": "bool"
            },
            {
              "internalType": "address",
              "name": "abortAddress",
              "type": "address"
            },
            {
              "internalType": "bytes",
              "name": "revertMessage",
              "type": "bytes"
            },
            {
              "internalType": "uint256",
              "name": "onRevertGasLimit",
              "type": "uint256"
            }
          ],
          "indexed": false,
          "internalType": "struct RevertOptions",
          "name": "revertOptions",
          "type": "tuple"
        }
      ],
      "name": "WithdrawnAndCalled",
      "type": "event"
    },
    {
      "inputs": [],
      "name": "DEFAULT_ADMIN_ROLE",
      "outputs": [
        {
          "internalType": "bytes32",
          "name": "",
          "type": "bytes32"
        }
      ],
      "stateMutability": "view",
      "type": "function"
    },
    {
      "inputs": [],
      "name": "PAUSER_ROLE",
      "outputs": [
        {
          "internalType": "bytes32",
          "name": "",
          "type": "bytes32"
        }
      ],
      "stateMutability": "view",
      "type": "function"
    },
    {
      "inputs": [],
      "name": "PROTOCOL_ADDRESS",
      "outputs": [
        {
          "internalType": "address",
          "name": "",
          "type": "address"
        }
      ],
      "stateMutability": "view",
      "type": "function"
    },
    {
      "inputs": [],
      "name": "REGISTRY",
      "outputs": [
        {
          "internalType": "address",
          "name": "",
          "type": "address"
        }
      ],
      "stateMutability": "view",
      "type": "function"
    },
    {
      "inputs": [],
      "name": "UPGRADE_INTERFACE_VERSION",
      "outputs": [
        {
          "internalType": "string",
          "name": "",
          "type": "string"
        }
      ],
      "stateMutability": "view",
      "type": "function"
    },
    {
      "inputs": [
        {
          "internalType": "bytes",
          "name": "receiver",
          "type": "bytes"
        },
        {
          "internalType": "address",
          "name": "zrc20",
          "type": "address"
        },
        {
          "internalType": "bytes",
          "name": "message",
          "type": "bytes"
        },
        {
          "components": [
            {
              "internalType": "uint256",
              "name": "gasLimit",
              "type": "uint256"
            },
            {
              "internalType": "bool",
              "name": "isArbitraryCall",
              "type": "bool"
            }
          ],
          "internalType": "struct CallOptions",
          "name": "callOptions",
          "type": "tuple"
        },
        {
          "components": [
            {
              "internalType": "address",
              "name": "revertAddress",
              "type": "address"
            },
            {
              "internalType": "bool",
              "name": "callOnRevert",
              "type": "bool"
            },
            {
              "internalType": "address",
              "name": "abortAddress",
              "type": "address"
            },
            {
              "internalType": "bytes",
              "name": "revertMessage",
              "type": "bytes"
            },
            {
              "internalType": "uint256",
              "name": "onRevertGasLimit",
              "type": "uint256"
            }
          ],
          "internalType": "struct RevertOptions",
          "name": "revertOptions",
          "type": "tuple"
        }
      ],
      "name": "call",
      "outputs": [],
      "stateMutability": "nonpayable",
      "type": "function"
    },
    {
      "inputs": [
        {
          "internalType": "address",
          "name": "target",
          "type": "address"
        }
      ],
      "name": "deposit",
      "outputs": [],
      "stateMutability": "payable",
      "type": "function"
    },
    {
      "inputs": [
        {
          "internalType": "address",
          "name": "zrc20",
          "type": "address"
        },
        {
          "internalType": "uint256",
          "name": "amount",
          "type": "uint256"
        },
        {
          "internalType": "address",
          "name": "target",
          "type": "address"
        }
      ],
      "name": "deposit",
      "outputs": [],
      "stateMutability": "nonpayable",
      "type": "function"
    },
    {
      "inputs": [
        {
          "components": [
            {
              "internalType": "bytes",
              "name": "sender",
              "type": "bytes"
            },
            {
              "internalType": "address",
              "name": "senderEVM",
              "type": "address"
            },
            {
              "internalType": "uint256",
              "name": "chainID",
              "type": "uint256"
            }
          ],
          "internalType": "struct MessageContext",
          "name": "context",
          "type": "tuple"
        },
        {
          "internalType": "address",
          "name": "target",
          "type": "address"
        },
        {
          "internalType": "bytes",
          "name": "message",
          "type": "bytes"
        }
      ],
      "name": "depositAndCall",
      "outputs": [],
      "stateMutability": "payable",
      "type": "function"
    },
    {
      "inputs": [
        {
          "components": [
            {
              "internalType": "bytes",
              "name": "sender",
              "type": "bytes"
            },
            {
              "internalType": "address",
              "name": "senderEVM",
              "type": "address"
            },
            {
              "internalType": "uint256",
              "name": "chainID",
              "type": "uint256"
            }
          ],
          "internalType": "struct MessageContext",
          "name": "context",
          "type": "tuple"
        },
        {
          "internalType": "address",
          "name": "zrc20",
          "type": "address"
        },
        {
          "internalType": "uint256",
          "name": "amount",
          "type": "uint256"
        },
        {
          "internalType": "address",
          "name": "target",
          "type": "address"
        },
        {
          "internalType": "bytes",
          "name": "message",
          "type": "bytes"
        }
      ],
      "name": "depositAndCall",
      "outputs": [],
      "stateMutability": "nonpayable",
      "type": "function"
    },
    {
      "inputs": [
        {
          "internalType": "address",
          "name": "zrc20",
          "type": "address"
        },
        {
          "internalType": "uint256",
          "name": "amount",
          "type": "uint256"
        },
        {
          "internalType": "address",
          "name": "target",
          "type": "address"
        },
        {
          "components": [
            {
              "internalType": "address",
              "name": "sender",
              "type": "address"
            },
            {
              "internalType": "address",
              "name": "asset",
              "type": "address"
            },
            {
              "internalType": "uint256",
              "name": "amount",
              "type": "uint256"
            },
            {
              "internalType": "bytes",
              "name": "revertMessage",
              "type": "bytes"
            }
          ],
          "internalType": "struct RevertContext",
          "name": "revertContext",
          "type": "tuple"
        }
      ],
      "name": "depositAndRevert",
      "outputs": [],
      "stateMutability": "nonpayable",
      "type": "function"
    },
    {
      "inputs": [
        {
          "internalType": "address",
          "name": "target",
          "type": "address"
        },
        {
          "components": [
            {
              "internalType": "address",
              "name": "sender",
              "type": "address"
            },
            {
              "internalType": "address",
              "name": "asset",
              "type": "address"
            },
            {
              "internalType": "uint256",
              "name": "amount",
              "type": "uint256"
            },
            {
              "internalType": "bytes",
              "name": "revertMessage",
              "type": "bytes"
            }
          ],
          "internalType": "struct RevertContext",
          "name": "revertContext",
          "type": "tuple"
        }
      ],
      "name": "depositAndRevert",
      "outputs": [],
      "stateMutability": "payable",
      "type": "function"
    },
    {
      "inputs": [
        {
          "components": [
            {
              "internalType": "bytes",
              "name": "sender",
              "type": "bytes"
            },
            {
              "internalType": "address",
              "name": "senderEVM",
              "type": "address"
            },
            {
              "internalType": "uint256",
              "name": "chainID",
              "type": "uint256"
            }
          ],
          "internalType": "struct MessageContext",
          "name": "context",
          "type": "tuple"
        },
        {
          "internalType": "address",
          "name": "zrc20",
          "type": "address"
        },
        {
          "internalType": "uint256",
          "name": "amount",
          "type": "uint256"
        },
        {
          "internalType": "address",
          "name": "target",
          "type": "address"
        },
        {
          "internalType": "bytes",
          "name": "message",
          "type": "bytes"
        }
      ],
      "name": "execute",
      "outputs": [],
      "stateMutability": "nonpayable",
      "type": "function"
    },
    {
      "inputs": [
        {
          "internalType": "address",
          "name": "target",
          "type": "address"
        },
        {
          "components": [
            {
              "internalType": "bytes",
              "name": "sender",
              "type": "bytes"
            },
            {
              "internalType": "address",
              "name": "asset",
              "type": "address"
            },
            {
              "internalType": "uint256",
              "name": "amount",
              "type": "uint256"
            },
            {
              "internalType": "bool",
              "name": "outgoing",
              "type": "bool"
            },
            {
              "internalType": "uint256",
              "name": "chainID",
              "type": "uint256"
            },
            {
              "internalType": "bytes",
              "name": "revertMessage",
              "type": "bytes"
            }
          ],
          "internalType": "struct AbortContext",
          "name": "abortContext",
          "type": "tuple"
        }
      ],
      "name": "executeAbort",
      "outputs": [],
      "stateMutability": "nonpayable",
      "type": "function"
    },
    {
      "inputs": [
        {
          "internalType": "address",
          "name": "target",
          "type": "address"
        },
        {
          "components": [
            {
              "internalType": "address",
              "name": "sender",
              "type": "address"
            },
            {
              "internalType": "address",
              "name": "asset",
              "type": "address"
            },
            {
              "internalType": "uint256",
              "name": "amount",
              "type": "uint256"
            },
            {
              "internalType": "bytes",
              "name": "revertMessage",
              "type": "bytes"
            }
          ],
          "internalType": "struct RevertContext",
          "name": "revertContext",
          "type": "tuple"
        }
      ],
      "name": "executeRevert",
      "outputs": [],
      "stateMutability": "nonpayable",
      "type": "function"
    },
    {
      "inputs": [],
      "name": "getMaxMessageSize",
      "outputs": [
        {
          "internalType": "uint256",
          "name": "",
          "type": "uint256"
        }
      ],
      "stateMutability": "pure",
      "type": "function"
    },
    {
      "inputs": [],
      "name": "getMaxRevertGasLimit",
      "outputs": [
        {
          "internalType": "uint256",
          "name": "",
          "type": "uint256"
        }
      ],
      "stateMutability": "pure",
      "type": "function"
    },
    {
      "inputs": [],
      "name": "getMinGasLimit",
      "outputs": [
        {
          "internalType": "uint256",
          "name": "",
          "type": "uint256"
        }
      ],
      "stateMutability": "pure",
      "type": "function"
    },
    {
      "inputs": [
        {
          "internalType": "bytes32",
          "name": "role",
          "type": "bytes32"
        }
      ],
      "name": "getRoleAdmin",
      "outputs": [
        {
          "internalType": "bytes32",
          "name": "",
          "type": "bytes32"
        }
      ],
      "stateMutability": "view",
      "type": "function"
    },
    {
      "inputs": [
        {
          "internalType": "bytes32",
          "name": "role",
          "type": "bytes32"
        },
        {
          "internalType": "address",
          "name": "account",
          "type": "address"
        }
      ],
      "name": "grantRole",
      "outputs": [],
      "stateMutability": "nonpayable",
      "type": "function"
    },
    {
      "inputs": [
        {
          "internalType": "bytes32",
          "name": "role",
          "type": "bytes32"
        },
        {
          "internalType": "address",
          "name": "account",
          "type": "address"
        }
      ],
      "name": "hasRole",
      "outputs": [
        {
          "internalType": "bool",
          "name": "",
          "type": "bool"
        }
      ],
      "stateMutability": "view",
      "type": "function"
    },
    {
      "inputs": [
        {
          "internalType": "address",
          "name": "zetaToken_",
          "type": "address"
        },
        {
          "internalType": "address",
          "name": "admin_",
          "type": "address"
        }
      ],
      "name": "initialize",
      "outputs": [],
      "stateMutability": "nonpayable",
      "type": "function"
    },
    {
      "inputs": [],
      "name": "pause",
      "outputs": [],
      "stateMutability": "nonpayable",
      "type": "function"
    },
    {
      "inputs": [],
      "name": "paused",
      "outputs": [
        {
          "internalType": "bool",
          "name": "",
          "type": "bool"
        }
      ],
      "stateMutability": "view",
      "type": "function"
    },
    {
      "inputs": [],
      "name": "proxiableUUID",
      "outputs": [
        {
          "internalType": "bytes32",
          "name": "",
          "type": "bytes32"
        }
      ],
      "stateMutability": "view",
      "type": "function"
    },
    {
      "inputs": [
        {
          "internalType": "bytes32",
          "name": "role",
          "type": "bytes32"
        },
        {
          "internalType": "address",
          "name": "callerConfirmation",
          "type": "address"
        }
      ],
      "name": "renounceRole",
      "outputs": [],
      "stateMutability": "nonpayable",
      "type": "function"
    },
    {
      "inputs": [
        {
          "internalType": "bytes32",
          "name": "role",
          "type": "bytes32"
        },
        {
          "internalType": "address",
          "name": "account",
          "type": "address"
        }
      ],
      "name": "revokeRole",
      "outputs": [],
      "stateMutability": "nonpayable",
      "type": "function"
    },
    {
      "inputs": [
        {
          "internalType": "bytes4",
          "name": "interfaceId",
          "type": "bytes4"
        }
      ],
      "name": "supportsInterface",
      "outputs": [
        {
          "internalType": "bool",
          "name": "",
          "type": "bool"
        }
      ],
      "stateMutability": "view",
      "type": "function"
    },
    {
      "inputs": [],
      "name": "unpause",
      "outputs": [],
      "stateMutability": "nonpayable",
      "type": "function"
    },
    {
      "inputs": [
        {
          "internalType": "address",
          "name": "newImplementation",
          "type": "address"
        },
        {
          "internalType": "bytes",
          "name": "data",
          "type": "bytes"
        }
      ],
      "name": "upgradeToAndCall",
      "outputs": [],
      "stateMutability": "payable",
      "type": "function"
    },
    {
      "inputs": [
        {
          "internalType": "bytes",
          "name": "receiver",
          "type": "bytes"
        },
        {
          "internalType": "uint256",
          "name": "amount",
          "type": "uint256"
        },
        {
          "internalType": "address",
          "name": "zrc20",
          "type": "address"
        },
        {
          "components": [
            {
              "internalType": "address",
              "name": "revertAddress",
              "type": "address"
            },
            {
              "internalType": "bool",
              "name": "callOnRevert",
              "type": "bool"
            },
            {
              "internalType": "address",
              "name": "abortAddress",
              "type": "address"
            },
            {
              "internalType": "bytes",
              "name": "revertMessage",
              "type": "bytes"
            },
            {
              "internalType": "uint256",
              "name": "onRevertGasLimit",
              "type": "uint256"
            }
          ],
          "internalType": "struct RevertOptions",
          "name": "revertOptions",
          "type": "tuple"
        }
      ],
      "name": "withdraw",
      "outputs": [],
      "stateMutability": "nonpayable",
      "type": "function"
    },
    {
      "inputs": [
        {
          "internalType": "bytes",
          "name": "receiver",
          "type": "bytes"
        },
        {
          "internalType": "uint256",
          "name": "amount",
          "type": "uint256"
        },
        {
          "internalType": "uint256",
          "name": "chainId",
          "type": "uint256"
        },
        {
          "components": [
            {
              "internalType": "address",
              "name": "revertAddress",
              "type": "address"
            },
            {
              "internalType": "bool",
              "name": "callOnRevert",
              "type": "bool"
            },
            {
              "internalType": "address",
              "name": "abortAddress",
              "type": "address"
            },
            {
              "internalType": "bytes",
              "name": "revertMessage",
              "type": "bytes"
            },
            {
              "internalType": "uint256",
              "name": "onRevertGasLimit",
              "type": "uint256"
            }
          ],
          "internalType": "struct RevertOptions",
          "name": "revertOptions",
          "type": "tuple"
        }
      ],
      "name": "withdraw",
      "outputs": [],
      "stateMutability": "nonpayable",
      "type": "function"
    },
    {
      "inputs": [
        {
          "internalType": "bytes",
          "name": "receiver",
          "type": "bytes"
        },
        {
          "internalType": "uint256",
          "name": "amount",
          "type": "uint256"
        },
        {
          "internalType": "uint256",
          "name": "chainId",
          "type": "uint256"
        },
        {
          "internalType": "bytes",
          "name": "message",
          "type": "bytes"
        },
        {
          "components": [
            {
              "internalType": "uint256",
              "name": "gasLimit",
              "type": "uint256"
            },
            {
              "internalType": "bool",
              "name": "isArbitraryCall",
              "type": "bool"
            }
          ],
          "internalType": "struct CallOptions",
          "name": "callOptions",
          "type": "tuple"
        },
        {
          "components": [
            {
              "internalType": "address",
              "name": "revertAddress",
              "type": "address"
            },
            {
              "internalType": "bool",
              "name": "callOnRevert",
              "type": "bool"
            },
            {
              "internalType": "address",
              "name": "abortAddress",
              "type": "address"
            },
            {
              "internalType": "bytes",
              "name": "revertMessage",
              "type": "bytes"
            },
            {
              "internalType": "uint256",
              "name": "onRevertGasLimit",
              "type": "uint256"
            }
          ],
          "internalType": "struct RevertOptions",
          "name": "revertOptions",
          "type": "tuple"
        }
      ],
      "name": "withdrawAndCall",
      "outputs": [],
      "stateMutability": "nonpayable",
      "type": "function"
    },
    {
      "inputs": [
        {
          "internalType": "bytes",
          "name": "receiver",
          "type": "bytes"
        },
        {
          "internalType": "uint256",
          "name": "amount",
          "type": "uint256"
        },
        {
          "internalType": "address",
          "name": "zrc20",
          "type": "address"
        },
        {
          "internalType": "bytes",
          "name": "message",
          "type": "bytes"
        },
        {
          "components": [
            {
              "internalType": "uint256",
              "name": "gasLimit",
              "type": "uint256"
            },
            {
              "internalType": "bool",
              "name": "isArbitraryCall",
              "type": "bool"
            }
          ],
          "internalType": "struct CallOptions",
          "name": "callOptions",
          "type": "tuple"
        },
        {
          "components": [
            {
              "internalType": "address",
              "name": "revertAddress",
              "type": "address"
            },
            {
              "internalType": "bool",
              "name": "callOnRevert",
              "type": "bool"
            },
            {
              "internalType": "address",
              "name": "abortAddress",
              "type": "address"
            },
            {
              "internalType": "bytes",
              "name": "revertMessage",
              "type": "bytes"
            },
            {
              "internalType": "uint256",
              "name": "onRevertGasLimit",
              "type": "uint256"
            }
          ],
          "internalType": "struct RevertOptions",
          "name": "revertOptions",
          "type": "tuple"
        }
      ],
      "name": "withdrawAndCall",
      "outputs": [],
      "stateMutability": "nonpayable",
      "type": "function"
    },
    {
      "inputs": [],
      "name": "zetaToken",
      "outputs": [
        {
          "internalType": "address",
          "name": "",
          "type": "address"
        }
      ],
      "stateMutability": "view",
      "type": "function"
    },
    {
      "stateMutability": "payable",
      "type": "receive"
    }
  ],
  "bytecode": "0x60a06040523073ffffffffffffffffffffffffffffffffffffffff1660809073ffffffffffffffffffffffffffffffffffffffff1681525034801561004357600080fd5b5061005261005760201b60201c565b6101c1565b600061006761015b60201b60201c565b90508060000160089054906101000a900460ff16156100b2576040517ff92ee8a900000000000000000000000000000000000000000000000000000000815260040160405180910390fd5b67ffffffffffffffff80168160000160009054906101000a900467ffffffffffffffff1667ffffffffffffffff16146101585767ffffffffffffffff8160000160006101000a81548167ffffffffffffffff021916908367ffffffffffffffff1602179055507fc7f505b2f371ae2175ee4913f4499e1f2633a7b5936321eed1cdaeb6115181d267ffffffffffffffff60405161014f91906101a6565b60405180910390a15b50565b60007ff0c57e16840df040f15088dc2f81fe391c3923bec73e23a9662efc9c229c6a00905090565b600067ffffffffffffffff82169050919050565b6101a081610183565b82525050565b60006020820190506101bb6000830184610197565b92915050565b6080516154e56101ea60003960008181612864015281816128b90152612a7a01526154e56000f3fe6080604052600436106102085760003560e01c80637b15118b11610118578063bcf7f32b116100a0578063e63ab1e91161006f578063e63ab1e9146107cd578063e90b9e5e146107f8578063edc5b62e14610814578063f340fa011461083f578063f45346dc1461085b576102ea565b8063bcf7f32b14610727578063c39aca3714610750578063d547741f14610779578063e279a72a146107a2576102ea565b806397a1cef1116100e757806397a1cef1146106545780639d4ba4651461067d578063a217fddf146106a6578063ad3cb1cc146106d1578063bcbe9365146106fc576102ea565b80637b15118b146105ae5780637c0dcb5f146105d75780638456cb591461060057806391d1485414610617576102ea565b80632810ae631161019b5780633f4ba83a1161016a5780633f4ba83a146104fc578063485cc955146105135780634f1ef2861461053c57806352d1902d146105585780635c975abb14610583576102ea565b80632810ae63146104655780632f2ff15d1461048e57806330b10342146104b757806336568abe146104d3576102ea565b80632095dedb116101d75780632095dedb146103a957806321e093b1146103d2578063248a9ca3146103fd5780632722feee1461043a576102ea565b806301ffc9a7146102ef57806306433b1b1461032c57806306cb898314610357578063184b079314610380576102ea565b366102ea57610215610884565b60008054906101000a900473ffffffffffffffffffffffffffffffffffffffff1673ffffffffffffffffffffffffffffffffffffffff163373ffffffffffffffffffffffffffffffffffffffff16141580156102b1575073735b14bb79463307aacbed86daf3322b1e6226ab73ffffffffffffffffffffffffffffffffffffffff163373ffffffffffffffffffffffffffffffffffffffff1614155b156102e8576040517fb3af013700000000000000000000000000000000000000000000000000000000815260040160405180910390fd5b005b600080fd5b3480156102fb57600080fd5b50610316600480360381019061031191906138d9565b6108c5565b6040516103239190613921565b60405180910390f35b34801561033857600080fd5b5061034161093f565b60405161034e919061397d565b60405180910390f35b34801561036357600080fd5b5061037e60048036038101906103799190613bad565b610957565b005b34801561038c57600080fd5b506103a760048036038101906103a29190613c9e565b61099c565b005b3480156103b557600080fd5b506103d060048036038101906103cb9190613d19565b610aa5565b005b3480156103de57600080fd5b506103e7610bae565b6040516103f4919061397d565b60405180910390f35b34801561040957600080fd5b50610424600480360381019061041f9190613dab565b610bd2565b6040516104319190613de7565b60405180910390f35b34801561044657600080fd5b5061044f610c00565b60405161045c919061397d565b60405180910390f35b34801561047157600080fd5b5061048c60048036038101906104879190613e38565b610c18565b005b34801561049a57600080fd5b506104b560048036038101906104b09190613f1f565b610ceb565b005b6104d160048036038101906104cc9190613f7e565b610d0d565b005b3480156104df57600080fd5b506104fa60048036038101906104f59190613f1f565b610e34565b005b34801561050857600080fd5b50610511610eaf565b005b34801561051f57600080fd5b5061053a6004803603810190610535919061400e565b610ee4565b005b6105566004803603810190610551919061404e565b6111a2565b005b34801561056457600080fd5b5061056d6111c1565b60405161057a9190613de7565b60405180910390f35b34801561058f57600080fd5b506105986111f4565b6040516105a59190613921565b60405180910390f35b3480156105ba57600080fd5b506105d560048036038101906105d091906140aa565b611219565b005b3480156105e357600080fd5b506105fe60048036038101906105f99190614191565b61131a565b005b34801561060c57600080fd5b50610615611500565b005b34801561062357600080fd5b5061063e60048036038101906106399190613f1f565b611535565b60405161064b9190613921565b60405180910390f35b34801561066057600080fd5b5061067b60048036038101906106769190614230565b6115ae565b005b34801561068957600080fd5b506106a4600480360381019061069f91906142cf565b61168c565b005b3480156106b257600080fd5b506106bb6117ff565b6040516106c89190613de7565b60405180910390f35b3480156106dd57600080fd5b506106e6611806565b6040516106f391906143d1565b60405180910390f35b34801561070857600080fd5b5061071161183f565b60405161071e9190614402565b60405180910390f35b34801561073357600080fd5b5061074e6004803603810190610749919061441d565b611849565b005b34801561075c57600080fd5b506107776004803603810190610772919061441d565b61195f565b005b34801561078557600080fd5b506107a0600480360381019061079b9190613f1f565b611adc565b005b3480156107ae57600080fd5b506107b7611afe565b6040516107c49190614402565b60405180910390f35b3480156107d957600080fd5b506107e2611b09565b6040516107ef9190613de7565b60405180910390f35b610812600480360381019061080d9190613c9e565b611b2d565b005b34801561082057600080fd5b50610829611c4e565b6040516108369190614402565b60405180910390f35b610859600480360381019061085491906144d3565b611c59565b005b34801561086757600080fd5b50610882600480360381019061087d9190614500565b611dbe565b005b61088c6111f4565b156108c3576040517fd93c066500000000000000000000000000000000000000000000000000000000815260040160405180910390fd5b565b60007f7965db0b000000000000000000000000000000000000000000000000000000007bffffffffffffffffffffffffffffffffffffffffffffffffffffffff1916827bffffffffffffffffffffffffffffffffffffffffffffffffffffffff19161480610938575061093782611eb5565b5b9050919050565b737cce3eb018bf23e1fe2a32692f2c77592d11039481565b61095f610884565b61096d828286869050611f1f565b610994868686868680360381019061098591906145d9565b8661098f906146ae565b611fa1565b505050505050565b6109a461202e565b73735b14bb79463307aacbed86daf3322b1e6226ab73ffffffffffffffffffffffffffffffffffffffff163373ffffffffffffffffffffffffffffffffffffffff1614610a1d576040517f42c0407e00000000000000000000000000000000000000000000000000000000815260040160405180910390fd5b610a25610884565b610a2e82612085565b8173ffffffffffffffffffffffffffffffffffffffff1663c9028a36826040518263ffffffff1660e01b8152600401610a679190614842565b600060405180830381600087803b158015610a8157600080fd5b505af1158015610a95573d6000803e3d6000fd5b50505050610aa16120ee565b5050565b610aad61202e565b73735b14bb79463307aacbed86daf3322b1e6226ab73ffffffffffffffffffffffffffffffffffffffff163373ffffffffffffffffffffffffffffffffffffffff1614610b26576040517f42c0407e00000000000000000000000000000000000000000000000000000000815260040160405180910390fd5b610b2e610884565b610b3782612085565b8173ffffffffffffffffffffffffffffffffffffffff16632d4cfb7e826040518263ffffffff1660e01b8152600401610b70919061494e565b600060405180830381600087803b158015610b8a57600080fd5b505af1158015610b9e573d6000803e3d6000fd5b50505050610baa6120ee565b5050565b60008054906101000a900473ffffffffffffffffffffffffffffffffffffffff1681565b600080610bdd612107565b905080600001600084815260200190815260200160002060010154915050919050565b73735b14bb79463307aacbed86daf3322b1e6226ab81565b610c20610884565b610c2e87878686868661212f565b600080610c3f878560000135612157565b91509150610c618873735b14bb79463307aacbed86daf3322b1e6226ab612363565b863373ffffffffffffffffffffffffffffffffffffffff167fd90f94752d2b12f364f4a2237ebe1aff24ba6127585376bf4935f6a7be17dd2a8b60008054906101000a900473ffffffffffffffffffffffffffffffffffffffff168c87878d8d8d8d604051610cd899989796959493929190614ad1565b60405180910390a3505050505050505050565b610cf482610bd2565b610cfd8161254e565b610d078383612562565b50505050565b610d1561202e565b73735b14bb79463307aacbed86daf3322b1e6226ab73ffffffffffffffffffffffffffffffffffffffff163373ffffffffffffffffffffffffffffffffffffffff1614610d8e576040517f42c0407e00000000000000000000000000000000000000000000000000000000815260040160405180910390fd5b610d96610884565b610db6348473735b14bb79463307aacbed86daf3322b1e6226ab30612663565b8273ffffffffffffffffffffffffffffffffffffffff1663ebf9b2aa348685856040518563ffffffff1660e01b8152600401610df493929190614bd1565b6000604051808303818588803b158015610e0d57600080fd5b505af1158015610e21573d6000803e3d6000fd5b5050505050610e2e6120ee565b50505050565b610e3c612686565b73ffffffffffffffffffffffffffffffffffffffff168173ffffffffffffffffffffffffffffffffffffffff1614610ea0576040517f6697b23200000000000000000000000000000000000000000000000000000000815260040160405180910390fd5b610eaa828261268e565b505050565b7f65d7a28e3265b37a6474929f336521b332c1681b933f6cb9f3376673440d862a610ed98161254e565b610ee1612790565b50565b6000610eee612802565b905060008160000160089054906101000a900460ff1615905060008260000160009054906101000a900467ffffffffffffffff1690506000808267ffffffffffffffff16148015610f3c5750825b9050600060018367ffffffffffffffff16148015610f71575060003073ffffffffffffffffffffffffffffffffffffffff163b145b905081158015610f7f575080155b15610fb6576040517ff92ee8a900000000000000000000000000000000000000000000000000000000815260040160405180910390fd5b60018560000160006101000a81548167ffffffffffffffff021916908367ffffffffffffffff16021790555083156110065760018560000160086101000a81548160ff0219169083151502179055505b600073ffffffffffffffffffffffffffffffffffffffff168773ffffffffffffffffffffffffffffffffffffffff16148061106d5750600073ffffffffffffffffffffffffffffffffffffffff168673ffffffffffffffffffffffffffffffffffffffff16145b156110a4576040517f7138356f00000000000000000000000000000000000000000000000000000000815260040160405180910390fd5b6110ac61282a565b6110b4612834565b6110bc61283e565b6110c4612850565b6110d16000801b87612562565b506110fc7f65d7a28e3265b37a6474929f336521b332c1681b933f6cb9f3376673440d862a87612562565b50866000806101000a81548173ffffffffffffffffffffffffffffffffffffffff021916908373ffffffffffffffffffffffffffffffffffffffff16021790555083156111995760008560000160086101000a81548160ff0219169083151502179055507fc7f505b2f371ae2175ee4913f4499e1f2633a7b5936321eed1cdaeb6115181d260016040516111909190614c63565b60405180910390a15b50505050505050565b6111aa612862565b6111b382612948565b6111bd8282612959565b5050565b60006111cb612a78565b7f360894a13ba1a3210667c828492db98dca3e2076cc3735a920a3ca505d382bbc60001b905090565b6000806111ff612aff565b90508060000160009054906101000a900460ff1691505090565b611221610884565b61122f87878686868661212f565b600061124087878560000135612b27565b905060003373ffffffffffffffffffffffffffffffffffffffff167fd90f94752d2b12f364f4a2237ebe1aff24ba6127585376bf4935f6a7be17dd2a8a898b868c73ffffffffffffffffffffffffffffffffffffffff16634d8943bb6040518163ffffffff1660e01b8152600401602060405180830381865afa1580156112cb573d6000803e3d6000fd5b505050506040513d601f19601f820116820180604052508101906112ef9190614c93565b8c8c8c8c60405161130899989796959493929190614ad1565b60405180910390a35050505050505050565b611322610884565b61132d848483612be1565b60006113a884848573ffffffffffffffffffffffffffffffffffffffff1663091d27886040518163ffffffff1660e01b8152600401602060405180830381865afa15801561137f573d6000803e3d6000fd5b505050506040513d601f19601f820116820180604052508101906113a39190614c93565b612b27565b905060003373ffffffffffffffffffffffffffffffffffffffff167f07bf64173efd8f3dfb9e4eb3834bab9d5b85a3d89a1c6425797329de0668502c878688868973ffffffffffffffffffffffffffffffffffffffff16634d8943bb6040518163ffffffff1660e01b8152600401602060405180830381865afa158015611433573d6000803e3d6000fd5b505050506040513d601f19601f820116820180604052508101906114579190614c93565b60405180604001604052808c73ffffffffffffffffffffffffffffffffffffffff1663091d27886040518163ffffffff1660e01b8152600401602060405180830381865afa1580156114ad573d6000803e3d6000fd5b505050506040513d601f19601f820116820180604052508101906114d19190614c93565b8152602001600115158152508a6040516114f19796959493929190614d15565b60405180910390a35050505050565b7f65d7a28e3265b37a6474929f336521b332c1681b933f6cb9f3376673440d862a61152a8161254e565b611532612c01565b50565b600080611540612107565b905080600001600085815260200190815260200160002060000160008473ffffffffffffffffffffffffffffffffffffffff1673ffffffffffffffffffffffffffffffffffffffff16815260200190815260200160002060009054906101000a900460ff1691505092915050565b6115b6610884565b6115c1848483612be1565b6000806115cf846000612157565b915091506115f18573735b14bb79463307aacbed86daf3322b1e6226ab612363565b833373ffffffffffffffffffffffffffffffffffffffff167f07bf64173efd8f3dfb9e4eb3834bab9d5b85a3d89a1c6425797329de0668502c8860008054906101000a900473ffffffffffffffffffffffffffffffffffffffff16898787604051806040016040528060008152602001600115158152508b60405161167c9796959493929190614d15565b60405180910390a3505050505050565b61169461202e565b73735b14bb79463307aacbed86daf3322b1e6226ab73ffffffffffffffffffffffffffffffffffffffff163373ffffffffffffffffffffffffffffffffffffffff161461170d576040517f42c0407e00000000000000000000000000000000000000000000000000000000815260040160405180910390fd5b611715610884565b61173684848473735b14bb79463307aacbed86daf3322b1e6226ab30612c73565b611741848385612ca0565b611786578382846040517f40a143ba00000000000000000000000000000000000000000000000000000000815260040161177d93929190614da7565b60405180910390fd5b8173ffffffffffffffffffffffffffffffffffffffff1663c9028a36826040518263ffffffff1660e01b81526004016117bf9190614842565b600060405180830381600087803b1580156117d957600080fd5b505af11580156117ed573d6000803e3d6000fd5b505050506117f96120ee565b50505050565b6000801b81565b6040518060400160405280600581526020017f352e302e3000000000000000000000000000000000000000000000000000000081525081565b6000610b40905090565b61185161202e565b73735b14bb79463307aacbed86daf3322b1e6226ab73ffffffffffffffffffffffffffffffffffffffff163373ffffffffffffffffffffffffffffffffffffffff16146118ca576040517f42c0407e00000000000000000000000000000000000000000000000000000000815260040160405180910390fd5b6118d2610884565b6118dc8584612d32565b8273ffffffffffffffffffffffffffffffffffffffff16635bcfd61687878786866040518663ffffffff1660e01b815260040161191d959493929190614dde565b600060405180830381600087803b15801561193757600080fd5b505af115801561194b573d6000803e3d6000fd5b505050506119576120ee565b505050505050565b61196761202e565b73735b14bb79463307aacbed86daf3322b1e6226ab73ffffffffffffffffffffffffffffffffffffffff163373ffffffffffffffffffffffffffffffffffffffff16146119e0576040517f42c0407e00000000000000000000000000000000000000000000000000000000815260040160405180910390fd5b6119e8610884565b611a0985858573735b14bb79463307aacbed86daf3322b1e6226ab30612c73565b611a14858486612ca0565b611a59578483856040517f40a143ba000000000000000000000000000000000000000000000000000000008152600401611a5093929190614da7565b60405180910390fd5b8273ffffffffffffffffffffffffffffffffffffffff16635bcfd61687878786866040518663ffffffff1660e01b8152600401611a9a959493929190614dde565b600060405180830381600087803b158015611ab457600080fd5b505af1158015611ac8573d6000803e3d6000fd5b50505050611ad46120ee565b505050505050565b611ae582610bd2565b611aee8161254e565b611af8838361268e565b50505050565b6000620186a0905090565b7f65d7a28e3265b37a6474929f336521b332c1681b933f6cb9f3376673440d862a81565b611b3561202e565b73735b14bb79463307aacbed86daf3322b1e6226ab73ffffffffffffffffffffffffffffffffffffffff163373ffffffffffffffffffffffffffffffffffffffff1614611bae576040517f42c0407e00000000000000000000000000000000000000000000000000000000815260040160405180910390fd5b611bb6610884565b611bd6348373735b14bb79463307aacbed86daf3322b1e6226ab30612663565b8173ffffffffffffffffffffffffffffffffffffffff1663c9028a3634836040518363ffffffff1660e01b8152600401611c109190614842565b6000604051808303818588803b158015611c2957600080fd5b505af1158015611c3d573d6000803e3d6000fd5b5050505050611c4a6120ee565b5050565b6000621e8480905090565b611c6161202e565b73735b14bb79463307aacbed86daf3322b1e6226ab73ffffffffffffffffffffffffffffffffffffffff163373ffffffffffffffffffffffffffffffffffffffff1614611cda576040517f42c0407e00000000000000000000000000000000000000000000000000000000815260040160405180910390fd5b611ce2610884565b611d02348273735b14bb79463307aacbed86daf3322b1e6226ab30612663565b60008173ffffffffffffffffffffffffffffffffffffffff1634604051611d2890614e61565b60006040518083038185875af1925050503d8060008114611d65576040519150601f19603f3d011682016040523d82523d6000602084013e611d6a565b606091505b5050905080611db25781346040517ff279af7e000000000000000000000000000000000000000000000000000000008152600401611da9929190614e76565b60405180910390fd5b50611dbb6120ee565b50565b73735b14bb79463307aacbed86daf3322b1e6226ab73ffffffffffffffffffffffffffffffffffffffff163373ffffffffffffffffffffffffffffffffffffffff1614611e37576040517f42c0407e00000000000000000000000000000000000000000000000000000000815260040160405180910390fd5b611e3f610884565b611e6083838373735b14bb79463307aacbed86daf3322b1e6226ab30612c73565b611e6b838284612ca0565b611eb0578281836040517f40a143ba000000000000000000000000000000000000000000000000000000008152600401611ea793929190614da7565b60405180910390fd5b505050565b60007f01ffc9a7000000000000000000000000000000000000000000000000000000007bffffffffffffffffffffffffffffffffffffffffffffffffffffffff1916827bffffffffffffffffffffffffffffffffffffffffffffffffffffffff1916149050919050565b611f2c8360000135612d48565b611f4781838060600190611f409190614eae565b9050612d88565b621e848082608001351115611f9c578160800135621e84806040517fec86721e000000000000000000000000000000000000000000000000000000008152600401611f93929190614f11565b60405180910390fd5b505050565b611faa86612ded565b611fb8858360000151612e2b565b508473ffffffffffffffffffffffffffffffffffffffff163373ffffffffffffffffffffffffffffffffffffffff167f306ee13f48319a123b222c69908e44dcf91abffc20cacc502e3cf5a4ff23e0e4888787878760405161201e959493929190614fe9565b60405180910390a3505050505050565b6000612038612ec2565b90506002816000015403612078576040517f3ee5aeb500000000000000000000000000000000000000000000000000000000815260040160405180910390fd5b6002816000018190555050565b600073ffffffffffffffffffffffffffffffffffffffff168173ffffffffffffffffffffffffffffffffffffffff16036120eb576040517f7138356f00000000000000000000000000000000000000000000000000000000815260040160405180910390fd5b50565b60006120f8612ec2565b90506001816000018190555050565b60007f02dd7bc7dec4dceedda775e58dd541e08a116c6c53815c0bd028192f7b626800905090565b61213886612ded565b61214185612eea565b61214f828286869050611f1f565b505050505050565b6000806000737cce3eb018bf23e1fe2a32692f2c77592d11039473ffffffffffffffffffffffffffffffffffffffff1663804ea334866040518263ffffffff1660e01b81526004016121a99190614402565b600060405180830381865afa1580156121c6573d6000803e3d6000fd5b505050506040513d6000823e3d601f19601f820116820180604052508101906121ef91906150ca565b50905060008173ffffffffffffffffffffffffffffffffffffffff1663f2441b326040518163ffffffff1660e01b8152600401602060405180830381865afa15801561223f573d6000803e3d6000fd5b505050506040513d601f19601f820116820180604052508101906122639190615126565b73ffffffffffffffffffffffffffffffffffffffff1663d7fd7afb876040518263ffffffff1660e01b815260040161229b9190614402565b602060405180830381865afa1580156122b8573d6000803e3d6000fd5b505050506040513d601f19601f820116820180604052508101906122dc9190614c93565b905060008103612318576040517fe661aed000000000000000000000000000000000000000000000000000000000815260040160405180910390fd5b6000850361232c5761232986612f27565b94505b61233586612ff9565b92508285826123449190615182565b61234e91906151c4565b935061235a82856130c5565b50509250929050565b61238f60008054906101000a900473ffffffffffffffffffffffffffffffffffffffff16333085613167565b6123d25730826040517ff279af7e0000000000000000000000000000000000000000000000000000000081526004016123c9929190614e76565b60405180910390fd5b60008054906101000a900473ffffffffffffffffffffffffffffffffffffffff1673ffffffffffffffffffffffffffffffffffffffff16632e1a7d4d836040518263ffffffff1660e01b815260040161242b9190614402565b600060405180830381600087803b15801561244557600080fd5b505af1925050508015612456575060015b6124995780826040517ff279af7e000000000000000000000000000000000000000000000000000000008152600401612490929190614e76565b60405180910390fd5b60008173ffffffffffffffffffffffffffffffffffffffff16836040516124bf90614e61565b60006040518083038185875af1925050503d80600081146124fc576040519150601f19603f3d011682016040523d82523d6000602084013e612501565b606091505b50509050806125495781836040517ff279af7e000000000000000000000000000000000000000000000000000000008152600401612540929190614e76565b60405180910390fd5b505050565b61255f8161255a612686565b6131fc565b50565b60008061256d612107565b90506125798484611535565b61265757600181600001600086815260200190815260200160002060000160008573ffffffffffffffffffffffffffffffffffffffff1673ffffffffffffffffffffffffffffffffffffffff16815260200190815260200160002060006101000a81548160ff0219169083151502179055506125f3612686565b73ffffffffffffffffffffffffffffffffffffffff168373ffffffffffffffffffffffffffffffffffffffff16857f2f8788117e7eff1d82e926ec794901d17c78024a50270940304540a733656f0d60405160405180910390a4600191505061265d565b60009150505b92915050565b61266c83612085565b61267584612eea565b61268083838361324d565b50505050565b600033905090565b600080612699612107565b90506126a58484611535565b1561278457600081600001600086815260200190815260200160002060000160008573ffffffffffffffffffffffffffffffffffffffff1673ffffffffffffffffffffffffffffffffffffffff16815260200190815260200160002060006101000a81548160ff021916908315150217905550612720612686565b73ffffffffffffffffffffffffffffffffffffffff168373ffffffffffffffffffffffffffffffffffffffff16857ff6391f5c32d9c69d2a47ea670b442974b53935d1edc7fd64eb21e047a839171b60405160405180910390a4600191505061278a565b60009150505b92915050565b6127986132ee565b60006127a2612aff565b905060008160000160006101000a81548160ff0219169083151502179055507f5db9ee0a495bf2e6ff9c91a7834c1ba4fdd244a5e8aa4e537bd38aeae4b073aa6127ea612686565b6040516127f7919061397d565b60405180910390a150565b60007ff0c57e16840df040f15088dc2f81fe391c3923bec73e23a9662efc9c229c6a00905090565b61283261332e565b565b61283c61332e565b565b61284661332e565b61284e61336e565b565b61285861332e565b6128606133a2565b565b7f000000000000000000000000000000000000000000000000000000000000000073ffffffffffffffffffffffffffffffffffffffff163073ffffffffffffffffffffffffffffffffffffffff16148061290f57507f000000000000000000000000000000000000000000000000000000000000000073ffffffffffffffffffffffffffffffffffffffff166128f66133c3565b73ffffffffffffffffffffffffffffffffffffffff1614155b15612946576040517fe07c8dba00000000000000000000000000000000000000000000000000000000815260040160405180910390fd5b565b6000801b6129558161254e565b5050565b8173ffffffffffffffffffffffffffffffffffffffff166352d1902d6040518163ffffffff1660e01b8152600401602060405180830381865afa9250505080156129c157506040513d601f19601f820116820180604052508101906129be919061520d565b60015b612a0257816040517f4c9c8ce30000000000000000000000000000000000000000000000000000000081526004016129f9919061397d565b60405180910390fd5b7f360894a13ba1a3210667c828492db98dca3e2076cc3735a920a3ca505d382bbc60001b8114612a6957806040517faa1d49a4000000000000000000000000000000000000000000000000000000008152600401612a609190613de7565b60405180910390fd5b612a73838361341a565b505050565b7f000000000000000000000000000000000000000000000000000000000000000073ffffffffffffffffffffffffffffffffffffffff163073ffffffffffffffffffffffffffffffffffffffff1614612afd576040517fe07c8dba00000000000000000000000000000000000000000000000000000000815260040160405180910390fd5b565b60007fcd5ed15c6e187e77e9aee88184c21f4f2182ab5827cb3b7e07fbedcd63f03300905090565b600080612b348484612e2b565b9050612b4284333088613167565b612b8957833330876040517f489ca9b7000000000000000000000000000000000000000000000000000000008152600401612b80949392919061523a565b60405180910390fd5b612b93848661348d565b612bd65783856040517f7112ae77000000000000000000000000000000000000000000000000000000008152600401612bcd929190614e76565b60405180910390fd5b809150509392505050565b612bea83612ded565b612bf382612eea565b612bfc8161351c565b505050565b612c09610884565b6000612c13612aff565b905060018160000160006101000a81548160ff0219169083151502179055507f62e78cea01bee320cd4e420270b5ea74000d11b0c9f74754ebdbfc544b05a258612c5b612686565b604051612c68919061397d565b60405180910390a150565b612c7c85612085565b612c8583612085565b612c8e84612eea565b612c9983838361324d565b5050505050565b60008373ffffffffffffffffffffffffffffffffffffffff166347e7ef2484846040518363ffffffff1660e01b8152600401612cdd929190614e76565b6020604051808303816000875af1925050508015612d1957506040513d601f19601f82011682018060405250810190612d169190615294565b60015b612d265760009050612d2b565b809150505b9392505050565b612d3b82612085565b612d4481612085565b5050565b620186a0811015612d85576040517f60ee124700000000000000000000000000000000000000000000000000000000815260040160405180910390fd5b50565b610b408183612d9791906151c4565b1115612de9578082612da991906151c4565b610b406040517fcd6f4e6d000000000000000000000000000000000000000000000000000000008152600401612de0929190614f11565b60405180910390fd5b5050565b6000815103612e28576040517f7138356f00000000000000000000000000000000000000000000000000000000815260040160405180910390fd5b50565b60008060008473ffffffffffffffffffffffffffffffffffffffff1663fc5fecd5856040518263ffffffff1660e01b8152600401612e699190614402565b6040805180830381865afa158015612e85573d6000803e3d6000fd5b505050506040513d601f19601f82011682018060405250810190612ea991906152c1565b91509150612eb782826130c5565b809250505092915050565b60007f9b779b17422d0df92223018b32b4d1fa46e071723d6817e2486d003becc55f00905090565b60008103612f24576040517f5945ea5600000000000000000000000000000000000000000000000000000000815260040160405180910390fd5b50565b600080620186a09050737cce3eb018bf23e1fe2a32692f2c77592d11039473ffffffffffffffffffffffffffffffffffffffff16637066b18d846040518263ffffffff1660e01b8152600401612f7d919061534d565b600060405180830381865afa925050508015612fbc57506040513d6000823e3d601f19601f82011682018060405250810190612fb9919061537b565b60015b612fc857809150612ff3565b600081511115612fed5780806020019051810190612fe69190614c93565b9250612ff1565b8192505b505b50919050565b6000737cce3eb018bf23e1fe2a32692f2c77592d11039473ffffffffffffffffffffffffffffffffffffffff16637066b18d836040518263ffffffff1660e01b81526004016130489190615410565b600060405180830381865afa92505050801561308757506040513d6000823e3d601f19601f82011682018060405250810190613084919061537b565b60015b61309457600090506130c0565b6000815111156130b957808060200190518101906130b29190614c93565b91506130be565b600091505b505b919050565b6130d182333084613167565b613116578130826040517f6670111200000000000000000000000000000000000000000000000000000000815260040161310d93929190614da7565b60405180910390fd5b613120828261348d565b6131635781816040517f7112ae7700000000000000000000000000000000000000000000000000000000815260040161315a929190614e76565b60405180910390fd5b5050565b60008473ffffffffffffffffffffffffffffffffffffffff166323b872dd8585856040518463ffffffff1660e01b81526004016131a693929190614da7565b6020604051808303816000875af19250505080156131e257506040513d601f19601f820116820180604052508101906131df9190615294565b60015b6131ef57600090506131f4565b809150505b949350505050565b6132068282611535565b6132495780826040517fe2517d3f00000000000000000000000000000000000000000000000000000000815260040161324092919061543e565b60405180910390fd5b5050565b8173ffffffffffffffffffffffffffffffffffffffff168373ffffffffffffffffffffffffffffffffffffffff1614806132b257508073ffffffffffffffffffffffffffffffffffffffff168373ffffffffffffffffffffffffffffffffffffffff16145b156132e9576040517f82d5d76a00000000000000000000000000000000000000000000000000000000815260040160405180910390fd5b505050565b6132f66111f4565b61332c576040517f8dfc202b00000000000000000000000000000000000000000000000000000000815260040160405180910390fd5b565b6133366135e1565b61336c576040517fd7e6bcf800000000000000000000000000000000000000000000000000000000815260040160405180910390fd5b565b61337661332e565b6000613380612aff565b905060008160000160006101000a81548160ff02191690831515021790555050565b6133aa61332e565b60006133b4612ec2565b90506001816000018190555050565b60006133f17f360894a13ba1a3210667c828492db98dca3e2076cc3735a920a3ca505d382bbc60001b613601565b60000160009054906101000a900473ffffffffffffffffffffffffffffffffffffffff16905090565b6134238261360b565b8173ffffffffffffffffffffffffffffffffffffffff167fbc7cd75a20ee27fd9adebab32041f755214dbc6bffa90cc0225b39da2e5c2d3b60405160405180910390a26000815111156134805761347a82826136d8565b50613489565b61348861375c565b5b5050565b60008273ffffffffffffffffffffffffffffffffffffffff166342966c68836040518263ffffffff1660e01b81526004016134c89190614402565b6020604051808303816000875af192505050801561350457506040513d601f19601f820116820180604052508101906135019190615294565b60015b6135115760009050613516565b809150505b92915050565b610b4081806060019061352f9190614eae565b90501115613589578080606001906135479190614eae565b9050610b406040517fcd6f4e6d000000000000000000000000000000000000000000000000000000008152600401613580929190614f11565b60405180910390fd5b621e8480816080013511156135de578060800135621e84806040517fec86721e0000000000000000000000000000000000000000000000000000000081526004016135d5929190614f11565b60405180910390fd5b50565b60006135eb612802565b60000160089054906101000a900460ff16905090565b6000819050919050565b60008173ffffffffffffffffffffffffffffffffffffffff163b0361366757806040517f4c9c8ce300000000000000000000000000000000000000000000000000000000815260040161365e919061397d565b60405180910390fd5b806136947f360894a13ba1a3210667c828492db98dca3e2076cc3735a920a3ca505d382bbc60001b613601565b60000160006101000a81548173ffffffffffffffffffffffffffffffffffffffff021916908373ffffffffffffffffffffffffffffffffffffffff16021790555050565b60606000808473ffffffffffffffffffffffffffffffffffffffff16846040516137029190615498565b600060405180830381855af49150503d806000811461373d576040519150601f19603f3d011682016040523d82523d6000602084013e613742565b606091505b5091509150613752858383613799565b9250505092915050565b6000341115613797576040517fb398979f00000000000000000000000000000000000000000000000000000000815260040160405180910390fd5b565b6060826137ae576137a982613828565b613820565b600082511480156137d6575060008473ffffffffffffffffffffffffffffffffffffffff163b145b1561381857836040517f9996b31500000000000000000000000000000000000000000000000000000000815260040161380f919061397d565b60405180910390fd5b819050613821565b5b9392505050565b60008151111561383b5780518082602001fd5b6040517f1425ea4200000000000000000000000000000000000000000000000000000000815260040160405180910390fd5b6000604051905090565b600080fd5b600080fd5b60007fffffffff0000000000000000000000000000000000000000000000000000000082169050919050565b6138b681613881565b81146138c157600080fd5b50565b6000813590506138d3816138ad565b92915050565b6000602082840312156138ef576138ee613877565b5b60006138fd848285016138c4565b91505092915050565b60008115159050919050565b61391b81613906565b82525050565b60006020820190506139366000830184613912565b92915050565b600073ffffffffffffffffffffffffffffffffffffffff82169050919050565b60006139678261393c565b9050919050565b6139778161395c565b82525050565b6000602082019050613992600083018461396e565b92915050565b600080fd5b600080fd5b6000601f19601f8301169050919050565b7f4e487b7100000000000000000000000000000000000000000000000000000000600052604160045260246000fd5b6139eb826139a2565b810181811067ffffffffffffffff82111715613a0a57613a096139b3565b5b80604052505050565b6000613a1d61386d565b9050613a2982826139e2565b919050565b600067ffffffffffffffff821115613a4957613a486139b3565b5b613a52826139a2565b9050602081019050919050565b82818337600083830152505050565b6000613a81613a7c84613a2e565b613a13565b905082815260208101848484011115613a9d57613a9c61399d565b5b613aa8848285613a5f565b509392505050565b600082601f830112613ac557613ac4613998565b5b8135613ad5848260208601613a6e565b91505092915050565b613ae78161395c565b8114613af257600080fd5b50565b600081359050613b0481613ade565b92915050565b600080fd5b600080fd5b60008083601f840112613b2a57613b29613998565b5b8235905067ffffffffffffffff811115613b4757613b46613b0a565b5b602083019150836001820283011115613b6357613b62613b0f565b5b9250929050565b600080fd5b600060408284031215613b8557613b84613b6a565b5b81905092915050565b600060a08284031215613ba457613ba3613b6a565b5b81905092915050565b60008060008060008060c08789031215613bca57613bc9613877565b5b600087013567ffffffffffffffff811115613be857613be761387c565b5b613bf489828a01613ab0565b9650506020613c0589828a01613af5565b955050604087013567ffffffffffffffff811115613c2657613c2561387c565b5b613c3289828a01613b14565b94509450506060613c4589828a01613b6f565b92505060a087013567ffffffffffffffff811115613c6657613c6561387c565b5b613c7289828a01613b8e565b9150509295509295509295565b600060808284031215613c9557613c94613b6a565b5b81905092915050565b60008060408385031215613cb557613cb4613877565b5b6000613cc385828601613af5565b925050602083013567ffffffffffffffff811115613ce457613ce361387c565b5b613cf085828601613c7f565b9150509250929050565b600060c08284031215613d1057613d0f613b6a565b5b81905092915050565b60008060408385031215613d3057613d2f613877565b5b6000613d3e85828601613af5565b925050602083013567ffffffffffffffff811115613d5f57613d5e61387c565b5b613d6b85828601613cfa565b9150509250929050565b6000819050919050565b613d8881613d75565b8114613d9357600080fd5b50565b600081359050613da581613d7f565b92915050565b600060208284031215613dc157613dc0613877565b5b6000613dcf84828501613d96565b91505092915050565b613de181613d75565b82525050565b6000602082019050613dfc6000830184613dd8565b92915050565b6000819050919050565b613e1581613e02565b8114613e2057600080fd5b50565b600081359050613e3281613e0c565b92915050565b600080600080600080600060e0888a031215613e5757613e56613877565b5b600088013567ffffffffffffffff811115613e7557613e7461387c565b5b613e818a828b01613ab0565b9750506020613e928a828b01613e23565b9650506040613ea38a828b01613e23565b955050606088013567ffffffffffffffff811115613ec457613ec361387c565b5b613ed08a828b01613b14565b94509450506080613ee38a828b01613b6f565b92505060c088013567ffffffffffffffff811115613f0457613f0361387c565b5b613f108a828b01613b8e565b91505092959891949750929550565b60008060408385031215613f3657613f35613877565b5b6000613f4485828601613d96565b9250506020613f5585828601613af5565b9150509250929050565b600060608284031215613f7557613f74613b6a565b5b81905092915050565b60008060008060608587031215613f9857613f97613877565b5b600085013567ffffffffffffffff811115613fb657613fb561387c565b5b613fc287828801613f5f565b9450506020613fd387828801613af5565b935050604085013567ffffffffffffffff811115613ff457613ff361387c565b5b61400087828801613b14565b925092505092959194509250565b6000806040838503121561402557614024613877565b5b600061403385828601613af5565b925050602061404485828601613af5565b9150509250929050565b6000806040838503121561406557614064613877565b5b600061407385828601613af5565b925050602083013567ffffffffffffffff8111156140945761409361387c565b5b6140a085828601613ab0565b9150509250929050565b600080600080600080600060e0888a0312156140c9576140c8613877565b5b600088013567ffffffffffffffff8111156140e7576140e661387c565b5b6140f38a828b01613ab0565b97505060206141048a828b01613e23565b96505060406141158a828b01613af5565b955050606088013567ffffffffffffffff8111156141365761413561387c565b5b6141428a828b01613b14565b945094505060806141558a828b01613b6f565b92505060c088013567ffffffffffffffff8111156141765761417561387c565b5b6141828a828b01613b8e565b91505092959891949750929550565b600080600080608085870312156141ab576141aa613877565b5b600085013567ffffffffffffffff8111156141c9576141c861387c565b5b6141d587828801613ab0565b94505060206141e687828801613e23565b93505060406141f787828801613af5565b925050606085013567ffffffffffffffff8111156142185761421761387c565b5b61422487828801613b8e565b91505092959194509250565b6000806000806080858703121561424a57614249613877565b5b600085013567ffffffffffffffff8111156142685761426761387c565b5b61427487828801613ab0565b945050602061428587828801613e23565b935050604061429687828801613e23565b925050606085013567ffffffffffffffff8111156142b7576142b661387c565b5b6142c387828801613b8e565b91505092959194509250565b600080600080608085870312156142e9576142e8613877565b5b60006142f787828801613af5565b945050602061430887828801613e23565b935050604061431987828801613af5565b925050606085013567ffffffffffffffff81111561433a5761433961387c565b5b61434687828801613c7f565b91505092959194509250565b600081519050919050565b600082825260208201905092915050565b60005b8381101561438c578082015181840152602081019050614371565b60008484015250505050565b60006143a382614352565b6143ad818561435d565b93506143bd81856020860161436e565b6143c6816139a2565b840191505092915050565b600060208201905081810360008301526143eb8184614398565b905092915050565b6143fc81613e02565b82525050565b600060208201905061441760008301846143f3565b92915050565b60008060008060008060a0878903121561443a57614439613877565b5b600087013567ffffffffffffffff8111156144585761445761387c565b5b61446489828a01613f5f565b965050602061447589828a01613af5565b955050604061448689828a01613e23565b945050606061449789828a01613af5565b935050608087013567ffffffffffffffff8111156144b8576144b761387c565b5b6144c489828a01613b14565b92509250509295509295509295565b6000602082840312156144e9576144e8613877565b5b60006144f784828501613af5565b91505092915050565b60008060006060848603121561451957614518613877565b5b600061452786828701613af5565b935050602061453886828701613e23565b925050604061454986828701613af5565b9150509250925092565b600080fd5b600080fd5b61456681613906565b811461457157600080fd5b50565b6000813590506145838161455d565b92915050565b60006040828403121561459f5761459e614553565b5b6145a96040613a13565b905060006145b984828501613e23565b60008301525060206145cd84828501614574565b60208301525092915050565b6000604082840312156145ef576145ee613877565b5b60006145fd84828501614589565b91505092915050565b600060a0828403121561461c5761461b614553565b5b61462660a0613a13565b9050600061463684828501613af5565b600083015250602061464a84828501614574565b602083015250604061465e84828501613af5565b604083015250606082013567ffffffffffffffff81111561468257614681614558565b5b61468e84828501613ab0565b60608301525060806146a284828501613e23565b60808301525092915050565b60006146ba3683614606565b9050919050565b60006146d06020840184613af5565b905092915050565b6146e18161395c565b82525050565b60006146f66020840184613e23565b905092915050565b61470781613e02565b82525050565b600080fd5b600080fd5b600080fd5b6000808335600160200384360303811261473957614738614717565b5b83810192508235915060208301925067ffffffffffffffff8211156147615761476061470d565b5b60018202360383131561477757614776614712565b5b509250929050565b600082825260208201905092915050565b600061479c838561477f565b93506147a9838584613a5f565b6147b2836139a2565b840190509392505050565b6000608083016147d060008401846146c1565b6147dd60008601826146d8565b506147eb60208401846146c1565b6147f860208601826146d8565b5061480660408401846146e7565b61481360408601826146fe565b50614821606084018461471c565b8583036060870152614834838284614790565b925050508091505092915050565b6000602082019050818103600083015261485c81846147bd565b905092915050565b60006148736020840184614574565b905092915050565b61488481613906565b82525050565b600060c0830161489d600084018461471c565b85830360008701526148b0838284614790565b925050506148c160208401846146c1565b6148ce60208601826146d8565b506148dc60408401846146e7565b6148e960408601826146fe565b506148f76060840184614864565b614904606086018261487b565b5061491260808401846146e7565b61491f60808601826146fe565b5061492d60a084018461471c565b85830360a0870152614940838284614790565b925050508091505092915050565b60006020820190508181036000830152614968818461488a565b905092915050565b600081519050919050565b600082825260208201905092915050565b600061499782614970565b6149a1818561497b565b93506149b181856020860161436e565b6149ba816139a2565b840191505092915050565b60006149d1838561497b565b93506149de838584613a5f565b6149e7836139a2565b840190509392505050565b60408201614a0360008301836146e7565b614a1060008501826146fe565b50614a1e6020830183614864565b614a2b602085018261487b565b50505050565b600060a08301614a4460008401846146c1565b614a5160008601826146d8565b50614a5f6020840184614864565b614a6c602086018261487b565b50614a7a60408401846146c1565b614a8760408601826146d8565b50614a95606084018461471c565b8583036060870152614aa8838284614790565b92505050614ab960808401846146e7565b614ac660808601826146fe565b508091505092915050565b6000610120820190508181036000830152614aec818c61498c565b9050614afb602083018b61396e565b614b08604083018a6143f3565b614b1560608301896143f3565b614b2260808301886143f3565b81810360a0830152614b358186886149c5565b9050614b4460c08301856149f2565b818103610100830152614b578184614a31565b90509a9950505050505050505050565b600060608301614b7a600084018461471c565b8583036000870152614b8d838284614790565b92505050614b9e60208401846146c1565b614bab60208601826146d8565b50614bb960408401846146e7565b614bc660408601826146fe565b508091505092915050565b60006040820190508181036000830152614beb8186614b67565b90508181036020830152614c008184866149c5565b9050949350505050565b6000819050919050565b600067ffffffffffffffff82169050919050565b6000819050919050565b6000614c4d614c48614c4384614c0a565b614c28565b614c14565b9050919050565b614c5d81614c32565b82525050565b6000602082019050614c786000830184614c54565b92915050565b600081519050614c8d81613e0c565b92915050565b600060208284031215614ca957614ca8613877565b5b6000614cb784828501614c7e565b91505092915050565b50565b6000614cd060008361497b565b9150614cdb82614cc0565b600082019050919050565b604082016000820151614cfc60008501826146fe565b506020820151614d0f602085018261487b565b50505050565b6000610120820190508181036000830152614d30818a61498c565b9050614d3f602083018961396e565b614d4c60408301886143f3565b614d5960608301876143f3565b614d6660808301866143f3565b81810360a0830152614d7781614cc3565b9050614d8660c0830185614ce6565b818103610100830152614d998184614a31565b905098975050505050505050565b6000606082019050614dbc600083018661396e565b614dc9602083018561396e565b614dd660408301846143f3565b949350505050565b60006080820190508181036000830152614df88188614b67565b9050614e07602083018761396e565b614e1460408301866143f3565b8181036060830152614e278184866149c5565b90509695505050505050565b600081905092915050565b6000614e4b600083614e33565b9150614e5682614cc0565b600082019050919050565b6000614e6c82614e3e565b9150819050919050565b6000604082019050614e8b600083018561396e565b614e9860208301846143f3565b9392505050565b600080fd5b600080fd5b600080fd5b60008083356001602003843603038112614ecb57614eca614e9f565b5b80840192508235915067ffffffffffffffff821115614eed57614eec614ea4565b5b602083019250600182023603831315614f0957614f08614ea9565b5b509250929050565b6000604082019050614f2660008301856143f3565b614f3360208301846143f3565b9392505050565b6000614f4582614970565b614f4f818561477f565b9350614f5f81856020860161436e565b614f68816139a2565b840191505092915050565b600060a083016000830151614f8b60008601826146d8565b506020830151614f9e602086018261487b565b506040830151614fb160408601826146d8565b5060608301518482036060860152614fc98282614f3a565b9150506080830151614fde60808601826146fe565b508091505092915050565b600060a0820190508181036000830152615003818861498c565b905081810360208301526150188186886149c5565b90506150276040830185614ce6565b81810360808301526150398184614f73565b90509695505050505050565b60008151905061505481613ade565b92915050565b600061506d61506884613a2e565b613a13565b9050828152602081018484840111156150895761508861399d565b5b61509484828561436e565b509392505050565b600082601f8301126150b1576150b0613998565b5b81516150c184826020860161505a565b91505092915050565b600080604083850312156150e1576150e0613877565b5b60006150ef85828601615045565b925050602083015167ffffffffffffffff8111156151105761510f61387c565b5b61511c8582860161509c565b9150509250929050565b60006020828403121561513c5761513b613877565b5b600061514a84828501615045565b91505092915050565b7f4e487b7100000000000000000000000000000000000000000000000000000000600052601160045260246000fd5b600061518d82613e02565b915061519883613e02565b92508282026151a681613e02565b915082820484148315176151bd576151bc615153565b5b5092915050565b60006151cf82613e02565b91506151da83613e02565b92508282019050808211156151f2576151f1615153565b5b92915050565b60008151905061520781613d7f565b92915050565b60006020828403121561522357615222613877565b5b6000615231848285016151f8565b91505092915050565b600060808201905061524f600083018761396e565b61525c602083018661396e565b615269604083018561396e565b61527660608301846143f3565b95945050505050565b60008151905061528e8161455d565b92915050565b6000602082840312156152aa576152a9613877565b5b60006152b88482850161527f565b91505092915050565b600080604083850312156152d8576152d7613877565b5b60006152e685828601615045565b92505060206152f785828601614c7e565b9150509250929050565b7f6761734c696d6974000000000000000000000000000000000000000000000000600082015250565b600061533760088361435d565b915061534282615301565b602082019050919050565b600060408201905061536260008301846143f3565b81810360208301526153738161532a565b905092915050565b60006020828403121561539157615390613877565b5b600082015167ffffffffffffffff8111156153af576153ae61387c565b5b6153bb8482850161509c565b91505092915050565b7f70726f746f636f6c466c61744665650000000000000000000000000000000000600082015250565b60006153fa600f8361435d565b9150615405826153c4565b602082019050919050565b600060408201905061542560008301846143f3565b8181036020830152615436816153ed565b905092915050565b6000604082019050615453600083018561396e565b6154606020830184613dd8565b9392505050565b600061547282614970565b61547c8185614e33565b935061548c81856020860161436e565b80840191505092915050565b60006154a48284615467565b91508190509291505056fea264697066735822122015888b13d8f1d8f80d8e40bfc55169318f4cd38a1e9aa78f3972a29db28a52c564736f6c634300081a0033",
  "linkReferences": {},
  "deployedLinkReferences": {}
}