{
  "_format": "hh-sol-artifact-1",
  "contractName": "ZRC20",
  "sourceName": "contracts/zevm/ZRC20.sol",
  "abi": [
    {
      "inputs": [
        {
          "internalType": "string",
          "name": "name_",
          "type": "string"
        },
        {
          "internalType": "string",
          "name": "symbol_",
          "type": "string"
        },
        {
          "internalType": "uint8",
          "name": "decimals_",
          "type": "uint8"
        },
        {
          "internalType": "uint256",
          "name": "chainid_",
          "type": "uint256"
        },
        {
          "internalType": "enum CoinType",
          "name": "coinType_",
          "type": "uint8"
        },
        {
          "internalType": "uint256",
          "name": "gasLimit_",
          "type": "uint256"
        },
        {
          "internalType": "address",
          "name": "systemContractAddress_",
          "type": "address"
        },
        {
          "internalType": "address",
          "name": "gatewayAddress_",
          "type": "address"
        }
      ],
      "stateMutability": "nonpayable",
      "type": "constructor"
    },
    {
      "inputs": [],
      "name": "CallerIsNotFungibleModule",
      "type": "error"
    },
    {
      "inputs": [],
      "name": "GasFeeTransferFailed",
      "type": "error"
    },
    {
      "inputs": [],
      "name": "InvalidSender",
      "type": "error"
    },
    {
      "inputs": [],
      "name": "LowAllowance",
      "type": "error"
    },
    {
      "inputs": [],
      "name": "LowBalance",
      "type": "error"
    },
    {
      "inputs": [],
      "name": "ZeroAddress",
      "type": "error"
    },
    {
      "inputs": [],
      "name": "ZeroGasCoin",
      "type": "error"
    },
    {
      "inputs": [],
      "name": "ZeroGasPrice",
      "type": "error"
    },
    {
      "anonymous": false,
      "inputs": [
        {
          "indexed": true,
          "internalType": "address",
          "name": "owner",
          "type": "address"
        },
        {
          "indexed": true,
          "internalType": "address",
          "name": "spender",
          "type": "address"
        },
        {
          "indexed": false,
          "internalType": "uint256",
          "name": "value",
          "type": "uint256"
        }
      ],
      "name": "Approval",
      "type": "event"
    },
    {
      "anonymous": false,
      "inputs": [
        {
          "indexed": false,
          "internalType": "bytes",
          "name": "from",
          "type": "bytes"
        },
        {
          "indexed": true,
          "internalType": "address",
          "name": "to",
          "type": "address"
        },
        {
          "indexed": false,
          "internalType": "uint256",
          "name": "value",
          "type": "uint256"
        }
      ],
      "name": "Deposit",
      "type": "event"
    },
    {
      "anonymous": false,
      "inputs": [
        {
          "indexed": true,
          "internalType": "address",
          "name": "from",
          "type": "address"
        },
        {
          "indexed": true,
          "internalType": "address",
          "name": "to",
          "type": "address"
        },
        {
          "indexed": false,
          "internalType": "uint256",
          "name": "value",
          "type": "uint256"
        }
      ],
      "name": "Transfer",
      "type": "event"
    },
    {
      "anonymous": false,
      "inputs": [
        {
          "indexed": false,
          "internalType": "uint256",
          "name": "gasLimit",
          "type": "uint256"
        }
      ],
      "name": "UpdatedGasLimit",
      "type": "event"
    },
    {
      "anonymous": false,
      "inputs": [
        {
          "indexed": false,
          "internalType": "address",
          "name": "gateway",
          "type": "address"
        }
      ],
      "name": "UpdatedGateway",
      "type": "event"
    },
    {
      "anonymous": false,
      "inputs": [
        {
          "indexed": false,
          "internalType": "uint256",
          "name": "protocolFlatFee",
          "type": "uint256"
        }
      ],
      "name": "UpdatedProtocolFlatFee",
      "type": "event"
    },
    {
      "anonymous": false,
      "inputs": [
        {
          "indexed": false,
          "internalType": "address",
          "name": "systemContract",
          "type": "address"
        }
      ],
      "name": "UpdatedSystemContract",
      "type": "event"
    },
    {
      "anonymous": false,
      "inputs": [
        {
          "indexed": true,
          "internalType": "address",
          "name": "from",
          "type": "address"
        },
        {
          "indexed": false,
          "internalType": "bytes",
          "name": "to",
          "type": "bytes"
        },
        {
          "indexed": false,
          "internalType": "uint256",
          "name": "value",
          "type": "uint256"
        },
        {
          "indexed": false,
          "internalType": "uint256",
          "name": "gasFee",
          "type": "uint256"
        },
        {
          "indexed": false,
          "internalType": "uint256",
          "name": "protocolFlatFee",
          "type": "uint256"
        }
      ],
      "name": "Withdrawal",
      "type": "event"
    },
    {
      "inputs": [],
      "name": "CHAIN_ID",
      "outputs": [
        {
          "internalType": "uint256",
          "name": "",
          "type": "uint256"
        }
      ],
      "stateMutability": "view",
      "type": "function"
    },
    {
      "inputs": [],
      "name": "COIN_TYPE",
      "outputs": [
        {
          "internalType": "enum CoinType",
          "name": "",
          "type": "uint8"
        }
      ],
      "stateMutability": "view",
      "type": "function"
    },
    {
      "inputs": [],
      "name": "FUNGIBLE_MODULE_ADDRESS",
      "outputs": [
        {
          "internalType": "address",
          "name": "",
          "type": "address"
        }
      ],
      "stateMutability": "view",
      "type": "function"
    },
    {
      "inputs": [],
      "name": "GAS_LIMIT",
      "outputs": [
        {
          "internalType": "uint256",
          "name": "",
          "type": "uint256"
        }
      ],
      "stateMutability": "view",
      "type": "function"
    },
    {
      "inputs": [],
      "name": "PROTOCOL_FLAT_FEE",
      "outputs": [
        {
          "internalType": "uint256",
          "name": "",
          "type": "uint256"
        }
      ],
      "stateMutability": "view",
      "type": "function"
    },
    {
      "inputs": [],
      "name": "SYSTEM_CONTRACT_ADDRESS",
      "outputs": [
        {
          "internalType": "address",
          "name": "",
          "type": "address"
        }
      ],
      "stateMutability": "view",
      "type": "function"
    },
    {
      "inputs": [
        {
          "internalType": "address",
          "name": "owner",
          "type": "address"
        },
        {
          "internalType": "address",
          "name": "spender",
          "type": "address"
        }
      ],
      "name": "allowance",
      "outputs": [
        {
          "internalType": "uint256",
          "name": "",
          "type": "uint256"
        }
      ],
      "stateMutability": "view",
      "type": "function"
    },
    {
      "inputs": [
        {
          "internalType": "address",
          "name": "spender",
          "type": "address"
        },
        {
          "internalType": "uint256",
          "name": "amount",
          "type": "uint256"
        }
      ],
      "name": "approve",
      "outputs": [
        {
          "internalType": "bool",
          "name": "",
          "type": "bool"
        }
      ],
      "stateMutability": "nonpayable",
      "type": "function"
    },
    {
      "inputs": [
        {
          "internalType": "address",
          "name": "account",
          "type": "address"
        }
      ],
      "name": "balanceOf",
      "outputs": [
        {
          "internalType": "uint256",
          "name": "",
          "type": "uint256"
        }
      ],
      "stateMutability": "view",
      "type": "function"
    },
    {
      "inputs": [
        {
          "internalType": "uint256",
          "name": "amount",
          "type": "uint256"
        }
      ],
      "name": "burn",
      "outputs": [
        {
          "internalType": "bool",
          "name": "",
          "type": "bool"
        }
      ],
      "stateMutability": "nonpayable",
      "type": "function"
    },
    {
      "inputs": [],
      "name": "decimals",
      "outputs": [
        {
          "internalType": "uint8",
          "name": "",
          "type": "uint8"
        }
      ],
      "stateMutability": "view",
      "type": "function"
    },
    {
      "inputs": [
        {
          "internalType": "address",
          "name": "to",
          "type": "address"
        },
        {
          "internalType": "uint256",
          "name": "amount",
          "type": "uint256"
        }
      ],
      "name": "deposit",
      "outputs": [
        {
          "internalType": "bool",
          "name": "",
          "type": "bool"
        }
      ],
      "stateMutability": "nonpayable",
      "type": "function"
    },
    {
      "inputs": [],
      "name": "gatewayAddress",
      "outputs": [
        {
          "internalType": "address",
          "name": "",
          "type": "address"
        }
      ],
      "stateMutability": "view",
      "type": "function"
    },
    {
      "inputs": [],
      "name": "name",
      "outputs": [
        {
          "internalType": "string",
          "name": "",
          "type": "string"
        }
      ],
      "stateMutability": "view",
      "type": "function"
    },
    {
      "inputs": [
        {
          "internalType": "string",
          "name": "newName",
          "type": "string"
        }
      ],
      "name": "setName",
      "outputs": [],
      "stateMutability": "nonpayable",
      "type": "function"
    },
    {
      "inputs": [
        {
          "internalType": "string",
          "name": "newSymbol",
          "type": "string"
        }
      ],
      "name": "setSymbol",
      "outputs": [],
      "stateMutability": "nonpayable",
      "type": "function"
    },
    {
      "inputs": [],
      "name": "symbol",
      "outputs": [
        {
          "internalType": "string",
          "name": "",
          "type": "string"
        }
      ],
      "stateMutability": "view",
      "type": "function"
    },
    {
      "inputs": [],
      "name": "totalSupply",
      "outputs": [
        {
          "internalType": "uint256",
          "name": "",
          "type": "uint256"
        }
      ],
      "stateMutability": "view",
      "type": "function"
    },
    {
      "inputs": [
        {
          "internalType": "address",
          "name": "recipient",
          "type": "address"
        },
        {
          "internalType": "uint256",
          "name": "amount",
          "type": "uint256"
        }
      ],
      "name": "transfer",
      "outputs": [
        {
          "internalType": "bool",
          "name": "",
          "type": "bool"
        }
      ],
      "stateMutability": "nonpayable",
      "type": "function"
    },
    {
      "inputs": [
        {
          "internalType": "address",
          "name": "sender",
          "type": "address"
        },
        {
          "internalType": "address",
          "name": "recipient",
          "type": "address"
        },
        {
          "internalType": "uint256",
          "name": "amount",
          "type": "uint256"
        }
      ],
      "name": "transferFrom",
      "outputs": [
        {
          "internalType": "bool",
          "name": "",
          "type": "bool"
        }
      ],
      "stateMutability": "nonpayable",
      "type": "function"
    },
    {
      "inputs": [
        {
          "internalType": "uint256",
          "name": "gasLimit_",
          "type": "uint256"
        }
      ],
      "name": "updateGasLimit",
      "outputs": [],
      "stateMutability": "nonpayable",
      "type": "function"
    },
    {
      "inputs": [
        {
          "internalType": "address",
          "name": "addr",
          "type": "address"
        }
      ],
      "name": "updateGatewayAddress",
      "outputs": [],
      "stateMutability": "nonpayable",
      "type": "function"
    },
    {
      "inputs": [
        {
          "internalType": "uint256",
          "name": "protocolFlatFee_",
          "type": "uint256"
        }
      ],
      "name": "updateProtocolFlatFee",
      "outputs": [],
      "stateMutability": "nonpayable",
      "type": "function"
    },
    {
      "inputs": [
        {
          "internalType": "address",
          "name": "addr",
          "type": "address"
        }
      ],
      "name": "updateSystemContractAddress",
      "outputs": [],
      "stateMutability": "nonpayable",
      "type": "function"
    },
    {
      "inputs": [
        {
          "internalType": "bytes",
          "name": "to",
          "type": "bytes"
        },
        {
          "internalType": "uint256",
          "name": "amount",
          "type": "uint256"
        }
      ],
      "name": "withdraw",
      "outputs": [
        {
          "internalType": "bool",
          "name": "",
          "type": "bool"
        }
      ],
      "stateMutability": "nonpayable",
      "type": "function"
    },
    {
      "inputs": [],
      "name": "withdrawGasFee",
      "outputs": [
        {
          "internalType": "address",
          "name": "",
          "type": "address"
        },
        {
          "internalType": "uint256",
          "name": "",
          "type": "uint256"
        }
      ],
      "stateMutability": "view",
      "type": "function"
    },
    {
      "inputs": [
        {
          "internalType": "uint256",
          "name": "gasLimit",
          "type": "uint256"
        }
      ],
      "name": "withdrawGasFeeWithGasLimit",
      "outputs": [
        {
          "internalType": "address",
          "name": "",
          "type": "address"
        },
        {
          "internalType": "uint256",
          "name": "",
          "type": "uint256"
        }
      ],
      "stateMutability": "view",
      "type": "function"
    }
  ],
  "bytecode": "0x60c060405234801561001057600080fd5b506040516132b13803806132b18339818101604052810190610032919061043b565b600073ffffffffffffffffffffffffffffffffffffffff168273ffffffffffffffffffffffffffffffffffffffff1614806100995750600073ffffffffffffffffffffffffffffffffffffffff168173ffffffffffffffffffffffffffffffffffffffff16145b156100d0576040517fd92e233d00000000000000000000000000000000000000000000000000000000815260040160405180910390fd5b87600690816100df9190610740565b5086600790816100ef9190610740565b5085600860006101000a81548160ff021916908360ff160217905550846080818152505083600281111561012657610125610812565b5b60a081600281111561013b5761013a610812565b5b8152505082600181905550816000806101000a81548173ffffffffffffffffffffffffffffffffffffffff021916908373ffffffffffffffffffffffffffffffffffffffff16021790555080600860016101000a81548173ffffffffffffffffffffffffffffffffffffffff021916908373ffffffffffffffffffffffffffffffffffffffff1602179055505050505050505050610841565b6000604051905090565b600080fd5b600080fd5b600080fd5b600080fd5b6000601f19601f8301169050919050565b7f4e487b7100000000000000000000000000000000000000000000000000000000600052604160045260246000fd5b61023b826101f2565b810181811067ffffffffffffffff8211171561025a57610259610203565b5b80604052505050565b600061026d6101d4565b90506102798282610232565b919050565b600067ffffffffffffffff82111561029957610298610203565b5b6102a2826101f2565b9050602081019050919050565b60005b838110156102cd5780820151818401526020810190506102b2565b60008484015250505050565b60006102ec6102e78461027e565b610263565b905082815260208101848484011115610308576103076101ed565b5b6103138482856102af565b509392505050565b600082601f8301126103305761032f6101e8565b5b81516103408482602086016102d9565b91505092915050565b600060ff82169050919050565b61035f81610349565b811461036a57600080fd5b50565b60008151905061037c81610356565b92915050565b6000819050919050565b61039581610382565b81146103a057600080fd5b50565b6000815190506103b28161038c565b92915050565b600381106103c557600080fd5b50565b6000815190506103d7816103b8565b92915050565b600073ffffffffffffffffffffffffffffffffffffffff82169050919050565b6000610408826103dd565b9050919050565b610418816103fd565b811461042357600080fd5b50565b6000815190506104358161040f565b92915050565b600080600080600080600080610100898b03121561045c5761045b6101de565b5b600089015167ffffffffffffffff81111561047a576104796101e3565b5b6104868b828c0161031b565b985050602089015167ffffffffffffffff8111156104a7576104a66101e3565b5b6104b38b828c0161031b565b97505060406104c48b828c0161036d565b96505060606104d58b828c016103a3565b95505060806104e68b828c016103c8565b94505060a06104f78b828c016103a3565b93505060c06105088b828c01610426565b92505060e06105198b828c01610426565b9150509295985092959890939650565b600081519050919050565b7f4e487b7100000000000000000000000000000000000000000000000000000000600052602260045260246000fd5b6000600282049050600182168061057b57607f821691505b60208210810361058e5761058d610534565b5b50919050565b60008190508160005260206000209050919050565b60006020601f8301049050919050565b600082821b905092915050565b6000600883026105f67fffffffffffffffffffffffffffffffffffffffffffffffffffffffffffffffff826105b9565b61060086836105b9565b95508019841693508086168417925050509392505050565b6000819050919050565b600061063d61063861063384610382565b610618565b610382565b9050919050565b6000819050919050565b61065783610622565b61066b61066382610644565b8484546105c6565b825550505050565b600090565b610680610673565b61068b81848461064e565b505050565b5b818110156106af576106a4600082610678565b600181019050610691565b5050565b601f8211156106f4576106c581610594565b6106ce846105a9565b810160208510156106dd578190505b6106f16106e9856105a9565b830182610690565b50505b505050565b600082821c905092915050565b6000610717600019846008026106f9565b1980831691505092915050565b60006107308383610706565b9150826002028217905092915050565b61074982610529565b67ffffffffffffffff81111561076257610761610203565b5b61076c8254610563565b6107778282856106b3565b600060209050601f8311600181146107aa5760008415610798578287015190505b6107a28582610724565b86555061080a565b601f1984166107b886610594565b60005b828110156107e0578489015182556001820191506020850194506020810190506107bb565b868310156107fd57848901516107f9601f891682610706565b8355505b6001600288020188555050505b505050505050565b7f4e487b7100000000000000000000000000000000000000000000000000000000600052602160045260246000fd5b60805160a051612a2f6108826000396000610a5f01526000818161098301528181610ff50152818161111a01528181611465015261158a0152612a2f6000f3fe608060405234801561001057600080fd5b50600436106101a95760003560e01c806395d89b41116100f9578063ccc7759911610097578063eddeb12311610071578063eddeb123146104e9578063f2441b3214610505578063f687d12a14610523578063fc5fecd51461053f576101a9565b8063ccc775991461047e578063d9eeebed1461049a578063dd62ed3e146104b9576101a9565b8063b84c8246116100d3578063b84c8246146103fa578063c47f002714610416578063c701262614610432578063c835d7cc14610462576101a9565b806395d89b411461038e578063a3413d03146103ac578063a9059cbb146103ca576101a9565b80633ce4a5bc116101665780634d8943bb116101405780634d8943bb1461030457806370a082311461032257806385e1f4d0146103525780638b851b9514610370576101a9565b80633ce4a5bc1461028657806342966c68146102a457806347e7ef24146102d4576101a9565b806306fdde03146101ae578063091d2788146101cc578063095ea7b3146101ea57806318160ddd1461021a57806323b872dd14610238578063313ce56714610268575b600080fd5b6101b6610570565b6040516101c39190611e0c565b60405180910390f35b6101d4610602565b6040516101e19190611e47565b60405180910390f35b61020460048036038101906101ff9190611f00565b610608565b6040516102119190611f5b565b60405180910390f35b610222610626565b60405161022f9190611e47565b60405180910390f35b610252600480360381019061024d9190611f76565b610630565b60405161025f9190611f5b565b60405180910390f35b610270610728565b60405161027d9190611fe5565b60405180910390f35b61028e61073f565b60405161029b919061200f565b60405180910390f35b6102be60048036038101906102b9919061202a565b610757565b6040516102cb9190611f5b565b60405180910390f35b6102ee60048036038101906102e99190611f00565b61076c565b6040516102fb9190611f5b565b60405180910390f35b61030c610932565b6040516103199190611e47565b60405180910390f35b61033c60048036038101906103379190612057565b610938565b6040516103499190611e47565b60405180910390f35b61035a610981565b6040516103679190611e47565b60405180910390f35b6103786109a5565b604051610385919061200f565b60405180910390f35b6103966109cb565b6040516103a39190611e0c565b60405180910390f35b6103b4610a5d565b6040516103c191906120fb565b60405180910390f35b6103e460048036038101906103df9190611f00565b610a81565b6040516103f19190611f5b565b60405180910390f35b610414600480360381019061040f919061224b565b610a9f565b005b610430600480360381019061042b919061224b565b610b2b565b005b61044c60048036038101906104479190612335565b610bb7565b6040516104599190611f5b565b60405180910390f35b61047c60048036038101906104779190612057565b610cfe565b005b61049860048036038101906104939190612057565b610e57565b005b6104a2610fb1565b6040516104b0929190612391565b60405180910390f35b6104d360048036038101906104ce91906123ba565b6111fe565b6040516104e09190611e47565b60405180910390f35b61050360048036038101906104fe919061202a565b611285565b005b61050d611341565b60405161051a919061200f565b60405180910390f35b61053d6004803603810190610538919061202a565b611365565b005b6105596004803603810190610554919061202a565b611421565b604051610567929190612391565b60405180910390f35b60606006805461057f90612429565b80601f01602080910402602001604051908101604052809291908181526020018280546105ab90612429565b80156105f85780601f106105cd576101008083540402835291602001916105f8565b820191906000526020600020905b8154815290600101906020018083116105db57829003601f168201915b5050505050905090565b60015481565b600061061c61061561166d565b8484611675565b6001905092915050565b6000600554905090565b600061063d84848461182c565b6000600460008673ffffffffffffffffffffffffffffffffffffffff1673ffffffffffffffffffffffffffffffffffffffff168152602001908152602001600020600061068861166d565b73ffffffffffffffffffffffffffffffffffffffff1673ffffffffffffffffffffffffffffffffffffffff168152602001908152602001600020549050828110156106ff576040517f10bad14700000000000000000000000000000000000000000000000000000000815260040160405180910390fd5b61071c8561070b61166d565b85846107179190612489565b611675565b60019150509392505050565b6000600860009054906101000a900460ff16905090565b73735b14bb79463307aacbed86daf3322b1e6226ab81565b60006107633383611a86565b60019050919050565b600073735b14bb79463307aacbed86daf3322b1e6226ab73ffffffffffffffffffffffffffffffffffffffff163373ffffffffffffffffffffffffffffffffffffffff161415801561080a575060008054906101000a900473ffffffffffffffffffffffffffffffffffffffff1673ffffffffffffffffffffffffffffffffffffffff163373ffffffffffffffffffffffffffffffffffffffff1614155b80156108645750600860019054906101000a900473ffffffffffffffffffffffffffffffffffffffff1673ffffffffffffffffffffffffffffffffffffffff163373ffffffffffffffffffffffffffffffffffffffff1614155b1561089b576040517fddb5de5e00000000000000000000000000000000000000000000000000000000815260040160405180910390fd5b6108a58383611c3d565b8273ffffffffffffffffffffffffffffffffffffffff167f67fc7bdaed5b0ec550d8706b87d60568ab70c6b781263c70101d54cd1564aab373735b14bb79463307aacbed86daf3322b1e6226ab6040516020016109029190612505565b60405160208183030381529060405284604051610920929190612575565b60405180910390a26001905092915050565b60025481565b6000600360008373ffffffffffffffffffffffffffffffffffffffff1673ffffffffffffffffffffffffffffffffffffffff168152602001908152602001600020549050919050565b7f000000000000000000000000000000000000000000000000000000000000000081565b600860019054906101000a900473ffffffffffffffffffffffffffffffffffffffff1681565b6060600780546109da90612429565b80601f0160208091040260200160405190810160405280929190818152602001828054610a0690612429565b8015610a535780601f10610a2857610100808354040283529160200191610a53565b820191906000526020600020905b815481529060010190602001808311610a3657829003601f168201915b5050505050905090565b7f000000000000000000000000000000000000000000000000000000000000000081565b6000610a95610a8e61166d565b848461182c565b6001905092915050565b73735b14bb79463307aacbed86daf3322b1e6226ab73ffffffffffffffffffffffffffffffffffffffff163373ffffffffffffffffffffffffffffffffffffffff1614610b18576040517f2b2add3d00000000000000000000000000000000000000000000000000000000815260040160405180910390fd5b8060079081610b279190612751565b5050565b73735b14bb79463307aacbed86daf3322b1e6226ab73ffffffffffffffffffffffffffffffffffffffff163373ffffffffffffffffffffffffffffffffffffffff1614610ba4576040517f2b2add3d00000000000000000000000000000000000000000000000000000000815260040160405180910390fd5b8060069081610bb39190612751565b5050565b6000806000610bc4610fb1565b915091508173ffffffffffffffffffffffffffffffffffffffff166323b872dd3373735b14bb79463307aacbed86daf3322b1e6226ab846040518463ffffffff1660e01b8152600401610c1993929190612823565b6020604051808303816000875af1158015610c38573d6000803e3d6000fd5b505050506040513d601f19601f82011682018060405250810190610c5c9190612886565b610c92576040517f0a7cd6d600000000000000000000000000000000000000000000000000000000815260040160405180910390fd5b610c9c3385611a86565b3373ffffffffffffffffffffffffffffffffffffffff167f9ffbffc04a397460ee1dbe8c9503e098090567d6b7f4b3c02a8617d800b6d955868684600254604051610cea94939291906128b3565b60405180910390a260019250505092915050565b73735b14bb79463307aacbed86daf3322b1e6226ab73ffffffffffffffffffffffffffffffffffffffff163373ffffffffffffffffffffffffffffffffffffffff1614610d77576040517f2b2add3d00000000000000000000000000000000000000000000000000000000815260040160405180910390fd5b600073ffffffffffffffffffffffffffffffffffffffff168173ffffffffffffffffffffffffffffffffffffffff1603610ddd576040517fd92e233d00000000000000000000000000000000000000000000000000000000815260040160405180910390fd5b806000806101000a81548173ffffffffffffffffffffffffffffffffffffffff021916908373ffffffffffffffffffffffffffffffffffffffff1602179055507fd55614e962c5fd6ece71614f6348d702468a997a394dd5e5c1677950226d97ae81604051610e4c919061200f565b60405180910390a150565b73735b14bb79463307aacbed86daf3322b1e6226ab73ffffffffffffffffffffffffffffffffffffffff163373ffffffffffffffffffffffffffffffffffffffff1614610ed0576040517f2b2add3d00000000000000000000000000000000000000000000000000000000815260040160405180910390fd5b600073ffffffffffffffffffffffffffffffffffffffff168173ffffffffffffffffffffffffffffffffffffffff1603610f36576040517fd92e233d00000000000000000000000000000000000000000000000000000000815260040160405180910390fd5b80600860016101000a81548173ffffffffffffffffffffffffffffffffffffffff021916908373ffffffffffffffffffffffffffffffffffffffff1602179055507f88815d964e380677e86d817e7d65dea59cb7b4c3b5b7a0c8ec7ea4a74f90a38781604051610fa6919061200f565b60405180910390a150565b60008060008060009054906101000a900473ffffffffffffffffffffffffffffffffffffffff1673ffffffffffffffffffffffffffffffffffffffff16630be155477f00000000000000000000000000000000000000000000000000000000000000006040518263ffffffff1660e01b81526004016110309190611e47565b602060405180830381865afa15801561104d573d6000803e3d6000fd5b505050506040513d601f19601f820116820180604052508101906110719190612914565b9050600073ffffffffffffffffffffffffffffffffffffffff168173ffffffffffffffffffffffffffffffffffffffff16036110d9576040517f78fff39600000000000000000000000000000000000000000000000000000000815260040160405180910390fd5b60008060009054906101000a900473ffffffffffffffffffffffffffffffffffffffff1673ffffffffffffffffffffffffffffffffffffffff1663d7fd7afb7f00000000000000000000000000000000000000000000000000000000000000006040518263ffffffff1660e01b81526004016111559190611e47565b602060405180830381865afa158015611172573d6000803e3d6000fd5b505050506040513d601f19601f820116820180604052508101906111969190612956565b9050600081036111d2576040517fe661aed000000000000000000000000000000000000000000000000000000000815260040160405180910390fd5b6000600254600154836111e59190612983565b6111ef91906129c5565b90508281945094505050509091565b6000600460008473ffffffffffffffffffffffffffffffffffffffff1673ffffffffffffffffffffffffffffffffffffffff16815260200190815260200160002060008373ffffffffffffffffffffffffffffffffffffffff1673ffffffffffffffffffffffffffffffffffffffff16815260200190815260200160002054905092915050565b73735b14bb79463307aacbed86daf3322b1e6226ab73ffffffffffffffffffffffffffffffffffffffff163373ffffffffffffffffffffffffffffffffffffffff16146112fe576040517f2b2add3d00000000000000000000000000000000000000000000000000000000815260040160405180910390fd5b806002819055507fef13af88e424b5d15f49c77758542c1938b08b8b95b91ed0751f98ba99000d8f6002546040516113369190611e47565b60405180910390a150565b60008054906101000a900473ffffffffffffffffffffffffffffffffffffffff1681565b73735b14bb79463307aacbed86daf3322b1e6226ab73ffffffffffffffffffffffffffffffffffffffff163373ffffffffffffffffffffffffffffffffffffffff16146113de576040517f2b2add3d00000000000000000000000000000000000000000000000000000000815260040160405180910390fd5b806001819055507fff5788270f43bfc1ca41c503606d2594aa3023a1a7547de403a3e2f146a4a80a6001546040516114169190611e47565b60405180910390a150565b60008060008060009054906101000a900473ffffffffffffffffffffffffffffffffffffffff1673ffffffffffffffffffffffffffffffffffffffff16630be155477f00000000000000000000000000000000000000000000000000000000000000006040518263ffffffff1660e01b81526004016114a09190611e47565b602060405180830381865afa1580156114bd573d6000803e3d6000fd5b505050506040513d601f19601f820116820180604052508101906114e19190612914565b9050600073ffffffffffffffffffffffffffffffffffffffff168173ffffffffffffffffffffffffffffffffffffffff1603611549576040517f78fff39600000000000000000000000000000000000000000000000000000000815260040160405180910390fd5b60008060009054906101000a900473ffffffffffffffffffffffffffffffffffffffff1673ffffffffffffffffffffffffffffffffffffffff1663d7fd7afb7f00000000000000000000000000000000000000000000000000000000000000006040518263ffffffff1660e01b81526004016115c59190611e47565b602060405180830381865afa1580156115e2573d6000803e3d6000fd5b505050506040513d601f19601f820116820180604052508101906116069190612956565b905060008103611642576040517fe661aed000000000000000000000000000000000000000000000000000000000815260040160405180910390fd5b600060025486836116539190612983565b61165d91906129c5565b9050828194509450505050915091565b600033905090565b600073ffffffffffffffffffffffffffffffffffffffff168373ffffffffffffffffffffffffffffffffffffffff16036116db576040517fd92e233d00000000000000000000000000000000000000000000000000000000815260040160405180910390fd5b600073ffffffffffffffffffffffffffffffffffffffff168273ffffffffffffffffffffffffffffffffffffffff1603611741576040517fd92e233d00000000000000000000000000000000000000000000000000000000815260040160405180910390fd5b80600460008573ffffffffffffffffffffffffffffffffffffffff1673ffffffffffffffffffffffffffffffffffffffff16815260200190815260200160002060008473ffffffffffffffffffffffffffffffffffffffff1673ffffffffffffffffffffffffffffffffffffffff168152602001908152602001600020819055508173ffffffffffffffffffffffffffffffffffffffff168373ffffffffffffffffffffffffffffffffffffffff167f8c5be1e5ebec7d5bd14f71427d1e84f3dd0314c0f7b2291e5b200ac8c7c3b9258360405161181f9190611e47565b60405180910390a3505050565b600073ffffffffffffffffffffffffffffffffffffffff168373ffffffffffffffffffffffffffffffffffffffff1603611892576040517fd92e233d00000000000000000000000000000000000000000000000000000000815260040160405180910390fd5b600073ffffffffffffffffffffffffffffffffffffffff168273ffffffffffffffffffffffffffffffffffffffff16036118f8576040517fd92e233d00000000000000000000000000000000000000000000000000000000815260040160405180910390fd5b6000600360008573ffffffffffffffffffffffffffffffffffffffff1673ffffffffffffffffffffffffffffffffffffffff16815260200190815260200160002054905081811015611976576040517ffe382aa700000000000000000000000000000000000000000000000000000000815260040160405180910390fd5b81816119829190612489565b600360008673ffffffffffffffffffffffffffffffffffffffff1673ffffffffffffffffffffffffffffffffffffffff1681526020019081526020016000208190555081600360008573ffffffffffffffffffffffffffffffffffffffff1673ffffffffffffffffffffffffffffffffffffffff1681526020019081526020016000206000828254611a1491906129c5565b925050819055508273ffffffffffffffffffffffffffffffffffffffff168473ffffffffffffffffffffffffffffffffffffffff167fddf252ad1be2c89b69c2b068fc378daa952ba7f163c4a11628f55a4df523b3ef84604051611a789190611e47565b60405180910390a350505050565b600073ffffffffffffffffffffffffffffffffffffffff168273ffffffffffffffffffffffffffffffffffffffff1603611aec576040517fd92e233d00000000000000000000000000000000000000000000000000000000815260040160405180910390fd5b6000600360008473ffffffffffffffffffffffffffffffffffffffff1673ffffffffffffffffffffffffffffffffffffffff16815260200190815260200160002054905081811015611b6a576040517ffe382aa700000000000000000000000000000000000000000000000000000000815260040160405180910390fd5b8181611b769190612489565b600360008573ffffffffffffffffffffffffffffffffffffffff1673ffffffffffffffffffffffffffffffffffffffff168152602001908152602001600020819055508160056000828254611bcb9190612489565b92505081905550600073ffffffffffffffffffffffffffffffffffffffff168373ffffffffffffffffffffffffffffffffffffffff167fddf252ad1be2c89b69c2b068fc378daa952ba7f163c4a11628f55a4df523b3ef84604051611c309190611e47565b60405180910390a3505050565b600073ffffffffffffffffffffffffffffffffffffffff168273ffffffffffffffffffffffffffffffffffffffff1603611ca3576040517fd92e233d00000000000000000000000000000000000000000000000000000000815260040160405180910390fd5b8060056000828254611cb591906129c5565b9250508190555080600360008473ffffffffffffffffffffffffffffffffffffffff1673ffffffffffffffffffffffffffffffffffffffff1681526020019081526020016000206000828254611d0b91906129c5565b925050819055508173ffffffffffffffffffffffffffffffffffffffff16600073ffffffffffffffffffffffffffffffffffffffff167fddf252ad1be2c89b69c2b068fc378daa952ba7f163c4a11628f55a4df523b3ef83604051611d709190611e47565b60405180910390a35050565b600081519050919050565b600082825260208201905092915050565b60005b83811015611db6578082015181840152602081019050611d9b565b60008484015250505050565b6000601f19601f8301169050919050565b6000611dde82611d7c565b611de88185611d87565b9350611df8818560208601611d98565b611e0181611dc2565b840191505092915050565b60006020820190508181036000830152611e268184611dd3565b905092915050565b6000819050919050565b611e4181611e2e565b82525050565b6000602082019050611e5c6000830184611e38565b92915050565b6000604051905090565b600080fd5b600080fd5b600073ffffffffffffffffffffffffffffffffffffffff82169050919050565b6000611ea182611e76565b9050919050565b611eb181611e96565b8114611ebc57600080fd5b50565b600081359050611ece81611ea8565b92915050565b611edd81611e2e565b8114611ee857600080fd5b50565b600081359050611efa81611ed4565b92915050565b60008060408385031215611f1757611f16611e6c565b5b6000611f2585828601611ebf565b9250506020611f3685828601611eeb565b9150509250929050565b60008115159050919050565b611f5581611f40565b82525050565b6000602082019050611f706000830184611f4c565b92915050565b600080600060608486031215611f8f57611f8e611e6c565b5b6000611f9d86828701611ebf565b9350506020611fae86828701611ebf565b9250506040611fbf86828701611eeb565b9150509250925092565b600060ff82169050919050565b611fdf81611fc9565b82525050565b6000602082019050611ffa6000830184611fd6565b92915050565b61200981611e96565b82525050565b60006020820190506120246000830184612000565b92915050565b6000602082840312156120405761203f611e6c565b5b600061204e84828501611eeb565b91505092915050565b60006020828403121561206d5761206c611e6c565b5b600061207b84828501611ebf565b91505092915050565b7f4e487b7100000000000000000000000000000000000000000000000000000000600052602160045260246000fd5b600381106120c4576120c3612084565b5b50565b60008190506120d5826120b3565b919050565b60006120e5826120c7565b9050919050565b6120f5816120da565b82525050565b600060208201905061211060008301846120ec565b92915050565b600080fd5b600080fd5b7f4e487b7100000000000000000000000000000000000000000000000000000000600052604160045260246000fd5b61215882611dc2565b810181811067ffffffffffffffff8211171561217757612176612120565b5b80604052505050565b600061218a611e62565b9050612196828261214f565b919050565b600067ffffffffffffffff8211156121b6576121b5612120565b5b6121bf82611dc2565b9050602081019050919050565b82818337600083830152505050565b60006121ee6121e98461219b565b612180565b90508281526020810184848401111561220a5761220961211b565b5b6122158482856121cc565b509392505050565b600082601f83011261223257612231612116565b5b81356122428482602086016121db565b91505092915050565b60006020828403121561226157612260611e6c565b5b600082013567ffffffffffffffff81111561227f5761227e611e71565b5b61228b8482850161221d565b91505092915050565b600067ffffffffffffffff8211156122af576122ae612120565b5b6122b882611dc2565b9050602081019050919050565b60006122d86122d384612294565b612180565b9050828152602081018484840111156122f4576122f361211b565b5b6122ff8482856121cc565b509392505050565b600082601f83011261231c5761231b612116565b5b813561232c8482602086016122c5565b91505092915050565b6000806040838503121561234c5761234b611e6c565b5b600083013567ffffffffffffffff81111561236a57612369611e71565b5b61237685828601612307565b925050602061238785828601611eeb565b9150509250929050565b60006040820190506123a66000830185612000565b6123b36020830184611e38565b9392505050565b600080604083850312156123d1576123d0611e6c565b5b60006123df85828601611ebf565b92505060206123f085828601611ebf565b9150509250929050565b7f4e487b7100000000000000000000000000000000000000000000000000000000600052602260045260246000fd5b6000600282049050600182168061244157607f821691505b602082108103612454576124536123fa565b5b50919050565b7f4e487b7100000000000000000000000000000000000000000000000000000000600052601160045260246000fd5b600061249482611e2e565b915061249f83611e2e565b92508282039050818111156124b7576124b661245a565b5b92915050565b60008160601b9050919050565b60006124d5826124bd565b9050919050565b60006124e7826124ca565b9050919050565b6124ff6124fa82611e96565b6124dc565b82525050565b600061251182846124ee565b60148201915081905092915050565b600081519050919050565b600082825260208201905092915050565b600061254782612520565b612551818561252b565b9350612561818560208601611d98565b61256a81611dc2565b840191505092915050565b6000604082019050818103600083015261258f818561253c565b905061259e6020830184611e38565b9392505050565b60008190508160005260206000209050919050565b60006020601f8301049050919050565b600082821b905092915050565b6000600883026126077fffffffffffffffffffffffffffffffffffffffffffffffffffffffffffffffff826125ca565b61261186836125ca565b95508019841693508086168417925050509392505050565b6000819050919050565b600061264e61264961264484611e2e565b612629565b611e2e565b9050919050565b6000819050919050565b61266883612633565b61267c61267482612655565b8484546125d7565b825550505050565b600090565b612691612684565b61269c81848461265f565b505050565b5b818110156126c0576126b5600082612689565b6001810190506126a2565b5050565b601f821115612705576126d6816125a5565b6126df846125ba565b810160208510156126ee578190505b6127026126fa856125ba565b8301826126a1565b50505b505050565b600082821c905092915050565b60006127286000198460080261270a565b1980831691505092915050565b60006127418383612717565b9150826002028217905092915050565b61275a82611d7c565b67ffffffffffffffff81111561277357612772612120565b5b61277d8254612429565b6127888282856126c4565b600060209050601f8311600181146127bb57600084156127a9578287015190505b6127b38582612735565b86555061281b565b601f1984166127c9866125a5565b60005b828110156127f1578489015182556001820191506020850194506020810190506127cc565b8683101561280e578489015161280a601f891682612717565b8355505b6001600288020188555050505b505050505050565b60006060820190506128386000830186612000565b6128456020830185612000565b6128526040830184611e38565b949350505050565b61286381611f40565b811461286e57600080fd5b50565b6000815190506128808161285a565b92915050565b60006020828403121561289c5761289b611e6c565b5b60006128aa84828501612871565b91505092915050565b600060808201905081810360008301526128cd818761253c565b90506128dc6020830186611e38565b6128e96040830185611e38565b6128f66060830184611e38565b95945050505050565b60008151905061290e81611ea8565b92915050565b60006020828403121561292a57612929611e6c565b5b6000612938848285016128ff565b91505092915050565b60008151905061295081611ed4565b92915050565b60006020828403121561296c5761296b611e6c565b5b600061297a84828501612941565b91505092915050565b600061298e82611e2e565b915061299983611e2e565b92508282026129a781611e2e565b915082820484148315176129be576129bd61245a565b5b5092915050565b60006129d082611e2e565b91506129db83611e2e565b92508282019050808211156129f3576129f261245a565b5b9291505056fea264697066735822122074167f5608e4762529db54ea0aceb857b282ca36629eb5442b104c0d3419736d64736f6c634300081a0033",
  "linkReferences": {},
  "deployedLinkReferences": {}
}