{
  "_format": "hh-sol-artifact-1",
  "contractName": "Vault",
  "sourceName": "contracts/_Vault.sol",
  "abi": [
    {
      "inputs": [
        {
          "internalType": "contract IVaultExtension",
          "name": "vaultExtension",
          "type": "address"
        },
        {
          "internalType": "contract IAuthorizer",
          "name": "authorizer",
          "type": "address"
        },
        {
          "internalType": "contract IProtocolFeeController",
          "name": "protocolFeeController",
          "type": "address"
        }
      ],
      "stateMutability": "nonpayable",
      "type": "constructor"
    },
    {
      "inputs": [
        {
          "internalType": "address",
          "name": "target",
          "type": "address"
        }
      ],
      "name": "AddressEmptyCode",
      "type": "error"
    },
    {
      "inputs": [],
      "name": "AfterAddLiquidityHookFailed",
      "type": "error"
    },
    {
      "inputs": [],
      "name": "AfterInitializeHookFailed",
      "type": "error"
    },
    {
      "inputs": [],
      "name": "AfterRemoveLiquidityHookFailed",
      "type": "error"
    },
    {
      "inputs": [],
      "name": "AfterSwapHookFailed",
      "type": "error"
    },
    {
      "inputs": [],
      "name": "AllZeroInputs",
      "type": "error"
    },
    {
      "inputs": [],
      "name": "AmountGivenZero",
      "type": "error"
    },
    {
      "inputs": [
        {
          "internalType": "contract IERC20",
          "name": "tokenIn",
          "type": "address"
        },
        {
          "internalType": "uint256",
          "name": "amountIn",
          "type": "uint256"
        },
        {
          "internalType": "uint256",
          "name": "maxAmountIn",
          "type": "uint256"
        }
      ],
      "name": "AmountInAboveMax",
      "type": "error"
    },
    {
      "inputs": [
        {
          "internalType": "contract IERC20",
          "name": "tokenOut",
          "type": "address"
        },
        {
          "internalType": "uint256",
          "name": "amountOut",
          "type": "uint256"
        },
        {
          "internalType": "uint256",
          "name": "minAmountOut",
          "type": "uint256"
        }
      ],
      "name": "AmountOutBelowMin",
      "type": "error"
    },
    {
      "inputs": [],
      "name": "BalanceNotSettled",
      "type": "error"
    },
    {
      "inputs": [],
      "name": "BalanceOverflow",
      "type": "error"
    },
    {
      "inputs": [],
      "name": "BeforeAddLiquidityHookFailed",
      "type": "error"
    },
    {
      "inputs": [],
      "name": "BeforeInitializeHookFailed",
      "type": "error"
    },
    {
      "inputs": [],
      "name": "BeforeRemoveLiquidityHookFailed",
      "type": "error"
    },
    {
      "inputs": [],
      "name": "BeforeSwapHookFailed",
      "type": "error"
    },
    {
      "inputs": [
        {
          "internalType": "uint256",
          "name": "amountIn",
          "type": "uint256"
        },
        {
          "internalType": "uint256",
          "name": "maxAmountIn",
          "type": "uint256"
        }
      ],
      "name": "BptAmountInAboveMax",
      "type": "error"
    },
    {
      "inputs": [
        {
          "internalType": "uint256",
          "name": "amountOut",
          "type": "uint256"
        },
        {
          "internalType": "uint256",
          "name": "minAmountOut",
          "type": "uint256"
        }
      ],
      "name": "BptAmountOutBelowMin",
      "type": "error"
    },
    {
      "inputs": [
        {
          "internalType": "contract IERC4626",
          "name": "wrappedToken",
          "type": "address"
        }
      ],
      "name": "BufferAlreadyInitialized",
      "type": "error"
    },
    {
      "inputs": [
        {
          "internalType": "contract IERC4626",
          "name": "wrappedToken",
          "type": "address"
        }
      ],
      "name": "BufferNotInitialized",
      "type": "error"
    },
    {
      "inputs": [],
      "name": "BufferSharesInvalidOwner",
      "type": "error"
    },
    {
      "inputs": [],
      "name": "BufferSharesInvalidReceiver",
      "type": "error"
    },
    {
      "inputs": [
        {
          "internalType": "uint256",
          "name": "totalSupply",
          "type": "uint256"
        }
      ],
      "name": "BufferTotalSupplyTooLow",
      "type": "error"
    },
    {
      "inputs": [],
      "name": "CannotReceiveEth",
      "type": "error"
    },
    {
      "inputs": [],
      "name": "CannotSwapSameToken",
      "type": "error"
    },
    {
      "inputs": [],
      "name": "DoesNotSupportAddLiquidityCustom",
      "type": "error"
    },
    {
      "inputs": [],
      "name": "DoesNotSupportDonation",
      "type": "error"
    },
    {
      "inputs": [],
      "name": "DoesNotSupportRemoveLiquidityCustom",
      "type": "error"
    },
    {
      "inputs": [],
      "name": "DoesNotSupportUnbalancedLiquidity",
      "type": "error"
    },
    {
      "inputs": [],
      "name": "DynamicSwapFeeHookFailed",
      "type": "error"
    },
    {
      "inputs": [
        {
          "internalType": "address",
          "name": "spender",
          "type": "address"
        },
        {
          "internalType": "uint256",
          "name": "allowance",
          "type": "uint256"
        },
        {
          "internalType": "uint256",
          "name": "needed",
          "type": "uint256"
        }
      ],
      "name": "ERC20InsufficientAllowance",
      "type": "error"
    },
    {
      "inputs": [
        {
          "internalType": "address",
          "name": "sender",
          "type": "address"
        },
        {
          "internalType": "uint256",
          "name": "balance",
          "type": "uint256"
        },
        {
          "internalType": "uint256",
          "name": "needed",
          "type": "uint256"
        }
      ],
      "name": "ERC20InsufficientBalance",
      "type": "error"
    },
    {
      "inputs": [
        {
          "internalType": "address",
          "name": "approver",
          "type": "address"
        }
      ],
      "name": "ERC20InvalidApprover",
      "type": "error"
    },
    {
      "inputs": [
        {
          "internalType": "address",
          "name": "receiver",
          "type": "address"
        }
      ],
      "name": "ERC20InvalidReceiver",
      "type": "error"
    },
    {
      "inputs": [
        {
          "internalType": "address",
          "name": "sender",
          "type": "address"
        }
      ],
      "name": "ERC20InvalidSender",
      "type": "error"
    },
    {
      "inputs": [
        {
          "internalType": "address",
          "name": "spender",
          "type": "address"
        }
      ],
      "name": "ERC20InvalidSpender",
      "type": "error"
    },
    {
      "inputs": [],
      "name": "FailedCall",
      "type": "error"
    },
    {
      "inputs": [],
      "name": "FeePrecisionTooHigh",
      "type": "error"
    },
    {
      "inputs": [
        {
          "internalType": "contract IERC20",
          "name": "tokenIn",
          "type": "address"
        },
        {
          "internalType": "uint256",
          "name": "amountIn",
          "type": "uint256"
        },
        {
          "internalType": "uint256",
          "name": "maxAmountIn",
          "type": "uint256"
        }
      ],
      "name": "HookAdjustedAmountInAboveMax",
      "type": "error"
    },
    {
      "inputs": [
        {
          "internalType": "contract IERC20",
          "name": "tokenOut",
          "type": "address"
        },
        {
          "internalType": "uint256",
          "name": "amountOut",
          "type": "uint256"
        },
        {
          "internalType": "uint256",
          "name": "minAmountOut",
          "type": "uint256"
        }
      ],
      "name": "HookAdjustedAmountOutBelowMin",
      "type": "error"
    },
    {
      "inputs": [
        {
          "internalType": "uint256",
          "name": "amount",
          "type": "uint256"
        },
        {
          "internalType": "uint256",
          "name": "limit",
          "type": "uint256"
        }
      ],
      "name": "HookAdjustedSwapLimit",
      "type": "error"
    },
    {
      "inputs": [
        {
          "internalType": "address",
          "name": "poolHooksContract",
          "type": "address"
        },
        {
          "internalType": "address",
          "name": "pool",
          "type": "address"
        },
        {
          "internalType": "address",
          "name": "poolFactory",
          "type": "address"
        }
      ],
      "name": "HookRegistrationFailed",
      "type": "error"
    },
    {
      "inputs": [],
      "name": "InputLengthMismatch",
      "type": "error"
    },
    {
      "inputs": [
        {
          "internalType": "uint256",
          "name": "balance",
          "type": "uint256"
        },
        {
          "internalType": "uint256",
          "name": "needed",
          "type": "uint256"
        }
      ],
      "name": "InsufficientBalance",
      "type": "error"
    },
    {
      "inputs": [],
      "name": "InvalidAddLiquidityKind",
      "type": "error"
    },
    {
      "inputs": [],
      "name": "InvalidRemoveLiquidityKind",
      "type": "error"
    },
    {
      "inputs": [],
      "name": "InvalidToken",
      "type": "error"
    },
    {
      "inputs": [],
      "name": "InvalidTokenConfiguration",
      "type": "error"
    },
    {
      "inputs": [],
      "name": "InvalidTokenDecimals",
      "type": "error"
    },
    {
      "inputs": [],
      "name": "InvalidTokenType",
      "type": "error"
    },
    {
      "inputs": [
        {
          "internalType": "contract IERC4626",
          "name": "wrappedToken",
          "type": "address"
        }
      ],
      "name": "InvalidUnderlyingToken",
      "type": "error"
    },
    {
      "inputs": [
        {
          "internalType": "uint256",
          "name": "invariantRatio",
          "type": "uint256"
        },
        {
          "internalType": "uint256",
          "name": "maxInvariantRatio",
          "type": "uint256"
        }
      ],
      "name": "InvariantRatioAboveMax",
      "type": "error"
    },
    {
      "inputs": [
        {
          "internalType": "uint256",
          "name": "invariantRatio",
          "type": "uint256"
        },
        {
          "internalType": "uint256",
          "name": "minInvariantRatio",
          "type": "uint256"
        }
      ],
      "name": "InvariantRatioBelowMin",
      "type": "error"
    },
    {
      "inputs": [
        {
          "internalType": "uint256",
          "name": "issuedShares",
          "type": "uint256"
        },
        {
          "internalType": "uint256",
          "name": "minIssuedShares",
          "type": "uint256"
        }
      ],
      "name": "IssuedSharesBelowMin",
      "type": "error"
    },
    {
      "inputs": [],
      "name": "MaxTokens",
      "type": "error"
    },
    {
      "inputs": [],
      "name": "MinTokens",
      "type": "error"
    },
    {
      "inputs": [],
      "name": "MultipleNonZeroInputs",
      "type": "error"
    },
    {
      "inputs": [],
      "name": "NotEnoughBufferShares",
      "type": "error"
    },
    {
      "inputs": [
        {
          "internalType": "contract IERC4626",
          "name": "wrappedToken",
          "type": "address"
        },
        {
          "internalType": "uint256",
          "name": "expectedUnderlyingAmount",
          "type": "uint256"
        },
        {
          "internalType": "uint256",
          "name": "actualUnderlyingAmount",
          "type": "uint256"
        }
      ],
      "name": "NotEnoughUnderlying",
      "type": "error"
    },
    {
      "inputs": [
        {
          "internalType": "contract IERC4626",
          "name": "wrappedToken",
          "type": "address"
        },
        {
          "internalType": "uint256",
          "name": "expectedWrappedAmount",
          "type": "uint256"
        },
        {
          "internalType": "uint256",
          "name": "actualWrappedAmount",
          "type": "uint256"
        }
      ],
      "name": "NotEnoughWrapped",
      "type": "error"
    },
    {
      "inputs": [],
      "name": "NotStaticCall",
      "type": "error"
    },
    {
      "inputs": [],
      "name": "NotVaultDelegateCall",
      "type": "error"
    },
    {
      "inputs": [],
      "name": "PauseBufferPeriodDurationTooLarge",
      "type": "error"
    },
    {
      "inputs": [],
      "name": "PercentageAboveMax",
      "type": "error"
    },
    {
      "inputs": [
        {
          "internalType": "address",
          "name": "pool",
          "type": "address"
        }
      ],
      "name": "PoolAlreadyInitialized",
      "type": "error"
    },
    {
      "inputs": [
        {
          "internalType": "address",
          "name": "pool",
          "type": "address"
        }
      ],
      "name": "PoolAlreadyRegistered",
      "type": "error"
    },
    {
      "inputs": [
        {
          "internalType": "address",
          "name": "pool",
          "type": "address"
        }
      ],
      "name": "PoolInRecoveryMode",
      "type": "error"
    },
    {
      "inputs": [
        {
          "internalType": "address",
          "name": "pool",
          "type": "address"
        }
      ],
      "name": "PoolNotInRecoveryMode",
      "type": "error"
    },
    {
      "inputs": [
        {
          "internalType": "address",
          "name": "pool",
          "type": "address"
        }
      ],
      "name": "PoolNotInitialized",
      "type": "error"
    },
    {
      "inputs": [
        {
          "internalType": "address",
          "name": "pool",
          "type": "address"
        }
      ],
      "name": "PoolNotPaused",
      "type": "error"
    },
    {
      "inputs": [
        {
          "internalType": "address",
          "name": "pool",
          "type": "address"
        }
      ],
      "name": "PoolNotRegistered",
      "type": "error"
    },
    {
      "inputs": [
        {
          "internalType": "address",
          "name": "pool",
          "type": "address"
        }
      ],
      "name": "PoolPauseWindowExpired",
      "type": "error"
    },
    {
      "inputs": [
        {
          "internalType": "address",
          "name": "pool",
          "type": "address"
        }
      ],
      "name": "PoolPaused",
      "type": "error"
    },
    {
      "inputs": [
        {
          "internalType": "uint256",
          "name": "totalSupply",
          "type": "uint256"
        }
      ],
      "name": "PoolTotalSupplyTooLow",
      "type": "error"
    },
    {
      "inputs": [],
      "name": "ProtocolFeesExceedTotalCollected",
      "type": "error"
    },
    {
      "inputs": [],
      "name": "QueriesDisabled",
      "type": "error"
    },
    {
      "inputs": [],
      "name": "QueriesDisabledPermanently",
      "type": "error"
    },
    {
      "inputs": [],
      "name": "QuoteResultSpoofed",
      "type": "error"
    },
    {
      "inputs": [],
      "name": "ReentrancyGuardReentrantCall",
      "type": "error"
    },
    {
      "inputs": [],
      "name": "RouterNotTrusted",
      "type": "error"
    },
    {
      "inputs": [
        {
          "internalType": "uint256",
          "name": "value",
          "type": "uint256"
        }
      ],
      "name": "SafeCastOverflowedUintToInt",
      "type": "error"
    },
    {
      "inputs": [
        {
          "internalType": "address",
          "name": "token",
          "type": "address"
        }
      ],
      "name": "SafeERC20FailedOperation",
      "type": "error"
    },
    {
      "inputs": [
        {
          "internalType": "address",
          "name": "sender",
          "type": "address"
        }
      ],
      "name": "SenderIsNotVault",
      "type": "error"
    },
    {
      "inputs": [],
      "name": "SwapFeePercentageTooHigh",
      "type": "error"
    },
    {
      "inputs": [],
      "name": "SwapFeePercentageTooLow",
      "type": "error"
    },
    {
      "inputs": [
        {
          "internalType": "uint256",
          "name": "amount",
          "type": "uint256"
        },
        {
          "internalType": "uint256",
          "name": "limit",
          "type": "uint256"
        }
      ],
      "name": "SwapLimit",
      "type": "error"
    },
    {
      "inputs": [
        {
          "internalType": "contract IERC20",
          "name": "token",
          "type": "address"
        }
      ],
      "name": "TokenAlreadyRegistered",
      "type": "error"
    },
    {
      "inputs": [
        {
          "internalType": "contract IERC20",
          "name": "token",
          "type": "address"
        }
      ],
      "name": "TokenNotRegistered",
      "type": "error"
    },
    {
      "inputs": [
        {
          "internalType": "address",
          "name": "pool",
          "type": "address"
        },
        {
          "internalType": "address",
          "name": "expectedToken",
          "type": "address"
        },
        {
          "internalType": "address",
          "name": "actualToken",
          "type": "address"
        }
      ],
      "name": "TokensMismatch",
      "type": "error"
    },
    {
      "inputs": [],
      "name": "TradeAmountTooSmall",
      "type": "error"
    },
    {
      "inputs": [],
      "name": "VaultBuffersArePaused",
      "type": "error"
    },
    {
      "inputs": [],
      "name": "VaultIsNotUnlocked",
      "type": "error"
    },
    {
      "inputs": [],
      "name": "VaultNotPaused",
      "type": "error"
    },
    {
      "inputs": [],
      "name": "VaultPauseWindowDurationTooLarge",
      "type": "error"
    },
    {
      "inputs": [],
      "name": "VaultPauseWindowExpired",
      "type": "error"
    },
    {
      "inputs": [],
      "name": "VaultPaused",
      "type": "error"
    },
    {
      "inputs": [
        {
          "internalType": "contract IERC4626",
          "name": "wrappedToken",
          "type": "address"
        }
      ],
      "name": "WrapAmountTooSmall",
      "type": "error"
    },
    {
      "inputs": [],
      "name": "WrongProtocolFeeControllerDeployment",
      "type": "error"
    },
    {
      "inputs": [
        {
          "internalType": "contract IERC4626",
          "name": "wrappedToken",
          "type": "address"
        },
        {
          "internalType": "address",
          "name": "underlyingToken",
          "type": "address"
        }
      ],
      "name": "WrongUnderlyingToken",
      "type": "error"
    },
    {
      "inputs": [],
      "name": "WrongVaultAdminDeployment",
      "type": "error"
    },
    {
      "inputs": [],
      "name": "WrongVaultExtensionDeployment",
      "type": "error"
    },
    {
      "inputs": [],
      "name": "ZeroDivision",
      "type": "error"
    },
    {
      "anonymous": false,
      "inputs": [
        {
          "indexed": true,
          "internalType": "address",
          "name": "pool",
          "type": "address"
        },
        {
          "indexed": true,
          "internalType": "address",
          "name": "token",
          "type": "address"
        },
        {
          "indexed": false,
          "internalType": "uint256",
          "name": "tokenIndex",
          "type": "uint256"
        }
      ],
      "name": "AddedNewTokenToPool",
      "type": "event"
    },
    {
      "anonymous": false,
      "inputs": [
        {
          "indexed": true,
          "internalType": "address",
          "name": "pool",
          "type": "address"
        },
        {
          "indexed": false,
          "internalType": "uint256",
          "name": "aggregateSwapFeePercentage",
          "type": "uint256"
        }
      ],
      "name": "AggregateSwapFeePercentageChanged",
      "type": "event"
    },
    {
      "anonymous": false,
      "inputs": [
        {
          "indexed": true,
          "internalType": "address",
          "name": "pool",
          "type": "address"
        },
        {
          "indexed": false,
          "internalType": "uint256",
          "name": "aggregateYieldFeePercentage",
          "type": "uint256"
        }
      ],
      "name": "AggregateYieldFeePercentageChanged",
      "type": "event"
    },
    {
      "anonymous": false,
      "inputs": [
        {
          "indexed": true,
          "internalType": "address",
          "name": "pool",
          "type": "address"
        },
        {
          "indexed": true,
          "internalType": "address",
          "name": "owner",
          "type": "address"
        },
        {
          "indexed": true,
          "internalType": "address",
          "name": "spender",
          "type": "address"
        },
        {
          "indexed": false,
          "internalType": "uint256",
          "name": "value",
          "type": "uint256"
        }
      ],
      "name": "Approval",
      "type": "event"
    },
    {
      "anonymous": false,
      "inputs": [
        {
          "indexed": true,
          "internalType": "contract IAuthorizer",
          "name": "newAuthorizer",
          "type": "address"
        }
      ],
      "name": "AuthorizerChanged",
      "type": "event"
    },
    {
      "anonymous": false,
      "inputs": [
        {
          "indexed": true,
          "internalType": "contract IERC4626",
          "name": "wrappedToken",
          "type": "address"
        },
        {
          "indexed": true,
          "internalType": "address",
          "name": "from",
          "type": "address"
        },
        {
          "indexed": false,
          "internalType": "uint256",
          "name": "burnedShares",
          "type": "uint256"
        }
      ],
      "name": "BufferSharesBurned",
      "type": "event"
    },
    {
      "anonymous": false,
      "inputs": [
        {
          "indexed": true,
          "internalType": "contract IERC4626",
          "name": "wrappedToken",
          "type": "address"
        },
        {
          "indexed": true,
          "internalType": "address",
          "name": "to",
          "type": "address"
        },
        {
          "indexed": false,
          "internalType": "uint256",
          "name": "issuedShares",
          "type": "uint256"
        }
      ],
      "name": "BufferSharesMinted",
      "type": "event"
    },
    {
      "anonymous": false,
      "inputs": [
        {
          "indexed": true,
          "internalType": "address",
          "name": "pool",
          "type": "address"
        },
        {
          "indexed": true,
          "internalType": "address",
          "name": "liquidityProvider",
          "type": "address"
        },
        {
          "indexed": true,
          "internalType": "enum AddLiquidityKind",
          "name": "kind",
          "type": "uint8"
        },
        {
          "indexed": false,
          "internalType": "uint256",
          "name": "totalSupply",
          "type": "uint256"
        },
        {
          "indexed": false,
          "internalType": "uint256[]",
          "name": "amountsAddedRaw",
          "type": "uint256[]"
        },
        {
          "indexed": false,
          "internalType": "uint256[]",
          "name": "swapFeeAmountsRaw",
          "type": "uint256[]"
        }
      ],
      "name": "LiquidityAdded",
      "type": "event"
    },
    {
      "anonymous": false,
      "inputs": [
        {
          "indexed": true,
          "internalType": "contract IERC4626",
          "name": "wrappedToken",
          "type": "address"
        },
        {
          "indexed": false,
          "internalType": "uint256",
          "name": "amountUnderlying",
          "type": "uint256"
        },
        {
          "indexed": false,
          "internalType": "uint256",
          "name": "amountWrapped",
          "type": "uint256"
        },
        {
          "indexed": false,
          "internalType": "bytes32",
          "name": "bufferBalances",
          "type": "bytes32"
        }
      ],
      "name": "LiquidityAddedToBuffer",
      "type": "event"
    },
    {
      "anonymous": false,
      "inputs": [
        {
          "indexed": true,
          "internalType": "address",
          "name": "pool",
          "type": "address"
        },
        {
          "indexed": true,
          "internalType": "address",
          "name": "liquidityProvider",
          "type": "address"
        },
        {
          "indexed": true,
          "internalType": "enum RemoveLiquidityKind",
          "name": "kind",
          "type": "uint8"
        },
        {
          "indexed": false,
          "internalType": "uint256",
          "name": "totalSupply",
          "type": "uint256"
        },
        {
          "indexed": false,
          "internalType": "uint256[]",
          "name": "amountsRemovedRaw",
          "type": "uint256[]"
        },
        {
          "indexed": false,
          "internalType": "uint256[]",
          "name": "swapFeeAmountsRaw",
          "type": "uint256[]"
        }
      ],
      "name": "LiquidityRemoved",
      "type": "event"
    },
    {
      "anonymous": false,
      "inputs": [
        {
          "indexed": true,
          "internalType": "contract IERC4626",
          "name": "wrappedToken",
          "type": "address"
        },
        {
          "indexed": false,
          "internalType": "uint256",
          "name": "amountUnderlying",
          "type": "uint256"
        },
        {
          "indexed": false,
          "internalType": "uint256",
          "name": "amountWrapped",
          "type": "uint256"
        },
        {
          "indexed": false,
          "internalType": "bytes32",
          "name": "bufferBalances",
          "type": "bytes32"
        }
      ],
      "name": "LiquidityRemovedFromBuffer",
      "type": "event"
    },
    {
      "anonymous": false,
      "inputs": [
        {
          "indexed": true,
          "internalType": "address",
          "name": "pool",
          "type": "address"
        }
      ],
      "name": "PoolInitialized",
      "type": "event"
    },
    {
      "anonymous": false,
      "inputs": [
        {
          "indexed": true,
          "internalType": "address",
          "name": "pool",
          "type": "address"
        },
        {
          "indexed": false,
          "internalType": "bool",
          "name": "paused",
          "type": "bool"
        }
      ],
      "name": "PoolPausedStateChanged",
      "type": "event"
    },
    {
      "anonymous": false,
      "inputs": [
        {
          "indexed": true,
          "internalType": "address",
          "name": "pool",
          "type": "address"
        },
        {
          "indexed": false,
          "internalType": "bool",
          "name": "recoveryMode",
          "type": "bool"
        }
      ],
      "name": "PoolRecoveryModeStateChanged",
      "type": "event"
    },
    {
      "anonymous": false,
      "inputs": [
        {
          "indexed": true,
          "internalType": "address",
          "name": "pool",
          "type": "address"
        },
        {
          "indexed": true,
          "internalType": "address",
          "name": "factory",
          "type": "address"
        },
        {
          "components": [
            {
              "internalType": "contract IERC20",
              "name": "token",
              "type": "address"
            },
            {
              "internalType": "uint256",
              "name": "chainId",
              "type": "uint256"
            },
            {
              "internalType": "enum TokenType",
              "name": "tokenType",
              "type": "uint8"
            },
            {
              "internalType": "contract IRateProvider",
              "name": "rateProvider",
              "type": "address"
            },
            {
              "internalType": "bool",
              "name": "paysYieldFees",
              "type": "bool"
            }
          ],
          "indexed": false,
          "internalType": "struct TokenConfig[]",
          "name": "tokenConfig",
          "type": "tuple[]"
        },
        {
          "indexed": false,
          "internalType": "uint256",
          "name": "swapFeePercentage",
          "type": "uint256"
        },
        {
          "indexed": false,
          "internalType": "uint32",
          "name": "pauseWindowEndTime",
          "type": "uint32"
        },
        {
          "components": [
            {
              "internalType": "address",
              "name": "pauseManager",
              "type": "address"
            },
            {
              "internalType": "address",
              "name": "swapFeeManager",
              "type": "address"
            },
            {
              "internalType": "address",
              "name": "poolCreator",
              "type": "address"
            }
          ],
          "indexed": false,
          "internalType": "struct PoolRoleAccounts",
          "name": "roleAccounts",
          "type": "tuple"
        },
        {
          "components": [
            {
              "internalType": "bool",
              "name": "disableUnbalancedLiquidity",
              "type": "bool"
            },
            {
              "internalType": "bool",
              "name": "enableAddLiquidityCustom",
              "type": "bool"
            },
            {
              "internalType": "bool",
              "name": "enableRemoveLiquidityCustom",
              "type": "bool"
            },
            {
              "internalType": "bool",
              "name": "enableDonation",
              "type": "bool"
            }
          ],
          "indexed": false,
          "internalType": "struct LiquidityManagement",
          "name": "liquidityManagement",
          "type": "tuple"
        }
      ],
      "name": "PoolRegistered",
      "type": "event"
    },
    {
      "anonymous": false,
      "inputs": [
        {
          "indexed": true,
          "internalType": "contract IProtocolFeeController",
          "name": "newProtocolFeeController",
          "type": "address"
        }
      ],
      "name": "ProtocolFeeControllerChanged",
      "type": "event"
    },
    {
      "anonymous": false,
      "inputs": [
        {
          "indexed": true,
          "internalType": "address",
          "name": "pool",
          "type": "address"
        },
        {
          "indexed": true,
          "internalType": "contract IERC20",
          "name": "tokenIn",
          "type": "address"
        },
        {
          "indexed": true,
          "internalType": "contract IERC20",
          "name": "tokenOut",
          "type": "address"
        },
        {
          "indexed": false,
          "internalType": "uint256",
          "name": "amountIn",
          "type": "uint256"
        },
        {
          "indexed": false,
          "internalType": "uint256",
          "name": "amountOut",
          "type": "uint256"
        },
        {
          "indexed": false,
          "internalType": "uint256",
          "name": "swapFeePercentage",
          "type": "uint256"
        },
        {
          "indexed": false,
          "internalType": "uint256",
          "name": "swapFeeAmount",
          "type": "uint256"
        }
      ],
      "name": "Swap",
      "type": "event"
    },
    {
      "anonymous": false,
      "inputs": [
        {
          "indexed": true,
          "internalType": "address",
          "name": "pool",
          "type": "address"
        },
        {
          "indexed": false,
          "internalType": "uint256",
          "name": "swapFeePercentage",
          "type": "uint256"
        }
      ],
      "name": "SwapFeePercentageChanged",
      "type": "event"
    },
    {
      "anonymous": false,
      "inputs": [
        {
          "indexed": true,
          "internalType": "address",
          "name": "pool",
          "type": "address"
        },
        {
          "indexed": true,
          "internalType": "address",
          "name": "from",
          "type": "address"
        },
        {
          "indexed": true,
          "internalType": "address",
          "name": "to",
          "type": "address"
        },
        {
          "indexed": false,
          "internalType": "uint256",
          "name": "value",
          "type": "uint256"
        }
      ],
      "name": "Transfer",
      "type": "event"
    },
    {
      "anonymous": false,
      "inputs": [
        {
          "indexed": true,
          "internalType": "contract IERC4626",
          "name": "wrappedToken",
          "type": "address"
        },
        {
          "indexed": false,
          "internalType": "uint256",
          "name": "burnedShares",
          "type": "uint256"
        },
        {
          "indexed": false,
          "internalType": "uint256",
          "name": "withdrawnUnderlying",
          "type": "uint256"
        },
        {
          "indexed": false,
          "internalType": "bytes32",
          "name": "bufferBalances",
          "type": "bytes32"
        }
      ],
      "name": "Unwrap",
      "type": "event"
    },
    {
      "anonymous": false,
      "inputs": [
        {
          "indexed": true,
          "internalType": "address",
          "name": "pool",
          "type": "address"
        },
        {
          "indexed": true,
          "internalType": "bytes32",
          "name": "eventKey",
          "type": "bytes32"
        },
        {
          "indexed": false,
          "internalType": "bytes",
          "name": "eventData",
          "type": "bytes"
        }
      ],
      "name": "VaultAuxiliary",
      "type": "event"
    },
    {
      "anonymous": false,
      "inputs": [
        {
          "indexed": false,
          "internalType": "bool",
          "name": "paused",
          "type": "bool"
        }
      ],
      "name": "VaultBuffersPausedStateChanged",
      "type": "event"
    },
    {
      "anonymous": false,
      "inputs": [
        {
          "indexed": false,
          "internalType": "bool",
          "name": "paused",
          "type": "bool"
        }
      ],
      "name": "VaultPausedStateChanged",
      "type": "event"
    },
    {
      "anonymous": false,
      "inputs": [],
      "name": "VaultQueriesDisabled",
      "type": "event"
    },
    {
      "anonymous": false,
      "inputs": [],
      "name": "VaultQueriesEnabled",
      "type": "event"
    },
    {
      "anonymous": false,
      "inputs": [
        {
          "indexed": true,
          "internalType": "contract IERC4626",
          "name": "wrappedToken",
          "type": "address"
        },
        {
          "indexed": false,
          "internalType": "uint256",
          "name": "depositedUnderlying",
          "type": "uint256"
        },
        {
          "indexed": false,
          "internalType": "uint256",
          "name": "mintedShares",
          "type": "uint256"
        },
        {
          "indexed": false,
          "internalType": "bytes32",
          "name": "bufferBalances",
          "type": "bytes32"
        }
      ],
      "name": "Wrap",
      "type": "event"
    },
    {
      "stateMutability": "payable",
      "type": "fallback"
    },
    {
      "inputs": [
        {
          "components": [
            {
              "internalType": "address",
              "name": "pool",
              "type": "address"
            },
            {
              "internalType": "address",
              "name": "to",
              "type": "address"
            },
            {
              "internalType": "uint256[]",
              "name": "maxAmountsIn",
              "type": "uint256[]"
            },
            {
              "internalType": "uint256",
              "name": "minBptAmountOut",
              "type": "uint256"
            },
            {
              "internalType": "enum AddLiquidityKind",
              "name": "kind",
              "type": "uint8"
            },
            {
              "internalType": "bytes",
              "name": "userData",
              "type": "bytes"
            }
          ],
          "internalType": "struct AddLiquidityParams",
          "name": "params",
          "type": "tuple"
        }
      ],
      "name": "addLiquidity",
      "outputs": [
        {
          "internalType": "uint256[]",
          "name": "amountsIn",
          "type": "uint256[]"
        },
        {
          "internalType": "uint256",
          "name": "bptAmountOut",
          "type": "uint256"
        },
        {
          "internalType": "bytes",
          "name": "returnData",
          "type": "bytes"
        }
      ],
      "stateMutability": "nonpayable",
      "type": "function"
    },
    {
      "inputs": [
        {
          "components": [
            {
              "internalType": "address",
              "name": "pool",
              "type": "address"
            },
            {
              "internalType": "address",
              "name": "sender",
              "type": "address"
            },
            {
              "components": [
                {
                  "internalType": "contract IERC20",
                  "name": "token",
                  "type": "address"
                },
                {
                  "internalType": "uint256",
                  "name": "chainId",
                  "type": "uint256"
                },
                {
                  "internalType": "enum TokenType",
                  "name": "tokenType",
                  "type": "uint8"
                },
                {
                  "internalType": "contract IRateProvider",
                  "name": "rateProvider",
                  "type": "address"
                },
                {
                  "internalType": "bool",
                  "name": "paysYieldFees",
                  "type": "bool"
                }
              ],
              "internalType": "struct TokenConfig",
              "name": "tokenConfig",
              "type": "tuple"
            },
            {
              "internalType": "uint256",
              "name": "exactAmountIn",
              "type": "uint256"
            }
          ],
          "internalType": "struct AddTokenToPoolParams",
          "name": "params",
          "type": "tuple"
        }
      ],
      "name": "addTokenToPool",
      "outputs": [
        {
          "internalType": "uint256",
          "name": "bptAmountOut",
          "type": "uint256"
        },
        {
          "internalType": "uint256",
          "name": "tokenIndex",
          "type": "uint256"
        }
      ],
      "stateMutability": "nonpayable",
      "type": "function"
    },
    {
      "inputs": [
        {
          "internalType": "address",
          "name": "pool",
          "type": "address"
        },
        {
          "internalType": "contract IERC20",
          "name": "token",
          "type": "address"
        }
      ],
      "name": "getPoolTokenCountAndIndexOfToken",
      "outputs": [
        {
          "internalType": "uint256",
          "name": "",
          "type": "uint256"
        },
        {
          "internalType": "uint256",
          "name": "",
          "type": "uint256"
        }
      ],
      "stateMutability": "view",
      "type": "function"
    },
    {
      "inputs": [],
      "name": "getVaultExtension",
      "outputs": [
        {
          "internalType": "address",
          "name": "",
          "type": "address"
        }
      ],
      "stateMutability": "view",
      "type": "function"
    },
    {
      "inputs": [],
      "name": "reentrancyGuardEntered",
      "outputs": [
        {
          "internalType": "bool",
          "name": "",
          "type": "bool"
        }
      ],
      "stateMutability": "view",
      "type": "function"
    },
    {
      "inputs": [
        {
          "components": [
            {
              "internalType": "address",
              "name": "pool",
              "type": "address"
            },
            {
              "internalType": "address",
              "name": "from",
              "type": "address"
            },
            {
              "internalType": "uint256",
              "name": "maxBptAmountIn",
              "type": "uint256"
            },
            {
              "internalType": "uint256[]",
              "name": "minAmountsOut",
              "type": "uint256[]"
            },
            {
              "internalType": "enum RemoveLiquidityKind",
              "name": "kind",
              "type": "uint8"
            },
            {
              "internalType": "bytes",
              "name": "userData",
              "type": "bytes"
            }
          ],
          "internalType": "struct RemoveLiquidityParams",
          "name": "params",
          "type": "tuple"
        }
      ],
      "name": "removeLiquidity",
      "outputs": [
        {
          "internalType": "uint256",
          "name": "bptAmountIn",
          "type": "uint256"
        },
        {
          "internalType": "uint256[]",
          "name": "amountsOut",
          "type": "uint256[]"
        },
        {
          "internalType": "bytes",
          "name": "returnData",
          "type": "bytes"
        }
      ],
      "stateMutability": "nonpayable",
      "type": "function"
    },
    {
      "inputs": [
        {
          "internalType": "contract IERC20",
          "name": "token",
          "type": "address"
        },
        {
          "internalType": "address",
          "name": "to",
          "type": "address"
        },
        {
          "internalType": "uint256",
          "name": "amount",
          "type": "uint256"
        }
      ],
      "name": "sendTo",
      "outputs": [],
      "stateMutability": "nonpayable",
      "type": "function"
    },
    {
      "inputs": [
        {
          "internalType": "contract IERC20",
          "name": "token",
          "type": "address"
        },
        {
          "internalType": "uint256",
          "name": "amountHint",
          "type": "uint256"
        }
      ],
      "name": "settle",
      "outputs": [
        {
          "internalType": "uint256",
          "name": "credit",
          "type": "uint256"
        }
      ],
      "stateMutability": "nonpayable",
      "type": "function"
    },
    {
      "inputs": [
        {
          "components": [
            {
              "internalType": "enum SwapKind",
              "name": "kind",
              "type": "uint8"
            },
            {
              "internalType": "address",
              "name": "pool",
              "type": "address"
            },
            {
              "internalType": "contract IERC20",
              "name": "tokenIn",
              "type": "address"
            },
            {
              "internalType": "contract IERC20",
              "name": "tokenOut",
              "type": "address"
            },
            {
              "internalType": "uint256",
              "name": "amountGivenRaw",
              "type": "uint256"
            },
            {
              "internalType": "uint256",
              "name": "limitRaw",
              "type": "uint256"
            },
            {
              "internalType": "bytes",
              "name": "userData",
              "type": "bytes"
            }
          ],
          "internalType": "struct VaultSwapParams",
          "name": "vaultSwapParams",
          "type": "tuple"
        }
      ],
      "name": "swap",
      "outputs": [
        {
          "internalType": "uint256",
          "name": "amountCalculated",
          "type": "uint256"
        },
        {
          "internalType": "uint256",
          "name": "amountIn",
          "type": "uint256"
        },
        {
          "internalType": "uint256",
          "name": "amountOut",
          "type": "uint256"
        }
      ],
      "stateMutability": "nonpayable",
      "type": "function"
    },
    {
      "inputs": [
        {
          "internalType": "address",
          "name": "owner",
          "type": "address"
        },
        {
          "internalType": "address",
          "name": "to",
          "type": "address"
        },
        {
          "internalType": "uint256",
          "name": "amount",
          "type": "uint256"
        }
      ],
      "name": "transfer",
      "outputs": [
        {
          "internalType": "bool",
          "name": "",
          "type": "bool"
        }
      ],
      "stateMutability": "nonpayable",
      "type": "function"
    },
    {
      "inputs": [
        {
          "internalType": "address",
          "name": "spender",
          "type": "address"
        },
        {
          "internalType": "address",
          "name": "from",
          "type": "address"
        },
        {
          "internalType": "address",
          "name": "to",
          "type": "address"
        },
        {
          "internalType": "uint256",
          "name": "amount",
          "type": "uint256"
        }
      ],
      "name": "transferFrom",
      "outputs": [
        {
          "internalType": "bool",
          "name": "",
          "type": "bool"
        }
      ],
      "stateMutability": "nonpayable",
      "type": "function"
    },
    {
      "inputs": [
        {
          "internalType": "bytes",
          "name": "data",
          "type": "bytes"
        }
      ],
      "name": "unlock",
      "outputs": [
        {
          "internalType": "bytes",
          "name": "result",
          "type": "bytes"
        }
      ],
      "stateMutability": "nonpayable",
      "type": "function"
    },
    {
      "stateMutability": "payable",
      "type": "receive"
    }
  ],
  "bytecode": "0x6101e080604052346103ba57606081614ca3803803809161002082856104e3565b8339810103126103ba5780516001600160a01b038116908181036103ba576020830151926001600160a01b03841684036103ba57604001516001600160a01b03811691908290036103ba5761009860405161007c6040826104e3565b600a8152691a5cd55b9b1bd8dad95960b21b6020820152610557565b60c0526100cf6040516100ac6040826104e3565b60118152701b9bdb96995c9bd1195b1d1850dbdd5b9d607a1b6020820152610557565b60e0526101006040516100e36040826104e3565b600b81526a746f6b656e44656c74617360a81b6020820152610557565b610100526101396040516101156040826104e3565b6012815271185919131a5c5d5a591a5d1e50d85b1b195960721b6020820152610557565b6101205261016960405161014e6040826104e3565b60098152681cd95cdcda5bdb925960ba1b6020820152610557565b6101405260405163fbfa77cf60e01b8152602081600481875afa9081156103c7576000916104c4575b50306001600160a01b03909116036104b35760405163fbfa77cf60e01b8152602081600481865afa9081156103c757600091610484575b50306001600160a01b0390911603610473576101c052600a80546001600160a01b031916919091179055604051634546891d60e11b8152602081600481855afa9081156103c757600091610454575b5061016052604051631060fdbd60e11b8152602081600481855afa9081156103c757600091610435575b506101a05260405163cd51c12f60e01b8152602081600481855afa9081156103c757600091610406575b5061018052604051630716585d60e51b8152602081600481855afa9081156103c7576000916103d3575b506080526040516329cab55160e11b815290602090829060049082905afa9081156103c757600091610390575b5060a05260098054610100600160a81b03191660089290921b610100600160a81b031691909117905560405161464f9081610654823960805181613d94015260a05181505060c051818181610e800152611564015260e051818181610ef50152818161306001526130b90152610100518161300b015261012051818181610fce0152611d63015261014051818181610f2201528181610f9e0152611d3601526101605181505061018051816118b001526101a0518161194f01526101c05181818161097801526114d70152f35b90506020813d6020116103bf575b816103ab602093836104e3565b810103126103ba5751386102c3565b600080fd5b3d915061039e565b6040513d6000823e3d90fd5b90506020813d6020116103fe575b816103ee602093836104e3565b810103126103ba57516004610296565b3d91506103e1565b610428915060203d60201161042e575b61042081836104e3565b81019061053b565b3861026c565b503d610416565b61044e915060203d60201161042e5761042081836104e3565b38610242565b61046d915060203d60201161042e5761042081836104e3565b38610218565b631bbe95c760e01b60005260046000fd5b6104a6915060203d6020116104ac575b61049e81836104e3565b81019061051c565b386101c9565b503d610494565b6301ab9d9d60e41b60005260046000fd5b6104dd915060203d6020116104ac5761049e81836104e3565b38610192565b601f909101601f19168101906001600160401b0382119082101761050657604052565b634e487b7160e01b600052604160045260246000fd5b908160209103126103ba57516001600160a01b03811681036103ba5790565b908160209103126103ba575163ffffffff811681036103ba5790565b6105d06105de6040519261056c6040856104e3565b600c84526b5661756c7453746f7261676560a01b602085015260405192839160016105c260208501977f62616c616e6365722d6c6162732e76332e73746f726167652e0000000000000089526039860190610628565b601760f91b81520190610628565b03601f1981018352826104e3565b5190206000198101908111610612576040519060208201908152602082526106076040836104e3565b9051902060ff191690565b634e487b7160e01b600052601160045260246000fd5b9081519160005b838110610640575050016000815290565b806020809284010151818501520161062f56fe60806040526004361015610018575b366114c6576114b5565b60003560e01c806315afd409146100d857806315dacbea146100d357806321457897146100ce5780632bfb780c146100c957806348c89491146100c45780634af29ec4146100bf578063ae639329146100ba578063b9a8effa146100b5578063beabacc8146100b0578063c9c1661b146100ab578063d2959488146100a65763d2c725e00361000e57610b51565b610a80565b6109dd565b6109a7565b610962565b610843565b610765565b6106c6565b6105d6565b6104e3565b61021b565b61010c565b6001600160a01b031690565b6001600160a01b038116036100fa57565b600080fd5b359061010a826100e9565b565b346100fa5760403660031901126100fa57600435610129816100e9565b602435610134611515565b61013c611562565b6001600160a01b03821660008181526008602090815260408083205490516370a0823160e01b81523060048201529593909190869060249082905afa8015610216576101d9956101ad93916101e7575b506001600160a01b0384166000908152600860205260409020819055610c4b565b918083116101dd575b50816101c19161159c565b6101c961154e565b6040519081529081906020820190565b0390f35b91506101c16101b6565b610209915060203d60201161020f575b61020181836102fb565b810190610c17565b3861018c565b503d6101f7565b610935565b346100fa5760803660031901126100fa5761026960043561023b816100e9565b602435610247816100e9565b60443590610254826100e9565b610263606435809483336115d6565b3361175b565b602060405160018152f35b634e487b7160e01b600052604160045260246000fd5b608081019081106001600160401b038211176102a557604052565b610274565b60a081019081106001600160401b038211176102a557604052565b60e081019081106001600160401b038211176102a557604052565b606081019081106001600160401b038211176102a557604052565b601f909101601f19168101906001600160401b038211908210176102a557604052565b6040519061010a60c0836102fb565b6040519061010a60e0836102fb565b6040519061010a6060836102fb565b6001600160401b0381116102a55760051b60200190565b9080601f830112156100fa5781356103798161034b565b9261038760405194856102fb565b81845260208085019260051b8201019283116100fa57602001905b8282106103af5750505090565b81358152602091820191016103a2565b359060048210156100fa57565b6001600160401b0381116102a557601f01601f191660200190565b9291926103f3826103cc565b9161040160405193846102fb565b8294818452818301116100fa578281602093846000960137010152565b9080601f830112156100fa57816020610439933591016103e7565b90565b906020808351928381520192019060005b81811061045a5750505090565b825184526020938401939092019160010161044d565b60005b8381106104835750506000910152565b8181015183820152602001610473565b906020916104ac81518092818552858086019101610470565b601f01601f1916010190565b916104d5906104399492845260606020850152606084019061043c565b916040818403910152610493565b346100fa5760203660031901126100fa576004356001600160401b0381116100fa5760c060031982360301126100fa5761051b61031e565b90610528816004016100ff565b8252610536602482016100ff565b60208301526044810135604083015260648101356001600160401b0381116100fa576105689060043691840101610362565b6060830152610579608482016103bf565b608083015260a4810135916001600160401b0383116100fa576105a86105b29260046101d9953692010161041e565b60a0820152610c58565b604093919351938493846104b8565b600211156100fa57565b359061010a826105c1565b346100fa5760203660031901126100fa576004356001600160401b0381116100fa5760e060031982360301126100fa5761060e61032d565b9061061b816004016105cb565b8252610629602482016100ff565b602083015261063a604482016100ff565b604083015261064b606482016100ff565b60608301526084810135608083015260a481013560a083015260c4810135916001600160401b0383116100fa5761068e6106989260046101d9953692010161041e565b60c0820152610d4d565b604080519384526020840192909252908201529081906060820190565b906020610439928181520190610493565b346100fa5760203660031901126100fa576004356001600160401b0381116100fa57366023820112156100fa576004810135906001600160401b0382116100fa5736602483830101116100fa576101d99160246107239201610e72565b604051918291826106b5565b359060058210156100fa57565b610752610439949260608352606083019061043c565b9260208201526040818403910152610493565b346100fa5760203660031901126100fa576004356001600160401b0381116100fa5760c060031982360301126100fa5761079d61031e565b906107aa816004016100ff565b82526107b8602482016100ff565b602083015260448101356001600160401b0381116100fa576107e09060043691840101610362565b6040830152606481013560608301526107fb6084820161072f565b608083015260a4810135916001600160401b0383116100fa5761082a6108349260046101d9953692010161041e565b60a0820152610f68565b6040939193519384938461073c565b346100fa5760603660031901126100fa57600435610860816100e9565b60243561086c816100e9565b60443590610878611515565b610880611562565b61089261088c83612fdd565b84613002565b60018060a01b0383169283600052600860205260406000209182549284840393841161094157602094600094859255604051908682019363a9059cbb60e01b855260018060a01b031660248301526044820152604481526108f46064826102fb565b51925af115610935576000513d61092c5750803b155b6109185761091661154e565b005b635274afe760e01b60005260045260246000fd5b6001141561090a565b6040513d6000823e3d90fd5b610c26565b60009103126100fa57565b6001600160a01b0316600452602490565b346100fa5760003660031901126100fa576040517f00000000000000000000000000000000000000000000000000000000000000006001600160a01b03168152602090f35b346100fa5760603660031901126100fa576102696004356109c7816100e9565b6024356109d3816100e9565b604435913361175b565b346100fa5760403660031901126100fa576004356109fa816100e9565b60243590610a07826100e9565b60018060a01b03169081600052600060205260016040600020541615610a6b57610a5890610a4b926000526002602052610a52604060002060405194858092611050565b03846102fb565b82612dff565b9051604080519182526020820192909252f35b506327946f5760e21b60005260045260246000fd5b346100fa576101003660031901126100fa576000604051610aa08161028a565b600435610aac816100e9565b8152602435610aba816100e9565b602082015260a0366043190112610b4d57604051610ad7816102aa565b604435610ae3816100e9565b81526064356020820152608435610af9816105c1565b604082015260a435610b0a816100e9565b606082015260c4358015158103610b495760808201526040820152610b37915060e43560608201526111ef565b60408051928352602083019190915290f35b8380fd5b5080fd5b346100fa5760003660031901126100fa5760206000805160206145fa833981519152546040519015158152f35b6001600160a01b0316600090815260026020526040902090565b6001600160a01b0316600090815260056020526040902090565b6001600160a01b03166000908152600f6020526040902090565b6001600160a01b0316600090815260066020526040902090565b6001600160a01b0316600090815260116020526040902090565b9060018060a01b0316600052602052604060002090565b908160209103126100fa575190565b634e487b7160e01b600052601160045260246000fd5b60001981019190821161094157565b9190820391821161094157565b90610c61611562565b8151610c75906001600160a01b031661186f565b8151610c89906001600160a01b03166118a9565b8151610ca5906001600160a01b0316610ca06119a8565b6119df565b91602083015151610cbd606083019182515190611adf565b519060c084015160a085015190835191610cdb825182519085613484565b610ce483611174565b9460005b848110610d07575050505050610cfe9293611cb3565b92905092909190565b80610d3c610d17600193856111a6565b51610d37610d2584896111a6565b51610d3085896111a6565b51926134c7565b6139a6565b610d46828a6111a6565b5201610ce8565b90610d56611562565b602082018051610d6e906001600160a01b031661186f565b6000610d82610d7d83516100dd565b6118a9565b608084015115610e3157610d9960408501516100dd565b610dae610da960608701516100dd565b6100dd565b6001600160a01b0390911614610e225750610dd7610dcf610df492516100dd565b610ca06119a8565b610de181856122bc565b90610ded8183876123c4565b9185612455565b909150929192909351610e0681610e63565b610e0f81610e63565b610e1a575081929190565b918093509190565b63a54b181d60e01b8152600490fd5b6357a456b760e01b8152600490fd5b516001600160a01b031690565b634e487b7160e01b600052602160045260246000fd5b60021115610e6d57565b610e4d565b919091610eeb600080610eb17f0000000000000000000000000000000000000000000000000000000000000000948554159788610f5f575b36916103e7565b60208151910182335af13d15610f57573d90610ecc826103cc565b91610eda60405193846102fb565b82523d6000602084013e5b336144df565b92610ef35750565b7f000000000000000000000000000000000000000000000000000000000000000054610f46576000905561010a7f00000000000000000000000000000000000000000000000000000000000000006128ac565b6320f1d86d60e01b60005260046000fd5b606090610ee5565b60018755610eaa565b61104890610f74611562565b8051610f88906001600160a01b031661186f565b8051610f9c906001600160a01b03166118a9565b7f00000000000000000000000000000000000000000000000000000000000000005460018060a01b03825116906000527f0000000000000000000000000000000000000000000000000000000000000000602052604060002090600052602052600160406000205561101661101182516100dd565b611a60565b90611042602083015151611031604084019182515190611adf565b5160c084015160a0850151916128bd565b916129c7565b929390929150565b906020825491828152019160005260206000209060005b8181106110745750505090565b82546001600160a01b0316845260209093019260019283019201611067565b634e487b7160e01b600052603260045260246000fd5b805490600160401b8210156102a557600182018082558210156110ef576000908152602090200180546001600160a01b0319166001600160a01b03909216919091179055565b611093565b5161043981610e63565b61110782610e63565b52565b9080519061111782610e63565b61112082610e63565b825460208201516040909201516001600160b01b031990911660ff939093169290921760089190911b610100600160a81b03161790151560a81b60ff60a81b16179055565b90600052602052604060002090565b9061117e8261034b565b61118b60405191826102fb565b828152809261119c601f199161034b565b0190602036910137565b80518210156110ef5760209160051b010190565b919060206111d260019260408652604086019061043c565b930152565b919060206111d260009260408652604086019061043c565b906040820190815151611201906100dd565b9182845161120e906100dd565b61121790610b7e565b90611221916110a9565b805160400161122f906110f4565b9051606081015161123f906100dd565b60809091015115159061125061033c565b9261125b90846110fe565b6001600160a01b031660208301521515604082015282845161127c906100dd565b6001600160a01b031660009081526003602052604090209061129d91610c00565b906112a79161110a565b82516112b2906100dd565b6112bb90610b7e565b546112c590610c3c565b9182606085018051806112d791612e5f565b8287516112e3906100dd565b6112ec90610b98565b906112f691611165565b558551611302906100dd565b61130b90612ea6565b908280602084019283515161131f81611174565b915161132b84846111a6565b52815161133791611adf565b8160c086015160a087015161134c91846128bd565b945190611358916111a6565b61136190610e40565b61136b83836111a6565b5161137591612ded565b8951611380906100dd565b61138990610b98565b91611393916111a6565b5161139e83856111a6565b516113a891612e5f565b916113b291611165565b5586516113be906100dd565b6113c790612eee565b926113d1916111a6565b6000905285516113e0906100dd565b6113e9906100dd565b6113f2906100dd565b906080015190604051808093631309bd3d60e31b82526004820190611416916111ba565b03815a93602094fa918215610216576114579261143b92600091611496575b50610c4b565b946114518661144a83516100dd565b3390612f09565b516100dd565b6040518481526001600160a01b039283169291909116907f1091d4a99254d724c6d54afd397a48d2249d02b4ff799c8aa8d6dbfcc7749f4890602090a3565b6114af915060203d60201161020f5761020181836102fb565b38611435565b637911c44b60e11b60005260046000fd5b346114b557366000803760008036817f00000000000000000000000000000000000000000000000000000000000000006001600160a01b03165af43d6000803e15611510573d6000f35b3d6000fd5b6000805160206145fa8339815191525461153d5760016000805160206145fa83398151915255565b633ee5aeb560e01b60005260046000fd5b60006000805160206145fa83398151915255565b7f0000000000000000000000000000000000000000000000000000000000000000541561158b57565b63604dd39b60e11b60005260046000fd5b906115a690612fdd565b90600160ff1b82146109415761010a9160000390613002565b6001600160a01b0316600452602452604452606490565b929190916115e58284866130e6565b600181016115f5575b5050505050565b808211611716576001600160a01b0384169391900391908315611702576001600160a01b0382169485156116ea578361164d84611648856116488660018060a01b03166000526010602052604060002090565b610c00565b556001600160a01b031692833b156100fa578060007fa0175360a15bca328baf7ea85c7b784d58b222a50d0ce760b10dba336d226a61946116c2946116a66040519485938493630ad0fe5760e31b855260048501611739565b038183895af16116cf575b506040519081529081906020820190565b0390a438808080806115ee565b806116de60006116e4936102fb565b80610946565b386116b1565b634a1406b160e11b6000526116fe83610951565b6000fd5b63e602df0560e01b6000526116fe90610951565b82637dc7a0d960e11b60005260018060a01b031660045260245260445260646000fd5b6001600160a01b03918216815291166020820152604081019190915260600190565b919290916001600160a01b03831690811561185b576001600160a01b0385169081156118475761178e8561164883610bb2565b54808511611830578490036117a68661164884610bb2565b556117b48661164883610bb2565b8054850190556040518481526001600160a01b0391909116929083906000805160206145da83398151915290602090a4803b156100fa576118109360008094604051968795869485936323de665160e01b855260048501611739565b03925af18015610216576118215750565b806116de600061010a936102fb565b63391434e360e21b6000526116fe908590876115bf565b63ec442f0560e01b6000526116fe86610951565b634b637e8f60e11b6000526116fe84610951565b6001600160a01b0316600081815260208190526040902054600190811c16156118955750565b634bdace1360e01b60005260045260246000fd5b63ffffffff7f0000000000000000000000000000000000000000000000000000000000000000164211158061199a575b611989576001600160a01b03811660009081526020819052604090205460018160ff6119036135a9565b161c169061190f6145d1565b9060288201809211610941578261193e575b505061192a5750565b63d971f59760e01b6000526116fe90610951565b61197f92509063ffffffff611976927f0000000000000000000000000000000000000000000000000000000000000000921c166145b7565b63ffffffff1690565b4211153880611921565b6336a7e2cd60e21b60005260046000fd5b506001600754811c166118d9565b604051906119b5826102c5565b606060c0836000815282602082015282604082015282808201528260808201528260a08201520152565b90611a4b906119ec611515565b6001600160a01b03811660008181526005602090815260408083208383528184205460038452828520600290945291909320611a2e93600193919290896131d8565b6000526005602052611a44604060002091610bcc565b90836133a1565b9060006000805160206145fa83398151915255565b611aca611a6b6119a8565b91611a4460406000611a7b611515565b60018060a01b0384168082526005602052611abc8284812083825281602052858220548483526003602052868320908584526002602052878420928c6131d8565b815260056020522091610bcc565b60006000805160206145fa8339815191525590565b03611ae657565b63aaad13f760e01b60005260046000fd5b60405190611b04826102e0565b60006040838281528260208201520152565b60041115610e6d57565b9080601f830112156100fa578151611b378161034b565b92611b4560405194856102fb565b81845260208085019260051b8201019283116100fa57602001905b828210611b6d5750505090565b8151815260209182019101611b60565b81601f820112156100fa578051611b93816103cc565b92611ba160405194856102fb565b818452602082840101116100fa576104399160208085019101610470565b906080828203126100fa57815160208301519093906001600160401b0381116100fa5782611bee918501611b20565b60408401519093906001600160401b0381116100fa5783611c10918301611b20565b60608201519093906001600160401b0381116100fa576104399201611b7d565b93906104399593611c6d93611c5f9260018060a01b03168752602087015260a0604087015260a086019061043c565b90848203606086015261043c565b916080818403910152610493565b9190820180921161094157565b91611ca5906104399492845260606020850152606084019061043c565b91604081840391015261043c565b909291611cbe611515565b60006060611cca611af7565b916020850196611cde885151808652611174565b9460808201928351611cef81611b16565b611cf881611b16565b6120c1575050604081015194611d0e8551611174565b93611d308760808a0151611d2a611d2587516100dd565b612eee565b90613956565b90611d9e7f000000000000000000000000000000000000000000000000000000000000000054611d6086516100dd565b907f00000000000000000000000000000000000000000000000000000000000000009060005260205260406000209060005260205260406000205490565b61203a575b60408401518089116120215750611dbc889a979a6139c9565b60009660208b0198606086019660608c01995b8d51811015611f0857808f888f611de6848b6111a6565b5190611df1826139c9565b611dfb85846111a6565b51611eed5792611e4592611e3d611e35879487611e2e8760a0611e258260c0611e4a9e01516111a6565b519301516111a6565b51916139da565b9687926111a6565b525b516111a6565b610e40565b611e55838c516111a6565b518210611ecc578e838f8f908f868f85611ec095611eba94611e3d83611ea960019f9e8e611ec69f8f9099611e8e8694611eb19c61159c565b611ea3611e9b858a6111a6565b5191516100dd565b91613a0e565b8a52926111a6565b51925190611c7b565b90610c4b565b91613af3565b01611dcf565b90611edb6116fe938c516111a6565b516317bc2f2360e11b600052916115bf565b505082611f01611e4a9394611e45936111a6565b5193611e3f565b5096509750975097909850611f2b919950939193611f2685516100dd565b613be9565b7ffbe5b0d79fb94f1e81c0a92bf86ae9d3a19e9d1bf6202c0d3e75120f65d5d8a588611f5785516100dd565b93611f72876020880196611f6b88516100dd565b33916115d6565b611f7a613c3e565b611ffe575b611f9d87611f8d88516100dd565b611f9788516100dd565b90613c97565b611fed611fc6611d25611fba611fb38a516100dd565b98516100dd565b9351986114518a611b16565b94611fd088611b16565b6040516001600160a01b0393841697909316959293849384611c88565b0390a4611ff861154e565b93929190565b61201c8761200c88516100dd565b61201688516100dd565b90613c53565b611f7f565b6331d38e0b60e01b600052600489905260245260446000fd5b9894979390999591969261204e85516135f5565b9760005b84518110156120af57808d6120a8826120a28f8f966120919161208160019961207b848a6111a6565b516139a6565b61208b83836111a6565b526111a6565b5161209c83866111a6565b51610c4b565b926111a6565b5201612052565b5092969a919498959990939750611da3565b60018497929597516120d281611b16565b6120db81611b16565b0361215157506120eb8751613502565b60408201519584906121006060850151613535565b61214b61214160408a019280845260808d0151908d8d61212d612126611d258d516100dd565b92516135f5565b9261213b610da98d516100dd565b9461385b565b90925190986111a6565b52611da3565b6002845161215e81611b16565b61216781611b16565b036121ee57506121778751613502565b6121e684606084019061219b61218d8351613535565b60408a0193818552516111a6565b516121a78351866111a6565b526121b960808b0151925180926111a6565b516121c7611d2587516100dd565b906121d28c516135f5565b926121e0610da989516100dd565b94613625565b949096611da3565b9550600383516121fd81611b16565b61220681611b16565b036122ad5761221587516134da565b85612226610da9610da985516100dd565b60408481015160808b015160a08701519251632ada38a360e21b81529889949385938793859361225b93923360048701611c30565b03925af18015610216578690879588809261227c575b505096949096611da3565b92509295505061229f9296503d8091833e61229781836102fb565b810190611bbf565b909691949192903880612271565b63137a9a3960e01b8652600486fd5b919061237b604051916122ce8361028a565b6000835260208301946000865260408401906000825260608501946000865280976123256020860161230e815160018060a01b0360408801511690612dff565b84525160608501516001600160a01b031690612dff565b8152825161233281610e63565b61233b81610e63565b61237f575060806123729201519061236b61235c60c08701518351906111a6565b519160a08701519051906111a6565b5191613e6e565b905b52516135f5565b9052565b9050610d3760806123be930151916123b86123b26123a360c08901518451906111a6565b519260a08901519051906111a6565b51613e4a565b926134c7565b90612374565b919091606060c06040516123d7816102c5565b600081526000602082015282604082015260008382015260006080820152600060a0820152015280519261240a84610e63565b6080604082015193015160c0602083519301519301519361243361242c61032d565b96876110fe565b60208601526040850152606084015260808301523360a083015260c082015290565b919390612460611515565b60009461246b611af7565b93805161247781610e63565b61248081610e63565b156127d7575b602086016124948151613d92565b8760206124cb818501996124ae610da9610da98d516100dd565b90604051948580948193633964c0c360e11b8352600483016127ff565b03925af198891561021657986127b6575b50876124e781613d92565b82516124f281610e63565b6124fb81610e63565b61273857506040840151905261253b60c08301516125346123b261252560208801938451906111a6565b519260a08701519051906111a6565b90896139da565b9260808201519584969760a084015180871061271f57505b6040840193898551612564906100dd565b9061256e91612ded565b6060019488865161257e906100dd565b906125889161159c565b82518251612595906100dd565b86516125a0906100dd565b8651916125ad9385613a0e565b9060208501946040019182528452845160608301918c828451906125d0916111a6565b51906125db91611c7b565b90516125e691610c4b565b6125f09184613af3565b602085019182518b81845190612605916111a6565b519061261091610c4b565b61261a9183613af3565b8351612625906100dd565b61262e90610b98565b918051875161263c916111a6565b5191608001918251885161264f916111a6565b5161265991612e5f565b87516126659085611165565b55518351612672916111a6565b5190518351612680916111a6565b5161268a91612e5f565b915161269591611165565b55516126a0906100dd565b92516126ab906100dd565b93516126b6906100dd565b6060928301519151604080518b8152602081018b905290810193909352928201929092526001600160a01b0391821693821692909116907f0874b2d545cb271cdbda4e093020c452328b24af12382ed62c4d00f5c26709db90608090a49392919061010a61154e565b63e2ea151b60e01b600052600487905260245260446000fd5b905061276e919750612765606085015161275e81670de0b6b3a764000081810391100290565b9083613e15565b90818752611c7b565b9561279b61278260c08401518551906111a6565b5161279360a08501518651906111a6565b519089613e36565b92608082015195849760a084015180871161271f5750612553565b6127d091985060203d60201161020f5761020181836102fb565b96386124dc565b602086016127f86127ee82516060870151906139a6565b8088528251610c4b565b9052612486565b91909160208152610100810190835161281781610e63565b60208201526020840151604082015260408401519160e0606083015282518091526020610120830193019060005b8181106128965750505060c0846060610439959601516080840152608081015160a084015261288260a08201518385019060018060a01b03169052565b01519060e0601f1982850301910152610493565b8251855260209485019490920191600101612845565b805490600182018092116109415755565b91908251916128d0825182519085613484565b6128d983611174565b9360005b8481106128ec57505050505090565b80670de0b6b3a7640000612923612905600194866111a6565b5161291e612913858a6111a6565b51610d30868a6111a6565b6134c7565b0461292e82896111a6565b52016128dd565b60051115610e6d57565b906080828203126100fa5781516001600160401b0381116100fa5781612966918401611b20565b92602083015192604081015160018060401b0381116100fa5783611c10918301611b20565b936129b4611c6d9361043997959360018060a01b0316875260a0602088015260a087019061043c565b916040860152848203606086015261043c565b90926129d1611515565b60006060936129de611af7565b9160208501966129f2885151808652611174565b9260808201928351612a0381612935565b612a0c81612935565b612c01575050606081015192612a228551611174565b93612a3f8160808a0151612a39611d2587516100dd565b9061420c565b905b6060840151808210612be75750612a5a819a979a6139c9565b60009660208b0198604086019660608c01995b8d51811015612b5757808f888f612a84848b6111a6565b5190612a8f826139c9565b612a9985846111a6565b51612b435792611e4592611e3d611e35879487612ac38760a0611e258260c0612aca9e01516111a6565b5191613e36565b612ad5838c516111a6565b518211612b22578e838f8f908f868f85611ec095612b1494611e3d83611ea960019f9e8e612b1c9f8f9099611e8e8694612b0e9c612ded565b51611c7b565b905190610c4b565b01612a6d565b90612b316116fe938c516111a6565b516323b6a17960e21b600052916115bf565b505082611f01612aca9394611e45936111a6565b509650985098919a509850612b75919550939193611f2685516100dd565b7fa26a52d8d53702bba7f137907b8e1f99ff87f6d450144270ca25e72481cca87184612ba185516100dd565b93612bbb8a6020880196612bb588516100dd565b90612f09565b611fed612bdd611d25612bd1611fb38a516100dd565b9351986114518a612935565b94611fd088612935565b638d261d5d60e01b60005260049190915260245260446000fd5b60038495929551612c1181612935565b612c1a81612935565b03612c3c5750612c2a87516141e1565b612c348451611174565b936000612a41565b60018451612c4981612935565b612c5281612935565b03612cac5750612c628751613502565b612ca584612c74836040860151613fa3565b608089015190612c87611d2586516100dd565b612c918b516135f5565b91612c9f610da988516100dd565b93613fdd565b9490612a41565b60028451612cb981612935565b612cc281612935565b03612d225750612cd28751613502565b6060820151612ce085613535565b9060408701828152612d1c612141889460808d0151908d86612d08612126611d258d516100dd565b92612d16610da98d516100dd565b94613ebb565b52612a41565b975060048351612d3181612935565b612d3a81612935565b03612dde57612d498751613e89565b87612d5a610da9610da985516100dd565b60608401519060808a0151918360a087015198612d8e6040519a8b968795869463e4c4366360e01b8652336004870161298b565b03925af1801561021657889089958a8092612dad575b50509894612a41565b925092955050612dd09298503d8091833e612dc881836102fb565b81019061293f565b909891949192903880612da4565b636c02b39560e01b8852600488fd5b612df961010a92612fdd565b90613002565b9060005b8251811015612e3d576001600160a01b03612e1e82856111a6565b51166001600160a01b03831614612e3757600101612e03565b91505090565b5063ddef98d760e01b60009081526001600160a01b0391909116600452602490fd5b906001600160801b0382118015612e96575b612e855760801b9081018091116109415790565b6389560ca160e01b60005260046000fd5b506001600160801b038111612e71565b9061010a6001612eb46119a8565b60a082901b8290039094166000908152600560209081526040808320838352818420546003845282852060029094529190932092876131d8565b6001600160a01b031660009081526011602052604090205490565b6001600160a01b03821692908315612fc957612f2e82612f2883610be6565b54611c7b565b612f3b8461164884610bb2565b838154019055612f4a8161424e565b612f5382610be6565b5560018060a01b0316926000846000805160206145da83398151915260405180612f8287829190602083019252565b0390a4823b156100fa576040516323de665160e01b81526000600482018190526001600160a01b039093166024820152604481019190915291829081838160648101611810565b63ec442f0560e01b6000526116fe83610951565b6001600160ff1b038111612fee5790565b63123baf0360e11b60005260045260246000fd5b9080156130e2577f00000000000000000000000000000000000000000000000000000000000000009160018060a01b038116600052826020526040600020548281019283126000821290801582169115161761094157826130ab57507f000000000000000000000000000000000000000000000000000000000000000092835460001981019081116109415761010a94555b9060018060a01b0316600052602052604060002055565b9261010a93613094576130dd7f00000000000000000000000000000000000000000000000000000000000000006128ac565b613094565b5050565b9091906001600160a01b03808416908316036131055750505060001990565b6001600160a01b031660009081526010602052604090206131299261164891610c00565b5490565b9061010a6131419260405193848092611050565b03836102fb565b906131528261034b565b61315f60405191826102fb565b8281528092613170601f199161034b565b019060005b82811061318157505050565b60209061318c611af7565b82828501015201613175565b906040516131a5816102e0565b604060ff8294548181166131b881610e63565b8452600881901c6001600160a01b0316602085015260a81c161515910152565b9194929084549583526131ee602084019561312d565b85526131f986613148565b946040840195865261320a87611174565b926060850193845261321b88611174565b608086015261322b88865161426f565b60c086015261323988611174565b9060a0860191825261324f8651600190811c1690565b928361338d575b8361337a575b60005b8a8110613273575050505050505050505050565b808a61329661329161328b611e4560019688516111a6565b87610c00565b613198565b6132b2836132a4818c611165565b5493518361208b83836111a6565b506132bc81614345565b6132c78489516111a6565b526132dd8c6001600160801b038416858e613b40565b871561337357604081015115159081613356575b506132ff575b505b0161325f565b8a61332c8a848d61332661331e836133178451614301565b95516111a6565b519660801c90565b906143e0565b918261333a575b50506132f7565b61334e9261334791610c4b565b838c613b40565b388a81613333565b8491505161336381610e63565b61336c81610e63565b14386132f1565b50506132f9565b9250613386865161432e565b159261325c565b92506133998651614301565b151592613256565b606081018051519360005b8581106133bb57505050505050565b806133cf611e4560019360208801516111a6565b6133e96133dc8389611165565b546001600160801b031690565b6133f48387516111a6565b518111613433575b505061342261340c8286516111a6565b5161341b8360808901516111a6565b5190612e5f565b61342c8288611165565b55016133ac565b61347561347c9161346f6134478589610c00565b54916134696134568460801c90565b91613462898d516111a6565b5190610c4b565b90611c7b565b90614434565b9185610c00565b5538806133fc565b81148015929190613498575b5050611ae657565b141590503880613490565b90670de0b6b3a7640000820291808304670de0b6b3a7640000149015171561094157565b8181029291811591840414171561094157565b60019060ff6134e76135b3565b161c16156134f157565b63033c2a5760e61b60005260046000fd5b60019060ff61351b61351661351685613597565b613597565b161c1661352457565b63353d5de760e21b60005260046000fd5b805190819060005b8281106135615750508110156135505790565b631f91af7760e21b60005260046000fd5b61356b81836111a6565b51613579575b60010161353d565b9282036135865782613571565b636b8c3be560e01b60005260046000fd5b60ff60019116019060ff821161094157565b6104396001613597565b6104396135166135166135166135166001613597565b6104396135166135166135166135166135166135166135166135166135166135166135166135166135b3565b62ffffff9060ff6136046135c9565b161c1664174876e80081029080820464174876e80014901517156109415790565b909493929181519461363686611174565b9160005b87811061381257506136509061209c89856111a6565b61365a88846111a6565b52604051631309bd3d60e31b8152946001600160a01b03821692906020878061368688600483016111d7565b0381875afa968715610216576000976137f1575b50604051631309bd3d60e31b815290602082806136ba86600483016111d7565b0381885afa9586156102165761372a6137178c6134626137106020996137098f6137309861376a9f6136fd8893613704926137359f6000916137d2575b50613dcb565b8095614447565b6111a6565b51906139a6565b91886111a6565b92670de0b6b3a764000081810391100290565b82613dcb565b610c4b565b926137448461209c8b856111a6565b61374e8a846111a6565b526040518080968194631309bd3d60e31b8352600483016111ba565b03915afa908115610216576137a6956137a0936000936137a9575b5061379261379991611174565b97886111a6565b5283610c4b565b90613e15565b91565b6137999193506137ca6137929160203d60201161020f5761020181836102fb565b939150613785565b60206137eb92503d60201161020f5761020181836102fb565b386136f7565b61380b91975060203d60201161020f5761020181836102fb565b953861369a565b80613828613822600193886111a6565b51610c3c565b61383282876111a6565b520161363a565b6138516040929594939560608352606083019061043c565b9460208201520152565b90949183039183831161094157602061389f916138788686613dcb565b906138838282614447565b604051808095819462b5059f60e51b83528c8960048501613839565b03916001600160a01b03165afa8015610216576137a695610d37886138f3936138fc9861390396600092613909575b506138e18261209c61373094958b6111a6565b986138ec8d8a6111a6565b5190613e15565b93849251611174565b95866111a6565b52610c4b565b613730925061209c9361392d6138e19260203d60201161020f5761020181836102fb565b935093506138ce565b8115613940570490565b634e487b7160e01b600052601260045260246000fd5b92916139628451611174565b9360005b81518110156139a0578061398f8561398a86613984600196886111a6565b516134c7565b613936565b61399982896111a6565b5201613966565b50505050565b906139b0916134c7565b6001670de0b6b3a7640000600019830104019015150290565b806139d15750565b61010a90613d92565b916139e4916134c7565b670de0b6b3a7640000820291808304670de0b6b3a764000014901517156109415761043991613936565b919492909460009560009581613a25575050505050565b849750611e2e613a3e8260c0613a4a96979801516111a6565b519160a08a01516111a6565b94613a55815161432e565b15613a62575b80806115ee565b62ffffff9192945051613a736142d2565b1c1664174876e80081029080820464174876e800149015171561094157613a9a90856144be565b92848411613ae25780611648613ad3613ab9613ad99461164887610bcc565b54613acd886001600160801b038316611c7b565b906144d1565b93610bcc565b55388080613a5b565b634c69ac5d60e01b60005260046000fd5b919081613b048260608601516111a6565b526080670de0b6b3a7640000613b376111079461291e613b288660c08a01516111a6565b51610d308760a08b01516111a6565b049301516111a6565b9282613b508360608701516111a6565b52613b5a81610e63565b613be1576002915b613b708260c08601516111a6565b51613b7f8360a08701516111a6565b519380600114613bc257600214613ba657634e487b7160e01b600052605160045260246000fd5b61110793610d37613bb9926080946134c7565b935b01516111a6565b5061110793613bd6613bdb926080946134c7565b6144be565b93613bbb565b600191613b62565b6001600160a01b03166000908152600560205260408120919291905b60608401518051821015613c375790613c2361340c826001946111a6565b816000528360205260406000205501613c05565b5050509050565b321580613c485790565b506001600754161590565b9032613c8657613c779160018060a01b0316600052600f6020526040600020610c00565b80549182018092116109415755565b6333fc255960e11b60005260046000fd5b90916001600160a01b03831691821561185b57613cb78461164883610bb2565b54808311613d7b57829003613ccf8561164884610bb2565b55613ce382613cdd83610be6565b54610c4b565b613cec8161424e565b613cf582610be6565b556001600160a01b031690813b156100fa576040516323de665160e01b81526001600160a01b0394909416600485015260006024850181905260448501829052936000805160206145da83398151915291613d6891868160648183895af1613d6d57506040519081529081906020820190565b0390a4565b806116de886116e4936102fb565b63391434e360e21b6000526116fe908390866115bf565b7f000000000000000000000000000000000000000000000000000000000000000011613dba57565b6303da9a2360e31b60005260046000fd5b908015613e0457670de0b6b3a7640000820291808304670de0b6b3a7640000149015171561094157600190600019830104019015150290565b630a0c22c760e01b60005260046000fd5b8215613e0457600191613e27916134c7565b91600019830104019015150290565b9061043992613e44916134c7565b90613dcb565b670de0b6b3a7640000808204028103613e605790565b600181018091116109415790565b9161291e613e8592670de0b6b3a7640000946134c7565b0490565b60019060ff613ea061351661351661351686613597565b161c1615613eaa57565b63121db02f60e21b60005260046000fd5b90946020613ecd85613eff9695611c7b565b91613ed88584613dcb565b90613ee38282614540565b604051808098819462b5059f60e51b83528c8960048501613839565b03916001600160a01b03165afa938415610216576137a69561373061372a613717866138fc998c99613f66988b6138f399600094613f6c575b5090613f5f613f58613f5161398a94611eba97986111a6565b5187610c4b565b9d8d6111a6565b51906134c7565b52611c7b565b611eba9450613f58613f5161398a9493613f97613f5f9460203d60201161020f5761020181836102fb565b97509394505050613f38565b6020815191613fb3845184611adf565b8180820194019260051b0101915b828110613fcd57505050565b8051825260209182019101613fc1565b919290938251613fec81611174565b92613ff682611174565b9660005b8381106141a6575050604051631309bd3d60e31b8152946001600160a01b03841693906020878061402e84600483016111d7565b0381885afa96871561021657600097614185575b50604051631309bd3d60e31b8152602081806140618a600483016111ba565b0381895afa908115610216578861398a61408e9361408793600091614166575b506134a3565b8093614540565b60005b8481106140e95750505050506140bf916020916040518080958194631309bd3d60e31b8352600483016111ba565b03915afa928315610216576140e3836137a69561398a946000916114965750610c4b565b906134c7565b806141006140f9600193856111a6565b51856144be565b858161410c848c6111a6565b511161411b575b505001614091565b61413091614129848c6111a6565b51036139a6565b61413a828d6111a6565b526141548b6134628361414d818d6111a6565b51926111a6565b61415e828a6111a6565b523885614113565b61417f915060203d60201161020f5761020181836102fb565b38614081565b61419f91975060203d60201161020f5761020181836102fb565b9538614042565b806141d06141cb6141b96001948b6111a6565b516141c484876111a6565b5190611c7b565b610c3c565b6141da82896111a6565b5201613ffa565b60019060ff6141f16135166135b3565b161c16156141fb57565b63efe0265d60e01b60005260046000fd5b92916142188451611174565b9360005b81518110156139a0578061423d8585614237600195876111a6565b51613e15565b61424782896111a6565b520161421c565b620f4240811061425b5750565b6334e3483f60e21b60005260045260246000fd5b9064ffffffffff61427f82611174565b926142886145d1565b1c1660005b82811061429a5750505090565b60058102818104600514821517156109415782601f911c1690604d821161094157600191600a0a6142cb82876111a6565b520161428d565b60ff6142dc6135c9565b16601881018091116109415790565b6142f36142d2565b601881018091116109415790565b62ffffff9061430e6142eb565b1c1664174876e80081029080820464174876e80014901517156109415790565b60019060ff61433f61351684613597565b161c1690565b805161435081610e63565b61435981610e63565b8061436c575050670de0b6b3a764000090565b80614378600192610e63565b036143cf576020614390610da98260049401516100dd565b6040516333cd77e760e11b815292839182905afa908115610216576000916143b6575090565b610439915060203d60201161020f5761020181836102fb565b636fa2831960e11b60005260046000fd5b9093926000946143f48460808501516111a6565b51818111614403575050505050565b6144299596509161441891611e2e93036139a6565b9260a0611e258260c08601516111a6565b9038808080806115ee565b61043991906001600160801b0316612e5f565b604051635b3bfd2b60e11b81529190602090839060049082906001600160a01b03165afa9182156102165760009261449d575b50818110614486575050565b63718e4adf60e11b60005260045260245260446000fd5b6144b791925060203d60201161020f5761020181836102fb565b903861447a565b670de0b6b3a764000091613e85916134c7565b906104399160801c90612e5f565b9061450557508051156144f457805190602001fd5b63d6bda27560e01b60005260046000fd5b81511580614537575b614516575090565b639996b31560e01b60009081526001600160a01b0391909116600452602490fd5b50803b1561450e565b60405163273c1adf60e01b81529190602090839060049082906001600160a01b03165afa91821561021657600092614596575b5081811161457f575050565b630fa2583760e21b60005260045260245260446000fd5b6145b091925060203d60201161020f5761020181836102fb565b9038614573565b9063ffffffff8091169116019063ffffffff821161094157565b6142f36142eb56fed1398bee19313d6bf672ccb116e51f4a1a947e91c757907f51fbb5b5e56c698f9b779b17422d0df92223018b32b4d1fa46e071723d6817e2486d003becc55f00a26469706673582212205ac054010e25e1ca5326223c1d3564711d1d8a725c35d26741485f2de7753cbb64736f6c634300081a0033",
  "linkReferences": {},
  "deployedLinkReferences": {}
}