{
  "_format": "hh-sol-artifact-1",
  "contractName": "Vault",
  "sourceName": "contracts/_Vault.sol",
  "abi": [
    {
      "inputs": [
        {
          "internalType": "contract IVaultExtension",
          "name": "vaultExtension",
          "type": "address"
        },
        {
          "internalType": "contract IAuthorizer",
          "name": "authorizer",
          "type": "address"
        },
        {
          "internalType": "contract IProtocolFeeController",
          "name": "protocolFeeController",
          "type": "address"
        }
      ],
      "stateMutability": "nonpayable",
      "type": "constructor"
    },
    {
      "inputs": [
        {
          "internalType": "address",
          "name": "target",
          "type": "address"
        }
      ],
      "name": "AddressEmptyCode",
      "type": "error"
    },
    {
      "inputs": [],
      "name": "AfterAddLiquidityHookFailed",
      "type": "error"
    },
    {
      "inputs": [],
      "name": "AfterInitializeHookFailed",
      "type": "error"
    },
    {
      "inputs": [],
      "name": "AfterRemoveLiquidityHookFailed",
      "type": "error"
    },
    {
      "inputs": [],
      "name": "AfterSwapHookFailed",
      "type": "error"
    },
    {
      "inputs": [],
      "name": "AllZeroInputs",
      "type": "error"
    },
    {
      "inputs": [],
      "name": "AmountGivenZero",
      "type": "error"
    },
    {
      "inputs": [
        {
          "internalType": "contract IERC20",
          "name": "tokenIn",
          "type": "address"
        },
        {
          "internalType": "uint256",
          "name": "amountIn",
          "type": "uint256"
        },
        {
          "internalType": "uint256",
          "name": "maxAmountIn",
          "type": "uint256"
        }
      ],
      "name": "AmountInAboveMax",
      "type": "error"
    },
    {
      "inputs": [
        {
          "internalType": "contract IERC20",
          "name": "tokenOut",
          "type": "address"
        },
        {
          "internalType": "uint256",
          "name": "amountOut",
          "type": "uint256"
        },
        {
          "internalType": "uint256",
          "name": "minAmountOut",
          "type": "uint256"
        }
      ],
      "name": "AmountOutBelowMin",
      "type": "error"
    },
    {
      "inputs": [],
      "name": "BalanceNotSettled",
      "type": "error"
    },
    {
      "inputs": [],
      "name": "BalanceOverflow",
      "type": "error"
    },
    {
      "inputs": [],
      "name": "BeforeAddLiquidityHookFailed",
      "type": "error"
    },
    {
      "inputs": [],
      "name": "BeforeInitializeHookFailed",
      "type": "error"
    },
    {
      "inputs": [],
      "name": "BeforeRemoveLiquidityHookFailed",
      "type": "error"
    },
    {
      "inputs": [],
      "name": "BeforeSwapHookFailed",
      "type": "error"
    },
    {
      "inputs": [
        {
          "internalType": "uint256",
          "name": "amountIn",
          "type": "uint256"
        },
        {
          "internalType": "uint256",
          "name": "maxAmountIn",
          "type": "uint256"
        }
      ],
      "name": "BptAmountInAboveMax",
      "type": "error"
    },
    {
      "inputs": [
        {
          "internalType": "uint256",
          "name": "amountOut",
          "type": "uint256"
        },
        {
          "internalType": "uint256",
          "name": "minAmountOut",
          "type": "uint256"
        }
      ],
      "name": "BptAmountOutBelowMin",
      "type": "error"
    },
    {
      "inputs": [
        {
          "internalType": "contract IERC4626",
          "name": "wrappedToken",
          "type": "address"
        }
      ],
      "name": "BufferAlreadyInitialized",
      "type": "error"
    },
    {
      "inputs": [
        {
          "internalType": "contract IERC4626",
          "name": "wrappedToken",
          "type": "address"
        }
      ],
      "name": "BufferNotInitialized",
      "type": "error"
    },
    {
      "inputs": [],
      "name": "BufferSharesInvalidOwner",
      "type": "error"
    },
    {
      "inputs": [],
      "name": "BufferSharesInvalidReceiver",
      "type": "error"
    },
    {
      "inputs": [
        {
          "internalType": "uint256",
          "name": "totalSupply",
          "type": "uint256"
        }
      ],
      "name": "BufferTotalSupplyTooLow",
      "type": "error"
    },
    {
      "inputs": [],
      "name": "CannotReceiveEth",
      "type": "error"
    },
    {
      "inputs": [],
      "name": "CannotSwapSameToken",
      "type": "error"
    },
    {
      "inputs": [],
      "name": "DoesNotSupportAddLiquidityCustom",
      "type": "error"
    },
    {
      "inputs": [],
      "name": "DoesNotSupportDonation",
      "type": "error"
    },
    {
      "inputs": [],
      "name": "DoesNotSupportRemoveLiquidityCustom",
      "type": "error"
    },
    {
      "inputs": [],
      "name": "DoesNotSupportUnbalancedLiquidity",
      "type": "error"
    },
    {
      "inputs": [],
      "name": "DynamicSwapFeeHookFailed",
      "type": "error"
    },
    {
      "inputs": [
        {
          "internalType": "address",
          "name": "spender",
          "type": "address"
        },
        {
          "internalType": "uint256",
          "name": "allowance",
          "type": "uint256"
        },
        {
          "internalType": "uint256",
          "name": "needed",
          "type": "uint256"
        }
      ],
      "name": "ERC20InsufficientAllowance",
      "type": "error"
    },
    {
      "inputs": [
        {
          "internalType": "address",
          "name": "sender",
          "type": "address"
        },
        {
          "internalType": "uint256",
          "name": "balance",
          "type": "uint256"
        },
        {
          "internalType": "uint256",
          "name": "needed",
          "type": "uint256"
        }
      ],
      "name": "ERC20InsufficientBalance",
      "type": "error"
    },
    {
      "inputs": [
        {
          "internalType": "address",
          "name": "approver",
          "type": "address"
        }
      ],
      "name": "ERC20InvalidApprover",
      "type": "error"
    },
    {
      "inputs": [
        {
          "internalType": "address",
          "name": "receiver",
          "type": "address"
        }
      ],
      "name": "ERC20InvalidReceiver",
      "type": "error"
    },
    {
      "inputs": [
        {
          "internalType": "address",
          "name": "sender",
          "type": "address"
        }
      ],
      "name": "ERC20InvalidSender",
      "type": "error"
    },
    {
      "inputs": [
        {
          "internalType": "address",
          "name": "spender",
          "type": "address"
        }
      ],
      "name": "ERC20InvalidSpender",
      "type": "error"
    },
    {
      "inputs": [],
      "name": "FailedCall",
      "type": "error"
    },
    {
      "inputs": [],
      "name": "FeePrecisionTooHigh",
      "type": "error"
    },
    {
      "inputs": [
        {
          "internalType": "contract IERC20",
          "name": "tokenIn",
          "type": "address"
        },
        {
          "internalType": "uint256",
          "name": "amountIn",
          "type": "uint256"
        },
        {
          "internalType": "uint256",
          "name": "maxAmountIn",
          "type": "uint256"
        }
      ],
      "name": "HookAdjustedAmountInAboveMax",
      "type": "error"
    },
    {
      "inputs": [
        {
          "internalType": "contract IERC20",
          "name": "tokenOut",
          "type": "address"
        },
        {
          "internalType": "uint256",
          "name": "amountOut",
          "type": "uint256"
        },
        {
          "internalType": "uint256",
          "name": "minAmountOut",
          "type": "uint256"
        }
      ],
      "name": "HookAdjustedAmountOutBelowMin",
      "type": "error"
    },
    {
      "inputs": [
        {
          "internalType": "uint256",
          "name": "amount",
          "type": "uint256"
        },
        {
          "internalType": "uint256",
          "name": "limit",
          "type": "uint256"
        }
      ],
      "name": "HookAdjustedSwapLimit",
      "type": "error"
    },
    {
      "inputs": [
        {
          "internalType": "address",
          "name": "poolHooksContract",
          "type": "address"
        },
        {
          "internalType": "address",
          "name": "pool",
          "type": "address"
        },
        {
          "internalType": "address",
          "name": "poolFactory",
          "type": "address"
        }
      ],
      "name": "HookRegistrationFailed",
      "type": "error"
    },
    {
      "inputs": [],
      "name": "InputLengthMismatch",
      "type": "error"
    },
    {
      "inputs": [
        {
          "internalType": "uint256",
          "name": "balance",
          "type": "uint256"
        },
        {
          "internalType": "uint256",
          "name": "needed",
          "type": "uint256"
        }
      ],
      "name": "InsufficientBalance",
      "type": "error"
    },
    {
      "inputs": [],
      "name": "InvalidAddLiquidityKind",
      "type": "error"
    },
    {
      "inputs": [],
      "name": "InvalidRemoveLiquidityKind",
      "type": "error"
    },
    {
      "inputs": [],
      "name": "InvalidToken",
      "type": "error"
    },
    {
      "inputs": [],
      "name": "InvalidTokenConfiguration",
      "type": "error"
    },
    {
      "inputs": [],
      "name": "InvalidTokenDecimals",
      "type": "error"
    },
    {
      "inputs": [],
      "name": "InvalidTokenType",
      "type": "error"
    },
    {
      "inputs": [
        {
          "internalType": "contract IERC4626",
          "name": "wrappedToken",
          "type": "address"
        }
      ],
      "name": "InvalidUnderlyingToken",
      "type": "error"
    },
    {
      "inputs": [
        {
          "internalType": "uint256",
          "name": "invariantRatio",
          "type": "uint256"
        },
        {
          "internalType": "uint256",
          "name": "maxInvariantRatio",
          "type": "uint256"
        }
      ],
      "name": "InvariantRatioAboveMax",
      "type": "error"
    },
    {
      "inputs": [
        {
          "internalType": "uint256",
          "name": "invariantRatio",
          "type": "uint256"
        },
        {
          "internalType": "uint256",
          "name": "minInvariantRatio",
          "type": "uint256"
        }
      ],
      "name": "InvariantRatioBelowMin",
      "type": "error"
    },
    {
      "inputs": [
        {
          "internalType": "uint256",
          "name": "issuedShares",
          "type": "uint256"
        },
        {
          "internalType": "uint256",
          "name": "minIssuedShares",
          "type": "uint256"
        }
      ],
      "name": "IssuedSharesBelowMin",
      "type": "error"
    },
    {
      "inputs": [],
      "name": "MaxTokens",
      "type": "error"
    },
    {
      "inputs": [],
      "name": "MinTokens",
      "type": "error"
    },
    {
      "inputs": [],
      "name": "MultipleNonZeroInputs",
      "type": "error"
    },
    {
      "inputs": [],
      "name": "NotEnoughBufferShares",
      "type": "error"
    },
    {
      "inputs": [
        {
          "internalType": "contract IERC4626",
          "name": "wrappedToken",
          "type": "address"
        },
        {
          "internalType": "uint256",
          "name": "expectedUnderlyingAmount",
          "type": "uint256"
        },
        {
          "internalType": "uint256",
          "name": "actualUnderlyingAmount",
          "type": "uint256"
        }
      ],
      "name": "NotEnoughUnderlying",
      "type": "error"
    },
    {
      "inputs": [
        {
          "internalType": "contract IERC4626",
          "name": "wrappedToken",
          "type": "address"
        },
        {
          "internalType": "uint256",
          "name": "expectedWrappedAmount",
          "type": "uint256"
        },
        {
          "internalType": "uint256",
          "name": "actualWrappedAmount",
          "type": "uint256"
        }
      ],
      "name": "NotEnoughWrapped",
      "type": "error"
    },
    {
      "inputs": [],
      "name": "NotStaticCall",
      "type": "error"
    },
    {
      "inputs": [],
      "name": "NotVaultDelegateCall",
      "type": "error"
    },
    {
      "inputs": [],
      "name": "PauseBufferPeriodDurationTooLarge",
      "type": "error"
    },
    {
      "inputs": [],
      "name": "PercentageAboveMax",
      "type": "error"
    },
    {
      "inputs": [
        {
          "internalType": "address",
          "name": "pool",
          "type": "address"
        }
      ],
      "name": "PoolAlreadyInitialized",
      "type": "error"
    },
    {
      "inputs": [
        {
          "internalType": "address",
          "name": "pool",
          "type": "address"
        }
      ],
      "name": "PoolAlreadyRegistered",
      "type": "error"
    },
    {
      "inputs": [
        {
          "internalType": "address",
          "name": "pool",
          "type": "address"
        }
      ],
      "name": "PoolInRecoveryMode",
      "type": "error"
    },
    {
      "inputs": [
        {
          "internalType": "address",
          "name": "pool",
          "type": "address"
        }
      ],
      "name": "PoolNotInRecoveryMode",
      "type": "error"
    },
    {
      "inputs": [
        {
          "internalType": "address",
          "name": "pool",
          "type": "address"
        }
      ],
      "name": "PoolNotInitialized",
      "type": "error"
    },
    {
      "inputs": [
        {
          "internalType": "address",
          "name": "pool",
          "type": "address"
        }
      ],
      "name": "PoolNotPaused",
      "type": "error"
    },
    {
      "inputs": [
        {
          "internalType": "address",
          "name": "pool",
          "type": "address"
        }
      ],
      "name": "PoolNotRegistered",
      "type": "error"
    },
    {
      "inputs": [
        {
          "internalType": "address",
          "name": "pool",
          "type": "address"
        }
      ],
      "name": "PoolPauseWindowExpired",
      "type": "error"
    },
    {
      "inputs": [
        {
          "internalType": "address",
          "name": "pool",
          "type": "address"
        }
      ],
      "name": "PoolPaused",
      "type": "error"
    },
    {
      "inputs": [
        {
          "internalType": "uint256",
          "name": "totalSupply",
          "type": "uint256"
        }
      ],
      "name": "PoolTotalSupplyTooLow",
      "type": "error"
    },
    {
      "inputs": [],
      "name": "ProtocolFeesExceedTotalCollected",
      "type": "error"
    },
    {
      "inputs": [],
      "name": "QueriesDisabled",
      "type": "error"
    },
    {
      "inputs": [],
      "name": "QueriesDisabledPermanently",
      "type": "error"
    },
    {
      "inputs": [],
      "name": "QuoteResultSpoofed",
      "type": "error"
    },
    {
      "inputs": [],
      "name": "ReentrancyGuardReentrantCall",
      "type": "error"
    },
    {
      "inputs": [],
      "name": "RouterNotTrusted",
      "type": "error"
    },
    {
      "inputs": [
        {
          "internalType": "uint256",
          "name": "value",
          "type": "uint256"
        }
      ],
      "name": "SafeCastOverflowedUintToInt",
      "type": "error"
    },
    {
      "inputs": [
        {
          "internalType": "address",
          "name": "token",
          "type": "address"
        }
      ],
      "name": "SafeERC20FailedOperation",
      "type": "error"
    },
    {
      "inputs": [
        {
          "internalType": "address",
          "name": "sender",
          "type": "address"
        }
      ],
      "name": "SenderIsNotVault",
      "type": "error"
    },
    {
      "inputs": [],
      "name": "SwapFeePercentageTooHigh",
      "type": "error"
    },
    {
      "inputs": [],
      "name": "SwapFeePercentageTooLow",
      "type": "error"
    },
    {
      "inputs": [
        {
          "internalType": "uint256",
          "name": "amount",
          "type": "uint256"
        },
        {
          "internalType": "uint256",
          "name": "limit",
          "type": "uint256"
        }
      ],
      "name": "SwapLimit",
      "type": "error"
    },
    {
      "inputs": [
        {
          "internalType": "contract IERC20",
          "name": "token",
          "type": "address"
        }
      ],
      "name": "TokenAlreadyRegistered",
      "type": "error"
    },
    {
      "inputs": [
        {
          "internalType": "contract IERC20",
          "name": "token",
          "type": "address"
        }
      ],
      "name": "TokenNotRegistered",
      "type": "error"
    },
    {
      "inputs": [
        {
          "internalType": "address",
          "name": "pool",
          "type": "address"
        },
        {
          "internalType": "address",
          "name": "expectedToken",
          "type": "address"
        },
        {
          "internalType": "address",
          "name": "actualToken",
          "type": "address"
        }
      ],
      "name": "TokensMismatch",
      "type": "error"
    },
    {
      "inputs": [],
      "name": "TradeAmountTooSmall",
      "type": "error"
    },
    {
      "inputs": [],
      "name": "VaultBuffersArePaused",
      "type": "error"
    },
    {
      "inputs": [],
      "name": "VaultIsNotUnlocked",
      "type": "error"
    },
    {
      "inputs": [],
      "name": "VaultNotPaused",
      "type": "error"
    },
    {
      "inputs": [],
      "name": "VaultPauseWindowDurationTooLarge",
      "type": "error"
    },
    {
      "inputs": [],
      "name": "VaultPauseWindowExpired",
      "type": "error"
    },
    {
      "inputs": [],
      "name": "VaultPaused",
      "type": "error"
    },
    {
      "inputs": [
        {
          "internalType": "contract IERC4626",
          "name": "wrappedToken",
          "type": "address"
        }
      ],
      "name": "WrapAmountTooSmall",
      "type": "error"
    },
    {
      "inputs": [],
      "name": "WrongProtocolFeeControllerDeployment",
      "type": "error"
    },
    {
      "inputs": [
        {
          "internalType": "contract IERC4626",
          "name": "wrappedToken",
          "type": "address"
        },
        {
          "internalType": "address",
          "name": "underlyingToken",
          "type": "address"
        }
      ],
      "name": "WrongUnderlyingToken",
      "type": "error"
    },
    {
      "inputs": [],
      "name": "WrongVaultAdminDeployment",
      "type": "error"
    },
    {
      "inputs": [],
      "name": "WrongVaultExtensionDeployment",
      "type": "error"
    },
    {
      "inputs": [],
      "name": "ZeroDivision",
      "type": "error"
    },
    {
      "anonymous": false,
      "inputs": [
        {
          "indexed": true,
          "internalType": "address",
          "name": "pool",
          "type": "address"
        },
        {
          "indexed": false,
          "internalType": "uint256",
          "name": "aggregateSwapFeePercentage",
          "type": "uint256"
        }
      ],
      "name": "AggregateSwapFeePercentageChanged",
      "type": "event"
    },
    {
      "anonymous": false,
      "inputs": [
        {
          "indexed": true,
          "internalType": "address",
          "name": "pool",
          "type": "address"
        },
        {
          "indexed": false,
          "internalType": "uint256",
          "name": "aggregateYieldFeePercentage",
          "type": "uint256"
        }
      ],
      "name": "AggregateYieldFeePercentageChanged",
      "type": "event"
    },
    {
      "anonymous": false,
      "inputs": [
        {
          "indexed": true,
          "internalType": "address",
          "name": "pool",
          "type": "address"
        },
        {
          "indexed": true,
          "internalType": "address",
          "name": "owner",
          "type": "address"
        },
        {
          "indexed": true,
          "internalType": "address",
          "name": "spender",
          "type": "address"
        },
        {
          "indexed": false,
          "internalType": "uint256",
          "name": "value",
          "type": "uint256"
        }
      ],
      "name": "Approval",
      "type": "event"
    },
    {
      "anonymous": false,
      "inputs": [
        {
          "indexed": true,
          "internalType": "contract IAuthorizer",
          "name": "newAuthorizer",
          "type": "address"
        }
      ],
      "name": "AuthorizerChanged",
      "type": "event"
    },
    {
      "anonymous": false,
      "inputs": [
        {
          "indexed": true,
          "internalType": "contract IERC4626",
          "name": "wrappedToken",
          "type": "address"
        },
        {
          "indexed": true,
          "internalType": "address",
          "name": "from",
          "type": "address"
        },
        {
          "indexed": false,
          "internalType": "uint256",
          "name": "burnedShares",
          "type": "uint256"
        }
      ],
      "name": "BufferSharesBurned",
      "type": "event"
    },
    {
      "anonymous": false,
      "inputs": [
        {
          "indexed": true,
          "internalType": "contract IERC4626",
          "name": "wrappedToken",
          "type": "address"
        },
        {
          "indexed": true,
          "internalType": "address",
          "name": "to",
          "type": "address"
        },
        {
          "indexed": false,
          "internalType": "uint256",
          "name": "issuedShares",
          "type": "uint256"
        }
      ],
      "name": "BufferSharesMinted",
      "type": "event"
    },
    {
      "anonymous": false,
      "inputs": [
        {
          "indexed": true,
          "internalType": "address",
          "name": "pool",
          "type": "address"
        },
        {
          "indexed": true,
          "internalType": "address",
          "name": "liquidityProvider",
          "type": "address"
        },
        {
          "indexed": true,
          "internalType": "enum AddLiquidityKind",
          "name": "kind",
          "type": "uint8"
        },
        {
          "indexed": false,
          "internalType": "uint256",
          "name": "totalSupply",
          "type": "uint256"
        },
        {
          "indexed": false,
          "internalType": "uint256[]",
          "name": "amountsAddedRaw",
          "type": "uint256[]"
        },
        {
          "indexed": false,
          "internalType": "uint256[]",
          "name": "swapFeeAmountsRaw",
          "type": "uint256[]"
        }
      ],
      "name": "LiquidityAdded",
      "type": "event"
    },
    {
      "anonymous": false,
      "inputs": [
        {
          "indexed": true,
          "internalType": "contract IERC4626",
          "name": "wrappedToken",
          "type": "address"
        },
        {
          "indexed": false,
          "internalType": "uint256",
          "name": "amountUnderlying",
          "type": "uint256"
        },
        {
          "indexed": false,
          "internalType": "uint256",
          "name": "amountWrapped",
          "type": "uint256"
        },
        {
          "indexed": false,
          "internalType": "bytes32",
          "name": "bufferBalances",
          "type": "bytes32"
        }
      ],
      "name": "LiquidityAddedToBuffer",
      "type": "event"
    },
    {
      "anonymous": false,
      "inputs": [
        {
          "indexed": true,
          "internalType": "address",
          "name": "pool",
          "type": "address"
        },
        {
          "indexed": true,
          "internalType": "address",
          "name": "liquidityProvider",
          "type": "address"
        },
        {
          "indexed": true,
          "internalType": "enum RemoveLiquidityKind",
          "name": "kind",
          "type": "uint8"
        },
        {
          "indexed": false,
          "internalType": "uint256",
          "name": "totalSupply",
          "type": "uint256"
        },
        {
          "indexed": false,
          "internalType": "uint256[]",
          "name": "amountsRemovedRaw",
          "type": "uint256[]"
        },
        {
          "indexed": false,
          "internalType": "uint256[]",
          "name": "swapFeeAmountsRaw",
          "type": "uint256[]"
        }
      ],
      "name": "LiquidityRemoved",
      "type": "event"
    },
    {
      "anonymous": false,
      "inputs": [
        {
          "indexed": true,
          "internalType": "contract IERC4626",
          "name": "wrappedToken",
          "type": "address"
        },
        {
          "indexed": false,
          "internalType": "uint256",
          "name": "amountUnderlying",
          "type": "uint256"
        },
        {
          "indexed": false,
          "internalType": "uint256",
          "name": "amountWrapped",
          "type": "uint256"
        },
        {
          "indexed": false,
          "internalType": "bytes32",
          "name": "bufferBalances",
          "type": "bytes32"
        }
      ],
      "name": "LiquidityRemovedFromBuffer",
      "type": "event"
    },
    {
      "anonymous": false,
      "inputs": [
        {
          "indexed": true,
          "internalType": "address",
          "name": "pool",
          "type": "address"
        },
        {
          "indexed": true,
          "internalType": "address",
          "name": "token",
          "type": "address"
        },
        {
          "indexed": false,
          "internalType": "uint256",
          "name": "tokenIndex",
          "type": "uint256"
        }
      ],
      "name": "NewTokenAdded",
      "type": "event"
    },
    {
      "anonymous": false,
      "inputs": [
        {
          "indexed": true,
          "internalType": "address",
          "name": "pool",
          "type": "address"
        }
      ],
      "name": "PoolInitialized",
      "type": "event"
    },
    {
      "anonymous": false,
      "inputs": [
        {
          "indexed": true,
          "internalType": "address",
          "name": "pool",
          "type": "address"
        },
        {
          "indexed": false,
          "internalType": "bool",
          "name": "paused",
          "type": "bool"
        }
      ],
      "name": "PoolPausedStateChanged",
      "type": "event"
    },
    {
      "anonymous": false,
      "inputs": [
        {
          "indexed": true,
          "internalType": "address",
          "name": "pool",
          "type": "address"
        },
        {
          "indexed": false,
          "internalType": "bool",
          "name": "recoveryMode",
          "type": "bool"
        }
      ],
      "name": "PoolRecoveryModeStateChanged",
      "type": "event"
    },
    {
      "anonymous": false,
      "inputs": [
        {
          "indexed": true,
          "internalType": "address",
          "name": "pool",
          "type": "address"
        },
        {
          "indexed": true,
          "internalType": "address",
          "name": "factory",
          "type": "address"
        },
        {
          "components": [
            {
              "internalType": "contract IERC20",
              "name": "token",
              "type": "address"
            },
            {
              "internalType": "enum TokenType",
              "name": "tokenType",
              "type": "uint8"
            },
            {
              "internalType": "contract IRateProvider",
              "name": "rateProvider",
              "type": "address"
            },
            {
              "internalType": "bool",
              "name": "paysYieldFees",
              "type": "bool"
            }
          ],
          "indexed": false,
          "internalType": "struct TokenConfig[]",
          "name": "tokenConfig",
          "type": "tuple[]"
        },
        {
          "indexed": false,
          "internalType": "uint256",
          "name": "swapFeePercentage",
          "type": "uint256"
        },
        {
          "indexed": false,
          "internalType": "uint32",
          "name": "pauseWindowEndTime",
          "type": "uint32"
        },
        {
          "components": [
            {
              "internalType": "address",
              "name": "pauseManager",
              "type": "address"
            },
            {
              "internalType": "address",
              "name": "swapFeeManager",
              "type": "address"
            },
            {
              "internalType": "address",
              "name": "poolCreator",
              "type": "address"
            }
          ],
          "indexed": false,
          "internalType": "struct PoolRoleAccounts",
          "name": "roleAccounts",
          "type": "tuple"
        },
        {
          "components": [
            {
              "internalType": "bool",
              "name": "enableHookAdjustedAmounts",
              "type": "bool"
            },
            {
              "internalType": "bool",
              "name": "shouldCallBeforeInitialize",
              "type": "bool"
            },
            {
              "internalType": "bool",
              "name": "shouldCallAfterInitialize",
              "type": "bool"
            },
            {
              "internalType": "bool",
              "name": "shouldCallComputeDynamicSwapFee",
              "type": "bool"
            },
            {
              "internalType": "bool",
              "name": "shouldCallBeforeSwap",
              "type": "bool"
            },
            {
              "internalType": "bool",
              "name": "shouldCallAfterSwap",
              "type": "bool"
            },
            {
              "internalType": "bool",
              "name": "shouldCallBeforeAddLiquidity",
              "type": "bool"
            },
            {
              "internalType": "bool",
              "name": "shouldCallAfterAddLiquidity",
              "type": "bool"
            },
            {
              "internalType": "bool",
              "name": "shouldCallBeforeRemoveLiquidity",
              "type": "bool"
            },
            {
              "internalType": "bool",
              "name": "shouldCallAfterRemoveLiquidity",
              "type": "bool"
            },
            {
              "internalType": "address",
              "name": "hooksContract",
              "type": "address"
            }
          ],
          "indexed": false,
          "internalType": "struct HooksConfig",
          "name": "hooksConfig",
          "type": "tuple"
        },
        {
          "components": [
            {
              "internalType": "bool",
              "name": "disableUnbalancedLiquidity",
              "type": "bool"
            },
            {
              "internalType": "bool",
              "name": "enableAddLiquidityCustom",
              "type": "bool"
            },
            {
              "internalType": "bool",
              "name": "enableRemoveLiquidityCustom",
              "type": "bool"
            },
            {
              "internalType": "bool",
              "name": "enableDonation",
              "type": "bool"
            }
          ],
          "indexed": false,
          "internalType": "struct LiquidityManagement",
          "name": "liquidityManagement",
          "type": "tuple"
        }
      ],
      "name": "PoolRegistered",
      "type": "event"
    },
    {
      "anonymous": false,
      "inputs": [
        {
          "indexed": true,
          "internalType": "contract IProtocolFeeController",
          "name": "newProtocolFeeController",
          "type": "address"
        }
      ],
      "name": "ProtocolFeeControllerChanged",
      "type": "event"
    },
    {
      "anonymous": false,
      "inputs": [
        {
          "indexed": true,
          "internalType": "address",
          "name": "pool",
          "type": "address"
        },
        {
          "indexed": true,
          "internalType": "contract IERC20",
          "name": "tokenIn",
          "type": "address"
        },
        {
          "indexed": true,
          "internalType": "contract IERC20",
          "name": "tokenOut",
          "type": "address"
        },
        {
          "indexed": false,
          "internalType": "uint256",
          "name": "amountIn",
          "type": "uint256"
        },
        {
          "indexed": false,
          "internalType": "uint256",
          "name": "amountOut",
          "type": "uint256"
        },
        {
          "indexed": false,
          "internalType": "uint256",
          "name": "swapFeePercentage",
          "type": "uint256"
        },
        {
          "indexed": false,
          "internalType": "uint256",
          "name": "swapFeeAmount",
          "type": "uint256"
        }
      ],
      "name": "Swap",
      "type": "event"
    },
    {
      "anonymous": false,
      "inputs": [
        {
          "indexed": true,
          "internalType": "address",
          "name": "pool",
          "type": "address"
        },
        {
          "indexed": false,
          "internalType": "uint256",
          "name": "swapFeePercentage",
          "type": "uint256"
        }
      ],
      "name": "SwapFeePercentageChanged",
      "type": "event"
    },
    {
      "anonymous": false,
      "inputs": [
        {
          "indexed": true,
          "internalType": "address",
          "name": "pool",
          "type": "address"
        },
        {
          "indexed": true,
          "internalType": "address",
          "name": "from",
          "type": "address"
        },
        {
          "indexed": true,
          "internalType": "address",
          "name": "to",
          "type": "address"
        },
        {
          "indexed": false,
          "internalType": "uint256",
          "name": "value",
          "type": "uint256"
        }
      ],
      "name": "Transfer",
      "type": "event"
    },
    {
      "anonymous": false,
      "inputs": [
        {
          "indexed": true,
          "internalType": "contract IERC4626",
          "name": "wrappedToken",
          "type": "address"
        },
        {
          "indexed": false,
          "internalType": "uint256",
          "name": "burnedShares",
          "type": "uint256"
        },
        {
          "indexed": false,
          "internalType": "uint256",
          "name": "withdrawnUnderlying",
          "type": "uint256"
        },
        {
          "indexed": false,
          "internalType": "bytes32",
          "name": "bufferBalances",
          "type": "bytes32"
        }
      ],
      "name": "Unwrap",
      "type": "event"
    },
    {
      "anonymous": false,
      "inputs": [
        {
          "indexed": true,
          "internalType": "address",
          "name": "pool",
          "type": "address"
        },
        {
          "indexed": true,
          "internalType": "bytes32",
          "name": "eventKey",
          "type": "bytes32"
        },
        {
          "indexed": false,
          "internalType": "bytes",
          "name": "eventData",
          "type": "bytes"
        }
      ],
      "name": "VaultAuxiliary",
      "type": "event"
    },
    {
      "anonymous": false,
      "inputs": [
        {
          "indexed": false,
          "internalType": "bool",
          "name": "paused",
          "type": "bool"
        }
      ],
      "name": "VaultBuffersPausedStateChanged",
      "type": "event"
    },
    {
      "anonymous": false,
      "inputs": [
        {
          "indexed": false,
          "internalType": "bool",
          "name": "paused",
          "type": "bool"
        }
      ],
      "name": "VaultPausedStateChanged",
      "type": "event"
    },
    {
      "anonymous": false,
      "inputs": [],
      "name": "VaultQueriesDisabled",
      "type": "event"
    },
    {
      "anonymous": false,
      "inputs": [],
      "name": "VaultQueriesEnabled",
      "type": "event"
    },
    {
      "anonymous": false,
      "inputs": [
        {
          "indexed": true,
          "internalType": "contract IERC4626",
          "name": "wrappedToken",
          "type": "address"
        },
        {
          "indexed": false,
          "internalType": "uint256",
          "name": "depositedUnderlying",
          "type": "uint256"
        },
        {
          "indexed": false,
          "internalType": "uint256",
          "name": "mintedShares",
          "type": "uint256"
        },
        {
          "indexed": false,
          "internalType": "bytes32",
          "name": "bufferBalances",
          "type": "bytes32"
        }
      ],
      "name": "Wrap",
      "type": "event"
    },
    {
      "stateMutability": "payable",
      "type": "fallback"
    },
    {
      "inputs": [
        {
          "components": [
            {
              "internalType": "address",
              "name": "pool",
              "type": "address"
            },
            {
              "internalType": "address",
              "name": "to",
              "type": "address"
            },
            {
              "internalType": "uint256[]",
              "name": "maxAmountsIn",
              "type": "uint256[]"
            },
            {
              "internalType": "uint256",
              "name": "minBptAmountOut",
              "type": "uint256"
            },
            {
              "internalType": "enum AddLiquidityKind",
              "name": "kind",
              "type": "uint8"
            },
            {
              "internalType": "bytes",
              "name": "userData",
              "type": "bytes"
            }
          ],
          "internalType": "struct AddLiquidityParams",
          "name": "params",
          "type": "tuple"
        }
      ],
      "name": "addLiquidity",
      "outputs": [
        {
          "internalType": "uint256[]",
          "name": "amountsIn",
          "type": "uint256[]"
        },
        {
          "internalType": "uint256",
          "name": "bptAmountOut",
          "type": "uint256"
        },
        {
          "internalType": "bytes",
          "name": "returnData",
          "type": "bytes"
        }
      ],
      "stateMutability": "nonpayable",
      "type": "function"
    },
    {
      "inputs": [
        {
          "internalType": "address",
          "name": "pool",
          "type": "address"
        },
        {
          "components": [
            {
              "internalType": "contract IERC20",
              "name": "token",
              "type": "address"
            },
            {
              "internalType": "enum TokenType",
              "name": "tokenType",
              "type": "uint8"
            },
            {
              "internalType": "contract IRateProvider",
              "name": "rateProvider",
              "type": "address"
            },
            {
              "internalType": "bool",
              "name": "paysYieldFees",
              "type": "bool"
            }
          ],
          "internalType": "struct TokenConfig",
          "name": "tokenConfig",
          "type": "tuple"
        },
        {
          "internalType": "uint256",
          "name": "initialAmount",
          "type": "uint256"
        }
      ],
      "name": "addNewToken",
      "outputs": [
        {
          "internalType": "uint256",
          "name": "tokenIndex",
          "type": "uint256"
        },
        {
          "internalType": "uint256",
          "name": "bptAmountOut",
          "type": "uint256"
        }
      ],
      "stateMutability": "nonpayable",
      "type": "function"
    },
    {
      "inputs": [
        {
          "internalType": "address",
          "name": "pool",
          "type": "address"
        },
        {
          "internalType": "contract IERC20",
          "name": "token",
          "type": "address"
        }
      ],
      "name": "getPoolTokenCountAndIndexOfToken",
      "outputs": [
        {
          "internalType": "uint256",
          "name": "",
          "type": "uint256"
        },
        {
          "internalType": "uint256",
          "name": "",
          "type": "uint256"
        }
      ],
      "stateMutability": "view",
      "type": "function"
    },
    {
      "inputs": [],
      "name": "getVaultExtension",
      "outputs": [
        {
          "internalType": "address",
          "name": "",
          "type": "address"
        }
      ],
      "stateMutability": "view",
      "type": "function"
    },
    {
      "inputs": [],
      "name": "reentrancyGuardEntered",
      "outputs": [
        {
          "internalType": "bool",
          "name": "",
          "type": "bool"
        }
      ],
      "stateMutability": "view",
      "type": "function"
    },
    {
      "inputs": [
        {
          "components": [
            {
              "internalType": "address",
              "name": "pool",
              "type": "address"
            },
            {
              "internalType": "address",
              "name": "from",
              "type": "address"
            },
            {
              "internalType": "uint256",
              "name": "maxBptAmountIn",
              "type": "uint256"
            },
            {
              "internalType": "uint256[]",
              "name": "minAmountsOut",
              "type": "uint256[]"
            },
            {
              "internalType": "enum RemoveLiquidityKind",
              "name": "kind",
              "type": "uint8"
            },
            {
              "internalType": "bytes",
              "name": "userData",
              "type": "bytes"
            }
          ],
          "internalType": "struct RemoveLiquidityParams",
          "name": "params",
          "type": "tuple"
        }
      ],
      "name": "removeLiquidity",
      "outputs": [
        {
          "internalType": "uint256",
          "name": "bptAmountIn",
          "type": "uint256"
        },
        {
          "internalType": "uint256[]",
          "name": "amountsOut",
          "type": "uint256[]"
        },
        {
          "internalType": "bytes",
          "name": "returnData",
          "type": "bytes"
        }
      ],
      "stateMutability": "nonpayable",
      "type": "function"
    },
    {
      "inputs": [
        {
          "internalType": "contract IERC20",
          "name": "token",
          "type": "address"
        },
        {
          "internalType": "address",
          "name": "to",
          "type": "address"
        },
        {
          "internalType": "uint256",
          "name": "amount",
          "type": "uint256"
        }
      ],
      "name": "sendTo",
      "outputs": [],
      "stateMutability": "nonpayable",
      "type": "function"
    },
    {
      "inputs": [
        {
          "internalType": "contract IERC20",
          "name": "token",
          "type": "address"
        },
        {
          "internalType": "uint256",
          "name": "amountHint",
          "type": "uint256"
        }
      ],
      "name": "settle",
      "outputs": [
        {
          "internalType": "uint256",
          "name": "credit",
          "type": "uint256"
        }
      ],
      "stateMutability": "nonpayable",
      "type": "function"
    },
    {
      "inputs": [
        {
          "components": [
            {
              "internalType": "enum SwapKind",
              "name": "kind",
              "type": "uint8"
            },
            {
              "internalType": "address",
              "name": "pool",
              "type": "address"
            },
            {
              "internalType": "contract IERC20",
              "name": "tokenIn",
              "type": "address"
            },
            {
              "internalType": "contract IERC20",
              "name": "tokenOut",
              "type": "address"
            },
            {
              "internalType": "uint256",
              "name": "amountGivenRaw",
              "type": "uint256"
            },
            {
              "internalType": "uint256",
              "name": "limitRaw",
              "type": "uint256"
            },
            {
              "internalType": "bytes",
              "name": "userData",
              "type": "bytes"
            }
          ],
          "internalType": "struct VaultSwapParams",
          "name": "vaultSwapParams",
          "type": "tuple"
        }
      ],
      "name": "swap",
      "outputs": [
        {
          "internalType": "uint256",
          "name": "amountCalculated",
          "type": "uint256"
        },
        {
          "internalType": "uint256",
          "name": "amountIn",
          "type": "uint256"
        },
        {
          "internalType": "uint256",
          "name": "amountOut",
          "type": "uint256"
        }
      ],
      "stateMutability": "nonpayable",
      "type": "function"
    },
    {
      "inputs": [
        {
          "internalType": "address",
          "name": "owner",
          "type": "address"
        },
        {
          "internalType": "address",
          "name": "to",
          "type": "address"
        },
        {
          "internalType": "uint256",
          "name": "amount",
          "type": "uint256"
        }
      ],
      "name": "transfer",
      "outputs": [
        {
          "internalType": "bool",
          "name": "",
          "type": "bool"
        }
      ],
      "stateMutability": "nonpayable",
      "type": "function"
    },
    {
      "inputs": [
        {
          "internalType": "address",
          "name": "spender",
          "type": "address"
        },
        {
          "internalType": "address",
          "name": "from",
          "type": "address"
        },
        {
          "internalType": "address",
          "name": "to",
          "type": "address"
        },
        {
          "internalType": "uint256",
          "name": "amount",
          "type": "uint256"
        }
      ],
      "name": "transferFrom",
      "outputs": [
        {
          "internalType": "bool",
          "name": "",
          "type": "bool"
        }
      ],
      "stateMutability": "nonpayable",
      "type": "function"
    },
    {
      "inputs": [
        {
          "internalType": "bytes",
          "name": "data",
          "type": "bytes"
        }
      ],
      "name": "unlock",
      "outputs": [
        {
          "internalType": "bytes",
          "name": "result",
          "type": "bytes"
        }
      ],
      "stateMutability": "nonpayable",
      "type": "function"
    },
    {
      "stateMutability": "payable",
      "type": "receive"
    }
  ],
  "bytecode": "0x6101e080604052346103b057606081614d1e803803809161002082856104d3565b8339810103126103b05780516001600160a01b038116908181036103b0576020830151926001600160a01b03841684036103b057604001516001600160a01b03811691908290036103b05761009860405161007c6040826104d3565b600a8152691a5cd55b9b1bd8dad95960b21b6020820152610545565b60c0526100cf6040516100ac6040826104d3565b60118152701b9bdb96995c9bd1195b1d1850dbdd5b9d607a1b6020820152610545565b60e0526101006040516100e36040826104d3565b600b81526a746f6b656e44656c74617360a81b6020820152610545565b610100526101396040516101156040826104d3565b6012815271185919131a5c5d5a591a5d1e50d85b1b195960721b6020820152610545565b6101205261016960405161014e6040826104d3565b60098152681cd95cdcda5bdb925960ba1b6020820152610545565b6101405260405163fbfa77cf60e01b8152602081600481875afa9081156103bc575f916104b4575b50306001600160a01b03909116036104a55760405163fbfa77cf60e01b8152602081600481865afa9081156103bc575f91610476575b50306001600160a01b0390911603610467576101c052600980546001600160a01b031916919091179055604051634546891d60e11b8152602081600481855afa9081156103bc575f91610448575b5061016052604051631060fdbd60e11b8152602081600481855afa9081156103bc575f91610429575b506101a05260405163cd51c12f60e01b8152602081600481855afa9081156103bc575f916103fa575b5061018052604051630716585d60e51b8152602081600481855afa9081156103bc575f916103c7575b506080526040516329cab55160e11b815290602090829060049082905afa9081156103bc575f91610386575b5060a05260088054610100600160a81b03191691811b610100600160a81b03169190911790556040516146fe9081610620823960805181613ea8015260a05181505060c05181818161129b01526118f2015260e05181818161130f015281816134400152613485015261010051816133ee01526101205181818161140e015261202501526101405181818161133b015281816113e10152611ff80152610160518150506101805181611bda01526101a05181611c7701526101c051818181610985015261150e0152f35b90506020813d6020116103b4575b816103a1602093836104d3565b810103126103b057515f6102bc565b5f80fd5b3d9150610394565b6040513d5f823e3d90fd5b90506020813d6020116103f2575b816103e2602093836104d3565b810103126103b057516004610290565b3d91506103d5565b61041c915060203d602011610422575b61041481836104d3565b810190610529565b5f610267565b503d61040a565b610442915060203d6020116104225761041481836104d3565b5f61023e565b610461915060203d6020116104225761041481836104d3565b5f610215565b631bbe95c760e01b5f5260045ffd5b610498915060203d60201161049e575b61049081836104d3565b81019061050a565b5f6101c7565b503d610486565b6301ab9d9d60e41b5f5260045ffd5b6104cd915060203d60201161049e5761049081836104d3565b5f610191565b601f909101601f19168101906001600160401b038211908210176104f657604052565b634e487b7160e01b5f52604160045260245ffd5b908160209103126103b057516001600160a01b03811681036103b05790565b908160209103126103b0575163ffffffff811681036103b05790565b604051906105546040836104d3565b600c82526105d86001602084016b5661756c7453746f7261676560a01b815260396020604051958693828501987f62616c616e6365722d6c6162732e76332e73746f726167652e000000000000008a525180918587015e840190601760f91b84830152805192839101603a83015e01015f838201520301601f1981018352826104d3565b5190205f19810190811161060b576040519060208201908152602082526106006040836104d3565b9051902060ff191690565b634e487b7160e01b5f52601160045260245ffdfe60806040526004361015610018575b366114ff576114f0565b5f3560e01c8063081ecf58146100d757806315afd409146100d257806315dacbea146100cd57806321457897146100c85780632bfb780c146100c357806348c89491146100be5780634af29ec4146100b9578063ae639329146100b4578063b9a8effa146100af578063beabacc8146100aa578063c9c1661b146100a55763d2c725e00361000e57610a86565b6109ea565b6109b4565b610970565b61089a565b6107bc565b61071d565b61062d565b61054f565b610384565b61027a565b6101d9565b6001600160a01b031690565b6001600160a01b038116036100f957565b5f80fd5b3590610108826100e8565b565b634e487b7160e01b5f52604160045260245ffd5b608081019081106001600160401b0382111761013957604052565b61010a565b60e081019081106001600160401b0382111761013957604052565b606081019081106001600160401b0382111761013957604052565b601f909101601f19168101906001600160401b0382119082101761013957604052565b6040519061010860c083610174565b6040519061010860e083610174565b60405190610108606083610174565b600211156100f957565b3590610108826101c4565b346100f95760c03660031901126100f9576004356101f6816100e8565b60803660231901126100f9576040519061020f8261011e565b60243561021b816100e8565b8252604435610229816101c4565b602083015260643561023a816100e8565b60408301526084359182151583036100f95761026492606082015261025e60a43590565b91610de4565b60408051928352602083019190915290f35b0390f35b346100f95760403660031901126100f957600435610297816100e8565b6024356102a26118a9565b6102aa6118f0565b6001600160a01b0382165f818152600760209081526040918290205491516370a0823160e01b8152306004820152919492829060249082905afa93841561037f576102769461031a925f91610350575b506001600160a01b0384165f908152600760205260409020819055610c4d565b91808311610346575b508161032e91611928565b6103366118de565b6040519081529081906020820190565b915061032e610323565b610372915060203d602011610378575b61036a8183610174565b810190610d04565b5f6102fa565b503d610360565b610d47565b346100f95760803660031901126100f9576103d26004356103a4816100e8565b6024356103b0816100e8565b604435906103bd826100e8565b6103cc60643580948333611961565b33611aad565b602060405160018152f35b6001600160401b0381116101395760051b60200190565b9080601f830112156100f957813561040b816103dd565b926104196040519485610174565b81845260208085019260051b8201019283116100f957602001905b8282106104415750505090565b8135815260209182019101610434565b359060048210156100f957565b6001600160401b03811161013957601f01601f191660200190565b9291926104858261045e565b916104936040519384610174565b8294818452818301116100f9578281602093845f960137010152565b9080601f830112156100f9578160206104ca93359101610479565b90565b90602080835192838152019201905f5b8181106104ea5750505090565b82518452602093840193909201916001016104dd565b805180835260209291819084018484015e5f828201840152601f01601f1916010190565b91610541906104ca949284526060602085015260608401906104cd565b916040818403910152610500565b346100f95760203660031901126100f9576004356001600160401b0381116100f95760c060031982360301126100f957610587610197565b90610594816004016100fd565b82526105a2602482016100fd565b60208301526044810135604083015260648101356001600160401b0381116100f9576105d490600436918401016103f4565b60608301526105e560848201610451565b608083015260a4810135916001600160401b0383116100f95761061461061e92600461027695369201016104af565b60a08201526110aa565b60409391935193849384610524565b346100f95760203660031901126100f9576004356001600160401b0381116100f95760e060031982360301126100f9576106656101a6565b90610672816004016101ce565b8252610680602482016100fd565b6020830152610691604482016100fd565b60408301526106a2606482016100fd565b60608301526084810135608083015260a481013560a083015260c4810135916001600160401b0383116100f9576106e56106ef92600461027695369201016104af565b60c082015261119e565b604080519384526020840192909252908201529081906060820190565b9060206104ca928181520190610500565b346100f95760203660031901126100f9576004356001600160401b0381116100f957366023820112156100f9576004810135906001600160401b0382116100f95736602483830101116100f95761027691602461077a920161128e565b6040519182918261070c565b359060058210156100f957565b6107a96104ca94926060835260608301906104cd565b9260208201526040818403910152610500565b346100f95760203660031901126100f9576004356001600160401b0381116100f95760c060031982360301126100f9576107f4610197565b90610801816004016100fd565b825261080f602482016100fd565b602083015260448101356001600160401b0381116100f95761083790600436918401016103f4565b60408301526064810135606083015261085260848201610786565b608083015260a4810135916001600160401b0383116100f95761088161088b92600461027695369201016104af565b60a08201526113b2565b60409391935193849384610793565b346100f95760603660031901126100f9576004356108b7816100e8565b6024356108c3816100e8565b604435916108cf6118a9565b6108d76118f0565b6108e96108e3846133c2565b826133e5565b60018060a01b0381165f52600760205260405f209283548181039081116109505761094694556040519263a9059cbb60e01b602085015260018060a01b03166024840152604483015260448252610941606483610174565b613087565b61094e6118de565b005b610c2b565b5f9103126100f957565b6001600160a01b0316600452602490565b346100f9575f3660031901126100f9576040517f00000000000000000000000000000000000000000000000000000000000000006001600160a01b03168152602090f35b346100f95760603660031901126100f9576103d26004356109d4816100e8565b6024356109e0816100e8565b6044359133611aad565b346100f95760403660031901126100f957600435610a07816100e8565b60243590610a14826100e8565b60018060a01b031690815f525f602052600160405f20541615610a7357610a6090610a53925f526002602052610a5a60405f20604051948580926114b0565b0384610174565b82613029565b9051604080519182526020820192909252f35b506327946f5760e21b5f5260045260245ffd5b346100f9575f3660031901126100f95760205f805160206146a98339815191525c6040519015158152f35b6001600160a01b03165f90815260026020526040902090565b6001600160a01b03165f90815260046020526040902090565b6001600160a01b03165f90815260106020526040902090565b6001600160a01b03165f908152600e6020526040902090565b6001600160a01b03165f90815260056020526040902090565b9060018060a01b03165f5260205260405f2090565b634e487b7160e01b5f52603260045260245ffd5b805490600160401b8210156101395760018201808255821015610b9c575f908152602090200180546001600160a01b0319166001600160a01b03909216919091179055565b610b43565b634e487b7160e01b5f52602160045260245ffd5b60021115610bbf57565b610ba1565b610bcd82610bb5565b52565b90805190610bdd82610bb5565b610be682610bb5565b825460208201516040909201516001600160b01b031990911660ff939093169290921760089190911b610100600160a81b03161790151560a81b60ff60a81b16179055565b634e487b7160e01b5f52601160045260245ffd5b5f1981019190821161095057565b9190820391821161095057565b905f5260205260405f2090565b90610c71826103dd565b610c7e6040519182610174565b8281528092610c8f601f19916103dd565b0190602036910137565b8051821015610b9c5760209160051b010190565b60405190610cbc604083610174565b60178252766578616374416d6f756e7473496e5363616c656431385b60481b6020830152565b60405190610cf1604083610174565b600482526302e901e960e51b6020830152565b908160209103126100f9575190565b91906020610d2b6001926040865260408601906104cd565b930152565b91906020610d2b5f926040865260408601906104cd565b6040513d5f823e3d90fd5b60405190610d61604083610174565b600f82526e031383a20b6b7bab73a27baba101e9608d1b6020830152565b60405190610d8e604083610174565b601582527403a37ba30b629bab838363c902122a327a922901e9605d1b6020830152565b60405190610dc1604083610174565b601482527303a37ba30b629bab838363c9020a32a22a9101e960651b6020830152565b9290610e8d610df382516100dc565b91610e0683610e0188610ab1565b610b57565b610e61602082015191610e1883610bb5565b610e58610e356060610e2d60408501516100dc565b930151151590565b91610e48610e416101b5565b9586610bc4565b6001600160a01b03166020850152565b15156040830152565b6001600160a01b0386165f908152600360205260409020610e88908490610b2e565b610b2e565b610bd0565b610e9f610e9985610ab1565b54610c3f565b93610eaa8480611549565b610ebc86610eb784610aca565b610c5a565b55610ec9843033856115b0565b610ed28161161c565b906020820194610efb865151610ee781610c67565b92610ef28a85610c99565b52825190611663565b610f3e610f2d610f2089610f1960c088015160a08901519087611679565b9951610c99565b516001600160a01b031690565b610f378984610c99565b51906116f0565b610f7087610f6a610f5882610f5287610aca565b95610c99565b51610f63838b610c99565b5190611549565b92610c5a565b5584515f5b818110611077575050805f610f9788610f90610fc295610ae3565b5498610c99565b526020608060018060a01b03831694015160405180948192631309bd3d60e31b835260048301610d13565b0381865afa90811561037f57611004610fea886110149461101d965f91611058575b50610c4d565b97610ffc89610ff7610d52565b611765565b610ff7610d7f565b61100f8733836117b5565b610ae3565b54610ff7610db2565b6040518581526001600160a01b0392909216917f86a1d978a8a380550982f0d5d29e42ffa6021672c0aeb46467b0c87bf3142ada90602090a3565b611071915060203d6020116103785761036a8183610174565b5f610fe4565b806110a16110896001938a9b9a610c99565b51611092610cad565b8361109b610ce2565b91611702565b01969596610f75565b906110b36118f0565b81516110c7906001600160a01b0316611b9c565b81516110db906001600160a01b0316611bd3565b81516110f7906001600160a01b03166110f26115e6565b611cce565b9160208301515161110f606083019182515190611663565b519060c084015160a08501519083519161112d825182519085613351565b61113683610c67565b945f5b84811061115857505050505061114f9293611f62565b92905092909190565b8061118d61116860019385610c99565b516111886111768489610c99565b516111818589610c99565b5192613394565b613ac6565b611197828a610c99565b5201611139565b906111a76118f0565b6020820180516111bf906001600160a01b0316611b9c565b6111d16111cc82516100dc565b611bd3565b60808301511561127f576111e860408401516100dc565b6111fd6111f860608601516100dc565b6100dc565b6001600160a01b03909116146112705761122561121d61124292516100dc565b6110f26115e6565b61122f8185612571565b9061123b818387612675565b9185612701565b90915092919290935161125481610bb5565b61125d81610bb5565b611268575081929190565b918093509190565b63a54b181d60e01b5f5260045ffd5b6357a456b760e01b5f5260045ffd5b9190916113055f806112cc7f000000000000000000000000000000000000000000000000000000000000000094855c159788611376575b3691610479565b60208151910182335af13d1561136e573d906112e78261045e565b916112f56040519384610174565b82523d5f602084013e5b33614594565b9261130d5750565b7f00000000000000000000000000000000000000000000000000000000000000005c61135f575f905d6101087f0000000000000000000000000000000000000000000000000000000000000000612b54565b6320f1d86d60e01b5f5260045ffd5b6060906112ff565b6001875d6112c5565b6040519061138e604083610174565b60158252746d6178416d6f756e7473496e5363616c656431385b60581b6020830152565b906113bb6118f0565b81516113cf906001600160a01b0316611b9c565b6113dc6111cc83516100dc565b6114327f00000000000000000000000000000000000000000000000000000000000000005c61140b84516100dc565b907f0000000000000000000000000000000000000000000000000000000000000000612b65565b61144461143f83516100dc565b611d4a565b9161147060208401515161145f604084019182515190611663565b5160c085015160a086015191611679565b908151935f5b8581106114915750611489939450612c10565b929390929150565b806114aa6114a160019387610c99565b5161109261137f565b01611476565b90602082549182815201915f5260205f20905f5b8181106114d15750505090565b82546001600160a01b03168452602090930192600192830192016114c4565b637911c44b60e11b5f5260045ffd5b346114f057365f80375f8036817f00000000000000000000000000000000000000000000000000000000000000006001600160a01b03165af43d5f803e15611545573d5ff35b3d5ffd5b906001600160801b038211801561157e575b61156f5760801b9081018091116109505790565b6389560ca160e01b5f5260045ffd5b506001600160801b03811161155b565b6001600160a01b03918216815291166020820152604081019190915260600190565b90610941906115d8610108956040519586936323b872dd60e01b60208601526024850161158e565b03601f198101845283610174565b604051906115f38261013e565b606060c0835f815282602082015282604082015282808201528260808201528260a08201520152565b90610108600161162a6115e6565b60a082901b8290039094165f90815260046020908152604080832083835281842054600384528285206002909452919093209287613189565b0361166a57565b63aaad13f760e01b5f5260045ffd5b919082519161168c825182519085613351565b61169583610c67565b935f5b8481106116a757505050505090565b80670de0b6b3a76400006116de6116c060019486610c99565b516116d96116ce858a610c99565b51611181868a610c99565b613394565b046116e98289610c99565b5201611698565b6116fc610108926133c2565b906133e5565b6101089361174c611760936117359560405196879563c67ea9d160e01b60208801526080602488015260a4870190610500565b916044860152602319858303016064860152610500565b90608483015203601f198101835282610174565b6134b2565b6117606117949161010893604051938492632d839cb360e21b6020850152604060248501526064840190610500565b90604483015203601f198101835282610174565b9190820180921161095057565b6001600160a01b03821692908315611893576117da826117d483610ae3565b546117a8565b6117e784610e8384610afc565b8381540190556117f6816134cc565b6117ff82610ae3565b5560018060a01b0316925f845f805160206146898339815191526040518061182c87829190602083019252565b0390a4823b156100f9576040516323de665160e01b81525f600482018190526001600160a01b0390931660248201526044810191909152918290818381606481015b03925af1801561037f5761187f5750565b8061188d5f61010893610174565b80610955565b63ec442f0560e01b5f526118a68361095f565b5ffd5b5f805160206146a98339815191525c6118cf5760015f805160206146a98339815191525d565b633ee5aeb560e01b5f5260045ffd5b5f5f805160206146a98339815191525d565b7f00000000000000000000000000000000000000000000000000000000000000005c1561191957565b63604dd39b60e11b5f5260045ffd5b90611932906133c2565b90600160ff1b821461095057610108915f03906133e5565b6001600160a01b0316600452602452604452606490565b929190916119708284866134eb565b60018101611980575b5050505050565b808211611a8c576001600160a01b0384169391900391908315611a79576001600160a01b038216948515611a6657836119d184610e8385610e838660018060a01b03165f52600f60205260405f2090565b556001600160a01b031692833b156100f957805f7fa0175360a15bca328baf7ea85c7b784d58b222a50d0ce760b10dba336d226a6194611a4594611a296040519485938493630ad0fe5760e31b85526004850161158e565b038183895af1611a52575b506040519081529081906020820190565b0390a45f80808080611979565b8061188d5f611a6093610174565b5f611a34565b634a1406b160e11b5f526118a68361095f565b63e602df0560e01b5f526118a69061095f565b82637dc7a0d960e11b5f5260018060a01b031660045260245260445260645ffd5b919290916001600160a01b038316908115611b89576001600160a01b038516908115611b7657611ae085610e8383610afc565b54808511611b6057849003611af886610e8384610afc565b55611b0686610e8383610afc565b8054850190556040518481526001600160a01b0391909116929083905f8051602061468983398151915290602090a4803b156100f95761186e935f8094604051968795869485936323de665160e01b85526004850161158e565b63391434e360e21b5f526118a69085908761194a565b63ec442f0560e01b5f526118a68661095f565b634b637e8f60e11b5f526118a68461095f565b6001600160a01b03165f81815260208190526040902054600190811c1615611bc15750565b634bdace1360e01b5f5260045260245ffd5b63ffffffff7f00000000000000000000000000000000000000000000000000000000000000001642111580611cc0575b611cb1576001600160a01b0381165f9081526020819052604090205460018160ff611c2c6136d1565b161c1690611c38614666565b90602882018092116109505782611c66575b5050611c535750565b63d971f59760e01b5f526118a69061095f565b611ca792509063ffffffff611c9e927f0000000000000000000000000000000000000000000000000000000000000000921c1661466e565b63ffffffff1690565b4211155f80611c4a565b6336a7e2cd60e21b5f5260045ffd5b506001600654811c16611c03565b90611d3790611cdb6118a9565b6001600160a01b0381165f8181526004602090815260408083208383528184205460038452828520600290945291909320611d1c9360019391929089613189565b5f526004602052611d3060405f2091610b15565b9083613530565b905f5f805160206146a98339815191525d565b611d9d611d556115e6565b91611d5e6118a9565b6001600160a01b0381165f81815260046020908152604080832083835281842054600384528285206002909452918420611d1c94939092909189613189565b5f5f805160206146a98339815191525d90565b60405190611dbd82610159565b5f6040838281528260208201520152565b60041115610bbf57565b9080601f830112156100f9578151611def816103dd565b92611dfd6040519485610174565b81845260208085019260051b8201019283116100f957602001905b828210611e255750505090565b8151815260209182019101611e18565b81601f820112156100f957805190611e4c8261045e565b92611e5a6040519485610174565b828452602083830101116100f957815f9260208093018386015e8301015290565b906080828203126100f957815160208301519093906001600160401b0381116100f95782611eaa918501611dd8565b60408401519093906001600160401b0381116100f95783611ecc918301611dd8565b60608201519093906001600160401b0381116100f9576104ca9201611e35565b93906104ca9593611f2993611f1b9260018060a01b03168752602087015260a0604087015260a08601906104cd565b9084820360608601526104cd565b916080818403910152610500565b91611f54906104ca949284526060602085015260608401906104cd565b9160408184039101526104cd565b90929192611f6e6118a9565b6060611f78611db0565b906020840195611f8c875151808552610c67565b9360808101918251611f9d81611dce565b611fa681611dce565b61237b5750604081015194611fbb8551610c67565b93611ff28760808a0151611fec611fd287516100dc565b6001600160a01b03165f9081526010602052604090205490565b90613a77565b9061205c7f00000000000000000000000000000000000000000000000000000000000000005c61202286516100dc565b907f0000000000000000000000000000000000000000000000000000000000000000905f5260205260405f20905f5260205260405f205c90565b6122f5575b60408401518089116122de575061207a889a979a613ae8565b5f9660208b0198606086019660608c01995b8d518110156121bf57808f888f6120a3848b610c99565b51906120ae82613ae8565b6120b88584610c99565b516121a45792610f20926120fa6120f28794876120eb8760a06120e28260c06121029e0151610c99565b51930151610c99565b5191613af9565b968792610c99565b525b51610c99565b61210d838c51610c99565b518210612184578e838f8f908f868f8561217895612172946120fa8361216160019f9e8e61217e9f8f909961214686946121699c611928565b61215b612153858a610c99565b5191516100dc565b91613b2d565b8a5292610c99565b519251906117a8565b90610c4d565b91613c0e565b0161208c565b906121936118a6938c51610c99565b516317bc2f2360e11b5f529161194a565b5050826121b86121029394610f2093610c99565b51936120fc565b50965097509750979098506121e29199509391936121dd85516100dc565b613d07565b7ffbe5b0d79fb94f1e81c0a92bf86ae9d3a19e9d1bf6202c0d3e75120f65d5d8a58861220e85516100dc565b9361222987602088019661222288516100dc565b3391611961565b612231613d59565b6122bb575b6122548761224488516100dc565b61224e88516100dc565b90613dae565b6122aa612283611fd261227161226a8a516100dc565b98516100dc565b93519861227d8a611dce565b516100dc565b9461228d88611dce565b6040516001600160a01b0393841697909316959293849384611f37565b0390a46122b56118de565b93929190565b6122d9876122c988516100dc565b6122d388516100dc565b90613d6e565b612236565b6331d38e0b60e01b5f52600489905260245260445ffd5b98949793909995919692612309855161371d565b975f5b845181101561236957808d6123628261235c8f8f9661234b9161233b600199612335848a610c99565b51613ac6565b6123458383610c99565b52610c99565b516123568386610c99565b51610c4d565b92610c99565b520161230c565b5092969a919498959990939750612061565b92946001835161238a81611dce565b61239381611dce565b03612408576123a28751613631565b60408201519584906123b76060850151613662565b6124026123f860408a019280845260808d0151908d8d6123e46123dd611fd28d516100dc565b925161371d565b926123f26111f88d516100dc565b9461397f565b9092519098610c99565b52612061565b6002835161241581611dce565b61241e81611dce565b036124a45761242d8751613631565b61249c8460608401906124516124438351613662565b60408a019381855251610c99565b5161245d835186610c99565b5261246f60808b015192518092610c99565b5161247d611fd287516100dc565b906124888c5161371d565b926124966111f889516100dc565b9461374d565b949096612061565b929450600382516124b481611dce565b6124bd81611dce565b03612562576124cc865161360b565b5f6124dd6111f86111f884516100dc565b60408381015160808a015160a08601519251632ada38a360e21b8152998a949385938793859361251293923360048701611eec565b03925af192831561037f575f80945f975f91612533575b5096949096612061565b92955050506125559195503d805f833e61254d8183610174565b810190611e7b565b909691949192905f612529565b63137a9a3960e01b5f5260045ffd5b919061262c604051916125838361011e565b5f835260208301945f865260408401905f825260608501945f865280976125d6602086016125bf815160018060a01b0360408801511690613029565b84525160608501516001600160a01b031690613029565b815282516125e381610bb5565b6125ec81610bb5565b612630575060806126239201519061261c61260d60c0870151835190610c99565b519160a0870151905190610c99565b51916133a7565b905b525161371d565b9052565b9050611188608061266f9301519161266961266361265460c0890151845190610c99565b519260a0890151905190610c99565b51613f58565b92613394565b90612625565b919091606060c06040516126888161013e565b5f81525f60208201528260408201525f838201525f60808201525f60a082015201528051926126b684610bb5565b6080604082015193015160c060208351930151930151936126df6126d86101a6565b9687610bc4565b60208601526040850152606084015260808301523360a083015260c082015290565b91905f949161270e6118a9565b612716611db0565b93805161272281610bb5565b61272b81610bb5565b15612a80575b6020860161273f8151613ea6565b6020612775818401986127586111f86111f88c516100dc565b906040519b8c80948193633964c0c360e11b835260048301612aa8565b03925af197881561037f575f98612a5f575b508761279281613ea6565b825161279d81610bb5565b6127a681610bb5565b6129e15750604084015190526127e660c08301516127df6126636127d06020880193845190610c99565b519260a0870151905190610c99565b9089613af9565b9260808201519584969760a08401518087106129ca57505b604084019389855161280f906100dc565b90612819916116f0565b60600194888651612829906100dc565b9061283391611928565b82518251612840906100dc565b865161284b906100dc565b8651916128589385613b2d565b9060208501946040019182528452845160608301918c8284519061287b91610c99565b5190612886916117a8565b905161289191610c4d565b61289b9184613c0e565b602085019182518b818451906128b091610c99565b51906128bb91610c4d565b6128c59183613c0e565b83516128d0906100dc565b6128d990610aca565b91805187516128e791610c99565b519160800191825188516128fa91610c99565b5161290491611549565b87516129109085610c5a565b5551835161291d91610c99565b519051835161292b91610c99565b5161293591611549565b915161294091610c5a565b555161294b906100dc565b9251612956906100dc565b9351612961906100dc565b6060928301519151604080518b8152602081018b905290810193909352928201929092526001600160a01b0391821693821692909116907f0874b2d545cb271cdbda4e093020c452328b24af12382ed62c4d00f5c26709db90608090a4939291906101086118de565b63e2ea151b60e01b5f52600487905260245260445ffd5b9050612a17919750612a0e6060850151612a0781670de0b6b3a764000081810391100290565b9083613f24565b908187526117a8565b95612a44612a2b60c0840151855190610c99565b51612a3c60a0850151865190610c99565b519089613f44565b92608082015195849760a08401518087116129ca57506127fe565b612a7991985060203d6020116103785761036a8183610174565b965f612787565b60208601612aa1612a978251606087015190613ac6565b8088528251610c4d565b9052612731565b919091602081526101008101908351612ac081610bb5565b60208201526020840151604082015260408401519160e060608301528251809152602061012083019301905f5b818110612b3e5750505060c08460606104ca959601516080840152608081015160a0840152612b2a60a08201518385019060018060a01b03169052565b01519060e0601f1982850301910152610500565b8251855260209485019490920191600101612aed565b805c9060018201809211610950575d565b905f5260205260405f20905f52602052600160405f205d565b60051115610bbf57565b906080828203126100f95781516001600160401b0381116100f95781612baf918401611dd8565b92602083015192604081015160018060401b0381116100f95783611ecc918301611dd8565b93612bfd611f29936104ca97959360018060a01b0316875260a0602088015260a08701906104cd565b91604086015284820360608601526104cd565b909192612c1b6118a9565b606092612c26611db0565b906020840195612c3a875151808552610c67565b9160808101918251612c4b81612b7e565b612c5481612b7e565b612e445750606081015192612c698551610c67565b93612c868160808a0151612c80611fd287516100dc565b906142d6565b905b6060840151808210612e2c5750612ca1819a979a613ae8565b5f9660208b0198604086019660608c01995b8d51811015612d9c57808f888f612cca848b610c99565b5190612cd582613ae8565b612cdf8584610c99565b51612d885792610f20926120fa6120f2879487612d098760a06120e28260c0612d109e0151610c99565b5191613f44565b612d1b838c51610c99565b518211612d68578e838f8f908f868f8561217895612d5a946120fa8361216160019f9e8e612d629f8f90996121468694612d549c6116f0565b516117a8565b905190610c4d565b01612cb3565b90612d776118a6938c51610c99565b516323b6a17960e21b5f529161194a565b5050826121b8612d109394610f2093610c99565b509650985098919a509850612dba9195509391936121dd85516100dc565b7fa26a52d8d53702bba7f137907b8e1f99ff87f6d450144270ca25e72481cca87184612de685516100dc565b93612e008a6020880196612dfa88516100dc565b906117b5565b6122aa612e22611fd2612e1661226a8a516100dc565b93519861227d8a612b7e565b9461228d88612b7e565b638d261d5d60e01b5f5260049190915260245260445ffd5b9260038351612e5281612b7e565b612e5b81612b7e565b03612e7b57612e6a87516142ad565b612e748451610c67565b935f612c88565b60018351612e8881612b7e565b612e9181612b7e565b03612eea57612ea08751613631565b612ee384612eb2836040860151614093565b608089015190612ec5611fd286516100dc565b612ecf8b5161371d565b91612edd6111f888516100dc565b936140ae565b9490612c88565b60028351612ef781612b7e565b612f0081612b7e565b03612f5f57612f0f8751613631565b6060820151612f1d85613662565b9060408701828152612f596123f8889460808d0151908d86612f456123dd611fd28d516100dc565b92612f536111f88d516100dc565b94613fac565b52612c88565b92965060048251612f6f81612b7e565b612f7881612b7e565b0361301a57612f878651613f7c565b5f612f986111f86111f884516100dc565b6060830151906080890151918360a08601519b612fcc6040519d8e968795869463e4c4366360e01b86523360048701612bd4565b03925af192831561037f575f80945f995f91612feb575b509894612c88565b929550505061300d9197503d805f833e6130058183610174565b810190612b88565b909891949192905f612fe3565b636c02b39560e01b5f5260045ffd5b905f5b8251811015613066576001600160a01b036130478285610c99565b51166001600160a01b038316146130605760010161302c565b91505090565b5063ddef98d760e01b5f9081526001600160a01b0391909116600452602490fd5b905f602091828151910182855af115610d47575f513d6130d657506001600160a01b0381163b155b6130b65750565b635274afe760e01b5f9081526001600160a01b0391909116600452602490fd5b600114156130af565b906101086130f392604051938480926114b0565b0383610174565b90613104826103dd565b6131116040519182610174565b8281528092613122601f19916103dd565b01905f5b82811061313257505050565b60209061313d611db0565b82828501015201613126565b9060405161315681610159565b604060ff82945481811661316981610bb5565b8452600881901c6001600160a01b0316602085015260a81c161515910152565b91949290845495835261319f60208401956130df565b85526131aa866130fa565b94604084019586526131bb87610c67565b92606085019384526131cc88610c67565b60808601526131dc888651614317565b60c08601526131ea88610c67565b9060a086019182526132008651600190811c1690565b928361333d575b8361332a575b5f5b8a8110613223575050505050505050505050565b808a61324661324161323b610f206001968851610c99565b87610b2e565b613149565b61326283613254818c610c5a565b549351836123458383610c99565b5061326c816143ec565b613277848951610c99565b5261328d8c6001600160801b038416858e613c5b565b871561332357604081015115159081613306575b506132af575b505b0161320f565b8a6132dc8a848d6132d66132ce836132c784516143a8565b9551610c99565b519660801c90565b90614484565b91826132ea575b50506132a7565b6132fe926132f791610c4d565b838c613c5b565b5f8a816132e3565b8491505161331381610bb5565b61331c81610bb5565b145f6132a1565b50506132a9565b925061333686516143d5565b159261320d565b925061334986516143a8565b151592613207565b81148015929190613365575b505061166a57565b141590505f8061335d565b90670de0b6b3a7640000820291808304670de0b6b3a7640000149015171561095057565b8181029291811591840414171561095057565b916116d96133be92670de0b6b3a764000094613394565b0490565b6001600160ff1b0381116133d35790565b63123baf0360e11b5f5260045260245ffd5b9080156134ae577f00000000000000000000000000000000000000000000000000000000000000009160018060a01b0381165f528260205260405f205c8281019283125f8212908015821691151617610950578261347757507f000000000000000000000000000000000000000000000000000000000000000092835c5f19810190811161095057610108945d6144ea565b92610108936144ea576134a97f0000000000000000000000000000000000000000000000000000000000000000612b54565b6144ea565b5050565b5f80916020815191016a636f6e736f6c652e6c6f675afa50565b620f424081106134d95750565b6334e3483f60e21b5f5260045260245ffd5b9091906001600160a01b0380841690831603613509575050505f1990565b6001600160a01b03165f908152600f6020526040902061352c92610e8391610b2e565b5490565b60608101805151935f5b85811061354957505050505050565b8061355d610f206001936020880151610c99565b61357761356a8389610c5a565b546001600160801b031690565b613582838751610c99565b5181116135ba575b50506135a961359a828651610c99565b51610f63836080890151610c99565b6135b38288610c5a565b550161353a565b6135fc613603916135f66135ce8589610b2e565b54916135f06135dd8460801c90565b916135e9898d51610c99565b5190610c4d565b906117a8565b906144ff565b9185610b2e565b555f8061358a565b60019060ff6136186136db565b161c161561362257565b63033c2a5760e61b5f5260045ffd5b60019060ff61364a613645613645856136bf565b6136bf565b161c1661365357565b63353d5de760e21b5f5260045ffd5b80519081905f5b82811061368b57505081101561367c5790565b631f91af7760e21b5f5260045ffd5b6136958183610c99565b516136a3575b600101613669565b9282036136b0578261369b565b636b8c3be560e01b5f5260045ffd5b60ff60019116019060ff821161095057565b6104ca60016136bf565b6104ca61364561364561364561364560016136bf565b6104ca6136456136456136456136456136456136456136456136456136456136456136456136456136db565b62ffffff9060ff61372c6136f1565b161c1664174876e80081029080820464174876e80014901517156109505790565b909493929181519461375e86610c67565b915f5b8781106139365750613777906123568985610c99565b6137818884610c99565b52604051631309bd3d60e31b8152946001600160a01b0382169290602087806137ad8860048301610d30565b0381875afa96871561037f575f97613915575b50604051631309bd3d60e31b815290602082806137e08660048301610d30565b0381885afa95861561037f5761384f61383c8c6135e961383560209961382e8f6138559861388f9f61382288936138299261385a9f5f916138f6575b50613edd565b8095614512565b610c99565b5190613ac6565b9188610c99565b92670de0b6b3a764000081810391100290565b82613edd565b610c4d565b92613869846123568b85610c99565b6138738a84610c99565b526040518080968194631309bd3d60e31b835260048301610d13565b03915afa90811561037f576138ca956138c4935f936138cd575b506138b66138bd91610c67565b9788610c99565b5283610c4d565b90613f24565b91565b6138bd9193506138ee6138b69160203d6020116103785761036a8183610174565b9391506138a9565b602061390f92503d6020116103785761036a8183610174565b5f61381c565b61392f91975060203d6020116103785761036a8183610174565b955f6137c0565b8061394c61394660019388610c99565b51610c3f565b6139568287610c99565b5201613761565b613975604092959493956060835260608301906104cd565b9460208201520152565b9094918303918383116109505760206139c39161399c8686613edd565b906139a78282614512565b604051808095819462b5059f60e51b83528c896004850161395d565b03916001600160a01b03165afa801561037f576138ca9561118888613a1693613a1f98613a26965f92613a2c575b50613a048261235661385594958b610c99565b98613a0f8d8a610c99565b5190613f24565b93849251610c67565b9586610c99565b52610c4d565b613855925061235693613a50613a049260203d6020116103785761036a8183610174565b935093506139f1565b8115613a63570490565b634e487b7160e01b5f52601260045260245ffd5b9291613a838451610c67565b935f5b8151811015613ac05780613aaf85613aaa86613aa460019688610c99565b51613394565b613a59565b613ab98289610c99565b5201613a86565b50505050565b90613ad091613394565b6001670de0b6b3a76400005f19830104019015150290565b80613af05750565b61010890613ea6565b91613b0391613394565b670de0b6b3a7640000820291808304670de0b6b3a76400001490151715610950576104ca91613a59565b91949290945f955f9581613b42575050505050565b8497506120eb613b5b8260c0613b679697980151610c99565b519160a08a0151610c99565b94613b7281516143d5565b15613b7f575b8080611979565b62ffffff9192945051613b90614379565b1c1664174876e80081029080820464174876e800149015171561095057613bb790856144d7565b92848411613bff5780610e83613bf0613bd6613bf694610e8387610b15565b54613bea886001600160801b0383166117a8565b90614586565b93610b15565b555f8080613b78565b634c69ac5d60e01b5f5260045ffd5b91906080670de0b6b3a7640000613c52610bcd9480613c318660608a0151610c99565b526116d9613c438660c08a0151610c99565b516111818760a08b0151610c99565b04930151610c99565b9282613c6b836060870151610c99565b52613c7581610bb5565b613cff576002915b613c8b8260c0860151610c99565b51613c9a8360a0870151610c99565b519380600114613cdb57600214613cbf57634e487b7160e01b5f52605160045260245ffd5b610bcd93611188613cd292608094613394565b935b0151610c99565b50613cf8610bcd946116d9670de0b6b3a764000093608095613394565b0493613cd4565b600191613c7d565b6001600160a01b03165f908152600460205260408120919291905b60608401518051821015613d525790613d4061359a82600194610c99565b815f528360205260405f205501613d22565b5050509050565b321580613d635790565b506001600654161590565b9032613d9f57613d909160018060a01b03165f52600e60205260405f20610b2e565b80549182018092116109505755565b6333fc255960e11b5f5260045ffd5b90916001600160a01b038316918215611b8957613dce84610e8383610afc565b54808311613e9057829003613de685610e8384610afc565b55613dfa82613df483610ae3565b54610c4d565b613e03816134cc565b613e0c82610ae3565b556001600160a01b031690813b156100f9576040516323de665160e01b81526001600160a01b039490941660048501525f6024850181905260448501829052935f8051602061468983398151915291613e7d91868160648183895af1613e8257506040519081529081906020820190565b0390a4565b8061188d88611a6093610174565b63391434e360e21b5f526118a69083908661194a565b7f000000000000000000000000000000000000000000000000000000000000000011613ece57565b6303da9a2360e31b5f5260045ffd5b908015613f1557670de0b6b3a7640000820291808304670de0b6b3a76400001490151715610950576001905f19830104019015150290565b630a0c22c760e01b5f5260045ffd5b8215613f1557600191613f3691613394565b915f19830104019015150290565b906104ca92613f5291613394565b90613edd565b670de0b6b3a7640000808204028103613f6e5790565b600181018091116109505790565b60019060ff613f93613645613645613645866136bf565b161c1615613f9d57565b63121db02f60e21b5f5260045ffd5b90946020613fbe85613ff096956117a8565b91613fc98584613edd565b90613fd482826145f2565b604051808098819462b5059f60e51b83528c896004850161395d565b03916001600160a01b03165afa93841561037f576138ca9561385561384f61383c86613a1f998c99614056988b613a16995f9461405c575b509061404f614048614041613aaa946121729798610c99565b5187610c4d565b9d8d610c99565b5190613394565b526117a8565b6121729450614048614041613aaa949361408761404f9460203d6020116103785761036a8183610174565b97509394505050614028565b9060208083516140a4845182611663565b60051b930191015e565b9192909382516140bd81610c67565b926140c782610c67565b965f5b838110614272575050604051631309bd3d60e31b8152946001600160a01b0384169390602087806140fe8460048301610d30565b0381885afa96871561037f575f97614251575b50604051631309bd3d60e31b8152602081806141308a60048301610d13565b0381895afa90811561037f5788613aaa61415c93614155935f91614232575b50613370565b80936145f2565b5f5b8481106141b557505050505061418c916020916040518080958194631309bd3d60e31b835260048301610d13565b03915afa92831561037f576141af836138ca95613aaa945f916110585750610c4d565b90613394565b806141cc6141c560019385610c99565b51856144d7565b85816141d8848c610c99565b51116141e7575b50500161415e565b6141fc916141f5848c610c99565b5103613ac6565b614206828d610c99565b526142208b6135e983614219818d610c99565b5192610c99565b61422a828a610c99565b525f856141df565b61424b915060203d6020116103785761036a8183610174565b5f61414f565b61426b91975060203d6020116103785761036a8183610174565b955f614111565b8061429c6142976142856001948b610c99565b516142908487610c99565b51906117a8565b610c3f565b6142a68289610c99565b52016140ca565b60019060ff6142bd6136456136db565b161c16156142c757565b63efe0265d60e01b5f5260045ffd5b92916142e28451610c67565b935f5b8151811015613ac05780614306858561430060019587610c99565b51613f24565b6143108289610c99565b52016142e5565b9064ffffffffff61432782610c67565b92614330614666565b1c165f5b8281106143415750505090565b60058102818104600514821517156109505782601f911c1690604d821161095057600191600a0a6143728287610c99565b5201614334565b60ff6143836136f1565b16601881018091116109505790565b61439a614379565b601881018091116109505790565b62ffffff906143b5614392565b1c1664174876e80081029080820464174876e80014901517156109505790565b60019060ff6143e6613645846136bf565b161c1690565b80516143f781610bb5565b61440081610bb5565b80614413575050670de0b6b3a764000090565b8061441f600192610bb5565b036144755760206144376111f88260049401516100dc565b6040516333cd77e760e11b815292839182905afa90811561037f575f9161445c575090565b6104ca915060203d6020116103785761036a8183610174565b636fa2831960e11b5f5260045ffd5b9093925f94614497846080850151610c99565b518181116144a6575050505050565b6144cc959650916144bb916120eb9303613ac6565b9260a06120e28260c0860151610c99565b905f80808080611979565b670de0b6b3a7640000916133be91613394565b9060018060a01b03165f5260205260405f205d565b6104ca91906001600160801b0316611549565b604051635b3bfd2b60e11b81529190602090839060049082906001600160a01b03165afa91821561037f575f92614565575b50818110614550575050565b63718e4adf60e11b5f5260045260245260445ffd5b61457f91925060203d6020116103785761036a8183610174565b905f614544565b906104ca9160801c90611549565b906145b857508051156145a957805190602001fd5b63d6bda27560e01b5f5260045ffd5b815115806145e9575b6145c9575090565b639996b31560e01b5f9081526001600160a01b0391909116600452602490fd5b50803b156145c1565b60405163273c1adf60e01b81529190602090839060049082906001600160a01b03165afa91821561037f575f92614645575b50818111614630575050565b630fa2583760e21b5f5260045260245260445ffd5b61465f91925060203d6020116103785761036a8183610174565b905f614624565b61439a614392565b9063ffffffff8091169116019063ffffffff82116109505756fed1398bee19313d6bf672ccb116e51f4a1a947e91c757907f51fbb5b5e56c698f9b779b17422d0df92223018b32b4d1fa46e071723d6817e2486d003becc55f00a2646970667358221220d08ee8c5189da1105975725be5284c716700fda228f331e52e6182f38fdadc2c64736f6c634300081a0033",
  "linkReferences": {},
  "deployedLinkReferences": {}
}