{
  "_format": "hh-sol-artifact-1",
  "contractName": "VaultAdmin",
  "sourceName": "contracts/_VaultAdmin.sol",
  "abi": [
    {
      "inputs": [
        {
          "internalType": "contract IVault",
          "name": "mainVault",
          "type": "address"
        },
        {
          "internalType": "uint32",
          "name": "pauseWindowDuration",
          "type": "uint32"
        },
        {
          "internalType": "uint32",
          "name": "bufferPeriodDuration",
          "type": "uint32"
        },
        {
          "internalType": "uint256",
          "name": "minTradeAmount",
          "type": "uint256"
        },
        {
          "internalType": "uint256",
          "name": "minWrapAmount",
          "type": "uint256"
        }
      ],
      "stateMutability": "nonpayable",
      "type": "constructor"
    },
    {
      "inputs": [],
      "name": "AfterAddLiquidityHookFailed",
      "type": "error"
    },
    {
      "inputs": [],
      "name": "AfterInitializeHookFailed",
      "type": "error"
    },
    {
      "inputs": [],
      "name": "AfterRemoveLiquidityHookFailed",
      "type": "error"
    },
    {
      "inputs": [],
      "name": "AfterSwapHookFailed",
      "type": "error"
    },
    {
      "inputs": [],
      "name": "AmountGivenZero",
      "type": "error"
    },
    {
      "inputs": [
        {
          "internalType": "contract IERC20",
          "name": "tokenIn",
          "type": "address"
        },
        {
          "internalType": "uint256",
          "name": "amountIn",
          "type": "uint256"
        },
        {
          "internalType": "uint256",
          "name": "maxAmountIn",
          "type": "uint256"
        }
      ],
      "name": "AmountInAboveMax",
      "type": "error"
    },
    {
      "inputs": [
        {
          "internalType": "contract IERC20",
          "name": "tokenOut",
          "type": "address"
        },
        {
          "internalType": "uint256",
          "name": "amountOut",
          "type": "uint256"
        },
        {
          "internalType": "uint256",
          "name": "minAmountOut",
          "type": "uint256"
        }
      ],
      "name": "AmountOutBelowMin",
      "type": "error"
    },
    {
      "inputs": [],
      "name": "BalanceNotSettled",
      "type": "error"
    },
    {
      "inputs": [],
      "name": "BalanceOverflow",
      "type": "error"
    },
    {
      "inputs": [],
      "name": "BeforeAddLiquidityHookFailed",
      "type": "error"
    },
    {
      "inputs": [],
      "name": "BeforeInitializeHookFailed",
      "type": "error"
    },
    {
      "inputs": [],
      "name": "BeforeRemoveLiquidityHookFailed",
      "type": "error"
    },
    {
      "inputs": [],
      "name": "BeforeSwapHookFailed",
      "type": "error"
    },
    {
      "inputs": [
        {
          "internalType": "uint256",
          "name": "amountIn",
          "type": "uint256"
        },
        {
          "internalType": "uint256",
          "name": "maxAmountIn",
          "type": "uint256"
        }
      ],
      "name": "BptAmountInAboveMax",
      "type": "error"
    },
    {
      "inputs": [
        {
          "internalType": "uint256",
          "name": "amountOut",
          "type": "uint256"
        },
        {
          "internalType": "uint256",
          "name": "minAmountOut",
          "type": "uint256"
        }
      ],
      "name": "BptAmountOutBelowMin",
      "type": "error"
    },
    {
      "inputs": [
        {
          "internalType": "contract IERC4626",
          "name": "wrappedToken",
          "type": "address"
        }
      ],
      "name": "BufferAlreadyInitialized",
      "type": "error"
    },
    {
      "inputs": [
        {
          "internalType": "contract IERC4626",
          "name": "wrappedToken",
          "type": "address"
        }
      ],
      "name": "BufferNotInitialized",
      "type": "error"
    },
    {
      "inputs": [],
      "name": "BufferSharesInvalidOwner",
      "type": "error"
    },
    {
      "inputs": [],
      "name": "BufferSharesInvalidReceiver",
      "type": "error"
    },
    {
      "inputs": [
        {
          "internalType": "uint256",
          "name": "totalSupply",
          "type": "uint256"
        }
      ],
      "name": "BufferTotalSupplyTooLow",
      "type": "error"
    },
    {
      "inputs": [],
      "name": "CannotReceiveEth",
      "type": "error"
    },
    {
      "inputs": [],
      "name": "CannotSwapSameToken",
      "type": "error"
    },
    {
      "inputs": [],
      "name": "CodecOverflow",
      "type": "error"
    },
    {
      "inputs": [],
      "name": "DoesNotSupportAddLiquidityCustom",
      "type": "error"
    },
    {
      "inputs": [],
      "name": "DoesNotSupportDonation",
      "type": "error"
    },
    {
      "inputs": [],
      "name": "DoesNotSupportRemoveLiquidityCustom",
      "type": "error"
    },
    {
      "inputs": [],
      "name": "DoesNotSupportUnbalancedLiquidity",
      "type": "error"
    },
    {
      "inputs": [],
      "name": "DynamicSwapFeeHookFailed",
      "type": "error"
    },
    {
      "inputs": [
        {
          "internalType": "address",
          "name": "spender",
          "type": "address"
        },
        {
          "internalType": "uint256",
          "name": "allowance",
          "type": "uint256"
        },
        {
          "internalType": "uint256",
          "name": "needed",
          "type": "uint256"
        }
      ],
      "name": "ERC20InsufficientAllowance",
      "type": "error"
    },
    {
      "inputs": [
        {
          "internalType": "address",
          "name": "sender",
          "type": "address"
        },
        {
          "internalType": "uint256",
          "name": "balance",
          "type": "uint256"
        },
        {
          "internalType": "uint256",
          "name": "needed",
          "type": "uint256"
        }
      ],
      "name": "ERC20InsufficientBalance",
      "type": "error"
    },
    {
      "inputs": [
        {
          "internalType": "address",
          "name": "approver",
          "type": "address"
        }
      ],
      "name": "ERC20InvalidApprover",
      "type": "error"
    },
    {
      "inputs": [
        {
          "internalType": "address",
          "name": "receiver",
          "type": "address"
        }
      ],
      "name": "ERC20InvalidReceiver",
      "type": "error"
    },
    {
      "inputs": [
        {
          "internalType": "address",
          "name": "sender",
          "type": "address"
        }
      ],
      "name": "ERC20InvalidSender",
      "type": "error"
    },
    {
      "inputs": [
        {
          "internalType": "address",
          "name": "spender",
          "type": "address"
        }
      ],
      "name": "ERC20InvalidSpender",
      "type": "error"
    },
    {
      "inputs": [],
      "name": "FeePrecisionTooHigh",
      "type": "error"
    },
    {
      "inputs": [
        {
          "internalType": "contract IERC20",
          "name": "tokenIn",
          "type": "address"
        },
        {
          "internalType": "uint256",
          "name": "amountIn",
          "type": "uint256"
        },
        {
          "internalType": "uint256",
          "name": "maxAmountIn",
          "type": "uint256"
        }
      ],
      "name": "HookAdjustedAmountInAboveMax",
      "type": "error"
    },
    {
      "inputs": [
        {
          "internalType": "contract IERC20",
          "name": "tokenOut",
          "type": "address"
        },
        {
          "internalType": "uint256",
          "name": "amountOut",
          "type": "uint256"
        },
        {
          "internalType": "uint256",
          "name": "minAmountOut",
          "type": "uint256"
        }
      ],
      "name": "HookAdjustedAmountOutBelowMin",
      "type": "error"
    },
    {
      "inputs": [
        {
          "internalType": "uint256",
          "name": "amount",
          "type": "uint256"
        },
        {
          "internalType": "uint256",
          "name": "limit",
          "type": "uint256"
        }
      ],
      "name": "HookAdjustedSwapLimit",
      "type": "error"
    },
    {
      "inputs": [
        {
          "internalType": "address",
          "name": "poolHooksContract",
          "type": "address"
        },
        {
          "internalType": "address",
          "name": "pool",
          "type": "address"
        },
        {
          "internalType": "address",
          "name": "poolFactory",
          "type": "address"
        }
      ],
      "name": "HookRegistrationFailed",
      "type": "error"
    },
    {
      "inputs": [],
      "name": "InvalidAddLiquidityKind",
      "type": "error"
    },
    {
      "inputs": [],
      "name": "InvalidRemoveLiquidityKind",
      "type": "error"
    },
    {
      "inputs": [],
      "name": "InvalidToken",
      "type": "error"
    },
    {
      "inputs": [],
      "name": "InvalidTokenConfiguration",
      "type": "error"
    },
    {
      "inputs": [],
      "name": "InvalidTokenDecimals",
      "type": "error"
    },
    {
      "inputs": [],
      "name": "InvalidTokenType",
      "type": "error"
    },
    {
      "inputs": [
        {
          "internalType": "contract IERC4626",
          "name": "wrappedToken",
          "type": "address"
        }
      ],
      "name": "InvalidUnderlyingToken",
      "type": "error"
    },
    {
      "inputs": [
        {
          "internalType": "uint256",
          "name": "issuedShares",
          "type": "uint256"
        },
        {
          "internalType": "uint256",
          "name": "minIssuedShares",
          "type": "uint256"
        }
      ],
      "name": "IssuedSharesBelowMin",
      "type": "error"
    },
    {
      "inputs": [],
      "name": "MaxTokens",
      "type": "error"
    },
    {
      "inputs": [],
      "name": "MinTokens",
      "type": "error"
    },
    {
      "inputs": [],
      "name": "NotEnoughBufferShares",
      "type": "error"
    },
    {
      "inputs": [
        {
          "internalType": "contract IERC4626",
          "name": "wrappedToken",
          "type": "address"
        },
        {
          "internalType": "uint256",
          "name": "expectedUnderlyingAmount",
          "type": "uint256"
        },
        {
          "internalType": "uint256",
          "name": "actualUnderlyingAmount",
          "type": "uint256"
        }
      ],
      "name": "NotEnoughUnderlying",
      "type": "error"
    },
    {
      "inputs": [
        {
          "internalType": "contract IERC4626",
          "name": "wrappedToken",
          "type": "address"
        },
        {
          "internalType": "uint256",
          "name": "expectedWrappedAmount",
          "type": "uint256"
        },
        {
          "internalType": "uint256",
          "name": "actualWrappedAmount",
          "type": "uint256"
        }
      ],
      "name": "NotEnoughWrapped",
      "type": "error"
    },
    {
      "inputs": [],
      "name": "NotStaticCall",
      "type": "error"
    },
    {
      "inputs": [],
      "name": "NotVaultDelegateCall",
      "type": "error"
    },
    {
      "inputs": [],
      "name": "OutOfBounds",
      "type": "error"
    },
    {
      "inputs": [],
      "name": "PauseBufferPeriodDurationTooLarge",
      "type": "error"
    },
    {
      "inputs": [],
      "name": "PercentageAboveMax",
      "type": "error"
    },
    {
      "inputs": [
        {
          "internalType": "address",
          "name": "pool",
          "type": "address"
        }
      ],
      "name": "PoolAlreadyInitialized",
      "type": "error"
    },
    {
      "inputs": [
        {
          "internalType": "address",
          "name": "pool",
          "type": "address"
        }
      ],
      "name": "PoolAlreadyRegistered",
      "type": "error"
    },
    {
      "inputs": [
        {
          "internalType": "address",
          "name": "pool",
          "type": "address"
        }
      ],
      "name": "PoolInRecoveryMode",
      "type": "error"
    },
    {
      "inputs": [
        {
          "internalType": "address",
          "name": "pool",
          "type": "address"
        }
      ],
      "name": "PoolNotInRecoveryMode",
      "type": "error"
    },
    {
      "inputs": [
        {
          "internalType": "address",
          "name": "pool",
          "type": "address"
        }
      ],
      "name": "PoolNotInitialized",
      "type": "error"
    },
    {
      "inputs": [
        {
          "internalType": "address",
          "name": "pool",
          "type": "address"
        }
      ],
      "name": "PoolNotPaused",
      "type": "error"
    },
    {
      "inputs": [
        {
          "internalType": "address",
          "name": "pool",
          "type": "address"
        }
      ],
      "name": "PoolNotRegistered",
      "type": "error"
    },
    {
      "inputs": [
        {
          "internalType": "address",
          "name": "pool",
          "type": "address"
        }
      ],
      "name": "PoolPauseWindowExpired",
      "type": "error"
    },
    {
      "inputs": [
        {
          "internalType": "address",
          "name": "pool",
          "type": "address"
        }
      ],
      "name": "PoolPaused",
      "type": "error"
    },
    {
      "inputs": [
        {
          "internalType": "uint256",
          "name": "totalSupply",
          "type": "uint256"
        }
      ],
      "name": "PoolTotalSupplyTooLow",
      "type": "error"
    },
    {
      "inputs": [],
      "name": "ProtocolFeesExceedTotalCollected",
      "type": "error"
    },
    {
      "inputs": [],
      "name": "QueriesDisabled",
      "type": "error"
    },
    {
      "inputs": [],
      "name": "QueriesDisabledPermanently",
      "type": "error"
    },
    {
      "inputs": [],
      "name": "QuoteResultSpoofed",
      "type": "error"
    },
    {
      "inputs": [],
      "name": "ReentrancyGuardReentrantCall",
      "type": "error"
    },
    {
      "inputs": [],
      "name": "RouterNotTrusted",
      "type": "error"
    },
    {
      "inputs": [
        {
          "internalType": "uint8",
          "name": "bits",
          "type": "uint8"
        },
        {
          "internalType": "uint256",
          "name": "value",
          "type": "uint256"
        }
      ],
      "name": "SafeCastOverflowedUintDowncast",
      "type": "error"
    },
    {
      "inputs": [
        {
          "internalType": "uint256",
          "name": "value",
          "type": "uint256"
        }
      ],
      "name": "SafeCastOverflowedUintToInt",
      "type": "error"
    },
    {
      "inputs": [
        {
          "internalType": "address",
          "name": "sender",
          "type": "address"
        }
      ],
      "name": "SenderIsNotVault",
      "type": "error"
    },
    {
      "inputs": [],
      "name": "SenderNotAllowed",
      "type": "error"
    },
    {
      "inputs": [],
      "name": "SwapFeePercentageTooHigh",
      "type": "error"
    },
    {
      "inputs": [],
      "name": "SwapFeePercentageTooLow",
      "type": "error"
    },
    {
      "inputs": [
        {
          "internalType": "uint256",
          "name": "amount",
          "type": "uint256"
        },
        {
          "internalType": "uint256",
          "name": "limit",
          "type": "uint256"
        }
      ],
      "name": "SwapLimit",
      "type": "error"
    },
    {
      "inputs": [
        {
          "internalType": "contract IERC20",
          "name": "token",
          "type": "address"
        }
      ],
      "name": "TokenAlreadyRegistered",
      "type": "error"
    },
    {
      "inputs": [
        {
          "internalType": "contract IERC20",
          "name": "token",
          "type": "address"
        }
      ],
      "name": "TokenNotRegistered",
      "type": "error"
    },
    {
      "inputs": [
        {
          "internalType": "address",
          "name": "pool",
          "type": "address"
        },
        {
          "internalType": "address",
          "name": "expectedToken",
          "type": "address"
        },
        {
          "internalType": "address",
          "name": "actualToken",
          "type": "address"
        }
      ],
      "name": "TokensMismatch",
      "type": "error"
    },
    {
      "inputs": [],
      "name": "TradeAmountTooSmall",
      "type": "error"
    },
    {
      "inputs": [],
      "name": "VaultBuffersArePaused",
      "type": "error"
    },
    {
      "inputs": [],
      "name": "VaultIsNotUnlocked",
      "type": "error"
    },
    {
      "inputs": [],
      "name": "VaultNotPaused",
      "type": "error"
    },
    {
      "inputs": [],
      "name": "VaultPauseWindowDurationTooLarge",
      "type": "error"
    },
    {
      "inputs": [],
      "name": "VaultPauseWindowExpired",
      "type": "error"
    },
    {
      "inputs": [],
      "name": "VaultPaused",
      "type": "error"
    },
    {
      "inputs": [
        {
          "internalType": "contract IERC4626",
          "name": "wrappedToken",
          "type": "address"
        }
      ],
      "name": "WrapAmountTooSmall",
      "type": "error"
    },
    {
      "inputs": [],
      "name": "WrongProtocolFeeControllerDeployment",
      "type": "error"
    },
    {
      "inputs": [
        {
          "internalType": "contract IERC4626",
          "name": "wrappedToken",
          "type": "address"
        },
        {
          "internalType": "address",
          "name": "underlyingToken",
          "type": "address"
        }
      ],
      "name": "WrongUnderlyingToken",
      "type": "error"
    },
    {
      "inputs": [],
      "name": "WrongVaultAdminDeployment",
      "type": "error"
    },
    {
      "inputs": [],
      "name": "WrongVaultExtensionDeployment",
      "type": "error"
    },
    {
      "inputs": [],
      "name": "ZeroDivision",
      "type": "error"
    },
    {
      "anonymous": false,
      "inputs": [
        {
          "indexed": true,
          "internalType": "address",
          "name": "pool",
          "type": "address"
        },
        {
          "indexed": true,
          "internalType": "address",
          "name": "token",
          "type": "address"
        },
        {
          "indexed": false,
          "internalType": "uint256",
          "name": "tokenIndex",
          "type": "uint256"
        }
      ],
      "name": "AddedNewTokenToPool",
      "type": "event"
    },
    {
      "anonymous": false,
      "inputs": [
        {
          "indexed": true,
          "internalType": "address",
          "name": "pool",
          "type": "address"
        },
        {
          "indexed": false,
          "internalType": "uint256",
          "name": "aggregateSwapFeePercentage",
          "type": "uint256"
        }
      ],
      "name": "AggregateSwapFeePercentageChanged",
      "type": "event"
    },
    {
      "anonymous": false,
      "inputs": [
        {
          "indexed": true,
          "internalType": "address",
          "name": "pool",
          "type": "address"
        },
        {
          "indexed": false,
          "internalType": "uint256",
          "name": "aggregateYieldFeePercentage",
          "type": "uint256"
        }
      ],
      "name": "AggregateYieldFeePercentageChanged",
      "type": "event"
    },
    {
      "anonymous": false,
      "inputs": [
        {
          "indexed": true,
          "internalType": "address",
          "name": "pool",
          "type": "address"
        },
        {
          "indexed": true,
          "internalType": "address",
          "name": "owner",
          "type": "address"
        },
        {
          "indexed": true,
          "internalType": "address",
          "name": "spender",
          "type": "address"
        },
        {
          "indexed": false,
          "internalType": "uint256",
          "name": "value",
          "type": "uint256"
        }
      ],
      "name": "Approval",
      "type": "event"
    },
    {
      "anonymous": false,
      "inputs": [
        {
          "indexed": true,
          "internalType": "contract IAuthorizer",
          "name": "newAuthorizer",
          "type": "address"
        }
      ],
      "name": "AuthorizerChanged",
      "type": "event"
    },
    {
      "anonymous": false,
      "inputs": [
        {
          "indexed": true,
          "internalType": "contract IERC4626",
          "name": "wrappedToken",
          "type": "address"
        },
        {
          "indexed": true,
          "internalType": "address",
          "name": "from",
          "type": "address"
        },
        {
          "indexed": false,
          "internalType": "uint256",
          "name": "burnedShares",
          "type": "uint256"
        }
      ],
      "name": "BufferSharesBurned",
      "type": "event"
    },
    {
      "anonymous": false,
      "inputs": [
        {
          "indexed": true,
          "internalType": "contract IERC4626",
          "name": "wrappedToken",
          "type": "address"
        },
        {
          "indexed": true,
          "internalType": "address",
          "name": "to",
          "type": "address"
        },
        {
          "indexed": false,
          "internalType": "uint256",
          "name": "issuedShares",
          "type": "uint256"
        }
      ],
      "name": "BufferSharesMinted",
      "type": "event"
    },
    {
      "anonymous": false,
      "inputs": [
        {
          "indexed": true,
          "internalType": "address",
          "name": "pool",
          "type": "address"
        },
        {
          "indexed": true,
          "internalType": "address",
          "name": "liquidityProvider",
          "type": "address"
        },
        {
          "indexed": true,
          "internalType": "enum AddLiquidityKind",
          "name": "kind",
          "type": "uint8"
        },
        {
          "indexed": false,
          "internalType": "uint256",
          "name": "totalSupply",
          "type": "uint256"
        },
        {
          "indexed": false,
          "internalType": "uint256[]",
          "name": "amountsAddedRaw",
          "type": "uint256[]"
        },
        {
          "indexed": false,
          "internalType": "uint256[]",
          "name": "swapFeeAmountsRaw",
          "type": "uint256[]"
        }
      ],
      "name": "LiquidityAdded",
      "type": "event"
    },
    {
      "anonymous": false,
      "inputs": [
        {
          "indexed": true,
          "internalType": "contract IERC4626",
          "name": "wrappedToken",
          "type": "address"
        },
        {
          "indexed": false,
          "internalType": "uint256",
          "name": "amountUnderlying",
          "type": "uint256"
        },
        {
          "indexed": false,
          "internalType": "uint256",
          "name": "amountWrapped",
          "type": "uint256"
        },
        {
          "indexed": false,
          "internalType": "bytes32",
          "name": "bufferBalances",
          "type": "bytes32"
        }
      ],
      "name": "LiquidityAddedToBuffer",
      "type": "event"
    },
    {
      "anonymous": false,
      "inputs": [
        {
          "indexed": true,
          "internalType": "address",
          "name": "pool",
          "type": "address"
        },
        {
          "indexed": true,
          "internalType": "address",
          "name": "liquidityProvider",
          "type": "address"
        },
        {
          "indexed": true,
          "internalType": "enum RemoveLiquidityKind",
          "name": "kind",
          "type": "uint8"
        },
        {
          "indexed": false,
          "internalType": "uint256",
          "name": "totalSupply",
          "type": "uint256"
        },
        {
          "indexed": false,
          "internalType": "uint256[]",
          "name": "amountsRemovedRaw",
          "type": "uint256[]"
        },
        {
          "indexed": false,
          "internalType": "uint256[]",
          "name": "swapFeeAmountsRaw",
          "type": "uint256[]"
        }
      ],
      "name": "LiquidityRemoved",
      "type": "event"
    },
    {
      "anonymous": false,
      "inputs": [
        {
          "indexed": true,
          "internalType": "contract IERC4626",
          "name": "wrappedToken",
          "type": "address"
        },
        {
          "indexed": false,
          "internalType": "uint256",
          "name": "amountUnderlying",
          "type": "uint256"
        },
        {
          "indexed": false,
          "internalType": "uint256",
          "name": "amountWrapped",
          "type": "uint256"
        },
        {
          "indexed": false,
          "internalType": "bytes32",
          "name": "bufferBalances",
          "type": "bytes32"
        }
      ],
      "name": "LiquidityRemovedFromBuffer",
      "type": "event"
    },
    {
      "anonymous": false,
      "inputs": [
        {
          "indexed": true,
          "internalType": "address",
          "name": "pool",
          "type": "address"
        }
      ],
      "name": "PoolInitialized",
      "type": "event"
    },
    {
      "anonymous": false,
      "inputs": [
        {
          "indexed": true,
          "internalType": "address",
          "name": "pool",
          "type": "address"
        },
        {
          "indexed": false,
          "internalType": "bool",
          "name": "paused",
          "type": "bool"
        }
      ],
      "name": "PoolPausedStateChanged",
      "type": "event"
    },
    {
      "anonymous": false,
      "inputs": [
        {
          "indexed": true,
          "internalType": "address",
          "name": "pool",
          "type": "address"
        },
        {
          "indexed": false,
          "internalType": "bool",
          "name": "recoveryMode",
          "type": "bool"
        }
      ],
      "name": "PoolRecoveryModeStateChanged",
      "type": "event"
    },
    {
      "anonymous": false,
      "inputs": [
        {
          "indexed": true,
          "internalType": "address",
          "name": "pool",
          "type": "address"
        },
        {
          "indexed": true,
          "internalType": "address",
          "name": "factory",
          "type": "address"
        },
        {
          "components": [
            {
              "internalType": "contract IERC20",
              "name": "token",
              "type": "address"
            },
            {
              "internalType": "uint256",
              "name": "chainId",
              "type": "uint256"
            },
            {
              "internalType": "enum TokenType",
              "name": "tokenType",
              "type": "uint8"
            },
            {
              "internalType": "contract IRateProvider",
              "name": "rateProvider",
              "type": "address"
            },
            {
              "internalType": "bool",
              "name": "paysYieldFees",
              "type": "bool"
            }
          ],
          "indexed": false,
          "internalType": "struct TokenConfig[]",
          "name": "tokenConfig",
          "type": "tuple[]"
        },
        {
          "indexed": false,
          "internalType": "uint256",
          "name": "swapFeePercentage",
          "type": "uint256"
        },
        {
          "indexed": false,
          "internalType": "uint32",
          "name": "pauseWindowEndTime",
          "type": "uint32"
        },
        {
          "components": [
            {
              "internalType": "address",
              "name": "pauseManager",
              "type": "address"
            },
            {
              "internalType": "address",
              "name": "swapFeeManager",
              "type": "address"
            },
            {
              "internalType": "address",
              "name": "poolCreator",
              "type": "address"
            }
          ],
          "indexed": false,
          "internalType": "struct PoolRoleAccounts",
          "name": "roleAccounts",
          "type": "tuple"
        },
        {
          "components": [
            {
              "internalType": "bool",
              "name": "disableUnbalancedLiquidity",
              "type": "bool"
            },
            {
              "internalType": "bool",
              "name": "enableAddLiquidityCustom",
              "type": "bool"
            },
            {
              "internalType": "bool",
              "name": "enableRemoveLiquidityCustom",
              "type": "bool"
            },
            {
              "internalType": "bool",
              "name": "enableDonation",
              "type": "bool"
            }
          ],
          "indexed": false,
          "internalType": "struct LiquidityManagement",
          "name": "liquidityManagement",
          "type": "tuple"
        }
      ],
      "name": "PoolRegistered",
      "type": "event"
    },
    {
      "anonymous": false,
      "inputs": [
        {
          "indexed": true,
          "internalType": "contract IProtocolFeeController",
          "name": "newProtocolFeeController",
          "type": "address"
        }
      ],
      "name": "ProtocolFeeControllerChanged",
      "type": "event"
    },
    {
      "anonymous": false,
      "inputs": [
        {
          "indexed": true,
          "internalType": "address",
          "name": "pool",
          "type": "address"
        },
        {
          "indexed": true,
          "internalType": "contract IERC20",
          "name": "tokenIn",
          "type": "address"
        },
        {
          "indexed": true,
          "internalType": "contract IERC20",
          "name": "tokenOut",
          "type": "address"
        },
        {
          "indexed": false,
          "internalType": "uint256",
          "name": "amountIn",
          "type": "uint256"
        },
        {
          "indexed": false,
          "internalType": "uint256",
          "name": "amountOut",
          "type": "uint256"
        },
        {
          "indexed": false,
          "internalType": "uint256",
          "name": "swapFeePercentage",
          "type": "uint256"
        },
        {
          "indexed": false,
          "internalType": "uint256",
          "name": "swapFeeAmount",
          "type": "uint256"
        }
      ],
      "name": "Swap",
      "type": "event"
    },
    {
      "anonymous": false,
      "inputs": [
        {
          "indexed": true,
          "internalType": "address",
          "name": "pool",
          "type": "address"
        },
        {
          "indexed": false,
          "internalType": "uint256",
          "name": "swapFeePercentage",
          "type": "uint256"
        }
      ],
      "name": "SwapFeePercentageChanged",
      "type": "event"
    },
    {
      "anonymous": false,
      "inputs": [
        {
          "indexed": true,
          "internalType": "address",
          "name": "pool",
          "type": "address"
        },
        {
          "indexed": true,
          "internalType": "address",
          "name": "from",
          "type": "address"
        },
        {
          "indexed": true,
          "internalType": "address",
          "name": "to",
          "type": "address"
        },
        {
          "indexed": false,
          "internalType": "uint256",
          "name": "value",
          "type": "uint256"
        }
      ],
      "name": "Transfer",
      "type": "event"
    },
    {
      "anonymous": false,
      "inputs": [
        {
          "indexed": true,
          "internalType": "contract IERC4626",
          "name": "wrappedToken",
          "type": "address"
        },
        {
          "indexed": false,
          "internalType": "uint256",
          "name": "burnedShares",
          "type": "uint256"
        },
        {
          "indexed": false,
          "internalType": "uint256",
          "name": "withdrawnUnderlying",
          "type": "uint256"
        },
        {
          "indexed": false,
          "internalType": "bytes32",
          "name": "bufferBalances",
          "type": "bytes32"
        }
      ],
      "name": "Unwrap",
      "type": "event"
    },
    {
      "anonymous": false,
      "inputs": [
        {
          "indexed": true,
          "internalType": "address",
          "name": "pool",
          "type": "address"
        },
        {
          "indexed": true,
          "internalType": "bytes32",
          "name": "eventKey",
          "type": "bytes32"
        },
        {
          "indexed": false,
          "internalType": "bytes",
          "name": "eventData",
          "type": "bytes"
        }
      ],
      "name": "VaultAuxiliary",
      "type": "event"
    },
    {
      "anonymous": false,
      "inputs": [
        {
          "indexed": false,
          "internalType": "bool",
          "name": "paused",
          "type": "bool"
        }
      ],
      "name": "VaultBuffersPausedStateChanged",
      "type": "event"
    },
    {
      "anonymous": false,
      "inputs": [
        {
          "indexed": false,
          "internalType": "bool",
          "name": "paused",
          "type": "bool"
        }
      ],
      "name": "VaultPausedStateChanged",
      "type": "event"
    },
    {
      "anonymous": false,
      "inputs": [],
      "name": "VaultQueriesDisabled",
      "type": "event"
    },
    {
      "anonymous": false,
      "inputs": [],
      "name": "VaultQueriesEnabled",
      "type": "event"
    },
    {
      "anonymous": false,
      "inputs": [
        {
          "indexed": true,
          "internalType": "contract IERC4626",
          "name": "wrappedToken",
          "type": "address"
        },
        {
          "indexed": false,
          "internalType": "uint256",
          "name": "depositedUnderlying",
          "type": "uint256"
        },
        {
          "indexed": false,
          "internalType": "uint256",
          "name": "mintedShares",
          "type": "uint256"
        },
        {
          "indexed": false,
          "internalType": "bytes32",
          "name": "bufferBalances",
          "type": "bytes32"
        }
      ],
      "name": "Wrap",
      "type": "event"
    },
    {
      "stateMutability": "payable",
      "type": "fallback"
    },
    {
      "inputs": [
        {
          "internalType": "contract IERC4626",
          "name": "wrappedToken",
          "type": "address"
        },
        {
          "internalType": "uint256",
          "name": "maxAmountUnderlyingInRaw",
          "type": "uint256"
        },
        {
          "internalType": "uint256",
          "name": "maxAmountWrappedInRaw",
          "type": "uint256"
        },
        {
          "internalType": "uint256",
          "name": "exactSharesToIssue",
          "type": "uint256"
        },
        {
          "internalType": "address",
          "name": "sharesOwner",
          "type": "address"
        }
      ],
      "name": "addLiquidityToBuffer",
      "outputs": [
        {
          "internalType": "uint256",
          "name": "amountUnderlyingRaw",
          "type": "uint256"
        },
        {
          "internalType": "uint256",
          "name": "amountWrappedRaw",
          "type": "uint256"
        }
      ],
      "stateMutability": "nonpayable",
      "type": "function"
    },
    {
      "inputs": [],
      "name": "areBuffersPaused",
      "outputs": [
        {
          "internalType": "bool",
          "name": "",
          "type": "bool"
        }
      ],
      "stateMutability": "view",
      "type": "function"
    },
    {
      "inputs": [
        {
          "internalType": "address",
          "name": "pool",
          "type": "address"
        }
      ],
      "name": "collectAggregateFees",
      "outputs": [
        {
          "internalType": "uint256[]",
          "name": "totalSwapFees",
          "type": "uint256[]"
        },
        {
          "internalType": "uint256[]",
          "name": "totalYieldFees",
          "type": "uint256[]"
        }
      ],
      "stateMutability": "nonpayable",
      "type": "function"
    },
    {
      "inputs": [],
      "name": "disableQuery",
      "outputs": [],
      "stateMutability": "nonpayable",
      "type": "function"
    },
    {
      "inputs": [],
      "name": "disableQueryPermanently",
      "outputs": [],
      "stateMutability": "nonpayable",
      "type": "function"
    },
    {
      "inputs": [
        {
          "internalType": "address",
          "name": "pool",
          "type": "address"
        }
      ],
      "name": "disableRecoveryMode",
      "outputs": [],
      "stateMutability": "nonpayable",
      "type": "function"
    },
    {
      "inputs": [],
      "name": "enableQuery",
      "outputs": [],
      "stateMutability": "nonpayable",
      "type": "function"
    },
    {
      "inputs": [
        {
          "internalType": "address",
          "name": "pool",
          "type": "address"
        }
      ],
      "name": "enableRecoveryMode",
      "outputs": [],
      "stateMutability": "nonpayable",
      "type": "function"
    },
    {
      "inputs": [
        {
          "internalType": "bytes4",
          "name": "selector",
          "type": "bytes4"
        }
      ],
      "name": "getActionId",
      "outputs": [
        {
          "internalType": "bytes32",
          "name": "",
          "type": "bytes32"
        }
      ],
      "stateMutability": "view",
      "type": "function"
    },
    {
      "inputs": [
        {
          "internalType": "contract IERC4626",
          "name": "wrappedToken",
          "type": "address"
        }
      ],
      "name": "getBufferAsset",
      "outputs": [
        {
          "internalType": "address",
          "name": "underlyingToken",
          "type": "address"
        }
      ],
      "stateMutability": "view",
      "type": "function"
    },
    {
      "inputs": [
        {
          "internalType": "contract IERC4626",
          "name": "token",
          "type": "address"
        }
      ],
      "name": "getBufferBalance",
      "outputs": [
        {
          "internalType": "uint256",
          "name": "",
          "type": "uint256"
        },
        {
          "internalType": "uint256",
          "name": "",
          "type": "uint256"
        }
      ],
      "stateMutability": "view",
      "type": "function"
    },
    {
      "inputs": [],
      "name": "getBufferMinimumTotalSupply",
      "outputs": [
        {
          "internalType": "uint256",
          "name": "",
          "type": "uint256"
        }
      ],
      "stateMutability": "pure",
      "type": "function"
    },
    {
      "inputs": [
        {
          "internalType": "contract IERC4626",
          "name": "token",
          "type": "address"
        },
        {
          "internalType": "address",
          "name": "user",
          "type": "address"
        }
      ],
      "name": "getBufferOwnerShares",
      "outputs": [
        {
          "internalType": "uint256",
          "name": "shares",
          "type": "uint256"
        }
      ],
      "stateMutability": "view",
      "type": "function"
    },
    {
      "inputs": [],
      "name": "getBufferPeriodDuration",
      "outputs": [
        {
          "internalType": "uint32",
          "name": "",
          "type": "uint32"
        }
      ],
      "stateMutability": "view",
      "type": "function"
    },
    {
      "inputs": [],
      "name": "getBufferPeriodEndTime",
      "outputs": [
        {
          "internalType": "uint32",
          "name": "",
          "type": "uint32"
        }
      ],
      "stateMutability": "view",
      "type": "function"
    },
    {
      "inputs": [
        {
          "internalType": "contract IERC4626",
          "name": "token",
          "type": "address"
        }
      ],
      "name": "getBufferTotalShares",
      "outputs": [
        {
          "internalType": "uint256",
          "name": "shares",
          "type": "uint256"
        }
      ],
      "stateMutability": "view",
      "type": "function"
    },
    {
      "inputs": [],
      "name": "getMaximumPoolTokens",
      "outputs": [
        {
          "internalType": "uint256",
          "name": "",
          "type": "uint256"
        }
      ],
      "stateMutability": "pure",
      "type": "function"
    },
    {
      "inputs": [],
      "name": "getMinimumPoolTokens",
      "outputs": [
        {
          "internalType": "uint256",
          "name": "",
          "type": "uint256"
        }
      ],
      "stateMutability": "pure",
      "type": "function"
    },
    {
      "inputs": [],
      "name": "getMinimumTradeAmount",
      "outputs": [
        {
          "internalType": "uint256",
          "name": "",
          "type": "uint256"
        }
      ],
      "stateMutability": "view",
      "type": "function"
    },
    {
      "inputs": [],
      "name": "getMinimumWrapAmount",
      "outputs": [
        {
          "internalType": "uint256",
          "name": "",
          "type": "uint256"
        }
      ],
      "stateMutability": "view",
      "type": "function"
    },
    {
      "inputs": [],
      "name": "getPauseWindowEndTime",
      "outputs": [
        {
          "internalType": "uint32",
          "name": "",
          "type": "uint32"
        }
      ],
      "stateMutability": "view",
      "type": "function"
    },
    {
      "inputs": [],
      "name": "getPoolMinimumTotalSupply",
      "outputs": [
        {
          "internalType": "uint256",
          "name": "",
          "type": "uint256"
        }
      ],
      "stateMutability": "pure",
      "type": "function"
    },
    {
      "inputs": [],
      "name": "getVaultPausedState",
      "outputs": [
        {
          "internalType": "bool",
          "name": "",
          "type": "bool"
        },
        {
          "internalType": "uint32",
          "name": "",
          "type": "uint32"
        },
        {
          "internalType": "uint32",
          "name": "",
          "type": "uint32"
        }
      ],
      "stateMutability": "view",
      "type": "function"
    },
    {
      "inputs": [
        {
          "internalType": "contract IERC4626",
          "name": "wrappedToken",
          "type": "address"
        },
        {
          "internalType": "uint256",
          "name": "amountUnderlyingRaw",
          "type": "uint256"
        },
        {
          "internalType": "uint256",
          "name": "amountWrappedRaw",
          "type": "uint256"
        },
        {
          "internalType": "uint256",
          "name": "minIssuedShares",
          "type": "uint256"
        },
        {
          "internalType": "address",
          "name": "sharesOwner",
          "type": "address"
        }
      ],
      "name": "initializeBuffer",
      "outputs": [
        {
          "internalType": "uint256",
          "name": "issuedShares",
          "type": "uint256"
        }
      ],
      "stateMutability": "nonpayable",
      "type": "function"
    },
    {
      "inputs": [],
      "name": "isVaultPaused",
      "outputs": [
        {
          "internalType": "bool",
          "name": "",
          "type": "bool"
        }
      ],
      "stateMutability": "view",
      "type": "function"
    },
    {
      "inputs": [
        {
          "internalType": "address",
          "name": "pool",
          "type": "address"
        }
      ],
      "name": "pausePool",
      "outputs": [],
      "stateMutability": "nonpayable",
      "type": "function"
    },
    {
      "inputs": [],
      "name": "pauseVault",
      "outputs": [],
      "stateMutability": "nonpayable",
      "type": "function"
    },
    {
      "inputs": [],
      "name": "pauseVaultBuffers",
      "outputs": [],
      "stateMutability": "nonpayable",
      "type": "function"
    },
    {
      "inputs": [],
      "name": "reentrancyGuardEntered",
      "outputs": [
        {
          "internalType": "bool",
          "name": "",
          "type": "bool"
        }
      ],
      "stateMutability": "view",
      "type": "function"
    },
    {
      "inputs": [
        {
          "internalType": "contract IERC4626",
          "name": "wrappedToken",
          "type": "address"
        },
        {
          "internalType": "uint256",
          "name": "sharesToRemove",
          "type": "uint256"
        },
        {
          "internalType": "uint256",
          "name": "minAmountUnderlyingOutRaw",
          "type": "uint256"
        },
        {
          "internalType": "uint256",
          "name": "minAmountWrappedOutRaw",
          "type": "uint256"
        }
      ],
      "name": "removeLiquidityFromBuffer",
      "outputs": [
        {
          "internalType": "uint256",
          "name": "removedUnderlyingBalanceRaw",
          "type": "uint256"
        },
        {
          "internalType": "uint256",
          "name": "removedWrappedBalanceRaw",
          "type": "uint256"
        }
      ],
      "stateMutability": "nonpayable",
      "type": "function"
    },
    {
      "inputs": [
        {
          "internalType": "contract IERC4626",
          "name": "wrappedToken",
          "type": "address"
        },
        {
          "internalType": "uint256",
          "name": "sharesToRemove",
          "type": "uint256"
        },
        {
          "internalType": "uint256",
          "name": "minAmountUnderlyingOutRaw",
          "type": "uint256"
        },
        {
          "internalType": "uint256",
          "name": "minAmountWrappedOutRaw",
          "type": "uint256"
        },
        {
          "internalType": "address",
          "name": "sharesOwner",
          "type": "address"
        }
      ],
      "name": "removeLiquidityFromBufferHook",
      "outputs": [
        {
          "internalType": "uint256",
          "name": "removedUnderlyingBalanceRaw",
          "type": "uint256"
        },
        {
          "internalType": "uint256",
          "name": "removedWrappedBalanceRaw",
          "type": "uint256"
        }
      ],
      "stateMutability": "nonpayable",
      "type": "function"
    },
    {
      "inputs": [
        {
          "internalType": "contract IAuthorizer",
          "name": "newAuthorizer",
          "type": "address"
        }
      ],
      "name": "setAuthorizer",
      "outputs": [],
      "stateMutability": "nonpayable",
      "type": "function"
    },
    {
      "inputs": [
        {
          "internalType": "contract IProtocolFeeController",
          "name": "newProtocolFeeController",
          "type": "address"
        }
      ],
      "name": "setProtocolFeeController",
      "outputs": [],
      "stateMutability": "nonpayable",
      "type": "function"
    },
    {
      "inputs": [
        {
          "internalType": "address",
          "name": "pool",
          "type": "address"
        },
        {
          "internalType": "uint256",
          "name": "swapFeePercentage",
          "type": "uint256"
        }
      ],
      "name": "setStaticSwapFeePercentage",
      "outputs": [],
      "stateMutability": "nonpayable",
      "type": "function"
    },
    {
      "inputs": [
        {
          "internalType": "address",
          "name": "pool",
          "type": "address"
        }
      ],
      "name": "unpausePool",
      "outputs": [],
      "stateMutability": "nonpayable",
      "type": "function"
    },
    {
      "inputs": [],
      "name": "unpauseVault",
      "outputs": [],
      "stateMutability": "nonpayable",
      "type": "function"
    },
    {
      "inputs": [],
      "name": "unpauseVaultBuffers",
      "outputs": [],
      "stateMutability": "nonpayable",
      "type": "function"
    },
    {
      "inputs": [
        {
          "internalType": "address",
          "name": "pool",
          "type": "address"
        },
        {
          "internalType": "uint256",
          "name": "newAggregateSwapFeePercentage",
          "type": "uint256"
        }
      ],
      "name": "updateAggregateSwapFeePercentage",
      "outputs": [],
      "stateMutability": "nonpayable",
      "type": "function"
    },
    {
      "inputs": [
        {
          "internalType": "address",
          "name": "pool",
          "type": "address"
        },
        {
          "internalType": "uint256",
          "name": "newAggregateYieldFeePercentage",
          "type": "uint256"
        }
      ],
      "name": "updateAggregateYieldFeePercentage",
      "outputs": [],
      "stateMutability": "nonpayable",
      "type": "function"
    },
    {
      "inputs": [],
      "name": "vault",
      "outputs": [
        {
          "internalType": "contract IVault",
          "name": "",
          "type": "address"
        }
      ],
      "stateMutability": "view",
      "type": "function"
    },
    {
      "stateMutability": "payable",
      "type": "receive"
    }
  ],
  "bytecode": "0x610200806040523461039c5760a081613770803803809161002082856103a1565b83398101031261039c5780516001600160a01b038116919082810361039c5763ffffffff610050602084016103da565b61005c604085016103da565b9260806060860151950151956100956040516100796040826103a1565b600a8152691a5cd55b9b1bd8dad95960b21b60208201526103eb565b60c0526100cc6040516100a96040826103a1565b60118152701b9bdb96995c9bd1195b1d1850dbdd5b9d607a1b60208201526103eb565b60e0526100fd6040516100e06040826103a1565b600b81526a746f6b656e44656c74617360a81b60208201526103eb565b610100526101366040516101126040826103a1565b6012815271185919131a5c5d5a591a5d1e50d85b1b195960721b60208201526103eb565b6101205261016660405161014b6040826103a1565b60098152681cd95cdcda5bdb925960ba1b60208201526103eb565b610140526101c0526101e0521690630784ce00821161038b5763ffffffff81169162ed4e00831161037a57420180421161034b5763ffffffff81116103615763ffffffff169081610160526101a0520163ffffffff811161034b576101805260805260a05260405161329e90816104d2823960805181610629015260a0518161249d015260c05181612c1e015260e051818181612f970152612fdb01526101005181612f4201526101205181505061014051815050610160518181816116d601528181611a750152611aec015261018051818181610f4001528181611b180152612b7501526101a05181818161040001528181610be801528181610e8f01528181612434015261264301526101c051816129c401526101e05181818161023a01528181610290015281816102ec0152818161047101528181610665015281816108900152818161099d01528181610a2901528181610a9601528181610aec01528181610c9a01528181610f8301528181611601015281816116870152818161176f015281816117df01528181611aaf01528181611b8f01528181611be901528181611e7c01528181611f38015281816122c801528181612320015281816124e20152818161258b0152818161267d015281816127160152818161277a01526128140152f35b634e487b7160e01b600052601160045260246000fd5b6306dfcc6560e41b600052602060045260245260446000fd5b634f5277f760e11b60005260046000fd5b63cc0e8fe560e01b60005260046000fd5b600080fd5b601f909101601f19168101906001600160401b038211908210176103c457604052565b634e487b7160e01b600052604160045260246000fd5b519063ffffffff8216820361039c57565b610464610472604051926104006040856103a1565b600c84526b5661756c7453746f7261676560a01b6020850152604051928391600161045660208501977f62616c616e6365722d6c6162732e76332e73746f726167652e00000000000000895260398601906104a6565b601760f91b815201906104a6565b03601f1981018352826103a1565b519020600019810190811161034b5760405190602082019081526020825261049b6040836103a1565b9051902060ff191690565b9081519160005b8381106104be575050016000815290565b80602080928401015181850152016104ad56fe60806040526004361015610061575b361561005057346100505760405162461bcd60e51b815260206004820152600f60248201526e139bdd081a5b5c1b195b595b9d1959608a1b6044820152606490fd5b637911c44b60e11b60005260046000fd5b6000803560e01c80630387587d146127f2578063058a628f1461274e578063098401f5146127005780630b7562be1461266757806320c1fb7a1461262657806326a8a991146126095780632d7713891461255f5780632e42f4d5146125435780634021fe0f146124c057806353956aa21461248557806355aca1ec1461230157806355cba7fe146122af5780635dcacd6414611f225780635e0b06f414611e59578063653eb3b014611bd0578063821440f214611b79578063851c1bb314611b3f57806385c8c01514611a995780638a8d123a14611a585780638f4ab9ca146117c25780639385e39a146117375780639e0879c214611671578063a8175b2714611655578063b9212b49146115eb578063bffb78b214610f64578063cd51c12f14610f23578063d0965a6b14610f05578063d15126ba14610c78578063d2c725e014610c4b578063dc3f574e14610acd578063de1a36a614610a80578063e085c5a814610a13578063e0d5560514610987578063e253670a1461086d578063e2a92b1a1461064c578063e2cb0ba014610611578063ebc7955c14610451578063f21c38cd146102cd578063f2784e071461026c5763fbfa77cf14610225575061000e565b346102695780600319360112610269576040517f00000000000000000000000000000000000000000000000000000000000000006001600160a01b03168152602090f35b80fd5b503461026957602036600319011261026957604060209161028b612858565b6102b47f0000000000000000000000000000000000000000000000000000000000000000612a9e565b6001600160a01b03168152600d83522054604051908152f35b5034610269576020366003190112610269576102e7612858565b6103107f0000000000000000000000000000000000000000000000000000000000000000612a9e565b61031981612be5565b6001600160a01b038181168084526001602052604084205490928492610340921690612ed2565b818352602083815260408085205484865291859052842054600192600292909180841c85169061036f90612ef6565b816103f6575b50156103e257816103ce5760ff83116103b8576000805160206131a98339815191529360ff8460209550878552848652161b19166040822055604051908152a280f35b634e487b7160e01b600052601160045260246000fd5b63d971f59760e01b82526004859052602482fd5b633f735a2560e21b86526004859052602486fd5b905063ffffffff807f00000000000000000000000000000000000000000000000000000000000000001691160163ffffffff811161043d5763ffffffff1642111538610375565b634e487b7160e01b87526011600452602487fd5b50346102695760803660031901126102695761046b612858565b816105147f000000000000000000000000000000000000000000000000000000000000000061049981612a9e565b6040516020810194631772b35960e21b865260018060a01b031660248201526024356044820152604435606482015260643560848201523360a482015260a481526104e560c482612955565b8360446040518097819682956348c8949160e01b84526020600485015251809281602486015285850190612a7b565b601f01601f191681010301926001600160a01b03165af1908115610606578291610563575b5060408180518101031261055f5780604060208193015191015182519182526020820152f35b5080fd5b90503d8083833e6105748183612955565b810190602081830312610602578051906001600160401b0382116105ea570181601f820112156106025780516001600160401b0381116105ee57604051926105c6601f8301601f191660200185612955565b818452602082840101116105ea576105e49160208085019101612a7b565b38610539565b8380fd5b634e487b7160e01b84526041600452602484fd5b8280fd5b6040513d84823e3d90fd5b503461026957806003193601126102695760206040517f00000000000000000000000000000000000000000000000000000000000000008152f35b50346102695761065b3661286e565b90610689959294957f0000000000000000000000000000000000000000000000000000000000000000612a9e565b610691612c1c565b610699612d44565b6106a286612c56565b6106aa612bac565b6040516338d52e0f60e01b81526001600160a01b0387169290602081600481875afa908115610862578591610833575b50838552600e60205260408520546001600160a01b03918216911681900361081c57838552600b602052604085205496848652600d60205260408620549160018060801b0389169161073c610730858886612e68565b9a60801c948786612e68565b98808b1161080057508089116107e45750936107c5936107a560409b9461079f8b6107998e6107b8986107948e61078b6000805160206131898339815191529f61078586612f15565b90612f3a565b61078586612f15565b6129ad565b926129ad565b90612cb4565b93878952600b602052848c8a2055612d84565b8751918291878984612978565b0390a26000805160206132298339815191525582519182526020820152f35b6323b6a17960e21b885260048790526024899052604452606487fd5b6323b6a17960e21b8952600483905260248b9052604452606488fd5b6336b18d0960e01b85526004849052602452604484fd5b610855915060203d60201161085b575b61084d8183612955565b81019061298e565b386106da565b503d610843565b6040513d87823e3d90fd5b503461026957604036600319011261026957610887612858565b602435906108b47f0000000000000000000000000000000000000000000000000000000000000000612a9e565b6108bd81612be5565b670de0b6b3a7640000821161097857600a546001600160a01b03163303610969576001600160a01b031680835260208390526040832054909190670de0b5cad2bef000821161095a577f606eb97d83164bd6b200d638cd49c14c65d94d4f2c674cfd85e24e0e202c3ca591610945602092610936612e52565b9064174876e800840490613012565b8486528583526040862055604051908152a280f35b6301d1b96560e61b8452600484fd5b6323dada5360e01b8352600483fd5b634c69ac5d60e01b8352600483fd5b50346102695780600319360112610269576109c17f0000000000000000000000000000000000000000000000000000000000000000612a9e565b6109c9612ac0565b60ff60095416610a0457600119600754166007557f91d7478835f2b5adc315f5aad920f4a7f0a02f7fddf3042d17b2c80168ea17f58180a180f35b6301a7e32f60e21b8152600490fd5b5034610269578060031936011261026957610a4d7f0000000000000000000000000000000000000000000000000000000000000000612a9e565b610a55612ac0565b60078054600419166004179055604051600181526000805160206131e983398151915290602090a180f35b5034610269578060031936011261026957610aba7f0000000000000000000000000000000000000000000000000000000000000000612a9e565b610ac2612ac0565b610aca612e1f565b80f35b503461026957602036600319011261026957610ae7612858565b610b107f0000000000000000000000000000000000000000000000000000000000000000612a9e565b610b1981612be5565b6001600160a01b031680825260208290526040822054610b38906130c4565b610c39578082526020829052604082205460019060029080821c831690610b5e90612ef6565b81610bde575b501580610bcf575b610bc2575b8284528360205260408420549160ff82116103b8576000805160206131c9833981519152928160ff610ba68560209650612cf9565b161b90858752868452811916176040862055604051908152a280f35b610bca612ac0565b610b71565b50610bd8612b6e565b15610b6c565b905063ffffffff807f00000000000000000000000000000000000000000000000000000000000000001691160163ffffffff8111610c255763ffffffff1642111538610b64565b634e487b7160e01b85526011600452602485fd5b63346d760760e01b8252600452602490fd5b50346102695780600319360112610269576020600080516020613229833981519152546040519015158152f35b503461026957604036600319011261026957610c92612858565b602435610cbe7f0000000000000000000000000000000000000000000000000000000000000000612a9e565b610cc782612be5565b6001600160a01b0382811680855260016020819052604086200154909391169081610eef57610cf69150613075565b610cfe612b6e565b610ee057818352602083905260408320546001600282901c1690610d2190612ef6565b81610e85575b50610e715760405163ce20ece760e01b8152602081600481865afa908115610e25578491610e3f575b508110610e305760405163654cf15d60e01b8152602081600481865afa908115610e25578491610dee575b508111610ddf57818352826020526040832054670de0b5cad2bef000821161095a577f89d41522342fabac1471ca6073a5623e5caf367b03ca6e9a001478d0cf8be4a19161094560209260ff610dcf612d0b565b169064174876e800840490613012565b637f47834b60e01b8352600483fd5b90506020813d602011610e1d575b81610e0960209383612955565b81010312610e18575138610d7b565b600080fd5b3d9150610dfc565b6040513d86823e3d90fd5b6317f640d160e31b8352600483fd5b90506020813d602011610e69575b81610e5a60209383612955565b81010312610e18575138610d50565b3d9150610e4d565b63d971f59760e01b83526004829052602483fd5b905063ffffffff807f00000000000000000000000000000000000000000000000000000000000000001691160163ffffffff8111610ecc5763ffffffff1642111538610d27565b634e487b7160e01b84526011600452602484fd5b6336a7e2cd60e21b8352600483fd5b503314610cf6576323dada5360e01b8352600483fd5b50346102695780600319360112610269576020604051620f42408152f35b5034610269578060031936011261026957602060405163ffffffff7f0000000000000000000000000000000000000000000000000000000000000000168152f35b503461026957602036600319011261026957610f7e612858565b610fa77f0000000000000000000000000000000000000000000000000000000000000000612a9e565b610fb081612be5565b610fb8612ac0565b6001600160a01b038116825260208290526040822054610fd7906130c4565b156115d057610fe4612bac565b60405160e081016001600160401b038111828210176105ee576040908152838252606060208084018290528383018290528184018290526080840182905260a0840182905260c08401919091526001600160a01b0384168086526005825282862081875286835283872054828852600384528488209288526002845284882080549187529451818152948852838820919594909390919082908101895b8681106115ae575061109592500382612955565b60208401526110a382612a08565b6110b06040519182612955565b828152601f196110bf84612a08565b01875b81811061158557505060408401526110d982612a1f565b60608401526110e782612a1f565b6080840152825164ffffffffff6110fd84612a1f565b91611106612eee565b1c16875b84811061153957505060c084015261112182612a1f565b60a084015282519360018095811c169182611525575b82611512575b908594939291885b84811061123f57505050506001600160a01b0385168652506005602052604085209085835b6111f3575b505050600080516020613229833981519152849055506001600160a01b0382168352602083905260408320549060ff80821682019081116103b85760ff906111b690612cf9565b161b191660018060a01b03821683528260205260408320556000805160206131c983398151915260206040519284845260018060a01b031692a280f35b606082015190815181101561123957611226611210828794612a51565b5161121f836080870151612a51565b5190612cb4565b818952846020526040892055018361116a565b5061116f565b604060018060a0999495969798991b0361125d8360208b0151612a51565b51166001600160a01b031660009081526020859052206040519060ff9061128383612924565b54818116611290816130d9565b835260018060a01b038160081c16602084015260a81c1615156040820152818b528460205260408b2054906112d58360408b0151836112cf8383612a51565b52612a51565b5080516112e1816130d9565b6112ea816130d9565b806114685750670de0b6b3a76400005b6113088460a08c0151612a51565b5261131d6001600160801b038316848b613126565b86156114615783604082015115159182611443575b5050611348575b505b0190869594939291611145565b61135288516130f9565b906113618360608b0151612a51565b519060801c918c926113778560808d0151612a51565b518181116113aa575b5050508161138f575b50611339565b6113a39161139c91612917565b8289613126565b3880611389565b9091929495506113bb9350036128e4565b88670de0b6b3a764000060001983010401901515026113f76113e18460c08b0151612a51565b516113f08560a08c0151612a51565b51906128e4565b90670de0b6b3a7640000810290808204670de0b6b3a7640000149015171561142f5789939291611426916128f7565b90388080611380565b634e487b7160e01b8c52601160045260248cfd5b90915051611450816130d9565b611459816130d9565b148338611332565b505061133b565b8c949192939450611478816130d9565b03611503576020808201516040516333cd77e760e11b81529493929190859060049082906001600160a01b03165afa80156114f8578a948d916114bc575b506112fa565b91929394505060203d81116114f1575b6114d68183612955565b602082600092810103126102695750908993929151386114b6565b503d6114cc565b6040513d8e823e3d90fd5b636fa2831960e11b8b5260048bfd5b915061151e84516130c4565b159161113d565b915061153184516130f9565b151591611137565b60058102818104600514821517156115715782601f911c16604d81116115715790600191600a0a61156a8286612a51565b520161110a565b634e487b7160e01b8a52601160045260248afd5b60209060405161159481612924565b8a81528a838201528a6040820152828286010152016110c2565b83546001600160a01b0316825260019384019385935060209092019101611081565b63ef029adf60e01b82526001600160a01b0316600452602490fd5b50346102695780600319360112610269576116257f0000000000000000000000000000000000000000000000000000000000000000612a9e565b61162d612ac0565b600754600160021b19166007556000805160206131e98339815191526020604051838152a180f35b5034610269578060031936011261026957602060405160028152f35b50346102695780600319360112610269576116ab7f0000000000000000000000000000000000000000000000000000000000000000612a9e565b6116b3612ac0565b6116bb612b6e565b156116cf576336a7e2cd60e21b8152600490fd5b63ffffffff7f00000000000000000000000000000000000000000000000000000000000000001642101561172857600780546002191660021790556040516001815260008051602061320983398151915290602090a180f35b630e4460b760e01b8152600490fd5b503461026957604036600319011261026957611751612858565b60243591906001600160a01b038316830361055f57906040916117937f0000000000000000000000000000000000000000000000000000000000000000612a9e565b60018060a01b03168152600c602052209060018060a01b03166000526020526020604060002054604051908152f35b5034610269576020366003190112610269576117dc612858565b907f00000000000000000000000000000000000000000000000000000000000000009161180883612a9e565b611810612c1c565b600a546001600160a01b03163303611a4957908082611830602494612be5565b60405163ca4f280360e01b81526001600160a01b0391821660048201819052959094859290918391165afa918215611a3c578192611991575b50815161187e61187882612a1f565b91612a1f565b93825b8451811015611963576001906001600160a01b0361189f8288612a51565b511683865260066020526040808720600090858060a01b038416825260205220548060801c6118ce848b612a51565b52838060801b03166118e08387612a51565b526118eb8286612a51565b5115801590611950575b611901575b5001611881565b61194a908487526006602052866040808220600090878060a01b038516825260205220556119446119328488612a51565b5161193d858c612a51565b51906129ad565b90612c8f565b386118fa565b5061195b8289612a51565b5115156118f5565b61197f8361198d886040519384936040855260408501906128b0565b9083820360208501526128b0565b0390f35b9091503d8083833e6119a38183612955565b810190602081830312610602578051906001600160401b0382116105ea57019080601f83011215610602578151906119da82612a08565b926119e86040519485612955565b82845260208085019360051b820101918211611a3857602001915b818310611a14575050509038611869565b82516001600160a01b0381168103611a3457815260209283019201611a03565b8580fd5b8480fd5b50604051903d90823e3d90fd5b6323dada5360e01b8252600482fd5b5034610269578060031936011261026957602060405163ffffffff7f0000000000000000000000000000000000000000000000000000000000000000168152f35b5034610269578060031936011261026957611ad37f0000000000000000000000000000000000000000000000000000000000000000612a9e565b6060611add612b6e565b604051901515815263ffffffff7f000000000000000000000000000000000000000000000000000000000000000016602082015263ffffffff7f0000000000000000000000000000000000000000000000000000000000000000166040820152f35b503461026957602036600319011261026957600435906001600160e01b031982168203610269576020611b71836129ba565b604051908152f35b5034610269578060031936011261026957611bb37f0000000000000000000000000000000000000000000000000000000000000000612a9e565b611bbb612ac0565b600160ff196009541617600955610aca612e1f565b503461026957611bdf3661286e565b611c0d95939192957f0000000000000000000000000000000000000000000000000000000000000000612a9e565b611c15612c1c565b611c1d612d44565b611c25612bac565b6001600160a01b03858116808652600e602052604086205490949116611e46576040516338d52e0f60e01b8152602081600481885afa908115611e3b578691611e1c575b506001600160a01b03168015611e0857848652600e6020526040862080546001600160a01b03191682179055611ca29061078585612f15565b611cb4611cae88612f15565b85612f3a565b611cbe8784612cb4565b91848652600b60205282604087205560405163266d6a8360e11b8152886004820152602081602481895afa8015611dfd5785908890611dc7575b611d0292506129ad565b96611d0c88612d64565b61270f19880197881161043d57611d6a918891878952600d60205261271060408a2055878952600c6020526040892089805260205261271060408a2055888860008051602061324983398151915260206040516127108152a3612d84565b808610611db057509460008051602061318983398151915291611d9560209760405193849384612978565b0390a260008051602061322983398151915255604051908152f35b636d06583f60e11b85526004869052602452604484fd5b50506020813d602011611df5575b81611de260209383612955565b81010312610e185784611d029151611cf8565b3d9150611dd5565b6040513d89823e3d90fd5b63d407f9c560e01b86526004859052602486fd5b611e35915060203d60201161085b5761084d8183612955565b38611c69565b6040513d88823e3d90fd5b625a43e960e61b85526004849052602485fd5b503461026957604036600319011261026957611e73612858565b60243590611ea07f0000000000000000000000000000000000000000000000000000000000000000612a9e565b611ea981612be5565b670de0b6b3a7640000821161097857600a546001600160a01b03163303610969576001600160a01b031680835260208390526040832054909190670de0b5cad2bef000821161095a577fe4d371097beea42453a37406e2aef4c04f3c548f84ac50e72578662c0dcd735491610945602092610936612d2b565b503461026957611f313661286e565b94909291937f0000000000000000000000000000000000000000000000000000000000000000611f6081612a9e565b6001600160a01b0316903382900361229c57611f7a612c1c565b611f8381612c56565b3215808061228f575b612243575b5060018060a01b031692838352600c6020526040832060018060a01b03881684526020526040832054811161223457838352600b602052604083205495848452600d602052604084205460018060801b038816612009611ffa83611ff587856128e4565b6128f7565b9960801c92611ff586856128e4565b97878752600e60205260018060a01b0360408820541693808b1061221857508089106121fc57509061079f886120568b61205c956120478289612c8f565b612051848d612c8f565b612917565b92612917565b858552600b60205260408520819055976001600160a01b03169182156121ed57857f4e09f7f7fc37ce2897800e2c2a9099565edb0a133d19d84a6871b3530af8846b60208593838952600d82526120b78160408b2054612917565b6120c081612d64565b848a52600d835260408a2055838952600c825260408920858a528252604089206120eb828254612917565b9055604051908152a38661219f575b5084612147575b5050507f44d97b36e99b590b3d2875aad3b167b1d7fb1e063f3f1325a1eeac76caee51136121386040958651918291868884612978565b0390a282519182526020820152f35b813b1561060257829160648392604051948593849263ae63932960e01b845289600485015260248401528960448401525af180156106065761218a575b80612101565b612195828092612955565b6102695780612184565b823b156105ea576040519063ae63932960e01b82526004820152816024820152866044820152838160648183875af18015610e2557156120fa57836121e691949294612955565b91386120fa565b63586d06df60e01b8552600485fd5b6323b6a17960e21b875260048890526024899052604452606486fd5b6323b6a17960e21b8852600485905260248b9052604452606487fd5b634c62edeb60e11b8352600483fd5b15612280576001600160a01b038181168452600c60209081526040808620928a168652919052832080546122789086906129ad565b905538611f91565b6333fc255960e11b8352600483fd5b5060016007541615611f8c565b63089676d560e01b835233600452602483fd5b50346102695780600319360112610269576020906122ec7f0000000000000000000000000000000000000000000000000000000000000000612a9e565b600754905060016040519160021c1615158152f35b50346102695760203660031901126102695761231b612858565b6123447f0000000000000000000000000000000000000000000000000000000000000000612a9e565b61234d81612be5565b6001600160a01b03818116808452600160205260408420549092612375929190911690612ed2565b8082526020828152604080842054838552918490528320546001919060029080821c8416906123a390612ef6565b8161242a575b50156123c35763d971f59760e01b85526004849052602485fd5b63ffffffff6123d183612ef6565b164210156124165760ff8111610c2557916020918160ff856000805160206131a98339815191529650161b90858752868452811916176040862055604051908152a280f35b63eb5a121760e01b85526004849052602485fd5b905063ffffffff807f00000000000000000000000000000000000000000000000000000000000000001691160163ffffffff81116124715763ffffffff16421115386123a9565b634e487b7160e01b86526011600452602486fd5b503461026957806003193601126102695760206040517f00000000000000000000000000000000000000000000000000000000000000008152f35b5034610269576020366003190112610269576040906124dd612858565b6125067f0000000000000000000000000000000000000000000000000000000000000000612a9e565b6001600160a01b0316808252600b602081815284842054928452908152918390205483516001600160801b03909216825260801c91810191909152f35b5034610269578060031936011261026957602060405160088152f35b5034610269576020366003190112610269576004356001600160a01b0381169081900361055f576125af7f0000000000000000000000000000000000000000000000000000000000000000612a9e565b6125b7612ac0565b6125bf612bac565b600a80546001600160a01b031916821790557f280a60b1e63c1774d397d35cce80eb80e51408ead755fb446e6f744ce98e5df08280a2806000805160206132298339815191525580f35b503461026957806003193601126102695760206040516127108152f35b5034610269578060031936011261026957602060405163ffffffff7f0000000000000000000000000000000000000000000000000000000000000000168152f35b50346102695780600319360112610269576126a17f0000000000000000000000000000000000000000000000000000000000000000612a9e565b6126a9612ac0565b806126b2612b6e565b156126f157806126e25760206000805160206132098339815191529160075460021916600755604051908152a180f35b6336a7e2cd60e21b8152600490fd5b637bffa6e560e11b8252600482fd5b503461026957806003193601126102695761273a7f0000000000000000000000000000000000000000000000000000000000000000612a9e565b6020612744612b6e565b6040519015158152f35b5034610269576020366003190112610269576004356001600160a01b038116908181036106025761279e7f0000000000000000000000000000000000000000000000000000000000000000612a9e565b6127a6612ac0565b60098054610100600160a81b03191660089290921b610100600160a81b03169190911790557f94b979b6831a51293e2641426f97747feed46f17779fed9cd18d1ecefcfe92ef8280a280f35b50346102695760203660031901126102695760209061280f612858565b6128387f0000000000000000000000000000000000000000000000000000000000000000612a9e565b6001600160a01b039081168252600e835260409182902054915191168152f35b600435906001600160a01b0382168203610e1857565b60a0906003190112610e18576004356001600160a01b0381168103610e1857906024359060443590606435906084356001600160a01b0381168103610e185790565b906020808351928381520192019060005b8181106128ce5750505090565b82518452602093840193909201916001016128c1565b818102929181159184041417156103b857565b8115612901570490565b634e487b7160e01b600052601260045260246000fd5b919082039182116103b857565b606081019081106001600160401b0382111761293f57604052565b634e487b7160e01b600052604160045260246000fd5b601f909101601f19168101906001600160401b0382119082101761293f57604052565b6040919493926060820195825260208201520152565b90816020910312610e1857516001600160a01b0381168103610e185790565b919082018092116103b857565b60405160208101917f0000000000000000000000000000000000000000000000000000000000000000835263ffffffff60e01b16604082015260248152612a02604482612955565b51902090565b6001600160401b03811161293f5760051b60200190565b90612a2982612a08565b612a366040519182612955565b8281528092612a47601f1991612a08565b0190602036910137565b8051821015612a655760209160051b010190565b634e487b7160e01b600052603260045260246000fd5b60005b838110612a8e5750506000910152565b8181015183820152602001612a7e565b6001600160a01b03163003612aaf57565b634fe92d9b60e11b60005260046000fd5b612b076020612ada6000356001600160e01b0319166129ba565b60018060a01b0360095460081c1660405180809581946326f8aa2160e21b83523090339060048501612eb2565b03915afa908115612b6257600091612b33575b5015612b2257565b6323dada5360e01b60005260046000fd5b612b55915060203d602011612b5b575b612b4d8183612955565b810190612e9a565b38612b1a565b503d612b43565b6040513d6000823e3d90fd5b63ffffffff7f00000000000000000000000000000000000000000000000000000000000000001642111580612ba05790565b506001600754811c1690565b60008051602061322983398151915254612bd457600160008051602061322983398151915255565b633ee5aeb560e01b60005260046000fd5b6001600160a01b031660008181526020819052604090205460011615612c085750565b6327946f5760e21b60005260045260246000fd5b7f00000000000000000000000000000000000000000000000000000000000000005415612c4557565b63604dd39b60e11b60005260046000fd5b6001600160a01b039081166000818152600e602052604090205490911615612c7b5750565b6385f4129960e01b60005260045260246000fd5b90612c9990612f15565b90600160ff1b82146103b857612cb29160000390612f3a565b565b6001600160801b0381118015612ce9575b612cd857612cd59160801b6129ad565b90565b6389560ca160e01b60005260046000fd5b506001600160801b038211612cc5565b60ff60019116019060ff82116103b857565b612cd5612d2680808080808080808080808080806002612cf9565b612cf9565b60ff612d35612d0b565b16601881018091116103b85790565b600160075460021c16612d5357565b630f27df0960e01b60005260046000fd5b6127108110612d705750565b631a5edfd560e11b60005260045260246000fd5b6001600160a01b0390911691908215612e0e5760206000805160206132498339815191529160018060a01b03169283600052600d8252612dc9816040600020546129ad565b612dd281612d64565b84600052600d835260406000205583600052600c825260406000208560005282526040600020612e038282546129ad565b9055604051908152a3565b636df3588760e11b60005260046000fd5b6001801960075416176007557fbd204090fd387f08e3076528bf09b4fc99d8100d749eace96c06002d3fedc625600080a1565b612e5a612d2b565b601881018091116103b85790565b8215612e8957600191612e7a916128e4565b91600019830104019015150290565b630a0c22c760e01b60005260046000fd5b90816020910312610e1857518015158103610e185790565b9081526001600160a01b0391821660208201529116604082015260600190565b906001600160a01b03163314612eeb57612cb290613075565b50565b612e5a612e52565b612efe612eee565b90602882018092116103b85763ffffffff911c1690565b6001600160ff1b038111612f265790565b63123baf0360e11b60005260045260246000fd5b811561300e577f00000000000000000000000000000000000000000000000000000000000000009060018060a01b03168060005281602052604060002054838101938412600082129080158216911516176103b85783612fd557507f000000000000000000000000000000000000000000000000000000000000000080546000198101919082116103b857555b600052602052604060002055565b612fc7577f0000000000000000000000000000000000000000000000000000000000000000805490600182018092116103b85755612fc7565b5050565b9061010083101561306457826101000361010081116103b8578060ff108160ff180218601811613064578060181c6130535762ffffff90831b921b19161790565b63e4337c0560e01b60005260046000fd5b632d0483c560e21b60005260046000fd5b612b07906020906130916000356001600160e01b0319166129ba565b6009546040516326f8aa2160e21b815294859360089290921c6001600160a01b0316928492839291339060048501612eb2565b60019060ff6130d36002612cf9565b161c1690565b600211156130e357565b634e487b7160e01b600052602160045260246000fd5b62ffffff90613106612e52565b1c1664174876e80081029080820464174876e80014901517156103b85790565b9180613136836060860151612a51565b526000670de0b6b3a764000061317c61318594938360809450506131776131618660c08a0151612a51565b516131708760a08b0151612a51565b51926128e4565b6128e4565b04930151612a51565b5256fe75c4dc5f23640eeba7d404d9165f515fc3d9e23a5c8b6e2d09b4b9da56ff00a957e20448028297190122571be7cb6c1b1ef85730c673f7c72f533c8662419aa7c2354cc2f78ea57777e55ddd43a7f22b112ce98868596880edaeb22b4f9c73a9300c7ca619eb846386aa0a6e5916ac2a41406448b0a2e99ba9ccafeb899015a5e0629fe656e45ad7fd63a24b899da368690024c07043b88e57aee5095b1d3d029b779b17422d0df92223018b32b4d1fa46e071723d6817e2486d003becc55f00d66f031d33381c6408f0b32c884461e5de3df8808399b6f3a3d86b1368f8ec34a2646970667358221220997e5f4fbe2152e23a17e4a0ea0854bffc496625bf42ee8e75afe54fa364365164736f6c634300081a0033",
  "linkReferences": {},
  "deployedLinkReferences": {}
}