{
  "_format": "hh-sol-artifact-1",
  "contractName": "Router",
  "sourceName": "contracts/_Router.sol",
  "abi": [
    {
      "inputs": [
        {
          "internalType": "contract IVault",
          "name": "vault",
          "type": "address"
        },
        {
          "internalType": "contract IWETH",
          "name": "weth",
          "type": "address"
        },
        {
          "internalType": "string",
          "name": "routerVersion",
          "type": "string"
        }
      ],
      "stateMutability": "nonpayable",
      "type": "constructor"
    },
    {
      "inputs": [
        {
          "internalType": "address",
          "name": "target",
          "type": "address"
        }
      ],
      "name": "AddressEmptyCode",
      "type": "error"
    },
    {
      "inputs": [
        {
          "internalType": "address",
          "name": "token",
          "type": "address"
        },
        {
          "internalType": "uint256",
          "name": "amount",
          "type": "uint256"
        }
      ],
      "name": "ApprovalFailed",
      "type": "error"
    },
    {
      "inputs": [],
      "name": "CantBeIdenticalAddresses",
      "type": "error"
    },
    {
      "inputs": [],
      "name": "CantBeZeroAddress",
      "type": "error"
    },
    {
      "inputs": [],
      "name": "ErrorSelectorNotFound",
      "type": "error"
    },
    {
      "inputs": [],
      "name": "EthTransfer",
      "type": "error"
    },
    {
      "inputs": [],
      "name": "FailedCall",
      "type": "error"
    },
    {
      "inputs": [],
      "name": "InputLengthMismatch",
      "type": "error"
    },
    {
      "inputs": [
        {
          "internalType": "uint256",
          "name": "balance",
          "type": "uint256"
        },
        {
          "internalType": "uint256",
          "name": "needed",
          "type": "uint256"
        }
      ],
      "name": "InsufficientBalance",
      "type": "error"
    },
    {
      "inputs": [],
      "name": "InsufficientEth",
      "type": "error"
    },
    {
      "inputs": [],
      "name": "InsufficientWithdrawGasFeeAmount",
      "type": "error"
    },
    {
      "inputs": [],
      "name": "NotGateway",
      "type": "error"
    },
    {
      "inputs": [],
      "name": "ReentrancyGuardReentrantCall",
      "type": "error"
    },
    {
      "inputs": [
        {
          "internalType": "uint8",
          "name": "bits",
          "type": "uint8"
        },
        {
          "internalType": "uint256",
          "name": "value",
          "type": "uint256"
        }
      ],
      "name": "SafeCastOverflowedUintDowncast",
      "type": "error"
    },
    {
      "inputs": [
        {
          "internalType": "address",
          "name": "token",
          "type": "address"
        }
      ],
      "name": "SafeERC20FailedOperation",
      "type": "error"
    },
    {
      "inputs": [
        {
          "internalType": "address",
          "name": "sender",
          "type": "address"
        }
      ],
      "name": "SenderIsNotVault",
      "type": "error"
    },
    {
      "inputs": [],
      "name": "SwapDeadline",
      "type": "error"
    },
    {
      "inputs": [],
      "name": "Todo",
      "type": "error"
    },
    {
      "inputs": [
        {
          "internalType": "address",
          "name": "pool",
          "type": "address"
        },
        {
          "internalType": "uint256",
          "name": "chainId",
          "type": "uint256"
        }
      ],
      "name": "VaultNotRegisteredNetwork",
      "type": "error"
    },
    {
      "inputs": [],
      "name": "GAS_LIMIT",
      "outputs": [
        {
          "internalType": "uint256",
          "name": "",
          "type": "uint256"
        }
      ],
      "stateMutability": "view",
      "type": "function"
    },
    {
      "inputs": [],
      "name": "GATEWAY",
      "outputs": [
        {
          "internalType": "contract IGatewayZEVM",
          "name": "",
          "type": "address"
        }
      ],
      "stateMutability": "view",
      "type": "function"
    },
    {
      "inputs": [],
      "name": "UNISWAP_ROUTER",
      "outputs": [
        {
          "internalType": "address",
          "name": "",
          "type": "address"
        }
      ],
      "stateMutability": "view",
      "type": "function"
    },
    {
      "inputs": [
        {
          "internalType": "address",
          "name": "pool",
          "type": "address"
        },
        {
          "internalType": "uint256[]",
          "name": "maxAmountsIn",
          "type": "uint256[]"
        },
        {
          "internalType": "uint256",
          "name": "minBptAmountOut",
          "type": "uint256"
        },
        {
          "internalType": "bool",
          "name": "wethIsEth",
          "type": "bool"
        },
        {
          "internalType": "bytes",
          "name": "userData",
          "type": "bytes"
        }
      ],
      "name": "addLiquidityCustom",
      "outputs": [
        {
          "internalType": "uint256[]",
          "name": "amountsIn",
          "type": "uint256[]"
        },
        {
          "internalType": "uint256",
          "name": "bptAmountOut",
          "type": "uint256"
        },
        {
          "internalType": "bytes",
          "name": "returnData",
          "type": "bytes"
        }
      ],
      "stateMutability": "payable",
      "type": "function"
    },
    {
      "inputs": [
        {
          "components": [
            {
              "internalType": "address",
              "name": "sender",
              "type": "address"
            },
            {
              "internalType": "address",
              "name": "pool",
              "type": "address"
            },
            {
              "internalType": "uint256[]",
              "name": "maxAmountsIn",
              "type": "uint256[]"
            },
            {
              "internalType": "uint256",
              "name": "minBptAmountOut",
              "type": "uint256"
            },
            {
              "internalType": "enum AddLiquidityKind",
              "name": "kind",
              "type": "uint8"
            },
            {
              "internalType": "bool",
              "name": "wethIsEth",
              "type": "bool"
            },
            {
              "internalType": "bytes",
              "name": "userData",
              "type": "bytes"
            }
          ],
          "internalType": "struct IRouterCommon.AddLiquidityHookParams",
          "name": "params",
          "type": "tuple"
        }
      ],
      "name": "addLiquidityHook",
      "outputs": [
        {
          "internalType": "uint256[]",
          "name": "amountsIn",
          "type": "uint256[]"
        },
        {
          "internalType": "uint256",
          "name": "bptAmountOut",
          "type": "uint256"
        },
        {
          "internalType": "bytes",
          "name": "returnData",
          "type": "bytes"
        }
      ],
      "stateMutability": "nonpayable",
      "type": "function"
    },
    {
      "inputs": [
        {
          "internalType": "address",
          "name": "pool",
          "type": "address"
        },
        {
          "internalType": "uint256[]",
          "name": "maxAmountsIn",
          "type": "uint256[]"
        },
        {
          "internalType": "uint256",
          "name": "exactBptAmountOut",
          "type": "uint256"
        },
        {
          "internalType": "bool",
          "name": "wethIsEth",
          "type": "bool"
        },
        {
          "internalType": "bytes",
          "name": "userData",
          "type": "bytes"
        }
      ],
      "name": "addLiquidityProportional",
      "outputs": [
        {
          "internalType": "uint256[]",
          "name": "amountsIn",
          "type": "uint256[]"
        }
      ],
      "stateMutability": "payable",
      "type": "function"
    },
    {
      "inputs": [
        {
          "internalType": "address",
          "name": "pool",
          "type": "address"
        },
        {
          "internalType": "contract IERC20",
          "name": "tokenIn",
          "type": "address"
        },
        {
          "internalType": "uint256",
          "name": "maxAmountIn",
          "type": "uint256"
        },
        {
          "internalType": "uint256",
          "name": "exactBptAmountOut",
          "type": "uint256"
        },
        {
          "internalType": "bool",
          "name": "wethIsEth",
          "type": "bool"
        },
        {
          "internalType": "bytes",
          "name": "userData",
          "type": "bytes"
        }
      ],
      "name": "addLiquiditySingleTokenExactOut",
      "outputs": [
        {
          "internalType": "uint256",
          "name": "amountIn",
          "type": "uint256"
        }
      ],
      "stateMutability": "payable",
      "type": "function"
    },
    {
      "inputs": [
        {
          "internalType": "address",
          "name": "pool",
          "type": "address"
        },
        {
          "internalType": "uint256[]",
          "name": "exactAmountsIn",
          "type": "uint256[]"
        },
        {
          "internalType": "uint256",
          "name": "minBptAmountOut",
          "type": "uint256"
        },
        {
          "internalType": "bool",
          "name": "wethIsEth",
          "type": "bool"
        },
        {
          "internalType": "bytes",
          "name": "userData",
          "type": "bytes"
        }
      ],
      "name": "addLiquidityUnbalanced",
      "outputs": [
        {
          "internalType": "uint256",
          "name": "bptAmountOut",
          "type": "uint256"
        }
      ],
      "stateMutability": "payable",
      "type": "function"
    },
    {
      "inputs": [
        {
          "internalType": "address",
          "name": "pool",
          "type": "address"
        },
        {
          "components": [
            {
              "internalType": "contract IERC20",
              "name": "token",
              "type": "address"
            },
            {
              "internalType": "uint256",
              "name": "chainId",
              "type": "uint256"
            },
            {
              "internalType": "enum TokenType",
              "name": "tokenType",
              "type": "uint8"
            },
            {
              "internalType": "contract IRateProvider",
              "name": "rateProvider",
              "type": "address"
            },
            {
              "internalType": "bool",
              "name": "paysYieldFees",
              "type": "bool"
            }
          ],
          "internalType": "struct TokenConfig",
          "name": "tokenConfig",
          "type": "tuple"
        },
        {
          "internalType": "uint256",
          "name": "exactAmountIn",
          "type": "uint256"
        }
      ],
      "name": "addTokenToPool",
      "outputs": [
        {
          "internalType": "uint256",
          "name": "bptAmountOut",
          "type": "uint256"
        }
      ],
      "stateMutability": "nonpayable",
      "type": "function"
    },
    {
      "inputs": [
        {
          "components": [
            {
              "internalType": "address",
              "name": "pool",
              "type": "address"
            },
            {
              "internalType": "address",
              "name": "sender",
              "type": "address"
            },
            {
              "components": [
                {
                  "internalType": "contract IERC20",
                  "name": "token",
                  "type": "address"
                },
                {
                  "internalType": "uint256",
                  "name": "chainId",
                  "type": "uint256"
                },
                {
                  "internalType": "enum TokenType",
                  "name": "tokenType",
                  "type": "uint8"
                },
                {
                  "internalType": "contract IRateProvider",
                  "name": "rateProvider",
                  "type": "address"
                },
                {
                  "internalType": "bool",
                  "name": "paysYieldFees",
                  "type": "bool"
                }
              ],
              "internalType": "struct TokenConfig",
              "name": "tokenConfig",
              "type": "tuple"
            },
            {
              "internalType": "uint256",
              "name": "exactAmountIn",
              "type": "uint256"
            }
          ],
          "internalType": "struct IRouter.AddTokenToPoolHookParams",
          "name": "params",
          "type": "tuple"
        }
      ],
      "name": "addTokenToPoolHook",
      "outputs": [
        {
          "internalType": "uint256",
          "name": "bptAmountOut",
          "type": "uint256"
        },
        {
          "internalType": "uint256",
          "name": "tokenIndex",
          "type": "uint256"
        }
      ],
      "stateMutability": "nonpayable",
      "type": "function"
    },
    {
      "inputs": [
        {
          "internalType": "address",
          "name": "pool",
          "type": "address"
        },
        {
          "internalType": "uint256[]",
          "name": "amountsIn",
          "type": "uint256[]"
        },
        {
          "internalType": "bool",
          "name": "wethIsEth",
          "type": "bool"
        },
        {
          "internalType": "bytes",
          "name": "userData",
          "type": "bytes"
        }
      ],
      "name": "donate",
      "outputs": [],
      "stateMutability": "payable",
      "type": "function"
    },
    {
      "inputs": [],
      "name": "getPermit2",
      "outputs": [
        {
          "internalType": "address",
          "name": "",
          "type": "address"
        }
      ],
      "stateMutability": "view",
      "type": "function"
    },
    {
      "inputs": [],
      "name": "getSender",
      "outputs": [
        {
          "internalType": "address",
          "name": "",
          "type": "address"
        }
      ],
      "stateMutability": "view",
      "type": "function"
    },
    {
      "inputs": [],
      "name": "getWeth",
      "outputs": [
        {
          "internalType": "contract IWETH",
          "name": "",
          "type": "address"
        }
      ],
      "stateMutability": "view",
      "type": "function"
    },
    {
      "inputs": [
        {
          "internalType": "address",
          "name": "pool",
          "type": "address"
        },
        {
          "internalType": "contract IERC20[]",
          "name": "tokens",
          "type": "address[]"
        },
        {
          "internalType": "uint256[]",
          "name": "exactAmountsIn",
          "type": "uint256[]"
        },
        {
          "internalType": "uint256",
          "name": "minBptAmountOut",
          "type": "uint256"
        },
        {
          "internalType": "bool",
          "name": "wethIsEth",
          "type": "bool"
        },
        {
          "internalType": "bytes",
          "name": "userData",
          "type": "bytes"
        }
      ],
      "name": "initialize",
      "outputs": [
        {
          "internalType": "uint256",
          "name": "bptAmountOut",
          "type": "uint256"
        }
      ],
      "stateMutability": "payable",
      "type": "function"
    },
    {
      "inputs": [
        {
          "components": [
            {
              "internalType": "address",
              "name": "sender",
              "type": "address"
            },
            {
              "internalType": "address",
              "name": "pool",
              "type": "address"
            },
            {
              "internalType": "contract IERC20[]",
              "name": "tokens",
              "type": "address[]"
            },
            {
              "internalType": "uint256[]",
              "name": "exactAmountsIn",
              "type": "uint256[]"
            },
            {
              "internalType": "uint256",
              "name": "minBptAmountOut",
              "type": "uint256"
            },
            {
              "internalType": "bool",
              "name": "wethIsEth",
              "type": "bool"
            },
            {
              "internalType": "bytes",
              "name": "userData",
              "type": "bytes"
            }
          ],
          "internalType": "struct IRouter.InitializeHookParams",
          "name": "params",
          "type": "tuple"
        }
      ],
      "name": "initializeHook",
      "outputs": [
        {
          "internalType": "uint256",
          "name": "bptAmountOut",
          "type": "uint256"
        }
      ],
      "stateMutability": "nonpayable",
      "type": "function"
    },
    {
      "inputs": [
        {
          "internalType": "bytes[]",
          "name": "data",
          "type": "bytes[]"
        }
      ],
      "name": "multicall",
      "outputs": [
        {
          "internalType": "bytes[]",
          "name": "results",
          "type": "bytes[]"
        }
      ],
      "stateMutability": "payable",
      "type": "function"
    },
    {
      "inputs": [
        {
          "components": [
            {
              "internalType": "address",
              "name": "sender",
              "type": "address"
            },
            {
              "internalType": "address",
              "name": "asset",
              "type": "address"
            },
            {
              "internalType": "uint256",
              "name": "amount",
              "type": "uint256"
            },
            {
              "internalType": "bytes",
              "name": "revertMessage",
              "type": "bytes"
            }
          ],
          "internalType": "struct RevertContext",
          "name": "context",
          "type": "tuple"
        }
      ],
      "name": "onAbort",
      "outputs": [],
      "stateMutability": "nonpayable",
      "type": "function"
    },
    {
      "inputs": [
        {
          "components": [
            {
              "internalType": "bytes",
              "name": "sender",
              "type": "bytes"
            },
            {
              "internalType": "address",
              "name": "senderEVM",
              "type": "address"
            },
            {
              "internalType": "uint256",
              "name": "chainID",
              "type": "uint256"
            }
          ],
          "internalType": "struct MessageContext",
          "name": "context",
          "type": "tuple"
        },
        {
          "internalType": "address",
          "name": "zrc20",
          "type": "address"
        },
        {
          "internalType": "uint256",
          "name": "amount",
          "type": "uint256"
        },
        {
          "internalType": "bytes",
          "name": "message",
          "type": "bytes"
        }
      ],
      "name": "onCall",
      "outputs": [],
      "stateMutability": "nonpayable",
      "type": "function"
    },
    {
      "inputs": [
        {
          "components": [
            {
              "internalType": "address",
              "name": "sender",
              "type": "address"
            },
            {
              "internalType": "address",
              "name": "asset",
              "type": "address"
            },
            {
              "internalType": "uint256",
              "name": "amount",
              "type": "uint256"
            },
            {
              "internalType": "bytes",
              "name": "revertMessage",
              "type": "bytes"
            }
          ],
          "internalType": "struct RevertContext",
          "name": "context",
          "type": "tuple"
        }
      ],
      "name": "onRevert",
      "outputs": [],
      "stateMutability": "nonpayable",
      "type": "function"
    },
    {
      "inputs": [
        {
          "components": [
            {
              "internalType": "address",
              "name": "token",
              "type": "address"
            },
            {
              "internalType": "address",
              "name": "owner",
              "type": "address"
            },
            {
              "internalType": "address",
              "name": "spender",
              "type": "address"
            },
            {
              "internalType": "uint256",
              "name": "amount",
              "type": "uint256"
            },
            {
              "internalType": "uint256",
              "name": "nonce",
              "type": "uint256"
            },
            {
              "internalType": "uint256",
              "name": "deadline",
              "type": "uint256"
            }
          ],
          "internalType": "struct IRouterCommon.PermitApproval[]",
          "name": "permitBatch",
          "type": "tuple[]"
        },
        {
          "internalType": "bytes[]",
          "name": "permitSignatures",
          "type": "bytes[]"
        },
        {
          "components": [
            {
              "components": [
                {
                  "internalType": "address",
                  "name": "token",
                  "type": "address"
                },
                {
                  "internalType": "uint160",
                  "name": "amount",
                  "type": "uint160"
                },
                {
                  "internalType": "uint48",
                  "name": "expiration",
                  "type": "uint48"
                },
                {
                  "internalType": "uint48",
                  "name": "nonce",
                  "type": "uint48"
                }
              ],
              "internalType": "struct IAllowanceTransfer.PermitDetails[]",
              "name": "details",
              "type": "tuple[]"
            },
            {
              "internalType": "address",
              "name": "spender",
              "type": "address"
            },
            {
              "internalType": "uint256",
              "name": "sigDeadline",
              "type": "uint256"
            }
          ],
          "internalType": "struct IAllowanceTransfer.PermitBatch",
          "name": "permit2Batch",
          "type": "tuple"
        },
        {
          "internalType": "bytes",
          "name": "permit2Signature",
          "type": "bytes"
        },
        {
          "internalType": "bytes[]",
          "name": "multicallData",
          "type": "bytes[]"
        }
      ],
      "name": "permitBatchAndCall",
      "outputs": [
        {
          "internalType": "bytes[]",
          "name": "results",
          "type": "bytes[]"
        }
      ],
      "stateMutability": "payable",
      "type": "function"
    },
    {
      "inputs": [
        {
          "internalType": "address",
          "name": "pool",
          "type": "address"
        },
        {
          "internalType": "uint256[]",
          "name": "maxAmountsIn",
          "type": "uint256[]"
        },
        {
          "internalType": "uint256",
          "name": "minBptAmountOut",
          "type": "uint256"
        },
        {
          "internalType": "address",
          "name": "sender",
          "type": "address"
        },
        {
          "internalType": "bytes",
          "name": "userData",
          "type": "bytes"
        }
      ],
      "name": "queryAddLiquidityCustom",
      "outputs": [
        {
          "internalType": "uint256[]",
          "name": "amountsIn",
          "type": "uint256[]"
        },
        {
          "internalType": "uint256",
          "name": "bptAmountOut",
          "type": "uint256"
        },
        {
          "internalType": "bytes",
          "name": "returnData",
          "type": "bytes"
        }
      ],
      "stateMutability": "nonpayable",
      "type": "function"
    },
    {
      "inputs": [
        {
          "components": [
            {
              "internalType": "address",
              "name": "sender",
              "type": "address"
            },
            {
              "internalType": "address",
              "name": "pool",
              "type": "address"
            },
            {
              "internalType": "uint256[]",
              "name": "maxAmountsIn",
              "type": "uint256[]"
            },
            {
              "internalType": "uint256",
              "name": "minBptAmountOut",
              "type": "uint256"
            },
            {
              "internalType": "enum AddLiquidityKind",
              "name": "kind",
              "type": "uint8"
            },
            {
              "internalType": "bool",
              "name": "wethIsEth",
              "type": "bool"
            },
            {
              "internalType": "bytes",
              "name": "userData",
              "type": "bytes"
            }
          ],
          "internalType": "struct IRouterCommon.AddLiquidityHookParams",
          "name": "params",
          "type": "tuple"
        }
      ],
      "name": "queryAddLiquidityHook",
      "outputs": [
        {
          "internalType": "uint256[]",
          "name": "amountsIn",
          "type": "uint256[]"
        },
        {
          "internalType": "uint256",
          "name": "bptAmountOut",
          "type": "uint256"
        },
        {
          "internalType": "bytes",
          "name": "returnData",
          "type": "bytes"
        }
      ],
      "stateMutability": "nonpayable",
      "type": "function"
    },
    {
      "inputs": [
        {
          "internalType": "address",
          "name": "pool",
          "type": "address"
        },
        {
          "internalType": "uint256",
          "name": "exactBptAmountOut",
          "type": "uint256"
        },
        {
          "internalType": "address",
          "name": "sender",
          "type": "address"
        },
        {
          "internalType": "bytes",
          "name": "userData",
          "type": "bytes"
        }
      ],
      "name": "queryAddLiquidityProportional",
      "outputs": [
        {
          "internalType": "uint256[]",
          "name": "amountsIn",
          "type": "uint256[]"
        }
      ],
      "stateMutability": "nonpayable",
      "type": "function"
    },
    {
      "inputs": [
        {
          "internalType": "address",
          "name": "pool",
          "type": "address"
        },
        {
          "internalType": "contract IERC20",
          "name": "tokenIn",
          "type": "address"
        },
        {
          "internalType": "uint256",
          "name": "exactBptAmountOut",
          "type": "uint256"
        },
        {
          "internalType": "address",
          "name": "sender",
          "type": "address"
        },
        {
          "internalType": "bytes",
          "name": "userData",
          "type": "bytes"
        }
      ],
      "name": "queryAddLiquiditySingleTokenExactOut",
      "outputs": [
        {
          "internalType": "uint256",
          "name": "amountIn",
          "type": "uint256"
        }
      ],
      "stateMutability": "nonpayable",
      "type": "function"
    },
    {
      "inputs": [
        {
          "internalType": "address",
          "name": "pool",
          "type": "address"
        },
        {
          "internalType": "uint256[]",
          "name": "exactAmountsIn",
          "type": "uint256[]"
        },
        {
          "internalType": "address",
          "name": "sender",
          "type": "address"
        },
        {
          "internalType": "bytes",
          "name": "userData",
          "type": "bytes"
        }
      ],
      "name": "queryAddLiquidityUnbalanced",
      "outputs": [
        {
          "internalType": "uint256",
          "name": "bptAmountOut",
          "type": "uint256"
        }
      ],
      "stateMutability": "nonpayable",
      "type": "function"
    },
    {
      "inputs": [
        {
          "internalType": "address",
          "name": "pool",
          "type": "address"
        },
        {
          "internalType": "uint256",
          "name": "maxBptAmountIn",
          "type": "uint256"
        },
        {
          "internalType": "uint256[]",
          "name": "minAmountsOut",
          "type": "uint256[]"
        },
        {
          "internalType": "address",
          "name": "sender",
          "type": "address"
        },
        {
          "internalType": "bytes",
          "name": "userData",
          "type": "bytes"
        }
      ],
      "name": "queryRemoveLiquidityCustom",
      "outputs": [
        {
          "internalType": "uint256",
          "name": "bptAmountIn",
          "type": "uint256"
        },
        {
          "internalType": "uint256[]",
          "name": "amountsOut",
          "type": "uint256[]"
        },
        {
          "internalType": "bytes",
          "name": "returnData",
          "type": "bytes"
        }
      ],
      "stateMutability": "nonpayable",
      "type": "function"
    },
    {
      "inputs": [
        {
          "components": [
            {
              "internalType": "address",
              "name": "sender",
              "type": "address"
            },
            {
              "internalType": "address",
              "name": "pool",
              "type": "address"
            },
            {
              "internalType": "uint256[]",
              "name": "minAmountsOut",
              "type": "uint256[]"
            },
            {
              "internalType": "uint256",
              "name": "maxBptAmountIn",
              "type": "uint256"
            },
            {
              "internalType": "enum RemoveLiquidityKind",
              "name": "kind",
              "type": "uint8"
            },
            {
              "internalType": "bool",
              "name": "wethIsEth",
              "type": "bool"
            },
            {
              "internalType": "bytes",
              "name": "userData",
              "type": "bytes"
            }
          ],
          "internalType": "struct IRouterCommon.RemoveLiquidityHookParams",
          "name": "params",
          "type": "tuple"
        }
      ],
      "name": "queryRemoveLiquidityHook",
      "outputs": [
        {
          "internalType": "uint256",
          "name": "bptAmountIn",
          "type": "uint256"
        },
        {
          "internalType": "uint256[]",
          "name": "amountsOut",
          "type": "uint256[]"
        },
        {
          "internalType": "bytes",
          "name": "returnData",
          "type": "bytes"
        }
      ],
      "stateMutability": "nonpayable",
      "type": "function"
    },
    {
      "inputs": [
        {
          "internalType": "address",
          "name": "pool",
          "type": "address"
        },
        {
          "internalType": "uint256",
          "name": "exactBptAmountIn",
          "type": "uint256"
        },
        {
          "internalType": "address",
          "name": "sender",
          "type": "address"
        },
        {
          "internalType": "bytes",
          "name": "userData",
          "type": "bytes"
        }
      ],
      "name": "queryRemoveLiquidityProportional",
      "outputs": [
        {
          "internalType": "uint256[]",
          "name": "amountsOut",
          "type": "uint256[]"
        }
      ],
      "stateMutability": "nonpayable",
      "type": "function"
    },
    {
      "inputs": [
        {
          "internalType": "address",
          "name": "pool",
          "type": "address"
        },
        {
          "internalType": "uint256",
          "name": "exactBptAmountIn",
          "type": "uint256"
        }
      ],
      "name": "queryRemoveLiquidityRecovery",
      "outputs": [
        {
          "internalType": "uint256[]",
          "name": "amountsOut",
          "type": "uint256[]"
        }
      ],
      "stateMutability": "nonpayable",
      "type": "function"
    },
    {
      "inputs": [
        {
          "internalType": "address",
          "name": "pool",
          "type": "address"
        },
        {
          "internalType": "address",
          "name": "sender",
          "type": "address"
        },
        {
          "internalType": "uint256",
          "name": "exactBptAmountIn",
          "type": "uint256"
        }
      ],
      "name": "queryRemoveLiquidityRecoveryHook",
      "outputs": [
        {
          "internalType": "uint256[]",
          "name": "amountsOut",
          "type": "uint256[]"
        }
      ],
      "stateMutability": "nonpayable",
      "type": "function"
    },
    {
      "inputs": [
        {
          "internalType": "address",
          "name": "pool",
          "type": "address"
        },
        {
          "internalType": "uint256",
          "name": "exactBptAmountIn",
          "type": "uint256"
        },
        {
          "internalType": "contract IERC20",
          "name": "tokenOut",
          "type": "address"
        },
        {
          "internalType": "address",
          "name": "sender",
          "type": "address"
        },
        {
          "internalType": "bytes",
          "name": "userData",
          "type": "bytes"
        }
      ],
      "name": "queryRemoveLiquiditySingleTokenExactIn",
      "outputs": [
        {
          "internalType": "uint256",
          "name": "amountOut",
          "type": "uint256"
        }
      ],
      "stateMutability": "nonpayable",
      "type": "function"
    },
    {
      "inputs": [
        {
          "internalType": "address",
          "name": "pool",
          "type": "address"
        },
        {
          "internalType": "contract IERC20",
          "name": "tokenOut",
          "type": "address"
        },
        {
          "internalType": "uint256",
          "name": "exactAmountOut",
          "type": "uint256"
        },
        {
          "internalType": "address",
          "name": "sender",
          "type": "address"
        },
        {
          "internalType": "bytes",
          "name": "userData",
          "type": "bytes"
        }
      ],
      "name": "queryRemoveLiquiditySingleTokenExactOut",
      "outputs": [
        {
          "internalType": "uint256",
          "name": "bptAmountIn",
          "type": "uint256"
        }
      ],
      "stateMutability": "nonpayable",
      "type": "function"
    },
    {
      "inputs": [
        {
          "components": [
            {
              "internalType": "address",
              "name": "sender",
              "type": "address"
            },
            {
              "internalType": "enum SwapKind",
              "name": "kind",
              "type": "uint8"
            },
            {
              "internalType": "address",
              "name": "pool",
              "type": "address"
            },
            {
              "internalType": "contract IERC20",
              "name": "tokenIn",
              "type": "address"
            },
            {
              "internalType": "contract IERC20",
              "name": "tokenOut",
              "type": "address"
            },
            {
              "internalType": "uint256",
              "name": "amountGiven",
              "type": "uint256"
            },
            {
              "internalType": "uint256",
              "name": "limit",
              "type": "uint256"
            },
            {
              "internalType": "uint256",
              "name": "deadline",
              "type": "uint256"
            },
            {
              "internalType": "bool",
              "name": "wethIsEth",
              "type": "bool"
            },
            {
              "internalType": "bytes",
              "name": "userData",
              "type": "bytes"
            }
          ],
          "internalType": "struct IRouter.SwapSingleTokenHookParams",
          "name": "params",
          "type": "tuple"
        }
      ],
      "name": "querySwapHook",
      "outputs": [
        {
          "internalType": "uint256",
          "name": "",
          "type": "uint256"
        }
      ],
      "stateMutability": "nonpayable",
      "type": "function"
    },
    {
      "inputs": [
        {
          "internalType": "address",
          "name": "pool",
          "type": "address"
        },
        {
          "internalType": "contract IERC20",
          "name": "tokenIn",
          "type": "address"
        },
        {
          "internalType": "contract IERC20",
          "name": "tokenOut",
          "type": "address"
        },
        {
          "internalType": "uint256",
          "name": "exactAmountIn",
          "type": "uint256"
        },
        {
          "internalType": "address",
          "name": "sender",
          "type": "address"
        },
        {
          "internalType": "bytes",
          "name": "userData",
          "type": "bytes"
        }
      ],
      "name": "querySwapSingleTokenExactIn",
      "outputs": [
        {
          "internalType": "uint256",
          "name": "amountCalculated",
          "type": "uint256"
        }
      ],
      "stateMutability": "nonpayable",
      "type": "function"
    },
    {
      "inputs": [
        {
          "internalType": "address",
          "name": "pool",
          "type": "address"
        },
        {
          "internalType": "contract IERC20",
          "name": "tokenIn",
          "type": "address"
        },
        {
          "internalType": "contract IERC20",
          "name": "tokenOut",
          "type": "address"
        },
        {
          "internalType": "uint256",
          "name": "exactAmountOut",
          "type": "uint256"
        },
        {
          "internalType": "address",
          "name": "sender",
          "type": "address"
        },
        {
          "internalType": "bytes",
          "name": "userData",
          "type": "bytes"
        }
      ],
      "name": "querySwapSingleTokenExactOut",
      "outputs": [
        {
          "internalType": "uint256",
          "name": "amountCalculated",
          "type": "uint256"
        }
      ],
      "stateMutability": "nonpayable",
      "type": "function"
    },
    {
      "inputs": [
        {
          "internalType": "address",
          "name": "pool",
          "type": "address"
        },
        {
          "internalType": "uint256",
          "name": "maxBptAmountIn",
          "type": "uint256"
        },
        {
          "internalType": "uint256[]",
          "name": "minAmountsOut",
          "type": "uint256[]"
        },
        {
          "internalType": "bool",
          "name": "wethIsEth",
          "type": "bool"
        },
        {
          "internalType": "bytes",
          "name": "userData",
          "type": "bytes"
        }
      ],
      "name": "removeLiquidityCustom",
      "outputs": [
        {
          "internalType": "uint256",
          "name": "bptAmountIn",
          "type": "uint256"
        },
        {
          "internalType": "uint256[]",
          "name": "amountsOut",
          "type": "uint256[]"
        },
        {
          "internalType": "bytes",
          "name": "returnData",
          "type": "bytes"
        }
      ],
      "stateMutability": "payable",
      "type": "function"
    },
    {
      "inputs": [
        {
          "components": [
            {
              "internalType": "address",
              "name": "sender",
              "type": "address"
            },
            {
              "internalType": "address",
              "name": "pool",
              "type": "address"
            },
            {
              "internalType": "uint256[]",
              "name": "minAmountsOut",
              "type": "uint256[]"
            },
            {
              "internalType": "uint256",
              "name": "maxBptAmountIn",
              "type": "uint256"
            },
            {
              "internalType": "enum RemoveLiquidityKind",
              "name": "kind",
              "type": "uint8"
            },
            {
              "internalType": "bool",
              "name": "wethIsEth",
              "type": "bool"
            },
            {
              "internalType": "bytes",
              "name": "userData",
              "type": "bytes"
            }
          ],
          "internalType": "struct IRouterCommon.RemoveLiquidityHookParams",
          "name": "params",
          "type": "tuple"
        }
      ],
      "name": "removeLiquidityHook",
      "outputs": [
        {
          "internalType": "uint256",
          "name": "bptAmountIn",
          "type": "uint256"
        },
        {
          "internalType": "uint256[]",
          "name": "amountsOut",
          "type": "uint256[]"
        },
        {
          "internalType": "bytes",
          "name": "returnData",
          "type": "bytes"
        }
      ],
      "stateMutability": "nonpayable",
      "type": "function"
    },
    {
      "inputs": [
        {
          "internalType": "address",
          "name": "pool",
          "type": "address"
        },
        {
          "internalType": "uint256",
          "name": "exactBptAmountIn",
          "type": "uint256"
        },
        {
          "internalType": "uint256[]",
          "name": "minAmountsOut",
          "type": "uint256[]"
        },
        {
          "internalType": "bool",
          "name": "wethIsEth",
          "type": "bool"
        },
        {
          "internalType": "bytes",
          "name": "userData",
          "type": "bytes"
        }
      ],
      "name": "removeLiquidityProportional",
      "outputs": [
        {
          "internalType": "uint256[]",
          "name": "amountsOut",
          "type": "uint256[]"
        }
      ],
      "stateMutability": "payable",
      "type": "function"
    },
    {
      "inputs": [
        {
          "internalType": "address",
          "name": "pool",
          "type": "address"
        },
        {
          "internalType": "uint256",
          "name": "exactBptAmountIn",
          "type": "uint256"
        },
        {
          "internalType": "uint256[]",
          "name": "minAmountsOut",
          "type": "uint256[]"
        }
      ],
      "name": "removeLiquidityRecovery",
      "outputs": [
        {
          "internalType": "uint256[]",
          "name": "amountsOut",
          "type": "uint256[]"
        }
      ],
      "stateMutability": "payable",
      "type": "function"
    },
    {
      "inputs": [
        {
          "internalType": "address",
          "name": "pool",
          "type": "address"
        },
        {
          "internalType": "address",
          "name": "sender",
          "type": "address"
        },
        {
          "internalType": "uint256",
          "name": "exactBptAmountIn",
          "type": "uint256"
        },
        {
          "internalType": "uint256[]",
          "name": "minAmountsOut",
          "type": "uint256[]"
        }
      ],
      "name": "removeLiquidityRecoveryHook",
      "outputs": [
        {
          "internalType": "uint256[]",
          "name": "amountsOut",
          "type": "uint256[]"
        }
      ],
      "stateMutability": "nonpayable",
      "type": "function"
    },
    {
      "inputs": [
        {
          "internalType": "address",
          "name": "pool",
          "type": "address"
        },
        {
          "internalType": "uint256",
          "name": "exactBptAmountIn",
          "type": "uint256"
        },
        {
          "internalType": "uint256",
          "name": "chainId",
          "type": "uint256"
        },
        {
          "internalType": "uint256",
          "name": "minAmountOut",
          "type": "uint256"
        },
        {
          "internalType": "bool",
          "name": "wethIsEth",
          "type": "bool"
        },
        {
          "internalType": "bytes",
          "name": "userData",
          "type": "bytes"
        }
      ],
      "name": "removeLiquiditySingleTokenExactIn",
      "outputs": [
        {
          "internalType": "uint256",
          "name": "amountOut",
          "type": "uint256"
        }
      ],
      "stateMutability": "nonpayable",
      "type": "function"
    },
    {
      "inputs": [
        {
          "internalType": "address",
          "name": "pool",
          "type": "address"
        },
        {
          "internalType": "uint256",
          "name": "exactBptAmountIn",
          "type": "uint256"
        },
        {
          "internalType": "contract IERC20",
          "name": "tokenOut",
          "type": "address"
        },
        {
          "internalType": "uint256",
          "name": "minAmountOut",
          "type": "uint256"
        },
        {
          "internalType": "bool",
          "name": "wethIsEth",
          "type": "bool"
        },
        {
          "internalType": "bytes",
          "name": "userData",
          "type": "bytes"
        }
      ],
      "name": "removeLiquiditySingleTokenExactIn",
      "outputs": [
        {
          "internalType": "uint256",
          "name": "amountOut",
          "type": "uint256"
        }
      ],
      "stateMutability": "payable",
      "type": "function"
    },
    {
      "inputs": [
        {
          "internalType": "address",
          "name": "pool",
          "type": "address"
        },
        {
          "internalType": "uint256",
          "name": "maxBptAmountIn",
          "type": "uint256"
        },
        {
          "internalType": "contract IERC20",
          "name": "tokenOut",
          "type": "address"
        },
        {
          "internalType": "uint256",
          "name": "exactAmountOut",
          "type": "uint256"
        },
        {
          "internalType": "bool",
          "name": "wethIsEth",
          "type": "bool"
        },
        {
          "internalType": "bytes",
          "name": "userData",
          "type": "bytes"
        }
      ],
      "name": "removeLiquiditySingleTokenExactOut",
      "outputs": [
        {
          "internalType": "uint256",
          "name": "bptAmountIn",
          "type": "uint256"
        }
      ],
      "stateMutability": "payable",
      "type": "function"
    },
    {
      "inputs": [
        {
          "internalType": "address",
          "name": "pool",
          "type": "address"
        },
        {
          "internalType": "contract IERC20",
          "name": "tokenIn",
          "type": "address"
        },
        {
          "internalType": "contract IERC20",
          "name": "tokenOut",
          "type": "address"
        },
        {
          "internalType": "uint256",
          "name": "exactAmountIn",
          "type": "uint256"
        },
        {
          "internalType": "uint256",
          "name": "minAmountOut",
          "type": "uint256"
        },
        {
          "internalType": "uint256",
          "name": "deadline",
          "type": "uint256"
        },
        {
          "internalType": "bool",
          "name": "wethIsEth",
          "type": "bool"
        },
        {
          "internalType": "bytes",
          "name": "userData",
          "type": "bytes"
        }
      ],
      "name": "swapSingleTokenExactIn",
      "outputs": [
        {
          "internalType": "uint256",
          "name": "",
          "type": "uint256"
        }
      ],
      "stateMutability": "payable",
      "type": "function"
    },
    {
      "inputs": [
        {
          "internalType": "address",
          "name": "pool",
          "type": "address"
        },
        {
          "internalType": "contract IERC20",
          "name": "tokenIn",
          "type": "address"
        },
        {
          "internalType": "contract IERC20",
          "name": "tokenOut",
          "type": "address"
        },
        {
          "internalType": "uint256",
          "name": "exactAmountOut",
          "type": "uint256"
        },
        {
          "internalType": "uint256",
          "name": "maxAmountIn",
          "type": "uint256"
        },
        {
          "internalType": "uint256",
          "name": "deadline",
          "type": "uint256"
        },
        {
          "internalType": "bool",
          "name": "wethIsEth",
          "type": "bool"
        },
        {
          "internalType": "bytes",
          "name": "userData",
          "type": "bytes"
        }
      ],
      "name": "swapSingleTokenExactOut",
      "outputs": [
        {
          "internalType": "uint256",
          "name": "",
          "type": "uint256"
        }
      ],
      "stateMutability": "payable",
      "type": "function"
    },
    {
      "inputs": [
        {
          "components": [
            {
              "internalType": "address",
              "name": "sender",
              "type": "address"
            },
            {
              "internalType": "enum SwapKind",
              "name": "kind",
              "type": "uint8"
            },
            {
              "internalType": "address",
              "name": "pool",
              "type": "address"
            },
            {
              "internalType": "contract IERC20",
              "name": "tokenIn",
              "type": "address"
            },
            {
              "internalType": "contract IERC20",
              "name": "tokenOut",
              "type": "address"
            },
            {
              "internalType": "uint256",
              "name": "amountGiven",
              "type": "uint256"
            },
            {
              "internalType": "uint256",
              "name": "limit",
              "type": "uint256"
            },
            {
              "internalType": "uint256",
              "name": "deadline",
              "type": "uint256"
            },
            {
              "internalType": "bool",
              "name": "wethIsEth",
              "type": "bool"
            },
            {
              "internalType": "bytes",
              "name": "userData",
              "type": "bytes"
            }
          ],
          "internalType": "struct IRouter.SwapSingleTokenHookParams",
          "name": "params",
          "type": "tuple"
        }
      ],
      "name": "swapSingleTokenHook",
      "outputs": [
        {
          "internalType": "uint256",
          "name": "",
          "type": "uint256"
        }
      ],
      "stateMutability": "nonpayable",
      "type": "function"
    },
    {
      "inputs": [],
      "name": "version",
      "outputs": [
        {
          "internalType": "string",
          "name": "",
          "type": "string"
        }
      ],
      "stateMutability": "view",
      "type": "function"
    },
    {
      "stateMutability": "payable",
      "type": "receive"
    }
  ],
  "bytecode": "0x610100806040523461047857616561803803809161001d828561047d565b8339810190606081830312610478578051906001600160a01b0382168203610478576020810151906001600160a01b0382168203610478576040810151906001600160401b038211610478570183601f820112156104785780516001600160401b038111610462576040519461009d601f8301601f19166020018761047d565b81865260208284010111610478576100bb91602080870191016104a0565b60409161010a83516100cd858261047d565b600b81526a14d95b99195c91dd585c9960aa1b60208201528451906100f2868361047d565b600682526539b2b73232b960d11b60208301526104c3565b60805260a05282516001600160401b03811161046257600054600181811c91168015610458575b602082101461044257601f81116103de575b506020601f8211600114610378578192939460009261036d575b50508160011b916000199060031b1c1916176000555b6101cb8251610182848261047d565b600c81526b2937baba32b921b7b6b6b7b760a11b60208201528351906101a8858361047d565b60118252701a5cd4995d1d5c9b915d1a131bd8dad959607a1b60208301526104c3565b60c05260e05251615fd9908161058882396080518181816104fa0152818161095001528181610b3f01528181610fa601528181612aa601528181612d3b01528181613534015281816156da0152615799015260a0518181816103430152818161048d015281816105ed0152818161075b015281816108e601528181610aff01528181610c8e01528181610d8801528181610e88015281816110c9015281816111ab015281816113d201528181611ff50152818161245b0152818161254c01528181612604015281816126e80152818161285901528181612a1b01528181612bba01528181612dd701528181613390015281816134cb015281816136ab0152818161383001528181613e0b01528181614004015281816145b10152818161580d015281816158aa01528181615be801528181615c9b0152615da3015260c0518181816156650152615a4d015260e051818181601b01528181611f1c0152818161262501528181612670015281816127e601528181612f69015281816130d301528181613d9d015281816141af015281816142af01528181615ce60152615e240152f35b01519050388061015d565b601f1982169060008052806000209160005b8181106103c6575095836001959697106103ad575b505050811b01600055610173565b015160001960f88460031b161c1916905538808061039f565b9192602060018192868b01518155019401920161038a565b600080527f290decd9548b62a8d60345a988386fc84ba6bc95484008f6362f93160ef3e563601f830160051c81019160208410610438575b601f0160051c01905b81811061042c5750610143565b6000815560010161041f565b9091508190610416565b634e487b7160e01b600052602260045260246000fd5b90607f1690610131565b634e487b7160e01b600052604160045260246000fd5b600080fd5b601f909101601f19168101906001600160401b0382119082101761046257604052565b60005b8381106104b35750506000910152565b81810151838201526020016104a3565b9061053d600160399260405193849160208301967f62616c616e6365722d6c6162732e76332e73746f726167652e00000000000000885261050d81518092602086880191016104a0565b8301601760f91b8382015261052c825180936020603a850191016104a0565b01010301601f19810183528261047d565b51902060001981019081116105715760405190602082019081526020825261056660408361047d565b9051902060ff191690565b634e487b7160e01b600052601160045260246000fdfe6080604052600436101561005c575b361561001957600080fd5b7f00000000000000000000000000000000000000000000000000000000000000006001600160a01b0316330361004b57005b6302a06efb60e11b60005260046000fd5b60003560e01c8062b68fdb14614553578063026b3d9514614364578063086fad6614613fe457806308c0479314613f83578063091d278814613f655780630ca078ec14613eec5780630f71088814613dcc578063107c279f14613d87578063175d440814613ceb57806319c6989f146139695780631bbf2e231461394d5780631d56798d146137e457806323b3924114613627578063338c5371146135fe5780633ebc54e514613559578063452db952146133fc578063516827501461331457806353d0bb981461328757806354fd4d501461317f5780635b34379114612db75780635bcfd61614612adb5780635e01eb5a14612a935780635eb96048146129245780635f9815ff1461280e57806368a24fe01461259c578063724dba33146124cf57806372657d1714612395578063750283bc146123185780637591164414611fcf5780637b03c7ba146113b257806382bf2b241461133a57806382cd54fb14611145578063914643ee146107fe57806394e86ef8146110255780639de9051814610e4b578063ac9650d814610e08578063b037ed3614610d08578063b24bd57114610bc0578063be5ae84114610b7c578063bf6ee3fd14610a09578063c08bc85114610990578063c330c7be14610817578063c9028a36146107fe578063d8264920146107d5578063da001f7d14610666578063e7326def14610542578063ecb2182c146103d25763efd85f140361000e57346103cd5761027e36614978565b6102866158a8565b6102926020820161512d565b61029b8261512d565b906102a96040840184615141565b9260808501359360058510156103cd5761031860009560608861030361031f976102d960c061033e9d0184615176565b9790986040519b6102e98d614816565b6001600160a01b039081168d521660208c01523691614911565b60408901520135606087015260808601615256565b36916148a5565b60a0820152604051809381926312bca7b160e21b83526004830161547d565b0381837f00000000000000000000000000000000000000000000000000000000000000006001600160a01b03165af180156103c157600090600092600091610396575b506103929060405193849384614a95565b0390f35b905061039292506103ba91503d806000833e6103b28183614867565b8101906152d2565b9092610381565b6040513d6000823e3d90fd5b600080fd5b61048861046661040060006104586103e936614e40565b929894939790916103f933615797565b99856157d9565b97906040519461040f866147df565b33865260018060a01b031660208601526040850152606084015260016080840152151560a083015260c0820152604051928391633d81e3dd60e11b602084015260248301614f06565b03601f198101835282614867565b604051809581926348c8949160e01b8352602060048401526024830190614a70565b0381837f00000000000000000000000000000000000000000000000000000000000000006001600160a01b03165af19081156103c1576104df6104e79260209560009161051f575b5085808251830101910161504c565b5090506150de565b51906104f6575b604051908152f35b60007f0000000000000000000000000000000000000000000000000000000000000000556104ee565b61053c91503d806000833e6105348183614867565b810190614fca565b866104d0565b6105e861056f60006104586105c661055936614e40565b93916105689991939933615797565b99866157d9565b506040519461057d866147df565b33865260018060a01b031660208601526040850152606084015260026080840152151560a083015260c0820152604051928391633d81e3dd60e11b602084015260248301614f06565b604051809481926348c8949160e01b8352602060048401526024830190614a70565b0381837f00000000000000000000000000000000000000000000000000000000000000006001600160a01b03165af19182156103c15760209261063c9160009161064b575b5083808251830101910161504c565b5050906104f657604051908152f35b61066091503d806000833e6105348183614867565b8461062d565b346103cd5760803660031901126103cd5761067f614764565b6024356001600160401b0381116103cd5761069e90369060040161495d565b6106a66147a6565b60643592906001600160401b0384116103cd57610734600092610458926106dd6106d76107569836906004016148dc565b91615797565b95604051926106eb846147df565b30845260018060a01b031660208401526040830152846060830152600160808301528460a083015260c0820152604051928391633bf617c560e21b60208401526024830161526f565b60405180948192631dbf46ad60e31b8352602060048401526024830190614a70565b0381837f00000000000000000000000000000000000000000000000000000000000000006001600160a01b03165af19182156103c1576020926107aa916000916107ba575b508380825183010191016152d2565b509190506104f657604051908152f35b6107cf91503d806000833e6105348183614867565b8461079b565b346103cd5760003660031901126103cd576020604051600080516020615f448339815191528152f35b346103cd5761080c36614e0d565b50610815615640565b005b346103cd5760a03660031901126103cd57610830614764565b6044356001600160401b0381116103cd5761084f90369060040161495d565b61085761477a565b60843592906001600160401b0384116103cd57610734600092610458926108886106d76108e19836906004016148dc565b9560405192610896846147df565b30845260018060a01b0316602084015260408301526024356060830152600360808301528460a083015260c082015260405192839163b24bd57160e01b602084015260248301614f06565b0381837f00000000000000000000000000000000000000000000000000000000000000006001600160a01b03165af19182156103c1576103929261093791600091610975575b506020808251830101910161504c565b9093919261094c575b60405193849384614de2565b60007f000000000000000000000000000000000000000000000000000000000000000055610940565b61098a91503d806000833e6105348183614867565b84610927565b6107566105c660006104586109a4366149df565b916109b29794939733615797565b97604051946109c0866147df565b33865260018060a01b031660208601526040850152606084015260016080840152151560a083015260c0820152604051928391635b34379160e01b60208401526024830161526f565b60803660031901126103cd57610a1d614764565b6024356001600160401b0381116103cd57610a3c90369060040161495d565b90604435908115158092036103cd57606435916001600160401b0383116103cd57610ad860009261045892610a78610afa9636906004016148dc565b90610a8233615797565b9760405193610a90856147df565b33855260018060a01b0316602085015260408401528560608401526003608084015260a083015260c0820152604051928391635b34379160e01b60208401526024830161526f565b604051809381926348c8949160e01b8352602060048401526024830190614a70565b0381837f00000000000000000000000000000000000000000000000000000000000000006001600160a01b03165af180156103c157610b61575b50610b3b57005b60007f000000000000000000000000000000000000000000000000000000000000000055005b610b75903d806000833e6105348183614867565b5081610b34565b346103cd576020610ba4610b8f36614d29565b610b97615880565b610b9f6158a8565b615ab7565b50506000600080516020615f8483398151915255604051908152f35b346103cd57610bce36614978565b610bd66158a8565b610be26020820161512d565b90610bec8161512d565b91610bfa6040830183615141565b909360808401359360048510156103cd57610318600095610c5c610c8998610c6a966060610c2b60c0880188615176565b9790986040519b610c3b8d614816565b6001600160a01b039081168d521660208c0152013560408a01523691614911565b606087015260808601614ed7565b60a082015260405180938192632145789760e01b8352600483016155bd565b0381837f00000000000000000000000000000000000000000000000000000000000000006001600160a01b03165af180156103c157600090600092600091610cdd575b506103929060405193849384614de2565b90506103929250610d0191503d806000833e610cf98183614867565b81019061504c565b9092610ccc565b346103cd5760403660031901126103cd57610d836000610d26614764565b60405190635f9815ff60e01b602083015260018060a01b03166024820152306044820152602435606482015260648152610d61608482614867565b60405180938192631dbf46ad60e31b8352602060048401526024830190614a70565b0381837f00000000000000000000000000000000000000000000000000000000000000006001600160a01b03165af19081156103c15761039291610dd991600091610ded575b5060208082518301019101615231565b6040519182916020835260208301906149ab565b610e0291503d806000833e6105348183614867565b83610dc9565b60203660031901126103cd576004356001600160401b0381116103cd57610e3f610e39610392923690600401614b94565b90615657565b60405191829182614bf1565b346103cd57610e64610e5c36614abe565b929390615797565b60405163ca4f280360e01b81526001600160a01b03948516600482018190529491937f00000000000000000000000000000000000000000000000000000000000000009092169290600081602481875afa9081156103c157600091611002575b5051610ecf8161539d565b9060005b818110610fe65760008781610f5c89610458610f388e8c8c8c60405193610ef9856147df565b3085526020850152604084015260608301528660808301528660a083015260c0820152604051928391633bf617c560e21b60208401526024830161526f565b604051958680948193631dbf46ad60e31b8352602060048401526024830190614a70565b03925af19182156103c15761039292610f8791600091610fcb575b50602080825183010191016152d2565b505090610fa2576040519182916020835260208301906149ab565b60007f000000000000000000000000000000000000000000000000000000000000000055610dd9565b610fe091503d806000833e6105348183614867565b84610f77565b6001906001600160801b03610ffb82866150de565b5201610ed3565b61101f91503d806000833e6110178183614867565b81019061531c565b86610ec4565b6110c46110a260006104586105c661103c36614d5d565b94909561104e9c979c94929433615797565b9c6040519961105c8b6147fa565b338b52600160208c01526001600160a01b0390811660408c015290811660608b015216608089015260a088015260c087015260e0860152151561010085015236916148a5565b610120820152604051630345127f60e51b6020820152928391602483016153d9565b0381837f00000000000000000000000000000000000000000000000000000000000000006001600160a01b03165af19182156103c157600092611128575b50602082519281808201948592010103126103cd5760209151906104f657604051908152f35b61113e9192503d806000833e6105348183614867565b9082611102565b346103cd5760803660031901126103cd5761115e614764565b611166614790565b90606435906001600160401b0382116103cd5761118a6111ea92369060040161495d565b90611193615880565b61119b6158a8565b604051630281f58160e61b8152927f00000000000000000000000000000000000000000000000000000000000000006001600160a01b0316926000918591829190604435898760048601615200565b038183865af19283156103c157600093611315575b5060405163ca4f280360e01b81526001600160a01b039091166004820152600081602481855afa9081156103c1576000916112fa575b5060005b81518110156112c75761124c81856150de565b51908161125e575b6001915001611239565b6001600160a01b0361127082856150de565b5116843b156103cd578660009161129b604051958693849363ae63932960e01b85526004850161561e565b038183885af19182156103c1576001926112b6575b50611254565b60006112c191614867565b866112b0565b610392846112d487615a44565b6000600080516020615f84833981519152556040519182916020835260208301906149ab565b61130f91503d806000833e6110178183614867565b84611235565b6113339193503d806000833e61132b8183614867565b810190615231565b91846111ff565b6108e16105c6600061045861134e36614cbb565b9196939261135b33615797565b9760405194611369866147df565b33865260018060a01b031660208601526040850152606084015260036080840152151560a083015260c0820152604051928391633d81e3dd60e11b602084015260248301614f06565b346103cd576113c036614978565b6113c8615880565b6113d06158a8565b7f00000000000000000000000000000000000000000000000000000000000000006001600160a01b03169060208101906114098261512d565b906114138161512d565b6114206040830183615141565b93909160808401359060048210156103cd576114a39561031861148493610c5c60009761145060c08b018b615176565b959096604051996114608b614816565b6001600160a01b039081168b521660208a015260608b013560408a01523691614911565b60a082015260405180948192632145789760e01b8352600483016155bd565b038183885af19384156103c157600093600093600096611fa5575b506114c89061512d565b60405163ca4f280360e01b81526001600160a01b03909116600482015292600084602481855afa9384156103c157600094611f88575b5060a08301959460005b8551811015611f545761151b81846150de565b51908115611f4b576001600160a01b0361153582896150de565b5116916115418a6151b8565b80611f19575b15611559575b50600191505b01611508565b6115628761512d565b60ff60015460081c16611f12575b863b156103cd5760008261159a92604051938492839263ae63932960e01b8452896004850161561e565b0381838b5af180156103c157611f01575b5060ff60015460081c161561154d576040805163d9eeebed60e01b81529081600481875afa9182156103c1576000918293611ebf575b506001600160a01b038216918583036118fc57508281106118eb57826116069161559a565b905b6116118961512d565b928186036117ec576116238184615e91565b60405163095ea7b360e01b8152600080516020615f64833981519152600482015260248101919091526020816044816000875af19081156103c1576000916117be575b501561179c5750505b60405160609290921b6001600160601b031916602083015260148252611696603483614867565b604051916116a38361484c565b600083526020830192600084526040810192600084526116c16154f2565b94606083019586526080830192624c4b408452600080516020615f648339815191523b156103cd5760009661171996608093611763936040519c8d9a8b9a637c0dcb5f60e01b8c528860048d015260848c0190614a70565b60248b019890985260448a01528887036003190160648a0152516001600160a01b03908116875290511515602087015290511660408501525160a060608501819052840190614a70565b9251910152038183600080516020615f648339815191525af19182156103c1576001921561154d57600061179691614867565b8961154d565b6117a69192615e91565b906322f3ebb360e21b60005260045260245260446000fd5b6117df915060203d81116117e5575b6117d78183614867565b8101906151c5565b8e611666565b503d6117cd565b60405163095ea7b360e01b8152600080516020615f648339815191526004820152602481018290529091906020816044816000865af19081156103c1576000916118cd575b50156118b657505060405163095ea7b360e01b8152600080516020615f648339815191526004820152602481018290526020816044816000895af19081156103c157600091611898575b5061166f57836322f3ebb360e21b60005260045260245260446000fd5b6118b0915060203d81116117e5576117d78183614867565b8c61187b565b6322f3ebb360e21b60005260045260245260446000fd5b6118e5915060203d81116117e5576117d78183614867565b8e611831565b63548ea0cf60e11b60005260046000fd5b6040516315ab88c960e31b8152602081600481600080516020615f448339815191525afa9081156103c157600091611e86575b506080906119c46000604051926119468585614867565b60038452601f1985018094602036910137604051906119658683614867565b60038252843660208401378b61197a8361509b565b52611984826150be565b6001600160a01b0390911690528761199b826150ce565b52604051809381926307c0329d60e21b83528b6004840152604060248401526044830190615e54565b0381600080516020615f448339815191525afa80156103c1576119ef91600091611e6d575b5061509b565b5184106118eb5760405163c45a015560e01b815291602083600481600080516020615f448339815191525afa9283156103c157600093611e32575b506040516315ab88c960e31b815292602084600481600080516020615f448339815191525afa9384156103c157600094611df4575b50600094878b1015611dee578a905b6001600160a01b03821615611ddf576040516001600160601b0319606093841b8116602083019081529290931b90921660348301526028825290611ab3604882614867565b5190209060405191602083019160ff60f81b835260018060601b03199060601b16602184015260358301527f96e8ac4277198ff8b6f785478aa9a39f403cb768dd02cbee326c3e7da348845f605583015260558252611b13607583614867565b905190206040516370a0823160e01b81526001600160a01b0390911660048201819052906020816024818e5afa908115611dd4579088949392918791611d96575b5015159081611d12575b5015611cc95750505050606060405190611b788183614867565b60028252601f190136602083013783611b9b8289611b958261509b565b526150be565b525b60405163095ea7b360e01b8152600080516020615f44833981519152600482015260248101849052602081604481868c5af18015611cbe57611ca2575b5060c8420190814211611c8e57611c1b83916040519384928392634401edf760e11b84528a600485015288602485015260a0604485015260a4840190615e54565b903060648401526084830152038183600080516020615f448339815191525af1918215611c825791611c5a9183611c61959492611c67575b505061509b565b519061559a565b90611608565b611c7b92503d8091833e61132b8183614867565b8f80611c53565b604051903d90823e3d90fd5b634e487b7160e01b83526011600452602483fd5b611cb99060203d81116117e5576117d78183614867565b611bda565b6040513d85823e3d90fd5b611d0c91611cda6040519283614867565b6003825236602083013780938a611cf08361509b565b52611cfa826150be565b6001600160a01b0390911690526150ce565b52611b9d565b9192935050604051906370a0823160e01b825260048201526020816024818a5afa908115611d8b5790879392918691611d4f575b50151538611b5e565b91929350506020813d8211611d83575b81611d6c60209383614867565b81010312611d7f57908692915138611d46565b8480fd5b3d9150611d5f565b6040513d87823e3d90fd5b9192939450506020813d8211611dcc575b81611db460209383614867565b81010312611dc85790879392915138611b54565b8580fd5b3d9150611da7565b6040513d88823e3d90fd5b633c5a83ed60e11b8752600487fd5b8a611a6e565b90936020823d8211611e2a575b81611e0e60209383614867565b81010312611e275750611e2090614ea8565b9238611a5f565b80fd5b3d9150611e01565b90926020823d8211611e65575b81611e4c60209383614867565b81010312611e275750611e5e90614ea8565b9138611a2a565b3d9150611e3f565b611e80913d8091833e61132b8183614867565b386119e9565b906020823d8211611eb7575b81611e9f60209383614867565b81010312611e275750611eb190614ea8565b8e61192f565b3d9150611e92565b919092506040823d8211611ef9575b81611edb60409383614867565b81010312611e2757506020611eef82614ea8565b910151918c6115e1565b3d9150611ece565b6000611f0c91614867565b8a6115ab565b5030611570565b507f00000000000000000000000000000000000000000000000000000000000000006001600160a01b03168314611547565b60019150611553565b5061039286611f6a611f658761512d565b615a44565b6000600080516020615f848339815191525560405193849384614de2565b611f9e9194503d806000833e6110178183614867565b92866114fe565b9095506114c89450611fc39193503d806000833e610cf98183614867565b939194909395906114be565b346103cd576101003660031901126103cd576000611feb615880565b611ff36158a8565b7f00000000000000000000000000000000000000000000000000000000000000006001600160a01b0316612025615101565b9061202e615117565b60e435906040519361203f85614831565b6001600160a01b03908116855216602084015260a03660431901126123145760405161206a8161484c565b6044356001600160a01b0381168103611dc857815260643560208201526084356002811015611dc857604082015260a4356001600160a01b0381168103611dc857606082015260c4358015158103611dc857608082015260408401528060608401526120e760405193631a52b29160e31b85526004850190615512565b6040836101048187865af191821561230957849385936122d2575b5081156122c357612111615101565b60405163ca4f280360e01b81526001600160a01b0390911660048201528581602481855afa908115611dd45786916122a9575b5080516000198101908111612295578411612286576121a460206001600160a01b0361217087856150de565b511661217a615117565b90858a612186896158ef565b6040516323b872dd60e01b81529687958694859391600485016151dd565b03925af1801561227b5791602093918895936121f49950612260575b506001600160a01b03906121d59087906150de565b5116846040518099819582946315afd40960e01b845260048401614ebc565b03925af193841561225357604094612224575b50600080516020615f848339815191525582519182526020820152f35b6122459060203d60201161224c575b61223d8183614867565b8101906150f2565b5084612207565b503d612233565b50604051903d90823e3d90fd5b61227690853d87116117e5576117d78183614867565b6121c0565b6040513d89823e3d90fd5b63220ca77f60e21b8652600486fd5b634e487b7160e01b87526011600452602487fd5b6122bd91503d8088833e6110178183614867565b86612144565b63220ca77f60e21b8552600485fd5b9092506122f891935060403d604011612302575b6122f08183614867565b810190615584565b9290929185612102565b503d6122e6565b6040513d86823e3d90fd5b8380fd5b6110c46110a260006104586105c661232f36614d5d565b9490956123419c979c94929433615797565b9c6040519961234f8b6147fa565b338b5260208b018e90526001600160a01b0390811660408c015290811660608b015216608089015260a088015260c087015260e0860152151561010085015236916148a5565b60c03660031901126103cd576123a9614764565b6123b1614790565b6123b96147d0565b60a4356001600160401b0381116103cd57610458610466612456956123e460009436906004016148dc565b6123fb6123f033615797565b9760443590846157d9565b96906040519361240a856147df565b33855260018060a01b031660208501526040840152606435606084015260026080840152151560a083015260c0820152604051928391635b34379160e01b60208401526024830161526f565b0381837f00000000000000000000000000000000000000000000000000000000000000006001600160a01b03165af19081156103c1576124ad6104e7926020956000916124b4575b508580825183010191016152d2565b50506150de565b6124c991503d806000833e6105348183614867565b8661249e565b6125476105c660006104586124e3366149df565b916124f19794939733615797565b97604051946124ff866147df565b33865260018060a01b0316602086015260408501526060840152856080840152151560a083015260c0820152604051928391635b34379160e01b60208401526024830161526f565b0381837f00000000000000000000000000000000000000000000000000000000000000006001600160a01b03165af19182156103c15761039292610f8791600091610fcb5750602080825183010191016152d2565b346103cd576125aa36614d29565b6125b2615880565b6125ba6158a8565b6125c381615ab7565b6125d160608593950161512d565b906125db8361512d565b946101008401956125eb876151b8565b806127d8575b156126cf57509461266e916126496020977f00000000000000000000000000000000000000000000000000000000000000007f0000000000000000000000000000000000000000000000000000000000000000615922565b6126528561512d565b916126686126626080880161512d565b916151b8565b92615c7f565b7f00000000000000000000000000000000000000000000000000000000000000006001600160a01b039081169116146126bd575b506000600080516020615f8483398151915255604051908152f35b611f656126c99161512d565b826126a2565b816126e3575b505060209461266e91612649565b9095907f00000000000000000000000000000000000000000000000000000000000000006001600160a01b031660208161271c8a6158ef565b9361273b60405195869384936323b872dd60e01b8552600485016151dd565b038160006001600160a01b038a165af19081156103c15760009860209361277f936127bd575b50604051998a809481936315afd40960e01b83528a60048401614ebc565b03925af19182156103c15760209661266e936127a0575b50918196506126d5565b6127b690883d8a1161224c5761223d8183614867565b5087612796565b6127d390853d87116117e5576117d78183614867565b612761565b506001600160a01b038481167f0000000000000000000000000000000000000000000000000000000000000000909116146125f1565b346103cd5760603660031901126103cd57612827614764565b61282f614790565b6128376158a8565b60405163ca4f280360e01b81526001600160a01b0383811660048301529091907f000000000000000000000000000000000000000000000000000000000000000016600083602481845afa9384156103c15760006128a26128c4968296839161290a575b505161539d565b604051630281f58160e61b815296879586948593916044359160048601615200565b03925af180156103c157610392916000916128ef575b506040519182916020835260208301906149ab565b61290491503d806000833e61132b8183614867565b826128da565b61291e91503d8085833e6110178183614867565b8861289b565b346103cd5760e03660031901126103cd5761293d614764565b60a03660231901126103cd576040516129558161484c565b6024356001600160a01b03811681036103cd578152604435602082015260643560028110156103cd5760408201526084356001600160a01b03811681036103cd57606082015260a43580151581036103cd57612a169260009160808401526129bc33615797565b92604051916129ca83614831565b60018060a01b03168252336020830152604082015260c4356060820152612a0560405191631d64459160e21b60208401526024830190615512565b61010481526105c661012482614867565b0381837f00000000000000000000000000000000000000000000000000000000000000006001600160a01b03165af19182156103c157602092612a6a91600091612a78575b50838082518301019101615584565b50906104f657604051908152f35b612a8d91503d806000833e6105348183614867565b84612a5b565b346103cd5760003660031901126103cd577f0000000000000000000000000000000000000000000000000000000000000000546040516001600160a01b039091168152602090f35b346103cd5760803660031901126103cd576004356001600160401b0381116103cd57606060031982360301126103cd57612b13614790565b6044356064356001600160401b0381116103cd57612b35903690600401614bc4565b9190612b4033615797565b92600080516020615f648339815191523303612da65781604091810103126103cd5760408051600094909182016001600160401b03811183821017612d9257604052612b8b836147bc565b80835260209384013593830193845260405163ca4f280360e01b81526001600160a01b039182166004820152927f0000000000000000000000000000000000000000000000000000000000000000909116908684602481855afa93841561227b578794612d76575b50612c01849998995161539d565b6001600160a01b039099169894875b8551811015612c5a576001908b6001600160a01b03612c2f838a6150de565b511603612c495788612c41828a6150de565b525b01612c10565b89612c54828a6150de565b52612c43565b50612d17889493610458612cf3879586958b8f6024612c8591600160ff19815416176001550161512d565b925191516040519390926001600160a01b031690612ca2856147df565b6001600160a01b031684526020840152604083015260608201526001608082015260a08101869052612cd26154f2565b60c0820152604051635b34379160e01b60208201529283916024830161526f565b6040519485809481936348c8949160e01b8352602060048401526024830190614a70565b03925af18015611cbe57612d5e575b5060ff1960015416600155612d385780f35b807f00000000000000000000000000000000000000000000000000000000000000005580f35b612d71903d8085833e6105348183614867565b612d26565b612d8b9194503d8089833e6110178183614867565b9289612bf3565b634e487b7160e01b86526041600452602486fd5b63e7e601db60e01b60005260046000fd5b346103cd57612dc536614978565b612dcd615880565b612dd56158a8565b7f00000000000000000000000000000000000000000000000000000000000000009060208101906001600160a01b038316612e0f8361512d565b92612e198361512d565b612e266040850185615141565b95909160808601359060058210156103cd57612eb797610318612e9893612e80600097612e5660c08d018d615176565b95909660405199612e668b614816565b6001600160a01b039081168b521660208a01523691614911565b604087015260608a0135606087015260808601615256565b60a0820152604051809681926312bca7b160e21b83526004830161547d565b038183865af19283156103c15760009182958395613157575b50612eda9061512d565b60405163ca4f280360e01b81526001600160a01b039091166004820152600081602481875afa9081156103c15760009161313c575b50939460a08201949060005b825181101561310c576001600160a01b03612f3682856150de565b511690612f4381876150de565b5191821561310257612f54896151b8565b806130d0575b15612f935750612f8d6001928b7f0000000000000000000000000000000000000000000000000000000000000000615922565b01612f1b565b60015460ff161561305e57612fa7836158ef565b60405163a9059cbb60e01b8152600481018a90526001600160a01b039091166024820152926020846044816000865af19182156103c15761300794602093613041575b505b6040516315afd40960e01b8152948592839260048401614ebc565b038160008b5af19182156103c157600192613023575b50612f8d565b61303a9060203d811161224c5761223d8183614867565b508a61301d565b61305790843d81116117e5576117d78183614867565b508d612fea565b6130678661512d565b92602089613074836158ef565b9561309360405197889384936323b872dd60e01b8552600485016151dd565b03816000865af19182156103c157613007946020936130b3575b50612fec565b6130c990843d81116117e5576117d78183614867565b508d6130ad565b507f00000000000000000000000000000000000000000000000000000000000000006001600160a01b03168114612f5a565b5060019150612f8d565b50836103928861311e611f658761512d565b6000600080516020615f848339815191525560405193849384614a95565b61315191503d806000833e6110178183614867565b87612f0f565b909450613173919550612eda923d8091833e6103b28183614867565b95919290959490612ed0565b346103cd5760003660031901126103cd57604051600080548060011c9060018116801561327d575b6020831081146132695782855290811561324557506001146131e8575b610392836131d481850382614867565b604051918291602083526020830190614a70565b60008080527f290decd9548b62a8d60345a988386fc84ba6bc95484008f6362f93160ef3e563939250905b80821061322b575090915081016020016131d46131c4565b919260018160209254838588010152019101909291613213565b60ff191660208086019190915291151560051b840190910191506131d490506131c4565b634e487b7160e01b84526022600452602484fd5b91607f16916131a7565b346103cd576105e86132b060006104586107346132b76132a636614c51565b9394929890615797565b97846157d9565b50604051926132c5846147df565b30845260018060a01b03166020840152604083015260018060801b036060830152600260808301528460a083015260c082015260405192839163b24bd57160e01b602084015260248301614f06565b61338b6105c6600061045861332836614cbb565b9196939261333533615797565b9760405194613343866147df565b33865260018060a01b0316602086015260408501526060840152856080840152151560a083015260c0820152604051928391633d81e3dd60e11b602084015260248301614f06565b0381837f00000000000000000000000000000000000000000000000000000000000000006001600160a01b03165af19182156103c157610392926133e09160009161097557506020808251830101910161504c565b50919050610fa2576040519182916020835260208301906149ab565b346103cd5760a03660031901126103cd57613415614764565b6024356001600160401b0381116103cd5761343490369060040161495d565b61343c61477a565b60843592906001600160401b0384116103cd576107346000926104589261346d6106d76134c69836906004016148dc565b956040519261347b846147df565b30845260018060a01b0316602084015260408301526044356060830152600460808301528460a083015260c0820152604051928391633bf617c560e21b60208401526024830161526f565b0381837f00000000000000000000000000000000000000000000000000000000000000006001600160a01b03165af19182156103c1576103929261351b91600091610fcb5750602080825183010191016152d2565b90939192613530575b60405193849384614a95565b60007f000000000000000000000000000000000000000000000000000000000000000055613524565b346103cd576110c4613580600061045861073461357536614b15565b939890929192615797565b976040519461358e866147fa565b33865288602087015260018060a01b0316604086015260018060a01b0316606085015260018060a01b0316608084015260a08301528460c083015260018060801b0360e08301528461010083015261012082015260405192839163be5ae84160e01b6020840152602483016153d9565b346103cd5760003660031901126103cd576020604051600080516020615f648339815191528152f35b346103cd5760a03660031901126103cd57613640614764565b6136486147a6565b9061365161477a565b906084356001600160401b0381116103cd5761367461367a9136906004016148dc565b92615797565b6040805163c9c1661b60e01b81526001600160a01b03938416600482018190529584166024820152600095929490937f000000000000000000000000000000000000000000000000000000000000000016929184604481865afa938415611dd4579560009681956137a9575b5061375a61377e938895936136fd6104589461539d565b60016137098a836150de565b5260405192613717846147df565b308452602084015260408301526024356060830152600160808301528660a083015260c082015260405192839163b24bd57160e01b602084015260248301614f06565b604051968780948193631dbf46ad60e31b8352602060048401526024830190614a70565b03925af19081156103c1576104df6104e79260209560009161051f575085808251830101910161504c565b6136fd9550610458915061377e938895936137d561375a9360403d604011612302576122f08183614867565b989094505093955093506136e6565b346103cd576137ff6137f536614c51565b9490939293615797565b6040805163c9c1661b60e01b81526001600160a01b03948516600482018190529585166024820152600096929590947f0000000000000000000000000000000000000000000000000000000000000000169390929185604481875afa94851561227b57966000978196613910575b506138e5938895936104589361388561375a9461539d565b6001600160801b036138978b836150de565b52604051936138a5856147df565b308552602085015260408401526060830152600260808301528660a083015260c0820152604051928391633bf617c560e21b60208401526024830161526f565b03925af19081156103c1576124ad6104e7926020956000916124b457508580825183010191016152d2565b613885965061375a9150938895936104589361393d6138e59760403d604011612302576122f08183614867565b999094505093509395509361386d565b346103cd5760003660031901126103cd57602060405160008152f35b60a03660031901126103cd576004356001600160401b0381116103cd57366023820112156103cd5760048101356001600160401b0381116103cd5736602460c08302840101116103cd576024356001600160401b0381116103cd576139d2903690600401614b94565b906044356001600160401b0381116103cd578036039060606003198301126103cd576064356001600160401b0381116103cd57613a13903690600401614bc4565b50506084356001600160401b0381116103cd57613a34903690600401614b94565b929091613a3f615880565b858703613cda5760005b87811015613c8657613a5f610318828989615780565b60405190606082016001600160401b03811183821017613c7057604052600082526020820191600083526040810191600083526020810151906060604082015191015160001a9183528452825260009160c085028d019060c060231983360301126123145760405194613ad186614816565b613add602484016147bc565b91828752613aed604485016147bc565b906020880195828752613b02606487016147bc565b60408a015260848601359360ff60c460608c0198878a528c608060a48301359101520135968760a08d015260018060a01b03169351169151905191833b15613c6c578996959360e4938896938793604051998a98899763d505accf60e01b895260018060a01b0316600489015230602489015260448801526064870152608486015260a485015260c48401525af19182613c5c575b5050613c50576020613ba7615a87565b94519251604051636eb1769f60e11b81526001600160a01b0391821660048201523060248201529384916044918391165afa918215611cbe578392613c19575b505103613bfa5750506001905b01613a49565b815115613c0a5750805190602001fd5b63a728568960e01b8152600490fd5b9091506020813d8211613c48575b81613c3460209383614867565b81010312613c445751908d613be7565b8280fd5b3d9150613c27565b50505050600190613bf4565b613c6591614867565b8e84613b97565b8980fd5b634e487b7160e01b600052604160045260246000fd5b50600481013591602219018212156103cd570160048101356001600160401b0381116103cd5760249060071b36039101136103cd5761039291610e3f916000600080516020615f8483398151915255615657565b63aaad13f760e01b60005260046000fd5b346103cd576110c4613d07600061045861073461357536614b15565b9760405194613d15866147fa565b3386526001602087015260018060a01b0316604086015260018060a01b0316606085015260018060a01b0316608084015260a083015260018060801b0360c0830152841960e08301528461010083015261012082015260405192839163be5ae84160e01b6020840152602483016153d9565b346103cd5760003660031901126103cd576040517f00000000000000000000000000000000000000000000000000000000000000006001600160a01b03168152602090f35b346103cd57613de6613ddd36614abe565b91929390615797565b60405163ca4f280360e01b81526001600160a01b0394851660048201819052949193917f00000000000000000000000000000000000000000000000000000000000000001690600081602481855afa80156103c1576000968795613ea895613e5c610f3894610458968a91613ed257505161539d565b60405193613e69856147df565b3085526020850152604084015260608301528660808301528660a083015260c082015260405192839163b24bd57160e01b602084015260248301614f06565b03925af19182156103c157610392926133e09160009161097557506020808251830101910161504c565b613ee691503d808c833e6110178183614867565b8c61289b565b6134c66105c66000610458613f00366149df565b91613f0e9794939733615797565b9760405194613f1c866147df565b33865260018060a01b031660208601526040850152606084015260046080840152151560a083015260c0820152604051928391635b34379160e01b60208401526024830161526f565b346103cd5760003660031901126103cd576020604051624c4b408152f35b60603660031901126103cd57613f97614764565b6044356001600160401b0381116103cd57610d8391610ad8613fbf600093369060040161495d565b6040516382cd54fb60e01b602082015292839161045891602480359133918601615200565b346103cd57613ff236614978565b613ffa615880565b6140026158a8565b7f0000000000000000000000000000000000000000000000000000000000000000906001600160a01b03821661403a6020830161512d565b906140448361512d565b9160408401936140548582615141565b6060830193916140648585615141565b918361407360c0880188615176565b6040516305d4515f60e51b81526001600160a01b0398891660048201529b90971660248c015260c060448c015260c48b019590955293949360e48a01919060005b81811061433e575050508881036003190160648a01528281526001600160fb1b0383116103cd57602094848a958694889694879560051b809287830137019260808a0135608487015260031985878603010160a48701528185850152604084013760008380838501010152601f801991011601010301816000875af19384156103c15760009461430a575b50929360a08401939060005b6141558284615141565b90508110156142e15761417a6141758261416f8587615141565b906151a8565b61512d565b906141898161416f8787615141565b359182156142d75761419a886151b8565b806142a1575b156141d957506141d36001928a7f0000000000000000000000000000000000000000000000000000000000000000615922565b0161414b565b6141e28561512d565b926020886141ef836158ef565b9561420e60405197889384936323b872dd60e01b8552600485016151dd565b038160006001600160a01b0387165af19182156103c15761424c9460209361428657506040516315afd40960e01b8152948592839260048401614ebc565b038160008a5af19182156103c157600192614268575b506141d3565b61427f9060203d811161224c5761223d8183614867565b5089614262565b61429c90843d81116117e5576117d78183614867565b612fea565b506001600160a01b038181167f0000000000000000000000000000000000000000000000000000000000000000909116146141a0565b50600191506141d3565b6020876142f0611f658661512d565b6000600080516020615f8483398151915255604051908152f35b9093506020813d602011614336575b8161432660209383614867565b810103126103cd5751928661413f565b3d9150614319565b909192602080600192838060a01b03614356886147bc565b1681520194019291016140b4565b60c03660031901126103cd57614378614764565b6024356001600160401b0381116103cd57366023820112156103cd578060040135906143a3826148fa565b916143b16040519384614867565b8083526024602084019160051b830101913683116103cd57602401905b82821061453b57505060443590506001600160401b0381116103cd576143f890369060040161495d565b916144016147d0565b9160a4356001600160401b0381116103cd576144219036906004016148dc565b61442a33615797565b9360405195614438876147df565b338752602087019460018060a01b0316855260408701938452606087019081526080870193606435855260a08801921515835260c0880193845260405195630437d6b360e11b60208801526020602488015261012487019860018060a01b03905116604488015260018060a01b039051166064870152519660e0608487015287518091526020610144870198019060005b81811061451c5750505084936105c693600096936144fa6110c49a61045895516043198883030160a48901526149ab565b925160c486015251151560e48501525183820360431901610104850152614a70565b82516001600160a01b03168a526020998a0199909201916001016144c9565b60208091614548846147bc565b8152019101906143ce565b346103cd5760c03660031901126103cd5761456c614764565b6044356145776147d0565b60a4356001600160401b0381116103cd576145969036906004016148dc565b916145a033615797565b60405163d0f0442f60e01b815290937f00000000000000000000000000000000000000000000000000000000000000006001600160a01b031692909190602082806145ef848b60048401614ebc565b0381875afa9182156103c157600092614728575b506001600160a01b0382161561470357509161045861469b6000976146bf946146318a9760643590846157d9565b989061010061ff001960015416176001556040519361464f856147df565b33855260018060a01b031660208501526040840152602435606084015260016080840152151560a083015260c0820152604051928391633d81e3dd60e11b602084015260248301614f06565b6040519687809481936348c8949160e01b8352602060048401526024830190614a70565b03925af19081156103c1576104df6146ea9260209560009161051f575085808251830101910161504c565b519061ff0019600154166001556104f657604051908152f35b63c9f1d5bf60e01b60009081526001600160a01b038816600452602491909152604490fd5b9091506020813d60201161475c575b8161474460209383614867565b810103126103cd5761475590614ea8565b9087614603565b3d9150614737565b600435906001600160a01b03821682036103cd57565b606435906001600160a01b03821682036103cd57565b602435906001600160a01b03821682036103cd57565b604435906001600160a01b03821682036103cd57565b35906001600160a01b03821682036103cd57565b6084359081151582036103cd57565b60e081019081106001600160401b03821117613c7057604052565b61014081019081106001600160401b03821117613c7057604052565b60c081019081106001600160401b03821117613c7057604052565b608081019081106001600160401b03821117613c7057604052565b60a081019081106001600160401b03821117613c7057604052565b601f909101601f19168101906001600160401b03821190821017613c7057604052565b6001600160401b038111613c7057601f01601f191660200190565b9291926148b18261488a565b916148bf6040519384614867565b8294818452818301116103cd578281602093846000960137010152565b9080601f830112156103cd578160206148f7933591016148a5565b90565b6001600160401b038111613c705760051b60200190565b92919061491d816148fa565b9361492b6040519586614867565b602085838152019160051b81019283116103cd57905b82821061494d57505050565b8135815260209182019101614941565b9080601f830112156103cd578160206148f793359101614911565b60206003198201126103cd57600435906001600160401b0382116103cd5760e09082900360031901126103cd5760040190565b906020808351928381520192019060005b8181106149c95750505090565b82518452602093840193909201916001016149bc565b60a06003198201126103cd576004356001600160a01b03811681036103cd57916024356001600160401b0381116103cd5782614a1d9160040161495d565b916044359160643580151581036103cd5791608435906001600160401b0382116103cd576148f7916004016148dc565b60005b838110614a605750506000910152565b8181015183820152602001614a50565b90602091614a8981518092818552858086019101614a4d565b601f01601f1916010190565b614aab6148f794926060835260608301906149ab565b9260208201526040818403910152614a70565b9060806003198301126103cd576004356001600160a01b03811681036103cd5791602435916044356001600160a01b03811681036103cd5791606435906001600160401b0382116103cd576148f7916004016148dc565b9060c06003198301126103cd576004356001600160a01b03811681036103cd57916024356001600160a01b03811681036103cd57916044356001600160a01b03811681036103cd5791606435916084356001600160a01b03811681036103cd579160a435906001600160401b0382116103cd576148f7916004016148dc565b9181601f840112156103cd578235916001600160401b0383116103cd576020808501948460051b0101116103cd57565b9181601f840112156103cd578235916001600160401b0383116103cd57602083818601950101116103cd57565b602081016020825282518091526040820191602060408360051b8301019401926000915b838310614c2457505050505090565b9091929394602080614c42600193603f198682030187528951614a70565b97019301930191939290614c15565b60a06003198201126103cd576004356001600160a01b03811681036103cd57916024356001600160a01b03811681036103cd5791604435916064356001600160a01b03811681036103cd5791608435906001600160401b0382116103cd576148f7916004016148dc565b60a06003198201126103cd576004356001600160a01b03811681036103cd5791602435916044356001600160401b0381116103cd5781614cfd9160040161495d565b9160643580151581036103cd5791608435906001600160401b0382116103cd576148f7916004016148dc565b60206003198201126103cd57600435906001600160401b0382116103cd576101409082900360031901126103cd5760040190565b906101006003198301126103cd576004356001600160a01b03811681036103cd57916024356001600160a01b03811681036103cd57916044356001600160a01b03811681036103cd5791606435916084359160a4359160c43580151581036103cd579160e435906001600160401b0382116103cd57614dde91600401614bc4565b9091565b91614dff906148f7949284526060602085015260608401906149ab565b916040818403910152614a70565b60206003198201126103cd57600435906001600160401b0382116103cd5760809082900360031901126103cd5760040190565b9060c06003198301126103cd576004356001600160a01b03811681036103cd5791602435916044356001600160a01b03811681036103cd57916064359160843580151581036103cd579160a435906001600160401b0382116103cd576148f7916004016148dc565b51906001600160a01b03821682036103cd57565b6001600160a01b039091168152602081019190915260400190565b6004821015614ee35752565b634e487b7160e01b600052602160045260246000fd5b906004821015614ee35752565b906148f7916020815260018060a01b03825116602082015260018060a01b03602083015116604082015260c0614f4c604084015160e060608501526101008401906149ab565b9260608101516080840152614f69608082015160a0850190614ef9565b60a081015115158284015201519060e0601f1982850301910152614a70565b81601f820112156103cd578051614f9e8161488a565b92614fac6040519485614867565b818452602082840101116103cd576148f79160208085019101614a4d565b906020828203126103cd5781516001600160401b0381116103cd576148f79201614f88565b9080601f830112156103cd578151615006816148fa565b926150146040519485614867565b81845260208085019260051b8201019283116103cd57602001905b82821061503c5750505090565b815181526020918201910161502f565b916060838303126103cd57825160208401519093906001600160401b0381116103cd578361507b918301614fef565b60408201519093906001600160401b0381116103cd576148f79201614f88565b8051156150a85760200190565b634e487b7160e01b600052603260045260246000fd5b8051600110156150a85760400190565b8051600210156150a85760600190565b80518210156150a85760209160051b010190565b908160209103126103cd575190565b6004356001600160a01b03811681036103cd5790565b6024356001600160a01b03811681036103cd5790565b356001600160a01b03811681036103cd5790565b903590601e19813603018212156103cd57018035906001600160401b0382116103cd57602001918160051b360383136103cd57565b903590601e19813603018212156103cd57018035906001600160401b0382116103cd576020019181360383136103cd57565b91908110156150a85760051b0190565b3580151581036103cd5790565b908160209103126103cd575180151581036103cd5790565b6001600160a01b0391821681529181166020830152909116604082015260600190565b6001600160a01b0391821681529116602082015260408101919091526080606082018190526148f7929101906149ab565b906020828203126103cd5781516001600160401b0381116103cd576148f79201614fef565b6005821015614ee35752565b906005821015614ee35752565b906148f7916020815260018060a01b03825116602082015260018060a01b03602083015116604082015260c06152b5604084015160e060608501526101008401906149ab565b9260608101516080840152614f69608082015160a0850190615262565b916060838303126103cd5782516001600160401b0381116103cd57826152f9918501614fef565b92602081015192604082015160018060401b0381116103cd576148f79201614f88565b6020818303126103cd578051906001600160401b0382116103cd57019080601f830112156103cd57815161534f816148fa565b9261535d6040519485614867565b81845260208085019260051b8201019283116103cd57602001905b8282106153855750505090565b6020809161539284614ea8565b815201910190615378565b906153a7826148fa565b6153b46040519182614867565b82815280926153c5601f19916148fa565b0190602036910137565b60021115614ee357565b602080825282516001600160a01b0316828201528201516148f792610160916101209190615406816153cf565b604085015260018060a01b03604082015116606085015260018060a01b03606082015116608085015260018060a01b0360808201511660a085015260a081015160c085015260c081015160e085015260e0810151610100850152610100810151151582850152015191610140808201520190614a70565b906148f7916020815260018060a01b03825116602082015260018060a01b03602083015116604082015260a06154c2604084015160c0606085015260e08401906149ab565b92606081015160808401526154de608082015183850190615262565b01519060c0601f1982850301910152614a70565b60405190615501604083614867565b6002825261060f60f31b6020830152565b80516001600160a01b039081168352602080830151821681850152604080840151805190931681860152908201516060858101919091529082015160e093919260809161555e816153cf565b86830152808401516001600160a01b031660a08701520151151560c08501520151910152565b91908260409103126103cd576020825192015190565b919082039182116155a757565b634e487b7160e01b600052601160045260246000fd5b906148f7916020815260018060a01b03825116602082015260018060a01b0360208301511660408201526040820151606082015260a061560c606084015160c0608085015260e08401906149ab565b926154de608082015183850190614ef9565b6001600160a01b03918216815291166020820152604081019190915260600190565b600080516020615f648339815191523303612da657565b919061566233615797565b907f000000000000000000000000000000000000000000000000000000000000000093845461576f5760018555615698826148fa565b916156a66040519384614867565b808352601f196156b5826148fa565b0160005b81811061575e57505060005b818110615713575050509060006157079294557f0000000000000000000000000000000000000000000000000000000000000000805491615709575b50615a44565b565b6000905538615701565b8061574260008061572a610318600196888a615780565b602081519101305af461573b615a87565b9030615ef3565b61574c82876150de565b5261575781866150de565b50016156c5565b8060606020809388010152016156b9565b633ee5aeb560e01b60005260046000fd5b908210156150a857614dde9160051b810190615176565b7f000000000000000000000000000000000000000000000000000000000000000080546000939291906001600160a01b0316156157d2575050565b5560019150565b6040805163c9c1661b60e01b81526001600160a01b03928316600482015292821660248401529293919290839060449082907f0000000000000000000000000000000000000000000000000000000000000000165afa9283156103c157600092600094615859575b5061585661584f859461539d565b94856150de565b52565b90935061587691925060403d604011612302576122f08183614867565b9190919238615841565b600080516020615f848339815191525461576f576001600080516020615f8483398151915255565b7f00000000000000000000000000000000000000000000000000000000000000006001600160a01b031633036158da57565b63089676d560e01b6000523360045260246000fd5b6001600160a01b038111615909576001600160a01b031690565b6306dfcc6560e41b60005260a060045260245260446000fd5b824710615a33576001600160a01b031691823b156103cd57604051630d0e30db60e41b815260009290838160048186895af1801561230957615a1f575b5060018060a01b0316926020836040518281019063a9059cbb60e01b825261598f81610458888b60248401614ebc565b519082855af115615a145782513d615a0b5750803b155b6159f9579060446020928460405196879485936315afd40960e01b8552600485015260248401525af1908115611c8257506159de5750565b6159f69060203d60201161224c5761223d8183614867565b50565b635274afe760e01b8352600452602482fd5b600114156159a6565b6040513d84823e3d90fd5b83615a2c91949294614867565b913861595f565b63500d4efb60e11b60005260046000fd5b478015615a83577f000000000000000000000000000000000000000000000000000000000000000054615a8357615707916001600160a01b0316615e9e565b5050565b3d15615ab2573d90615a988261488a565b91615aa66040519384614867565b82523d6000602084013e565b606090565b60e08101354211615c6e57602081013560028110156103cd57606090615adf6040840161512d565b90615be2615aee84860161512d565b94615afb6080820161512d565b90615b71615b0d610120830183615176565b919060405196615b1c886147df565b615b25816153cf565b8752602087019760018060a01b03168852604087019960018060a01b03168a528887019460018060a01b03168552608087019260a0850135845260c060a08901950135855236916148a5565b9260c086019384526040519889978897630afede0360e21b8952602060048a015251615b9c816153cf565b6024890152516001600160a01b03908116604489015290518116606488015290511660848601525160a48501525160c48401525160e060e4840152610104830190614a70565b038160007f00000000000000000000000000000000000000000000000000000000000000006001600160a01b03165af19081156103c15760009182918391615c2b575b50909192565b929150506060823d606011615c66575b81615c4860609383614867565b81010312611e27575080516040602083015192015190919038615c25565b3d9150615c3b565b630e08b8af60e41b60005260046000fd5b909392936000948315615e4c5780615e16575b15615d9e5750837f00000000000000000000000000000000000000000000000000000000000000006001600160a01b0316803b15615d855760405163ae63932960e01b815282816064818360018060a01b037f000000000000000000000000000000000000000000000000000000000000000016968760048401523060248401528a60448401525af1908115611cbe578391615d89575b5050803b15615d85578190602460405180948193632e1a7d4d60e01b83528860048401525af18015611d8b57615d70575b50919250615707916001600160a01b0316615e9e565b615d7b858092614867565b6123145783615d5a565b5080fd5b81615d9391614867565b615d85578138615d29565b9293927f00000000000000000000000000000000000000000000000000000000000000006001600160a01b03169190823b15611d7f5791615dfa93918580946040519687958694859363ae63932960e01b85526004850161561e565b03925af18015615a1457615e0c575050565b816159f691614867565b506001600160a01b038181167f000000000000000000000000000000000000000000000000000000000000000090911614615c92565b505050509050565b906020808351928381520192019060005b818110615e725750505090565b82516001600160a01b0316845260209384019390920191600101615e65565b919082018092116155a757565b814710615eda576000918291829182916001600160a01b03165af1615ec1615a87565b5015615ec957565b63d6bda27560e01b60005260046000fd5b504763cf47918160e01b60005260045260245260446000fd5b90615f085750805115615ec957805190602001fd5b81511580615f3a575b615f19575090565b639996b31560e01b60009081526001600160a01b0391909116600452602490fd5b50803b15615f1156fe0000000000000000000000002ca7d64a7efe2d62a725e2b35cf7230d6677ffee0000000000000000000000006c533f7fe93fae114d0954697069df33c9b74fd79b779b17422d0df92223018b32b4d1fa46e071723d6817e2486d003becc55f00a2646970667358221220d951fb21192c49cdb6e1aed973df00dda0800c3f28ea41ad441397d25b947ef064736f6c634300081a0033",
  "linkReferences": {},
  "deployedLinkReferences": {}
}