{
  "_format": "hh-sol-artifact-1",
  "contractName": "Router",
  "sourceName": "contracts/_Router.sol",
  "abi": [
    {
      "inputs": [
        {
          "internalType": "contract IVault",
          "name": "vault",
          "type": "address"
        },
        {
          "internalType": "contract IWETH",
          "name": "weth",
          "type": "address"
        },
        {
          "internalType": "string",
          "name": "routerVersion",
          "type": "string"
        }
      ],
      "stateMutability": "nonpayable",
      "type": "constructor"
    },
    {
      "inputs": [
        {
          "internalType": "address",
          "name": "target",
          "type": "address"
        }
      ],
      "name": "AddressEmptyCode",
      "type": "error"
    },
    {
      "inputs": [],
      "name": "ErrorSelectorNotFound",
      "type": "error"
    },
    {
      "inputs": [],
      "name": "EthTransfer",
      "type": "error"
    },
    {
      "inputs": [],
      "name": "FailedCall",
      "type": "error"
    },
    {
      "inputs": [],
      "name": "InputLengthMismatch",
      "type": "error"
    },
    {
      "inputs": [
        {
          "internalType": "uint256",
          "name": "balance",
          "type": "uint256"
        },
        {
          "internalType": "uint256",
          "name": "needed",
          "type": "uint256"
        }
      ],
      "name": "InsufficientBalance",
      "type": "error"
    },
    {
      "inputs": [],
      "name": "InsufficientEth",
      "type": "error"
    },
    {
      "inputs": [],
      "name": "ReentrancyGuardReentrantCall",
      "type": "error"
    },
    {
      "inputs": [
        {
          "internalType": "uint8",
          "name": "bits",
          "type": "uint8"
        },
        {
          "internalType": "uint256",
          "name": "value",
          "type": "uint256"
        }
      ],
      "name": "SafeCastOverflowedUintDowncast",
      "type": "error"
    },
    {
      "inputs": [
        {
          "internalType": "address",
          "name": "token",
          "type": "address"
        }
      ],
      "name": "SafeERC20FailedOperation",
      "type": "error"
    },
    {
      "inputs": [
        {
          "internalType": "address",
          "name": "sender",
          "type": "address"
        }
      ],
      "name": "SenderIsNotVault",
      "type": "error"
    },
    {
      "inputs": [],
      "name": "SwapDeadline",
      "type": "error"
    },
    {
      "inputs": [
        {
          "internalType": "address",
          "name": "pool",
          "type": "address"
        },
        {
          "internalType": "uint256[]",
          "name": "maxAmountsIn",
          "type": "uint256[]"
        },
        {
          "internalType": "uint256",
          "name": "minBptAmountOut",
          "type": "uint256"
        },
        {
          "internalType": "bool",
          "name": "wethIsEth",
          "type": "bool"
        },
        {
          "internalType": "bytes",
          "name": "userData",
          "type": "bytes"
        }
      ],
      "name": "addLiquidityCustom",
      "outputs": [
        {
          "internalType": "uint256[]",
          "name": "amountsIn",
          "type": "uint256[]"
        },
        {
          "internalType": "uint256",
          "name": "bptAmountOut",
          "type": "uint256"
        },
        {
          "internalType": "bytes",
          "name": "returnData",
          "type": "bytes"
        }
      ],
      "stateMutability": "payable",
      "type": "function"
    },
    {
      "inputs": [
        {
          "components": [
            {
              "internalType": "address",
              "name": "sender",
              "type": "address"
            },
            {
              "internalType": "address",
              "name": "pool",
              "type": "address"
            },
            {
              "internalType": "uint256[]",
              "name": "maxAmountsIn",
              "type": "uint256[]"
            },
            {
              "internalType": "uint256",
              "name": "minBptAmountOut",
              "type": "uint256"
            },
            {
              "internalType": "enum AddLiquidityKind",
              "name": "kind",
              "type": "uint8"
            },
            {
              "internalType": "bool",
              "name": "wethIsEth",
              "type": "bool"
            },
            {
              "internalType": "bytes",
              "name": "userData",
              "type": "bytes"
            }
          ],
          "internalType": "struct IRouterCommon.AddLiquidityHookParams",
          "name": "params",
          "type": "tuple"
        }
      ],
      "name": "addLiquidityHook",
      "outputs": [
        {
          "internalType": "uint256[]",
          "name": "amountsIn",
          "type": "uint256[]"
        },
        {
          "internalType": "uint256",
          "name": "bptAmountOut",
          "type": "uint256"
        },
        {
          "internalType": "bytes",
          "name": "returnData",
          "type": "bytes"
        }
      ],
      "stateMutability": "nonpayable",
      "type": "function"
    },
    {
      "inputs": [
        {
          "internalType": "address",
          "name": "pool",
          "type": "address"
        },
        {
          "internalType": "uint256[]",
          "name": "maxAmountsIn",
          "type": "uint256[]"
        },
        {
          "internalType": "uint256",
          "name": "exactBptAmountOut",
          "type": "uint256"
        },
        {
          "internalType": "bool",
          "name": "wethIsEth",
          "type": "bool"
        },
        {
          "internalType": "bytes",
          "name": "userData",
          "type": "bytes"
        }
      ],
      "name": "addLiquidityProportional",
      "outputs": [
        {
          "internalType": "uint256[]",
          "name": "amountsIn",
          "type": "uint256[]"
        }
      ],
      "stateMutability": "payable",
      "type": "function"
    },
    {
      "inputs": [
        {
          "internalType": "address",
          "name": "pool",
          "type": "address"
        },
        {
          "internalType": "contract IERC20",
          "name": "tokenIn",
          "type": "address"
        },
        {
          "internalType": "uint256",
          "name": "maxAmountIn",
          "type": "uint256"
        },
        {
          "internalType": "uint256",
          "name": "exactBptAmountOut",
          "type": "uint256"
        },
        {
          "internalType": "bool",
          "name": "wethIsEth",
          "type": "bool"
        },
        {
          "internalType": "bytes",
          "name": "userData",
          "type": "bytes"
        }
      ],
      "name": "addLiquiditySingleTokenExactOut",
      "outputs": [
        {
          "internalType": "uint256",
          "name": "amountIn",
          "type": "uint256"
        }
      ],
      "stateMutability": "payable",
      "type": "function"
    },
    {
      "inputs": [
        {
          "internalType": "address",
          "name": "pool",
          "type": "address"
        },
        {
          "internalType": "uint256[]",
          "name": "exactAmountsIn",
          "type": "uint256[]"
        },
        {
          "internalType": "uint256",
          "name": "minBptAmountOut",
          "type": "uint256"
        },
        {
          "internalType": "bool",
          "name": "wethIsEth",
          "type": "bool"
        },
        {
          "internalType": "bytes",
          "name": "userData",
          "type": "bytes"
        }
      ],
      "name": "addLiquidityUnbalanced",
      "outputs": [
        {
          "internalType": "uint256",
          "name": "bptAmountOut",
          "type": "uint256"
        }
      ],
      "stateMutability": "payable",
      "type": "function"
    },
    {
      "inputs": [
        {
          "internalType": "address",
          "name": "pool",
          "type": "address"
        },
        {
          "internalType": "uint256[]",
          "name": "amountsIn",
          "type": "uint256[]"
        },
        {
          "internalType": "bool",
          "name": "wethIsEth",
          "type": "bool"
        },
        {
          "internalType": "bytes",
          "name": "userData",
          "type": "bytes"
        }
      ],
      "name": "donate",
      "outputs": [],
      "stateMutability": "payable",
      "type": "function"
    },
    {
      "inputs": [],
      "name": "getPermit2",
      "outputs": [
        {
          "internalType": "address",
          "name": "",
          "type": "address"
        }
      ],
      "stateMutability": "view",
      "type": "function"
    },
    {
      "inputs": [],
      "name": "getSender",
      "outputs": [
        {
          "internalType": "address",
          "name": "",
          "type": "address"
        }
      ],
      "stateMutability": "view",
      "type": "function"
    },
    {
      "inputs": [],
      "name": "getWeth",
      "outputs": [
        {
          "internalType": "contract IWETH",
          "name": "",
          "type": "address"
        }
      ],
      "stateMutability": "view",
      "type": "function"
    },
    {
      "inputs": [
        {
          "internalType": "address",
          "name": "pool",
          "type": "address"
        },
        {
          "internalType": "contract IERC20[]",
          "name": "tokens",
          "type": "address[]"
        },
        {
          "internalType": "uint256[]",
          "name": "exactAmountsIn",
          "type": "uint256[]"
        },
        {
          "internalType": "uint256",
          "name": "minBptAmountOut",
          "type": "uint256"
        },
        {
          "internalType": "bool",
          "name": "wethIsEth",
          "type": "bool"
        },
        {
          "internalType": "bytes",
          "name": "userData",
          "type": "bytes"
        }
      ],
      "name": "initialize",
      "outputs": [
        {
          "internalType": "uint256",
          "name": "bptAmountOut",
          "type": "uint256"
        }
      ],
      "stateMutability": "payable",
      "type": "function"
    },
    {
      "inputs": [
        {
          "components": [
            {
              "internalType": "address",
              "name": "sender",
              "type": "address"
            },
            {
              "internalType": "address",
              "name": "pool",
              "type": "address"
            },
            {
              "internalType": "contract IERC20[]",
              "name": "tokens",
              "type": "address[]"
            },
            {
              "internalType": "uint256[]",
              "name": "exactAmountsIn",
              "type": "uint256[]"
            },
            {
              "internalType": "uint256",
              "name": "minBptAmountOut",
              "type": "uint256"
            },
            {
              "internalType": "bool",
              "name": "wethIsEth",
              "type": "bool"
            },
            {
              "internalType": "bytes",
              "name": "userData",
              "type": "bytes"
            }
          ],
          "internalType": "struct IRouter.InitializeHookParams",
          "name": "params",
          "type": "tuple"
        }
      ],
      "name": "initializeHook",
      "outputs": [
        {
          "internalType": "uint256",
          "name": "bptAmountOut",
          "type": "uint256"
        }
      ],
      "stateMutability": "nonpayable",
      "type": "function"
    },
    {
      "inputs": [
        {
          "internalType": "bytes[]",
          "name": "data",
          "type": "bytes[]"
        }
      ],
      "name": "multicall",
      "outputs": [
        {
          "internalType": "bytes[]",
          "name": "results",
          "type": "bytes[]"
        }
      ],
      "stateMutability": "payable",
      "type": "function"
    },
    {
      "inputs": [
        {
          "components": [
            {
              "internalType": "address",
              "name": "token",
              "type": "address"
            },
            {
              "internalType": "address",
              "name": "owner",
              "type": "address"
            },
            {
              "internalType": "address",
              "name": "spender",
              "type": "address"
            },
            {
              "internalType": "uint256",
              "name": "amount",
              "type": "uint256"
            },
            {
              "internalType": "uint256",
              "name": "nonce",
              "type": "uint256"
            },
            {
              "internalType": "uint256",
              "name": "deadline",
              "type": "uint256"
            }
          ],
          "internalType": "struct IRouterCommon.PermitApproval[]",
          "name": "permitBatch",
          "type": "tuple[]"
        },
        {
          "internalType": "bytes[]",
          "name": "permitSignatures",
          "type": "bytes[]"
        },
        {
          "components": [
            {
              "components": [
                {
                  "internalType": "address",
                  "name": "token",
                  "type": "address"
                },
                {
                  "internalType": "uint160",
                  "name": "amount",
                  "type": "uint160"
                },
                {
                  "internalType": "uint48",
                  "name": "expiration",
                  "type": "uint48"
                },
                {
                  "internalType": "uint48",
                  "name": "nonce",
                  "type": "uint48"
                }
              ],
              "internalType": "struct IAllowanceTransfer.PermitDetails[]",
              "name": "details",
              "type": "tuple[]"
            },
            {
              "internalType": "address",
              "name": "spender",
              "type": "address"
            },
            {
              "internalType": "uint256",
              "name": "sigDeadline",
              "type": "uint256"
            }
          ],
          "internalType": "struct IAllowanceTransfer.PermitBatch",
          "name": "permit2Batch",
          "type": "tuple"
        },
        {
          "internalType": "bytes",
          "name": "permit2Signature",
          "type": "bytes"
        },
        {
          "internalType": "bytes[]",
          "name": "multicallData",
          "type": "bytes[]"
        }
      ],
      "name": "permitBatchAndCall",
      "outputs": [
        {
          "internalType": "bytes[]",
          "name": "results",
          "type": "bytes[]"
        }
      ],
      "stateMutability": "payable",
      "type": "function"
    },
    {
      "inputs": [
        {
          "internalType": "address",
          "name": "pool",
          "type": "address"
        },
        {
          "internalType": "uint256[]",
          "name": "maxAmountsIn",
          "type": "uint256[]"
        },
        {
          "internalType": "uint256",
          "name": "minBptAmountOut",
          "type": "uint256"
        },
        {
          "internalType": "address",
          "name": "sender",
          "type": "address"
        },
        {
          "internalType": "bytes",
          "name": "userData",
          "type": "bytes"
        }
      ],
      "name": "queryAddLiquidityCustom",
      "outputs": [
        {
          "internalType": "uint256[]",
          "name": "amountsIn",
          "type": "uint256[]"
        },
        {
          "internalType": "uint256",
          "name": "bptAmountOut",
          "type": "uint256"
        },
        {
          "internalType": "bytes",
          "name": "returnData",
          "type": "bytes"
        }
      ],
      "stateMutability": "nonpayable",
      "type": "function"
    },
    {
      "inputs": [
        {
          "components": [
            {
              "internalType": "address",
              "name": "sender",
              "type": "address"
            },
            {
              "internalType": "address",
              "name": "pool",
              "type": "address"
            },
            {
              "internalType": "uint256[]",
              "name": "maxAmountsIn",
              "type": "uint256[]"
            },
            {
              "internalType": "uint256",
              "name": "minBptAmountOut",
              "type": "uint256"
            },
            {
              "internalType": "enum AddLiquidityKind",
              "name": "kind",
              "type": "uint8"
            },
            {
              "internalType": "bool",
              "name": "wethIsEth",
              "type": "bool"
            },
            {
              "internalType": "bytes",
              "name": "userData",
              "type": "bytes"
            }
          ],
          "internalType": "struct IRouterCommon.AddLiquidityHookParams",
          "name": "params",
          "type": "tuple"
        }
      ],
      "name": "queryAddLiquidityHook",
      "outputs": [
        {
          "internalType": "uint256[]",
          "name": "amountsIn",
          "type": "uint256[]"
        },
        {
          "internalType": "uint256",
          "name": "bptAmountOut",
          "type": "uint256"
        },
        {
          "internalType": "bytes",
          "name": "returnData",
          "type": "bytes"
        }
      ],
      "stateMutability": "nonpayable",
      "type": "function"
    },
    {
      "inputs": [
        {
          "internalType": "address",
          "name": "pool",
          "type": "address"
        },
        {
          "internalType": "uint256",
          "name": "exactBptAmountOut",
          "type": "uint256"
        },
        {
          "internalType": "address",
          "name": "sender",
          "type": "address"
        },
        {
          "internalType": "bytes",
          "name": "userData",
          "type": "bytes"
        }
      ],
      "name": "queryAddLiquidityProportional",
      "outputs": [
        {
          "internalType": "uint256[]",
          "name": "amountsIn",
          "type": "uint256[]"
        }
      ],
      "stateMutability": "nonpayable",
      "type": "function"
    },
    {
      "inputs": [
        {
          "internalType": "address",
          "name": "pool",
          "type": "address"
        },
        {
          "internalType": "contract IERC20",
          "name": "tokenIn",
          "type": "address"
        },
        {
          "internalType": "uint256",
          "name": "exactBptAmountOut",
          "type": "uint256"
        },
        {
          "internalType": "address",
          "name": "sender",
          "type": "address"
        },
        {
          "internalType": "bytes",
          "name": "userData",
          "type": "bytes"
        }
      ],
      "name": "queryAddLiquiditySingleTokenExactOut",
      "outputs": [
        {
          "internalType": "uint256",
          "name": "amountIn",
          "type": "uint256"
        }
      ],
      "stateMutability": "nonpayable",
      "type": "function"
    },
    {
      "inputs": [
        {
          "internalType": "address",
          "name": "pool",
          "type": "address"
        },
        {
          "internalType": "uint256[]",
          "name": "exactAmountsIn",
          "type": "uint256[]"
        },
        {
          "internalType": "address",
          "name": "sender",
          "type": "address"
        },
        {
          "internalType": "bytes",
          "name": "userData",
          "type": "bytes"
        }
      ],
      "name": "queryAddLiquidityUnbalanced",
      "outputs": [
        {
          "internalType": "uint256",
          "name": "bptAmountOut",
          "type": "uint256"
        }
      ],
      "stateMutability": "nonpayable",
      "type": "function"
    },
    {
      "inputs": [
        {
          "internalType": "address",
          "name": "pool",
          "type": "address"
        },
        {
          "internalType": "uint256",
          "name": "maxBptAmountIn",
          "type": "uint256"
        },
        {
          "internalType": "uint256[]",
          "name": "minAmountsOut",
          "type": "uint256[]"
        },
        {
          "internalType": "address",
          "name": "sender",
          "type": "address"
        },
        {
          "internalType": "bytes",
          "name": "userData",
          "type": "bytes"
        }
      ],
      "name": "queryRemoveLiquidityCustom",
      "outputs": [
        {
          "internalType": "uint256",
          "name": "bptAmountIn",
          "type": "uint256"
        },
        {
          "internalType": "uint256[]",
          "name": "amountsOut",
          "type": "uint256[]"
        },
        {
          "internalType": "bytes",
          "name": "returnData",
          "type": "bytes"
        }
      ],
      "stateMutability": "nonpayable",
      "type": "function"
    },
    {
      "inputs": [
        {
          "components": [
            {
              "internalType": "address",
              "name": "sender",
              "type": "address"
            },
            {
              "internalType": "address",
              "name": "pool",
              "type": "address"
            },
            {
              "internalType": "uint256[]",
              "name": "minAmountsOut",
              "type": "uint256[]"
            },
            {
              "internalType": "uint256",
              "name": "maxBptAmountIn",
              "type": "uint256"
            },
            {
              "internalType": "enum RemoveLiquidityKind",
              "name": "kind",
              "type": "uint8"
            },
            {
              "internalType": "bool",
              "name": "wethIsEth",
              "type": "bool"
            },
            {
              "internalType": "bytes",
              "name": "userData",
              "type": "bytes"
            }
          ],
          "internalType": "struct IRouterCommon.RemoveLiquidityHookParams",
          "name": "params",
          "type": "tuple"
        }
      ],
      "name": "queryRemoveLiquidityHook",
      "outputs": [
        {
          "internalType": "uint256",
          "name": "bptAmountIn",
          "type": "uint256"
        },
        {
          "internalType": "uint256[]",
          "name": "amountsOut",
          "type": "uint256[]"
        },
        {
          "internalType": "bytes",
          "name": "returnData",
          "type": "bytes"
        }
      ],
      "stateMutability": "nonpayable",
      "type": "function"
    },
    {
      "inputs": [
        {
          "internalType": "address",
          "name": "pool",
          "type": "address"
        },
        {
          "internalType": "uint256",
          "name": "exactBptAmountIn",
          "type": "uint256"
        },
        {
          "internalType": "address",
          "name": "sender",
          "type": "address"
        },
        {
          "internalType": "bytes",
          "name": "userData",
          "type": "bytes"
        }
      ],
      "name": "queryRemoveLiquidityProportional",
      "outputs": [
        {
          "internalType": "uint256[]",
          "name": "amountsOut",
          "type": "uint256[]"
        }
      ],
      "stateMutability": "nonpayable",
      "type": "function"
    },
    {
      "inputs": [
        {
          "internalType": "address",
          "name": "pool",
          "type": "address"
        },
        {
          "internalType": "uint256",
          "name": "exactBptAmountIn",
          "type": "uint256"
        }
      ],
      "name": "queryRemoveLiquidityRecovery",
      "outputs": [
        {
          "internalType": "uint256[]",
          "name": "amountsOut",
          "type": "uint256[]"
        }
      ],
      "stateMutability": "nonpayable",
      "type": "function"
    },
    {
      "inputs": [
        {
          "internalType": "address",
          "name": "pool",
          "type": "address"
        },
        {
          "internalType": "address",
          "name": "sender",
          "type": "address"
        },
        {
          "internalType": "uint256",
          "name": "exactBptAmountIn",
          "type": "uint256"
        }
      ],
      "name": "queryRemoveLiquidityRecoveryHook",
      "outputs": [
        {
          "internalType": "uint256[]",
          "name": "amountsOut",
          "type": "uint256[]"
        }
      ],
      "stateMutability": "nonpayable",
      "type": "function"
    },
    {
      "inputs": [
        {
          "internalType": "address",
          "name": "pool",
          "type": "address"
        },
        {
          "internalType": "uint256",
          "name": "exactBptAmountIn",
          "type": "uint256"
        },
        {
          "internalType": "contract IERC20",
          "name": "tokenOut",
          "type": "address"
        },
        {
          "internalType": "address",
          "name": "sender",
          "type": "address"
        },
        {
          "internalType": "bytes",
          "name": "userData",
          "type": "bytes"
        }
      ],
      "name": "queryRemoveLiquiditySingleTokenExactIn",
      "outputs": [
        {
          "internalType": "uint256",
          "name": "amountOut",
          "type": "uint256"
        }
      ],
      "stateMutability": "nonpayable",
      "type": "function"
    },
    {
      "inputs": [
        {
          "internalType": "address",
          "name": "pool",
          "type": "address"
        },
        {
          "internalType": "contract IERC20",
          "name": "tokenOut",
          "type": "address"
        },
        {
          "internalType": "uint256",
          "name": "exactAmountOut",
          "type": "uint256"
        },
        {
          "internalType": "address",
          "name": "sender",
          "type": "address"
        },
        {
          "internalType": "bytes",
          "name": "userData",
          "type": "bytes"
        }
      ],
      "name": "queryRemoveLiquiditySingleTokenExactOut",
      "outputs": [
        {
          "internalType": "uint256",
          "name": "bptAmountIn",
          "type": "uint256"
        }
      ],
      "stateMutability": "nonpayable",
      "type": "function"
    },
    {
      "inputs": [
        {
          "components": [
            {
              "internalType": "address",
              "name": "sender",
              "type": "address"
            },
            {
              "internalType": "enum SwapKind",
              "name": "kind",
              "type": "uint8"
            },
            {
              "internalType": "address",
              "name": "pool",
              "type": "address"
            },
            {
              "internalType": "contract IERC20",
              "name": "tokenIn",
              "type": "address"
            },
            {
              "internalType": "contract IERC20",
              "name": "tokenOut",
              "type": "address"
            },
            {
              "internalType": "uint256",
              "name": "amountGiven",
              "type": "uint256"
            },
            {
              "internalType": "uint256",
              "name": "limit",
              "type": "uint256"
            },
            {
              "internalType": "uint256",
              "name": "deadline",
              "type": "uint256"
            },
            {
              "internalType": "bool",
              "name": "wethIsEth",
              "type": "bool"
            },
            {
              "internalType": "bytes",
              "name": "userData",
              "type": "bytes"
            }
          ],
          "internalType": "struct IRouter.SwapSingleTokenHookParams",
          "name": "params",
          "type": "tuple"
        }
      ],
      "name": "querySwapHook",
      "outputs": [
        {
          "internalType": "uint256",
          "name": "",
          "type": "uint256"
        }
      ],
      "stateMutability": "nonpayable",
      "type": "function"
    },
    {
      "inputs": [
        {
          "internalType": "address",
          "name": "pool",
          "type": "address"
        },
        {
          "internalType": "contract IERC20",
          "name": "tokenIn",
          "type": "address"
        },
        {
          "internalType": "contract IERC20",
          "name": "tokenOut",
          "type": "address"
        },
        {
          "internalType": "uint256",
          "name": "exactAmountIn",
          "type": "uint256"
        },
        {
          "internalType": "address",
          "name": "sender",
          "type": "address"
        },
        {
          "internalType": "bytes",
          "name": "userData",
          "type": "bytes"
        }
      ],
      "name": "querySwapSingleTokenExactIn",
      "outputs": [
        {
          "internalType": "uint256",
          "name": "amountCalculated",
          "type": "uint256"
        }
      ],
      "stateMutability": "nonpayable",
      "type": "function"
    },
    {
      "inputs": [
        {
          "internalType": "address",
          "name": "pool",
          "type": "address"
        },
        {
          "internalType": "contract IERC20",
          "name": "tokenIn",
          "type": "address"
        },
        {
          "internalType": "contract IERC20",
          "name": "tokenOut",
          "type": "address"
        },
        {
          "internalType": "uint256",
          "name": "exactAmountOut",
          "type": "uint256"
        },
        {
          "internalType": "address",
          "name": "sender",
          "type": "address"
        },
        {
          "internalType": "bytes",
          "name": "userData",
          "type": "bytes"
        }
      ],
      "name": "querySwapSingleTokenExactOut",
      "outputs": [
        {
          "internalType": "uint256",
          "name": "amountCalculated",
          "type": "uint256"
        }
      ],
      "stateMutability": "nonpayable",
      "type": "function"
    },
    {
      "inputs": [
        {
          "internalType": "address",
          "name": "pool",
          "type": "address"
        },
        {
          "internalType": "uint256",
          "name": "maxBptAmountIn",
          "type": "uint256"
        },
        {
          "internalType": "uint256[]",
          "name": "minAmountsOut",
          "type": "uint256[]"
        },
        {
          "internalType": "bool",
          "name": "wethIsEth",
          "type": "bool"
        },
        {
          "internalType": "bytes",
          "name": "userData",
          "type": "bytes"
        }
      ],
      "name": "removeLiquidityCustom",
      "outputs": [
        {
          "internalType": "uint256",
          "name": "bptAmountIn",
          "type": "uint256"
        },
        {
          "internalType": "uint256[]",
          "name": "amountsOut",
          "type": "uint256[]"
        },
        {
          "internalType": "bytes",
          "name": "returnData",
          "type": "bytes"
        }
      ],
      "stateMutability": "payable",
      "type": "function"
    },
    {
      "inputs": [
        {
          "components": [
            {
              "internalType": "address",
              "name": "sender",
              "type": "address"
            },
            {
              "internalType": "address",
              "name": "pool",
              "type": "address"
            },
            {
              "internalType": "uint256[]",
              "name": "minAmountsOut",
              "type": "uint256[]"
            },
            {
              "internalType": "uint256",
              "name": "maxBptAmountIn",
              "type": "uint256"
            },
            {
              "internalType": "enum RemoveLiquidityKind",
              "name": "kind",
              "type": "uint8"
            },
            {
              "internalType": "bool",
              "name": "wethIsEth",
              "type": "bool"
            },
            {
              "internalType": "bytes",
              "name": "userData",
              "type": "bytes"
            }
          ],
          "internalType": "struct IRouterCommon.RemoveLiquidityHookParams",
          "name": "params",
          "type": "tuple"
        }
      ],
      "name": "removeLiquidityHook",
      "outputs": [
        {
          "internalType": "uint256",
          "name": "bptAmountIn",
          "type": "uint256"
        },
        {
          "internalType": "uint256[]",
          "name": "amountsOut",
          "type": "uint256[]"
        },
        {
          "internalType": "bytes",
          "name": "returnData",
          "type": "bytes"
        }
      ],
      "stateMutability": "nonpayable",
      "type": "function"
    },
    {
      "inputs": [
        {
          "internalType": "address",
          "name": "pool",
          "type": "address"
        },
        {
          "internalType": "uint256",
          "name": "exactBptAmountIn",
          "type": "uint256"
        },
        {
          "internalType": "uint256[]",
          "name": "minAmountsOut",
          "type": "uint256[]"
        },
        {
          "internalType": "bool",
          "name": "wethIsEth",
          "type": "bool"
        },
        {
          "internalType": "bytes",
          "name": "userData",
          "type": "bytes"
        }
      ],
      "name": "removeLiquidityProportional",
      "outputs": [
        {
          "internalType": "uint256[]",
          "name": "amountsOut",
          "type": "uint256[]"
        }
      ],
      "stateMutability": "payable",
      "type": "function"
    },
    {
      "inputs": [
        {
          "internalType": "address",
          "name": "pool",
          "type": "address"
        },
        {
          "internalType": "uint256",
          "name": "exactBptAmountIn",
          "type": "uint256"
        },
        {
          "internalType": "uint256[]",
          "name": "minAmountsOut",
          "type": "uint256[]"
        }
      ],
      "name": "removeLiquidityRecovery",
      "outputs": [
        {
          "internalType": "uint256[]",
          "name": "amountsOut",
          "type": "uint256[]"
        }
      ],
      "stateMutability": "payable",
      "type": "function"
    },
    {
      "inputs": [
        {
          "internalType": "address",
          "name": "pool",
          "type": "address"
        },
        {
          "internalType": "address",
          "name": "sender",
          "type": "address"
        },
        {
          "internalType": "uint256",
          "name": "exactBptAmountIn",
          "type": "uint256"
        },
        {
          "internalType": "uint256[]",
          "name": "minAmountsOut",
          "type": "uint256[]"
        }
      ],
      "name": "removeLiquidityRecoveryHook",
      "outputs": [
        {
          "internalType": "uint256[]",
          "name": "amountsOut",
          "type": "uint256[]"
        }
      ],
      "stateMutability": "nonpayable",
      "type": "function"
    },
    {
      "inputs": [
        {
          "internalType": "address",
          "name": "pool",
          "type": "address"
        },
        {
          "internalType": "uint256",
          "name": "exactBptAmountIn",
          "type": "uint256"
        },
        {
          "internalType": "contract IERC20",
          "name": "tokenOut",
          "type": "address"
        },
        {
          "internalType": "uint256",
          "name": "minAmountOut",
          "type": "uint256"
        },
        {
          "internalType": "bool",
          "name": "wethIsEth",
          "type": "bool"
        },
        {
          "internalType": "bytes",
          "name": "userData",
          "type": "bytes"
        }
      ],
      "name": "removeLiquiditySingleTokenExactIn",
      "outputs": [
        {
          "internalType": "uint256",
          "name": "amountOut",
          "type": "uint256"
        }
      ],
      "stateMutability": "payable",
      "type": "function"
    },
    {
      "inputs": [
        {
          "internalType": "address",
          "name": "pool",
          "type": "address"
        },
        {
          "internalType": "uint256",
          "name": "maxBptAmountIn",
          "type": "uint256"
        },
        {
          "internalType": "contract IERC20",
          "name": "tokenOut",
          "type": "address"
        },
        {
          "internalType": "uint256",
          "name": "exactAmountOut",
          "type": "uint256"
        },
        {
          "internalType": "bool",
          "name": "wethIsEth",
          "type": "bool"
        },
        {
          "internalType": "bytes",
          "name": "userData",
          "type": "bytes"
        }
      ],
      "name": "removeLiquiditySingleTokenExactOut",
      "outputs": [
        {
          "internalType": "uint256",
          "name": "bptAmountIn",
          "type": "uint256"
        }
      ],
      "stateMutability": "payable",
      "type": "function"
    },
    {
      "inputs": [
        {
          "internalType": "address",
          "name": "pool",
          "type": "address"
        },
        {
          "internalType": "contract IERC20",
          "name": "tokenIn",
          "type": "address"
        },
        {
          "internalType": "contract IERC20",
          "name": "tokenOut",
          "type": "address"
        },
        {
          "internalType": "uint256",
          "name": "exactAmountIn",
          "type": "uint256"
        },
        {
          "internalType": "uint256",
          "name": "minAmountOut",
          "type": "uint256"
        },
        {
          "internalType": "uint256",
          "name": "deadline",
          "type": "uint256"
        },
        {
          "internalType": "bool",
          "name": "wethIsEth",
          "type": "bool"
        },
        {
          "internalType": "bytes",
          "name": "userData",
          "type": "bytes"
        }
      ],
      "name": "swapSingleTokenExactIn",
      "outputs": [
        {
          "internalType": "uint256",
          "name": "",
          "type": "uint256"
        }
      ],
      "stateMutability": "payable",
      "type": "function"
    },
    {
      "inputs": [
        {
          "internalType": "address",
          "name": "pool",
          "type": "address"
        },
        {
          "internalType": "contract IERC20",
          "name": "tokenIn",
          "type": "address"
        },
        {
          "internalType": "contract IERC20",
          "name": "tokenOut",
          "type": "address"
        },
        {
          "internalType": "uint256",
          "name": "exactAmountOut",
          "type": "uint256"
        },
        {
          "internalType": "uint256",
          "name": "maxAmountIn",
          "type": "uint256"
        },
        {
          "internalType": "uint256",
          "name": "deadline",
          "type": "uint256"
        },
        {
          "internalType": "bool",
          "name": "wethIsEth",
          "type": "bool"
        },
        {
          "internalType": "bytes",
          "name": "userData",
          "type": "bytes"
        }
      ],
      "name": "swapSingleTokenExactOut",
      "outputs": [
        {
          "internalType": "uint256",
          "name": "",
          "type": "uint256"
        }
      ],
      "stateMutability": "payable",
      "type": "function"
    },
    {
      "inputs": [
        {
          "components": [
            {
              "internalType": "address",
              "name": "sender",
              "type": "address"
            },
            {
              "internalType": "enum SwapKind",
              "name": "kind",
              "type": "uint8"
            },
            {
              "internalType": "address",
              "name": "pool",
              "type": "address"
            },
            {
              "internalType": "contract IERC20",
              "name": "tokenIn",
              "type": "address"
            },
            {
              "internalType": "contract IERC20",
              "name": "tokenOut",
              "type": "address"
            },
            {
              "internalType": "uint256",
              "name": "amountGiven",
              "type": "uint256"
            },
            {
              "internalType": "uint256",
              "name": "limit",
              "type": "uint256"
            },
            {
              "internalType": "uint256",
              "name": "deadline",
              "type": "uint256"
            },
            {
              "internalType": "bool",
              "name": "wethIsEth",
              "type": "bool"
            },
            {
              "internalType": "bytes",
              "name": "userData",
              "type": "bytes"
            }
          ],
          "internalType": "struct IRouter.SwapSingleTokenHookParams",
          "name": "params",
          "type": "tuple"
        }
      ],
      "name": "swapSingleTokenHook",
      "outputs": [
        {
          "internalType": "uint256",
          "name": "",
          "type": "uint256"
        }
      ],
      "stateMutability": "nonpayable",
      "type": "function"
    },
    {
      "inputs": [],
      "name": "version",
      "outputs": [
        {
          "internalType": "string",
          "name": "",
          "type": "string"
        }
      ],
      "stateMutability": "view",
      "type": "function"
    },
    {
      "stateMutability": "payable",
      "type": "receive"
    }
  ],
  "bytecode": "0x610100806040523461044e57614dd0803803809161001d8285610452565b833981019060608183031261044e578051906001600160a01b038216820361044e576020810151906001600160a01b038216820361044e576040810151906001600160401b03821161044e570183601f8201121561044e578051906001600160401b03821161043a576040519461009e601f8401601f191660200187610452565b8286526020838301011161044e57815f9260208093018388015e8501015260409161010b83516100ce8582610452565b600b81526a14d95b99195c91dd585c9960aa1b60208201528451906100f38683610452565b600682526539b2b73232b960d11b6020830152610475565b60805260a05282516001600160401b03811161043a575f54600181811c91168015610430575b602082101461041c57601f81116103ba575b506020601f821160011461035957819293945f9261034e575b50508160011b915f199060031b1c1916175f555b6101c8825161017f8482610452565b600c81526b2937baba32b921b7b6b6b7b760a11b60208201528351906101a58583610452565b60118252701a5cd4995d1d5c9b915d1a131bd8dad959607a1b6020830152610475565b60c05260e052516148a3908161052d823960805181818161048a0152818161089401528181610a7f01528181610ed501528181611be9015281816122ff0152818161401e01526140dc015260a0518181816102dc0152818161041f0152818161057b015281816106e60152818161082c01528181610a4001528181610bca01528181610cbf01528181610dbd01528181610ff5015281816110d5015281816112f0015281816116ef015281816117dd015281816118940152818161197601528181611b0501528181611c310152818161215f0152818161229801528181612444015281816125cc01528181612b8201528181612d5801528181614141015281816143900152818161453a015281816145e6015261462e015260c051818181613fac01526142f3015260e051818181601a0152818161147801528181611500015281816118b50152818161190001528181611a9201528181611dbe01528181611ea901528181612b1401528181612efe01528181612fe10152818161460701526146aa0152f35b015190505f8061015c565b601f198216905f8052805f20915f5b8181106103a25750958360019596971061038a575b505050811b015f55610170565b01515f1960f88460031b161c191690555f808061037d565b9192602060018192868b015181550194019201610368565b5f80527f290decd9548b62a8d60345a988386fc84ba6bc95484008f6362f93160ef3e563601f830160051c81019160208410610412575b601f0160051c01905b8181106104075750610143565b5f81556001016103fa565b90915081906103f1565b634e487b7160e01b5f52602260045260245ffd5b90607f1690610131565b634e487b7160e01b5f52604160045260245ffd5b5f80fd5b601f909101601f19168101906001600160401b0382119082101761043a57604052565b906104e56001602092603960405194859281808501987f62616c616e6365722d6c6162732e76332e73746f726167652e000000000000008a528051918291018587015e840190601760f91b84830152805192839101603a83015e01015f838201520301601f198101835282610452565b5190205f1981019081116105185760405190602082019081526020825261050d604083610452565b9051902060ff191690565b634e487b7160e01b5f52601160045260245ffdfe60806040526004361015610059575b3615610018575f80fd5b7f00000000000000000000000000000000000000000000000000000000000000006001600160a01b0316330361004a57005b6302a06efb60e11b5f5260045ffd5b5f3560e01c8063026b3d9514613094578063086fad6614612d3857806308c0479314612cd85780630ca078ec14612c605780630f71088814612b43578063107c279f14612aff578063175d440814612a6457806319c6989f146127035780631bbf2e23146126e95780631d56798d1461258357806323b39241146123c85780633ebc54e514612324578063452db952146121ca57806351682750146120e457806353d0bb981461205857806354fd4d5014611f535780635b34379114611c115780635e01eb5a14611bcc5780635f9815ff14611aba57806368a24fe01461182c578063724dba331461176157806372657d171461162a578063750283bc146115ae5780637b03c7ba146112d057806382bf2b241461125957806382cd54fb1461106f57806394e86ef814610f525780639de9051814610d80578063ac9650d814610d3d578063b037ed3614610c40578063b24bd57114610afd578063be5ae84114610abb578063bf6ee3fd1461094b578063c08bc851146108d3578063c330c7be1461075e578063da001f7d146105f2578063e7326def146104d1578063ecb2182c146103655763efd85f140361000e5734610361576102183661345e565b61022061413f565b61022c602082016139af565b610235826139af565b9061024360408401846139c3565b926080850135936005851015610361576102b15f9560608861029c6102b89761027260c06102d79d01846139f8565b9790986040519b6102828d613324565b6001600160a01b039081168d521660208c01523691613379565b60408901520135606087015260808601613b64565b369161340d565b60a0820152604051809381926312bca7b160e21b835260048301613ea6565b0381837f00000000000000000000000000000000000000000000000000000000000000006001600160a01b03165af18015610356575f905f925f9161032c575b506103289060405193849384613556565b0390f35b9050610328925061034f91503d805f833e610347818361333f565b810190613c13565b9092610317565b6040513d5f823e3d90fd5b5f80fd5b61041a6103f86103925f6103ea61037b366138cd565b9298949397909161038b336140d7565b998561435c565b9790604051946103a1866132ed565b33865260018060a01b031660208601526040850152606084015260016080840152151560a083015260c0820152604051928391633d81e3dd60e11b602084015260248301613d32565b03601f19810183528261333f565b604051809581926348c8949160e01b8352602060048401526024830190613532565b0381837f00000000000000000000000000000000000000000000000000000000000000006001600160a01b03165af190811561035657610470610478926020955f916104af575b50858082518301019101613d95565b509050613e92565b5190610487575b604051908152f35b5f7f00000000000000000000000000000000000000000000000000000000000000005d61047f565b6104cb91503d805f833e6104c3818361333f565b81019061397b565b86610461565b6105766104fd5f6103ea6105546104e7366138cd565b93916104f699919399336140d7565b998661435c565b506040519461050b866132ed565b33865260018060a01b031660208601526040850152606084015260026080840152151560a083015260c0820152604051928391633d81e3dd60e11b602084015260248301613d32565b604051809481926348c8949160e01b8352602060048401526024830190613532565b0381837f00000000000000000000000000000000000000000000000000000000000000006001600160a01b03165af1918215610356576020926105c9915f916105d8575b50838082518301019101613d95565b50509061048757604051908152f35b6105ec91503d805f833e6104c3818361333f565b846105ba565b346103615760803660031901126103615761060b613281565b6024356001600160401b0381116103615761062a9036906004016133c5565b6106326132c3565b60643592906001600160401b038411610361576106bf5f926103ea926106686106626106e1983690600401613443565b916140d7565b9560405192610676846132ed565b30845260018060a01b031660208401526040830152846060830152600160808301528460a083015260c0820152604051928391633bf617c560e21b602084015260248301613b91565b60405180948192631dbf46ad60e31b8352602060048401526024830190613532565b0381837f00000000000000000000000000000000000000000000000000000000000000006001600160a01b03165af191821561035657602092610734915f91610744575b50838082518301019101613c13565b5091905061048757604051908152f35b61075891503d805f833e6104c3818361333f565b84610725565b346103615760a036600319011261036157610777613281565b6044356001600160401b038111610361576107969036906004016133c5565b61079e613297565b60843592906001600160401b038411610361576106bf5f926103ea926107ce610662610827983690600401613443565b95604051926107dc846132ed565b30845260018060a01b0316602084015260408301526024356060830152600360808301528460a083015260c082015260405192839163b24bd57160e01b602084015260248301613d32565b0381837f00000000000000000000000000000000000000000000000000000000000000006001600160a01b03165af1918215610356576103289261087c915f916108b9575b5060208082518301019101613d95565b90939192610891575b604051938493846138a2565b5f7f00000000000000000000000000000000000000000000000000000000000000005d610885565b6108cd91503d805f833e6104c3818361333f565b8461086c565b6106e16105545f6103ea6108e6366134c4565b916108f497949397336140d7565b9760405194610902866132ed565b33865260018060a01b031660208601526040850152606084015260016080840152151560a083015260c0820152604051928391635b34379160e01b602084015260248301613b91565b60803660031901126103615761095f613281565b6024356001600160401b0381116103615761097e9036906004016133c5565b906044359081151580920361036157606435916001600160401b03831161036157610a195f926103ea926109b9610a3b963690600401613443565b906109c3336140d7565b97604051936109d1856132ed565b33855260018060a01b0316602085015260408401528560608401526003608084015260a083015260c0820152604051928391635b34379160e01b602084015260248301613b91565b604051809381926348c8949160e01b8352602060048401526024830190613532565b0381837f00000000000000000000000000000000000000000000000000000000000000006001600160a01b03165af1801561035657610aa1575b50610a7c57005b5f7f00000000000000000000000000000000000000000000000000000000000000005d005b610ab4903d805f833e6104c3818361333f565b5081610a75565b34610361576020610ae3610ace366137e9565b610ad6614119565b610ade61413f565b614415565b50505f5f8051602061484e8339815191525d604051908152f35b3461036157610b0b3661345e565b610b1361413f565b610b1f602082016139af565b90610b29816139af565b91610b3760408301836139c3565b90936080840135936004851015610361576102b15f95610b98610bc598610ba6966060610b6760c08801886139f8565b9790986040519b610b778d613324565b6001600160a01b039081168d521660208c0152013560408a01523691613379565b606087015260808601613d19565b60a082015260405180938192632145789760e01b835260048301613f1b565b0381837f00000000000000000000000000000000000000000000000000000000000000006001600160a01b03165af18015610356575f905f925f91610c16575b5061032890604051938493846138a2565b90506103289250610c3991503d805f833e610c31818361333f565b810190613d95565b9092610c05565b3461036157604036600319011261036157610cba5f610c5d613281565b60405190635f9815ff60e01b602083015260018060a01b03166024820152306044820152602435606482015260648152610c9860848261333f565b60405180938192631dbf46ad60e31b8352602060048401526024830190613532565b0381837f00000000000000000000000000000000000000000000000000000000000000006001600160a01b03165af19081156103565761032891610d0f915f91610d23575b5060208082518301019101613b3f565b604051918291602083526020830190613491565b610d3791503d805f833e6104c3818361333f565b83610cff565b6020366003190112610361576004356001600160401b03811161036157610d74610d6e610328923690600401613655565b90613f9e565b604051918291826136b2565b3461036157610d99610d913661357f565b9293906140d7565b60405163ca4f280360e01b81526001600160a01b03948516600482018190529491937f000000000000000000000000000000000000000000000000000000000000000090921692905f81602481875afa908115610356575f91610f30575b5051610e0281613ce7565b905f5b818110610f14575f8781610e8d896103ea610e698e8c8c8c60405193610e2a856132ed565b3085526020850152604084015260608301528660808301528660a083015260c0820152604051928391633bf617c560e21b602084015260248301613b91565b604051958680948193631dbf46ad60e31b8352602060048401526024830190613532565b03925af19182156103565761032892610eb7915f91610efa575b5060208082518301019101613c13565b505090610ed257604051918291602083526020830190613491565b5f7f00000000000000000000000000000000000000000000000000000000000000005d610d0f565b610f0e91503d805f833e6104c3818361333f565b84610ea7565b6001906001600160801b03610f298286613e92565b5201610e05565b610f4c91503d805f833e610f44818361333f565b810190613c5d565b86610df7565b610ff0610fce5f6103ea610554610f683661381d565b949095610f7a9c979c949294336140d7565b9c60405199610f888b613308565b338b52600160208c01526001600160a01b0390811660408c015290811660608b015216608089015260a088015260c087015260e08601521515610100850152369161340d565b610120820152604051630345127f60e51b602082015292839160248301613df1565b0381837f00000000000000000000000000000000000000000000000000000000000000006001600160a01b03165af1918215610356575f92611053575b506020825192818082019485920101031261036157602091519061048757604051908152f35b6110689192503d805f833e6104c3818361333f565b908261102d565b3461036157608036600319011261036157611088613281565b6110906132ad565b90606435906001600160401b038211610361576110b46111139236906004016133c5565b906110bd614119565b6110c561413f565b604051630281f58160e61b8152927f00000000000000000000000000000000000000000000000000000000000000006001600160a01b0316925f918591829190604435898760048601613ab1565b038183865af1928315610356575f93611235575b5060405163ca4f280360e01b81526001600160a01b0390911660048201525f81602481855afa908115610356575f9161121b575b505f5b81518110156111ea576111718185613e92565b519081611183575b600191500161115e565b6001600160a01b036111958285613e92565b5116843b1561036157865f916111bf604051958693849363ae63932960e01b855260048501613f7c565b038183885af1918215610356576001926111da575b50611179565b5f6111e49161333f565b866111d4565b610328846111f7876142ea565b5f5f8051602061484e8339815191525d604051918291602083526020830190613491565b61122f91503d805f833e610f44818361333f565b8461115b565b6112529193503d805f833e61124a818361333f565b810190613b3f565b9184611127565b6108276105545f6103ea61126c3661377b565b91969392611279336140d7565b9760405194611287866132ed565b33865260018060a01b031660208601526040850152606084015260036080840152151560a083015260c0820152604051928391633d81e3dd60e11b602084015260248301613d32565b34610361576112de3661345e565b6112e6614119565b6112ee61413f565b7f00000000000000000000000000000000000000000000000000000000000000006001600160a01b03811691602081019190611329836139af565b93611333826139af565b61134060408401846139c3565b9690916080850135906004821015610361576113c2986102b16113a393610b985f9761136f60c08c018c6139f8565b9590966040519961137f8b613324565b6001600160a01b039081168b521660208a015260608c013560408a01523691613379565b60a082015260405180978192632145789760e01b835260048301613f1b565b038183855af18015610356575f945f965f92611586575b506113e3906139af565b60405163ca4f280360e01b81526001600160a01b039091166004820152955f87602481865afa968715610356575f9761156a575b50909460a0840191905f5b8851811015611538576114358184613e92565b5190811561152f576001600160a01b0361144f828c613e92565b511661145a86613a4e565b806114fd575b156114a2575061149c600192611475896139af565b8a7f00000000000000000000000000000000000000000000000000000000000000006146d8565b01611422565b6114ab886139af565b873b15610361575f916114d2604051958693849363ae63932960e01b855260048501613f7c565b0381838a5af1918215610356576001926114ed575b5061149c565b5f6114f79161333f565b8a6114e7565b507f00000000000000000000000000000000000000000000000000000000000000006001600160a01b03168114611460565b6001915061149c565b506103288761154e611549886139af565b6142ea565b5f5f8051602061484e8339815191525d604051938493846138a2565b61157f9197503d805f833e610f44818361333f565b9587611417565b9096506113e395506115a291503d805f833e610c31818361333f565b969195909691906113d9565b610ff0610fce5f6103ea6105546115c43661381d565b9490956115d69c979c949294336140d7565b9c604051996115e48b613308565b338b5260208b018e90526001600160a01b0390811660408c015290811660608b015216608089015260a088015260c087015260e08601521515610100850152369161340d565b60c03660031901126103615761163e613281565b6116466132ad565b61164e6133e3565b60a4356001600160401b038111610361576103ea6103f86116ea956116785f943690600401613443565b61168f611684336140d7565b97604435908461435c565b96906040519361169e856132ed565b33855260018060a01b031660208501526040840152606435606084015260026080840152151560a083015260c0820152604051928391635b34379160e01b602084015260248301613b91565b0381837f00000000000000000000000000000000000000000000000000000000000000006001600160a01b03165af190811561035657611740610478926020955f91611747575b50858082518301019101613c13565b5050613e92565b61175b91503d805f833e6104c3818361333f565b86611731565b6117d86105545f6103ea611774366134c4565b9161178297949397336140d7565b9760405194611790866132ed565b33865260018060a01b0316602086015260408501526060840152856080840152151560a083015260c0820152604051928391635b34379160e01b602084015260248301613b91565b0381837f00000000000000000000000000000000000000000000000000000000000000006001600160a01b03165af19182156103565761032892610eb7915f91610efa575060208082518301019101613c13565b346103615761183a366137e9565b611842614119565b61184a61413f565b61185381614415565b6118616060859395016139af565b9061186b836139af565b9461010084019561187b87613a4e565b80611a84575b1561195d5750946118fe916118d96020977f00000000000000000000000000000000000000000000000000000000000000007f00000000000000000000000000000000000000000000000000000000000000006141b5565b6118e2856139af565b916118f86118f2608088016139af565b91613a4e565b926145cd565b7f00000000000000000000000000000000000000000000000000000000000000006001600160a01b0390811691161461194b575b505f5f8051602061484e8339815191525d604051908152f35b611549611957916139af565b82611932565b81611971575b50506020946118fe916118d9565b9095907f00000000000000000000000000000000000000000000000000000000000000006001600160a01b03166020816119aa8a614184565b936119c960405195869384936323b872dd60e01b855260048501613a73565b03815f6001600160a01b038a165af1908115610356575f98602093611a0b93611a59575b50604051998a809481936315afd40960e01b83528a60048401613a96565b03925af1918215610356576020966118fe93611a2c575b5091819650611963565b611a4b90883d8a11611a52575b611a43818361333f565b8101906139a0565b5087611a22565b503d611a39565b611a7890853d8711611a7d575b611a70818361333f565b810190613a5b565b6119ed565b503d611a66565b506001600160a01b038481167f000000000000000000000000000000000000000000000000000000000000000090911614611881565b3461036157606036600319011261036157611ad3613281565b611adb6132ad565b611ae361413f565b60405163ca4f280360e01b81526001600160a01b0383811660048301529091907f0000000000000000000000000000000000000000000000000000000000000000165f83602481845afa938415610356575f611b4c611b6e9682968391611bb2575b5051613ce7565b604051630281f58160e61b815296879586948593916044359160048601613ab1565b03925af1801561035657610328915f91611b98575b50604051918291602083526020830190613491565b611bac91503d805f833e61124a818361333f565b82611b83565b611bc691503d8085833e610f44818361333f565b88611b45565b34610361575f366003190112610361576040516001600160a01b037f00000000000000000000000000000000000000000000000000000000000000005c168152602090f35b3461036157611c1f3661345e565b611c27614119565b611c2f61413f565b7f00000000000000000000000000000000000000000000000000000000000000009060208101906001600160a01b038316611c69836139af565b92611c73836139af565b611c8060408501856139c3565b959091608086013590600582101561036157611d10976102b1611cf193611cd95f97611caf60c08d018d6139f8565b95909660405199611cbf8b613324565b6001600160a01b039081168b521660208a01523691613379565b604087015260608a0135606087015260808601613b64565b60a0820152604051809681926312bca7b160e21b835260048301613ea6565b038183865af1928315610356575f915f955f95611f2a575b50611d32906139af565b60405163ca4f280360e01b81526001600160a01b0390911660048201525f81602481875afa908115610356575f91611f10575b50939460a0820194905f5b8251811015611ee2576001600160a01b03611d8b8285613e92565b511690611d988187613e92565b51918215611ed857611da989613a4e565b80611ea6575b15611de85750611de26001928b7f00000000000000000000000000000000000000000000000000000000000000006141b5565b01611d70565b611df1866139af565b92602089611dfe83614184565b95611e1d60405197889384936323b872dd60e01b855260048501613a73565b03815f865af191821561035657611e5294602093611e8b575b506040516315afd40960e01b8152948592839260048401613a96565b03815f8b5af191821561035657600192611e6d575b50611de2565b611e849060203d8111611a5257611a43818361333f565b508a611e67565b611ea190843d8111611a7d57611a70818361333f565b611e36565b507f00000000000000000000000000000000000000000000000000000000000000006001600160a01b03168114611daf565b5060019150611de2565b508361032888611ef4611549876139af565b5f5f8051602061484e8339815191525d60405193849384613556565b611f2491503d805f833e610f44818361333f565b87611d65565b909450611f47919550611d3292503d805f833e610347818361333f565b95919290959490611d28565b34610361575f366003190112610361576040515f80548060011c9060018116801561204e575b60208310811461203a578285529081156120165750600114611fba575b61032883611fa68185038261333f565b604051918291602083526020830190613532565b5f8080527f290decd9548b62a8d60345a988386fc84ba6bc95484008f6362f93160ef3e563939250905b808210611ffc57509091508101602001611fa6611f96565b919260018160209254838588010152019101909291611fe4565b60ff191660208086019190915291151560051b84019091019150611fa69050611f96565b634e487b7160e01b5f52602260045260245ffd5b91607f1691611f79565b34610361576105766120805f6103ea6106bf61208761207636613711565b93949298906140d7565b978461435c565b5060405192612095846132ed565b30845260018060a01b03166020840152604083015260018060801b036060830152600260808301528460a083015260c082015260405192839163b24bd57160e01b602084015260248301613d32565b61215a6105545f6103ea6120f73661377b565b91969392612104336140d7565b9760405194612112866132ed565b33865260018060a01b0316602086015260408501526060840152856080840152151560a083015260c0820152604051928391633d81e3dd60e11b602084015260248301613d32565b0381837f00000000000000000000000000000000000000000000000000000000000000006001600160a01b03165af191821561035657610328926121ae915f916108b9575060208082518301019101613d95565b50919050610ed257604051918291602083526020830190613491565b346103615760a0366003190112610361576121e3613281565b6024356001600160401b038111610361576122029036906004016133c5565b61220a613297565b60843592906001600160401b038411610361576106bf5f926103ea9261223a610662612293983690600401613443565b9560405192612248846132ed565b30845260018060a01b0316602084015260408301526044356060830152600460808301528460a083015260c0820152604051928391633bf617c560e21b602084015260248301613b91565b0381837f00000000000000000000000000000000000000000000000000000000000000006001600160a01b03165af191821561035657610328926122e7915f91610efa575060208082518301019101613c13565b909391926122fc575b60405193849384613556565b5f7f00000000000000000000000000000000000000000000000000000000000000005d6122f0565b3461036157610ff061234a5f6103ea6106bf61233f366135d6565b9398909291926140d7565b976040519461235886613308565b33865288602087015260018060a01b0316604086015260018060a01b0316606085015260018060a01b0316608084015260a08301528460c083015260018060801b0360e08301528461010083015261012082015260405192839163be5ae84160e01b602084015260248301613df1565b346103615760a0366003190112610361576123e1613281565b6123e96132c3565b6123f1613297565b916084356001600160401b0381116103615761241461241a913690600401613443565b936140d7565b6040805163c9c1661b60e01b81526001600160a01b039384166004820181905294841660248201527f0000000000000000000000000000000000000000000000000000000000000000909316949193919083604481885afa928315610356575f905f94612546575b50946103ea6124f85f979461251c9461249b8a97613ce7565b60016124a78a83613e92565b52604051926124b5846132ed565b308452602084015260408301526024356060830152600160808301528660a083015260c082015260405192839163b24bd57160e01b602084015260248301613d32565b604051968780948193631dbf46ad60e31b8352602060048401526024830190613532565b03925af190811561035657610470610478926020955f916104af5750858082518301019101613d95565b9350506040833d60401161257b575b816125626040938361333f565b81010312610361578251602090930151926103ea612482565b3d9150612555565b346103615761259e61259436613711565b94909392936140d7565b6040805163c9c1661b60e01b81526001600160a01b03948516600482018190529585166024820152919491937f000000000000000000000000000000000000000000000000000000000000000016929084604481865afa938415610356575f905f956126a8575b506124f861267e935f9889969461261e6103ea95613ce7565b6001600160801b036126308b83613e92565b526040519361263e856132ed565b308552602085015260408401526060830152600260808301528660a083015260c0820152604051928391633bf617c560e21b602084015260248301613b91565b03925af190811561035657611740610478926020955f916117475750858082518301019101613c13565b945050916040843d6040116126e1575b816126c56040938361333f565b81010312610361578351602090940151939092906124f8612605565b3d91506126b8565b34610361575f3660031901126103615760206040515f8152f35b60a0366003190112610361576004356001600160401b03811161036157366023820112156103615760048101356001600160401b0381116103615736602460c0830284010111610361576024356001600160401b0381116103615761276c903690600401613655565b906044356001600160401b03811161036157803603906060600319830112610361576064356001600160401b038111610361576127ad903690600401613685565b50506084356001600160401b038111610361576127ce903690600401613655565b9290916127d9614119565b858703612a55575f5b87811015612a03576127f86102b18289896140c0565b604051606081016001600160401b038111828210176129ef576040525f815260208101905f825260408101925f8452602081015190606060408201519101515f1a9183528352835260c084028c019060c06023198336030112610361576040519361286285613324565b61286e602484016132d9565b9182865261287e604485016132d9565b946020870195808752612893606487016132d9565b604089015260848601359260ff60c460608b0198868a5260a481013560808d01520135968760a08c015260018060a01b03169551169051925194803b15610361575f9560e4948793604051998a98899763d505accf60e01b895260018060a01b0316600489015230602489015260448801526064870152608486015260a485015260c48401525af190816129df575b506129d457602061293161432d565b93519251604051636eb1769f60e11b81526001600160a01b0391821660048201523060248201529384916044918391165afa918215610356575f926129a1575b50510361298357506001905b016127e2565b80511561299257805190602001fd5b63a728568960e01b5f5260045ffd5b9091506020813d82116129cc575b816129bc6020938361333f565b810103126103615751908c612971565b3d91506129af565b50505060019061297d565b5f6129e99161333f565b8d612922565b634e487b7160e01b5f52604160045260245ffd5b5060048101359160221901821215610361570160048101356001600160401b0381116103615760249060071b36039101136103615761032891610d74915f5f8051602061484e8339815191525d613f9e565b63aaad13f760e01b5f5260045ffd5b3461036157610ff0612a7f5f6103ea6106bf61233f366135d6565b9760405194612a8d86613308565b3386526001602087015260018060a01b0316604086015260018060a01b0316606085015260018060a01b0316608084015260a083015260018060801b0360c0830152841960e08301528461010083015261012082015260405192839163be5ae84160e01b602084015260248301613df1565b34610361575f366003190112610361576040517f00000000000000000000000000000000000000000000000000000000000000006001600160a01b03168152602090f35b3461036157612b5d612b543661357f565b919293906140d7565b60405163ca4f280360e01b81526001600160a01b0394851660048201819052949193917f000000000000000000000000000000000000000000000000000000000000000016905f81602481855afa8015610356575f968795612c1d95612bd1610e69946103ea968a91612c46575051613ce7565b60405193612bde856132ed565b3085526020850152604084015260608301528660808301528660a083015260c082015260405192839163b24bd57160e01b602084015260248301613d32565b03925af191821561035657610328926121ae915f916108b9575060208082518301019101613d95565b612c5a91503d808c833e610f44818361333f565b8c611b45565b6122936105545f6103ea612c73366134c4565b91612c8197949397336140d7565b9760405194612c8f866132ed565b33865260018060a01b031660208601526040850152606084015260046080840152151560a083015260c0820152604051928391635b34379160e01b602084015260248301613b91565b606036600319011261036157612cec613281565b6044356001600160401b03811161036157610cba91610a19612d135f9336906004016133c5565b6040516382cd54fb60e01b60208201529283916103ea91602480359133918601613ab1565b3461036157612d463661345e565b612d4e614119565b612d5661413f565b7f0000000000000000000000000000000000000000000000000000000000000000906001600160a01b038216612d8e602083016139af565b90612d98836139af565b916040840193612da885826139c3565b606083019391612db885856139c3565b9183612dc760c08801886139f8565b6040516305d4515f60e51b81526001600160a01b0398891660048201529b90971660248c015260c060448c015260c48b019590955293949360e48a0191905f5b81811061306e575050508881036003190160648a01528281526001600160fb1b03831161036157602094848a958694889694879560051b809287830137019260808a0135608487015260031985878603010160a4870152818585015260408401375f8380838501010152601f801991011601010301815f875af1938415610356575f9461303a575b50929360a0840193905f5b612ea482846139c3565b905081101561301357612ec9612ec482612ebe85876139c3565b90613a2a565b6139af565b90612ed881612ebe87876139c3565b3591821561300957612ee988613a4e565b80612fd3575b15612f285750612f226001928a7f00000000000000000000000000000000000000000000000000000000000000006141b5565b01612e9a565b612f31856139af565b92602088612f3e83614184565b95612f5d60405197889384936323b872dd60e01b855260048501613a73565b03815f6001600160a01b0387165af191821561035657612f9a94602093611e8b57506040516315afd40960e01b8152948592839260048401613a96565b03815f8a5af191821561035657600192612fb5575b50612f22565b612fcc9060203d8111611a5257611a43818361333f565b5089612faf565b506001600160a01b038181167f000000000000000000000000000000000000000000000000000000000000000090911614612eef565b5060019150612f22565b602087613022611549866139af565b5f5f8051602061484e8339815191525d604051908152f35b9093506020813d602011613066575b816130566020938361333f565b8101031261036157519286612e8f565b3d9150613049565b909192602080600192838060a01b03613086886132d9565b168152019401929101612e07565b60c0366003190112610361576130a8613281565b6024356001600160401b0381116103615736602382011215610361578060040135906130d382613362565b916130e1604051938461333f565b8083526024602084019160051b8301019136831161036157602401905b82821061326957505060443590506001600160401b038111610361576131289036906004016133c5565b916131316133e3565b9160a4356001600160401b03811161036157613151903690600401613443565b61315a336140d7565b9360405195613168876132ed565b338752602087019460018060a01b0316855260408701938452606087019081526080870193606435855260a08801921515835260c0880193845260405195630437d6b360e11b60208801526020602488015261012487019860018060a01b03905116604488015260018060a01b039051166064870152519660e060848701528751809152602061014487019801905f5b81811061324a575050508493610554935f9693613228610ff09a6103ea95516043198883030160a4890152613491565b925160c486015251151560e48501525183820360431901610104850152613532565b82516001600160a01b03168a526020998a0199909201916001016131f8565b60208091613276846132d9565b8152019101906130fe565b600435906001600160a01b038216820361036157565b606435906001600160a01b038216820361036157565b602435906001600160a01b038216820361036157565b604435906001600160a01b038216820361036157565b35906001600160a01b038216820361036157565b60e081019081106001600160401b038211176129ef57604052565b61014081019081106001600160401b038211176129ef57604052565b60c081019081106001600160401b038211176129ef57604052565b601f909101601f19168101906001600160401b038211908210176129ef57604052565b6001600160401b0381116129ef5760051b60200190565b92919061338581613362565b93613393604051958661333f565b602085838152019160051b810192831161036157905b8282106133b557505050565b81358152602091820191016133a9565b9080601f83011215610361578160206133e093359101613379565b90565b60843590811515820361036157565b6001600160401b0381116129ef57601f01601f191660200190565b929192613419826133f2565b91613427604051938461333f565b829481845281830111610361578281602093845f960137010152565b9080601f83011215610361578160206133e09335910161340d565b602060031982011261036157600435906001600160401b0382116103615760e09082900360031901126103615760040190565b90602080835192838152019201905f5b8181106134ae5750505090565b82518452602093840193909201916001016134a1565b60a0600319820112610361576004356001600160a01b038116810361036157916024356001600160401b0381116103615782613502916004016133c5565b916044359160643580151581036103615791608435906001600160401b038211610361576133e091600401613443565b805180835260209291819084018484015e5f828201840152601f01601f1916010190565b61356c6133e09492606083526060830190613491565b9260208201526040818403910152613532565b906080600319830112610361576004356001600160a01b03811681036103615791602435916044356001600160a01b03811681036103615791606435906001600160401b038211610361576133e091600401613443565b9060c0600319830112610361576004356001600160a01b038116810361036157916024356001600160a01b038116810361036157916044356001600160a01b03811681036103615791606435916084356001600160a01b0381168103610361579160a435906001600160401b038211610361576133e091600401613443565b9181601f84011215610361578235916001600160401b038311610361576020808501948460051b01011161036157565b9181601f84011215610361578235916001600160401b038311610361576020838186019501011161036157565b602081016020825282518091526040820191602060408360051b8301019401925f915b8383106136e457505050505090565b9091929394602080613702600193603f198682030187528951613532565b970193019301919392906136d5565b60a0600319820112610361576004356001600160a01b038116810361036157916024356001600160a01b03811681036103615791604435916064356001600160a01b03811681036103615791608435906001600160401b038211610361576133e091600401613443565b60a0600319820112610361576004356001600160a01b03811681036103615791602435916044356001600160401b03811161036157816137bd916004016133c5565b9160643580151581036103615791608435906001600160401b038211610361576133e091600401613443565b602060031982011261036157600435906001600160401b038211610361576101409082900360031901126103615760040190565b90610100600319830112610361576004356001600160a01b038116810361036157916024356001600160a01b038116810361036157916044356001600160a01b03811681036103615791606435916084359160a4359160c4358015158103610361579160e435906001600160401b0382116103615761389e91600401613685565b9091565b916138bf906133e094928452606060208501526060840190613491565b916040818403910152613532565b9060c0600319830112610361576004356001600160a01b03811681036103615791602435916044356001600160a01b03811681036103615791606435916084358015158103610361579160a435906001600160401b038211610361576133e091600401613443565b81601f820112156103615780519061394c826133f2565b9261395a604051948561333f565b8284526020838301011161036157815f9260208093018386015e8301015290565b906020828203126103615781516001600160401b038111610361576133e09201613935565b90816020910312610361575190565b356001600160a01b03811681036103615790565b903590601e198136030182121561036157018035906001600160401b03821161036157602001918160051b3603831361036157565b903590601e198136030182121561036157018035906001600160401b0382116103615760200191813603831361036157565b9190811015613a3a5760051b0190565b634e487b7160e01b5f52603260045260245ffd5b3580151581036103615790565b90816020910312610361575180151581036103615790565b6001600160a01b0391821681529181166020830152909116604082015260600190565b6001600160a01b039091168152602081019190915260400190565b6001600160a01b0391821681529116602082015260408101919091526080606082018190526133e092910190613491565b9080601f83011215610361578151613af981613362565b92613b07604051948561333f565b81845260208085019260051b82010192831161036157602001905b828210613b2f5750505090565b8151815260209182019101613b22565b906020828203126103615781516001600160401b038111610361576133e09201613ae2565b6005821015613b705752565b634e487b7160e01b5f52602160045260245ffd5b906005821015613b705752565b906133e0916020815260018060a01b03825116602082015260018060a01b03602083015116604082015260c0613bd7604084015160e06060850152610100840190613491565b9260608101516080840152613bf4608082015160a0850190613b84565b60a081015115158284015201519060e0601f1982850301910152613532565b916060838303126103615782516001600160401b0381116103615782613c3a918501613ae2565b92602081015192604082015160018060401b038111610361576133e09201613935565b602081830312610361578051906001600160401b03821161036157019080601f8301121561036157815190613c9182613362565b92613c9f604051948561333f565b82845260208085019360051b82010191821161036157602001915b818310613cc75750505090565b82516001600160a01b038116810361036157815260209283019201613cba565b90613cf182613362565b613cfe604051918261333f565b8281528092613d0f601f1991613362565b0190602036910137565b6004821015613b705752565b906004821015613b705752565b906133e0916020815260018060a01b03825116602082015260018060a01b03602083015116604082015260c0613d78604084015160e06060850152610100840190613491565b9260608101516080840152613bf4608082015160a0850190613d25565b9160608383031261036157825160208401519093906001600160401b0381116103615783613dc4918301613ae2565b60408201519093906001600160401b038111610361576133e09201613935565b906002821015613b705752565b6101606101206133e0936020845260018060a01b038151166020850152613e2060208201516040860190613de4565b60018060a01b03604082015116606085015260018060a01b03606082015116608085015260018060a01b0360808201511660a085015260a081015160c085015260c081015160e085015260e0810151610100850152610100810151151582850152015191610140808201520190613532565b8051821015613a3a5760209160051b010190565b906133e0916020815260018060a01b03825116602082015260018060a01b03602083015116604082015260a0613eeb604084015160c0606085015260e0840190613491565b9260608101516080840152613f07608082015183850190613b84565b01519060c0601f1982850301910152613532565b906133e0916020815260018060a01b03825116602082015260018060a01b0360208301511660408201526040820151606082015260a0613f6a606084015160c0608085015260e0840190613491565b92613f07608082015183850190613d25565b6001600160a01b03918216815291166020820152604081019190915260600190565b9190613fa9336140d7565b907f000000000000000000000000000000000000000000000000000000000000000093845c6140b1576001855d613fdf82613362565b91613fed604051938461333f565b808352601f19613ffc82613362565b015f5b8181106140a05750505f5b81811061405657505050905f61404b92945d7f0000000000000000000000000000000000000000000000000000000000000000805c9161404d575b506142ea565b565b5f905d5f614045565b806140845f8061406c6102b1600196888a6140c0565b602081519101305af461407d61432d565b90306147fe565b61408e8287613e92565b526140998186613e92565b500161400a565b806060602080938801015201613fff565b633ee5aeb560e01b5f5260045ffd5b90821015613a3a5761389e9160051b8101906139f8565b5f91907f0000000000000000000000000000000000000000000000000000000000000000805c6001600160a01b03161561410f575050565b909192505d600190565b5f8051602061484e8339815191525c6140b15760015f8051602061484e8339815191525d565b7f00000000000000000000000000000000000000000000000000000000000000006001600160a01b0316330361417157565b63089676d560e01b5f523360045260245ffd5b6001600160a01b03811161419e576001600160a01b031690565b6306dfcc6560e41b5f5260a060045260245260445ffd5b8247106142db576001600160a01b031691823b1561036157604051630d0e30db60e41b81525f9290838160048186895af18015610356576142c6575b5060018060a01b0316926020836040518281019063a9059cbb60e01b82528760248201528560448201526044815261422a60648261333f565b519082855af1156142bb5782513d6142b25750803b155b6142a0579060446020928460405196879485936315afd40960e01b8552600485015260248401525af190811561429457506142795750565b6142919060203d602011611a5257611a43818361333f565b50565b604051903d90823e3d90fd5b635274afe760e01b8352600452602482fd5b60011415614241565b6040513d84823e3d90fd5b6142d39193505f9061333f565b5f915f6141f1565b63500d4efb60e11b5f5260045ffd5b478015614329577f00000000000000000000000000000000000000000000000000000000000000005c6143295761404b916001600160a01b03166147ae565b5050565b3d15614357573d9061433e826133f2565b9161434c604051938461333f565b82523d5f602084013e565b606090565b6040805163c9c1661b60e01b81526001600160a01b03928316600482015292821660248401529293919290839060449082907f0000000000000000000000000000000000000000000000000000000000000000165afa928315610356575f925f946143da575b506143d76143d08594613ce7565b9485613e92565b52565b925092506040823d60401161440d575b816143f76040938361333f565b810103126103615760208251920151925f6143c2565b3d91506143ea565b60e081013542116145be5760208101356002811015610361576144f4606091614535614443604086016139af565b9461444f8582016139af565b906144c861445f608083016139af565b61446d6101208401846139f8565b92906040519761447c896132ed565b8852602088019a60018060a01b03168b52604088019560018060a01b031686528988019260018060a01b03168352608088019360a0860135855260c060a08a019601358652369161340d565b9360c08701948552604051998a988998630afede0360e21b8a52602060048b015260248a019051613de4565b516001600160a01b03908116604489015290518116606488015290511660848601525160a48501525160c48401525160e060e4840152610104830190613532565b03815f7f00000000000000000000000000000000000000000000000000000000000000006001600160a01b03165af1908115610356575f915f915f9161457c575b50909192565b925050506060813d6060116145b6575b816145996060938361333f565b81010312610361578051604060208301519201519091905f614576565b3d915061458c565b630e08b8af60e41b5f5260045ffd5b9282156146d2578061469c575b1561462b575061404b917f00000000000000000000000000000000000000000000000000000000000000007f00000000000000000000000000000000000000000000000000000000000000006146d8565b907f00000000000000000000000000000000000000000000000000000000000000006001600160a01b0316803b1561036157614681935f80946040519687958694859363ae63932960e01b855260048501613f7c565b03925af18015610356576146925750565b5f61404b9161333f565b506001600160a01b038181167f0000000000000000000000000000000000000000000000000000000000000000909116146145da565b50505050565b939291906001600160a01b0316803b156103615760405163ae63932960e01b81525f8160648183809a60018060a01b0316968760048401523060248401528960448401525af1801561035657614799575b508085913b15614795578190602460405180948193632e1a7d4d60e01b83528860048401525af1801561478a57614771575b5091925061404b916001600160a01b03166147ae565b61477c85809261333f565b614786578361475b565b8380fd5b6040513d87823e3d90fd5b5080fd5b6147a69195505f9061333f565b5f935f614729565b8147106147e7575f918291829182916001600160a01b03165af16147d061432d565b50156147d857565b63d6bda27560e01b5f5260045ffd5b504763cf47918160e01b5f5260045260245260445ffd5b9061481357508051156147d857805190602001fd5b81511580614844575b614824575090565b639996b31560e01b5f9081526001600160a01b0391909116600452602490fd5b50803b1561481c56fe9b779b17422d0df92223018b32b4d1fa46e071723d6817e2486d003becc55f00a2646970667358221220f7f53cbb28c7ecf68206a1845dc13c772f0b0f4eb9dcc258d35c79616fc91f1d64736f6c634300081a0033",
  "linkReferences": {},
  "deployedLinkReferences": {}
}