{
  "_format": "hh-sol-artifact-1",
  "contractName": "ProtocolFeeController",
  "sourceName": "contracts/_ProtocolFeeController.sol",
  "abi": [
    {
      "inputs": [
        {
          "internalType": "contract IVault",
          "name": "vault_",
          "type": "address"
        },
        {
          "internalType": "uint256",
          "name": "initialGlobalSwapFeePercentage",
          "type": "uint256"
        },
        {
          "internalType": "uint256",
          "name": "initialGlobalYieldFeePercentage",
          "type": "uint256"
        }
      ],
      "stateMutability": "nonpayable",
      "type": "constructor"
    },
    {
      "inputs": [
        {
          "internalType": "address",
          "name": "caller",
          "type": "address"
        },
        {
          "internalType": "address",
          "name": "pool",
          "type": "address"
        }
      ],
      "name": "CallerIsNotPoolCreator",
      "type": "error"
    },
    {
      "inputs": [],
      "name": "FeePrecisionTooHigh",
      "type": "error"
    },
    {
      "inputs": [],
      "name": "InvalidMigrationSource",
      "type": "error"
    },
    {
      "inputs": [
        {
          "internalType": "address",
          "name": "pool",
          "type": "address"
        }
      ],
      "name": "PoolAlreadyRegistered",
      "type": "error"
    },
    {
      "inputs": [],
      "name": "PoolCreatorFeePercentageTooHigh",
      "type": "error"
    },
    {
      "inputs": [
        {
          "internalType": "address",
          "name": "pool",
          "type": "address"
        }
      ],
      "name": "PoolCreatorNotRegistered",
      "type": "error"
    },
    {
      "inputs": [],
      "name": "ProtocolSwapFeePercentageTooHigh",
      "type": "error"
    },
    {
      "inputs": [],
      "name": "ProtocolYieldFeePercentageTooHigh",
      "type": "error"
    },
    {
      "inputs": [],
      "name": "ReentrancyGuardReentrantCall",
      "type": "error"
    },
    {
      "inputs": [
        {
          "internalType": "uint8",
          "name": "bits",
          "type": "uint8"
        },
        {
          "internalType": "uint256",
          "name": "value",
          "type": "uint256"
        }
      ],
      "name": "SafeCastOverflowedUintDowncast",
      "type": "error"
    },
    {
      "inputs": [
        {
          "internalType": "address",
          "name": "token",
          "type": "address"
        }
      ],
      "name": "SafeERC20FailedOperation",
      "type": "error"
    },
    {
      "inputs": [
        {
          "internalType": "address",
          "name": "sender",
          "type": "address"
        }
      ],
      "name": "SenderIsNotVault",
      "type": "error"
    },
    {
      "inputs": [],
      "name": "SenderNotAllowed",
      "type": "error"
    },
    {
      "inputs": [],
      "name": "VaultNotSet",
      "type": "error"
    },
    {
      "inputs": [],
      "name": "ZeroDivision",
      "type": "error"
    },
    {
      "anonymous": false,
      "inputs": [
        {
          "indexed": false,
          "internalType": "uint256",
          "name": "swapFeePercentage",
          "type": "uint256"
        }
      ],
      "name": "GlobalProtocolSwapFeePercentageChanged",
      "type": "event"
    },
    {
      "anonymous": false,
      "inputs": [
        {
          "indexed": false,
          "internalType": "uint256",
          "name": "yieldFeePercentage",
          "type": "uint256"
        }
      ],
      "name": "GlobalProtocolYieldFeePercentageChanged",
      "type": "event"
    },
    {
      "anonymous": false,
      "inputs": [
        {
          "indexed": true,
          "internalType": "address",
          "name": "pool",
          "type": "address"
        },
        {
          "indexed": false,
          "internalType": "uint256",
          "name": "aggregateSwapFeePercentage",
          "type": "uint256"
        },
        {
          "indexed": false,
          "internalType": "bool",
          "name": "isProtocolFeeExempt",
          "type": "bool"
        }
      ],
      "name": "InitialPoolAggregateSwapFeePercentage",
      "type": "event"
    },
    {
      "anonymous": false,
      "inputs": [
        {
          "indexed": true,
          "internalType": "address",
          "name": "pool",
          "type": "address"
        },
        {
          "indexed": false,
          "internalType": "uint256",
          "name": "aggregateYieldFeePercentage",
          "type": "uint256"
        },
        {
          "indexed": false,
          "internalType": "bool",
          "name": "isProtocolFeeExempt",
          "type": "bool"
        }
      ],
      "name": "InitialPoolAggregateYieldFeePercentage",
      "type": "event"
    },
    {
      "anonymous": false,
      "inputs": [
        {
          "indexed": true,
          "internalType": "address",
          "name": "pool",
          "type": "address"
        },
        {
          "indexed": true,
          "internalType": "contract IERC20",
          "name": "token",
          "type": "address"
        },
        {
          "indexed": true,
          "internalType": "address",
          "name": "recipient",
          "type": "address"
        },
        {
          "indexed": false,
          "internalType": "uint256",
          "name": "amount",
          "type": "uint256"
        }
      ],
      "name": "PoolCreatorFeesWithdrawn",
      "type": "event"
    },
    {
      "anonymous": false,
      "inputs": [
        {
          "indexed": true,
          "internalType": "address",
          "name": "pool",
          "type": "address"
        },
        {
          "indexed": false,
          "internalType": "uint256",
          "name": "poolCreatorSwapFeePercentage",
          "type": "uint256"
        }
      ],
      "name": "PoolCreatorSwapFeePercentageChanged",
      "type": "event"
    },
    {
      "anonymous": false,
      "inputs": [
        {
          "indexed": true,
          "internalType": "address",
          "name": "pool",
          "type": "address"
        },
        {
          "indexed": false,
          "internalType": "uint256",
          "name": "poolCreatorYieldFeePercentage",
          "type": "uint256"
        }
      ],
      "name": "PoolCreatorYieldFeePercentageChanged",
      "type": "event"
    },
    {
      "anonymous": false,
      "inputs": [
        {
          "indexed": true,
          "internalType": "address",
          "name": "pool",
          "type": "address"
        },
        {
          "indexed": true,
          "internalType": "address",
          "name": "poolCreator",
          "type": "address"
        },
        {
          "indexed": false,
          "internalType": "bool",
          "name": "protocolFeeExempt",
          "type": "bool"
        }
      ],
      "name": "PoolRegisteredWithFeeController",
      "type": "event"
    },
    {
      "anonymous": false,
      "inputs": [
        {
          "indexed": true,
          "internalType": "address",
          "name": "pool",
          "type": "address"
        },
        {
          "indexed": true,
          "internalType": "contract IERC20",
          "name": "token",
          "type": "address"
        },
        {
          "indexed": true,
          "internalType": "address",
          "name": "recipient",
          "type": "address"
        },
        {
          "indexed": false,
          "internalType": "uint256",
          "name": "amount",
          "type": "uint256"
        }
      ],
      "name": "ProtocolFeesWithdrawn",
      "type": "event"
    },
    {
      "anonymous": false,
      "inputs": [
        {
          "indexed": true,
          "internalType": "address",
          "name": "pool",
          "type": "address"
        },
        {
          "indexed": true,
          "internalType": "contract IERC20",
          "name": "token",
          "type": "address"
        },
        {
          "indexed": false,
          "internalType": "uint256",
          "name": "amount",
          "type": "uint256"
        }
      ],
      "name": "ProtocolSwapFeeCollected",
      "type": "event"
    },
    {
      "anonymous": false,
      "inputs": [
        {
          "indexed": true,
          "internalType": "address",
          "name": "pool",
          "type": "address"
        },
        {
          "indexed": false,
          "internalType": "uint256",
          "name": "swapFeePercentage",
          "type": "uint256"
        }
      ],
      "name": "ProtocolSwapFeePercentageChanged",
      "type": "event"
    },
    {
      "anonymous": false,
      "inputs": [
        {
          "indexed": true,
          "internalType": "address",
          "name": "pool",
          "type": "address"
        },
        {
          "indexed": true,
          "internalType": "contract IERC20",
          "name": "token",
          "type": "address"
        },
        {
          "indexed": false,
          "internalType": "uint256",
          "name": "amount",
          "type": "uint256"
        }
      ],
      "name": "ProtocolYieldFeeCollected",
      "type": "event"
    },
    {
      "anonymous": false,
      "inputs": [
        {
          "indexed": true,
          "internalType": "address",
          "name": "pool",
          "type": "address"
        },
        {
          "indexed": false,
          "internalType": "uint256",
          "name": "yieldFeePercentage",
          "type": "uint256"
        }
      ],
      "name": "ProtocolYieldFeePercentageChanged",
      "type": "event"
    },
    {
      "inputs": [],
      "name": "MAX_CREATOR_FEE_PERCENTAGE",
      "outputs": [
        {
          "internalType": "uint256",
          "name": "",
          "type": "uint256"
        }
      ],
      "stateMutability": "view",
      "type": "function"
    },
    {
      "inputs": [],
      "name": "MAX_PROTOCOL_SWAP_FEE_PERCENTAGE",
      "outputs": [
        {
          "internalType": "uint256",
          "name": "",
          "type": "uint256"
        }
      ],
      "stateMutability": "view",
      "type": "function"
    },
    {
      "inputs": [],
      "name": "MAX_PROTOCOL_YIELD_FEE_PERCENTAGE",
      "outputs": [
        {
          "internalType": "uint256",
          "name": "",
          "type": "uint256"
        }
      ],
      "stateMutability": "view",
      "type": "function"
    },
    {
      "inputs": [
        {
          "internalType": "address",
          "name": "pool",
          "type": "address"
        }
      ],
      "name": "collectAggregateFees",
      "outputs": [],
      "stateMutability": "nonpayable",
      "type": "function"
    },
    {
      "inputs": [
        {
          "internalType": "address",
          "name": "pool",
          "type": "address"
        }
      ],
      "name": "collectAggregateFeesHook",
      "outputs": [],
      "stateMutability": "nonpayable",
      "type": "function"
    },
    {
      "inputs": [
        {
          "internalType": "uint256",
          "name": "protocolFeePercentage",
          "type": "uint256"
        },
        {
          "internalType": "uint256",
          "name": "poolCreatorFeePercentage",
          "type": "uint256"
        }
      ],
      "name": "computeAggregateFeePercentage",
      "outputs": [
        {
          "internalType": "uint256",
          "name": "",
          "type": "uint256"
        }
      ],
      "stateMutability": "pure",
      "type": "function"
    },
    {
      "inputs": [
        {
          "internalType": "bytes4",
          "name": "selector",
          "type": "bytes4"
        }
      ],
      "name": "getActionId",
      "outputs": [
        {
          "internalType": "bytes32",
          "name": "",
          "type": "bytes32"
        }
      ],
      "stateMutability": "view",
      "type": "function"
    },
    {
      "inputs": [],
      "name": "getAuthorizer",
      "outputs": [
        {
          "internalType": "contract IAuthorizer",
          "name": "",
          "type": "address"
        }
      ],
      "stateMutability": "view",
      "type": "function"
    },
    {
      "inputs": [],
      "name": "getGlobalProtocolSwapFeePercentage",
      "outputs": [
        {
          "internalType": "uint256",
          "name": "",
          "type": "uint256"
        }
      ],
      "stateMutability": "view",
      "type": "function"
    },
    {
      "inputs": [],
      "name": "getGlobalProtocolYieldFeePercentage",
      "outputs": [
        {
          "internalType": "uint256",
          "name": "",
          "type": "uint256"
        }
      ],
      "stateMutability": "view",
      "type": "function"
    },
    {
      "inputs": [
        {
          "internalType": "address",
          "name": "pool",
          "type": "address"
        }
      ],
      "name": "getPoolCreatorFeeAmounts",
      "outputs": [
        {
          "internalType": "uint256[]",
          "name": "feeAmounts",
          "type": "uint256[]"
        }
      ],
      "stateMutability": "view",
      "type": "function"
    },
    {
      "inputs": [
        {
          "internalType": "address",
          "name": "pool",
          "type": "address"
        }
      ],
      "name": "getPoolCreatorSwapFeePercentage",
      "outputs": [
        {
          "internalType": "uint256",
          "name": "",
          "type": "uint256"
        }
      ],
      "stateMutability": "view",
      "type": "function"
    },
    {
      "inputs": [
        {
          "internalType": "address",
          "name": "pool",
          "type": "address"
        }
      ],
      "name": "getPoolCreatorYieldFeePercentage",
      "outputs": [
        {
          "internalType": "uint256",
          "name": "",
          "type": "uint256"
        }
      ],
      "stateMutability": "view",
      "type": "function"
    },
    {
      "inputs": [
        {
          "internalType": "address",
          "name": "pool",
          "type": "address"
        }
      ],
      "name": "getPoolProtocolSwapFeeInfo",
      "outputs": [
        {
          "internalType": "uint256",
          "name": "",
          "type": "uint256"
        },
        {
          "internalType": "bool",
          "name": "",
          "type": "bool"
        }
      ],
      "stateMutability": "view",
      "type": "function"
    },
    {
      "inputs": [
        {
          "internalType": "address",
          "name": "pool",
          "type": "address"
        }
      ],
      "name": "getPoolProtocolYieldFeeInfo",
      "outputs": [
        {
          "internalType": "uint256",
          "name": "",
          "type": "uint256"
        },
        {
          "internalType": "bool",
          "name": "",
          "type": "bool"
        }
      ],
      "stateMutability": "view",
      "type": "function"
    },
    {
      "inputs": [
        {
          "internalType": "address",
          "name": "pool",
          "type": "address"
        }
      ],
      "name": "getProtocolFeeAmounts",
      "outputs": [
        {
          "internalType": "uint256[]",
          "name": "feeAmounts",
          "type": "uint256[]"
        }
      ],
      "stateMutability": "view",
      "type": "function"
    },
    {
      "inputs": [],
      "name": "getVault",
      "outputs": [
        {
          "internalType": "contract IVault",
          "name": "",
          "type": "address"
        }
      ],
      "stateMutability": "view",
      "type": "function"
    },
    {
      "inputs": [
        {
          "internalType": "address",
          "name": "pool",
          "type": "address"
        }
      ],
      "name": "isPoolRegistered",
      "outputs": [
        {
          "internalType": "bool",
          "name": "",
          "type": "bool"
        }
      ],
      "stateMutability": "view",
      "type": "function"
    },
    {
      "inputs": [
        {
          "internalType": "address",
          "name": "pool",
          "type": "address"
        }
      ],
      "name": "migratePool",
      "outputs": [],
      "stateMutability": "nonpayable",
      "type": "function"
    },
    {
      "inputs": [
        {
          "internalType": "address",
          "name": "pool",
          "type": "address"
        },
        {
          "internalType": "address",
          "name": "poolCreator",
          "type": "address"
        },
        {
          "internalType": "bool",
          "name": "protocolFeeExempt",
          "type": "bool"
        }
      ],
      "name": "registerPool",
      "outputs": [
        {
          "internalType": "uint256",
          "name": "aggregateSwapFeePercentage",
          "type": "uint256"
        },
        {
          "internalType": "uint256",
          "name": "aggregateYieldFeePercentage",
          "type": "uint256"
        }
      ],
      "stateMutability": "nonpayable",
      "type": "function"
    },
    {
      "inputs": [
        {
          "internalType": "uint256",
          "name": "newProtocolSwapFeePercentage",
          "type": "uint256"
        }
      ],
      "name": "setGlobalProtocolSwapFeePercentage",
      "outputs": [],
      "stateMutability": "nonpayable",
      "type": "function"
    },
    {
      "inputs": [
        {
          "internalType": "uint256",
          "name": "newProtocolYieldFeePercentage",
          "type": "uint256"
        }
      ],
      "name": "setGlobalProtocolYieldFeePercentage",
      "outputs": [],
      "stateMutability": "nonpayable",
      "type": "function"
    },
    {
      "inputs": [
        {
          "internalType": "address",
          "name": "pool",
          "type": "address"
        },
        {
          "internalType": "uint256",
          "name": "poolCreatorSwapFeePercentage",
          "type": "uint256"
        }
      ],
      "name": "setPoolCreatorSwapFeePercentage",
      "outputs": [],
      "stateMutability": "nonpayable",
      "type": "function"
    },
    {
      "inputs": [
        {
          "internalType": "address",
          "name": "pool",
          "type": "address"
        },
        {
          "internalType": "uint256",
          "name": "poolCreatorYieldFeePercentage",
          "type": "uint256"
        }
      ],
      "name": "setPoolCreatorYieldFeePercentage",
      "outputs": [],
      "stateMutability": "nonpayable",
      "type": "function"
    },
    {
      "inputs": [
        {
          "internalType": "address",
          "name": "pool",
          "type": "address"
        },
        {
          "internalType": "uint256",
          "name": "newProtocolSwapFeePercentage",
          "type": "uint256"
        }
      ],
      "name": "setProtocolSwapFeePercentage",
      "outputs": [],
      "stateMutability": "nonpayable",
      "type": "function"
    },
    {
      "inputs": [
        {
          "internalType": "address",
          "name": "pool",
          "type": "address"
        },
        {
          "internalType": "uint256",
          "name": "newProtocolYieldFeePercentage",
          "type": "uint256"
        }
      ],
      "name": "setProtocolYieldFeePercentage",
      "outputs": [],
      "stateMutability": "nonpayable",
      "type": "function"
    },
    {
      "inputs": [
        {
          "internalType": "address",
          "name": "pool",
          "type": "address"
        }
      ],
      "name": "updateProtocolSwapFeePercentage",
      "outputs": [],
      "stateMutability": "nonpayable",
      "type": "function"
    },
    {
      "inputs": [
        {
          "internalType": "address",
          "name": "pool",
          "type": "address"
        }
      ],
      "name": "updateProtocolYieldFeePercentage",
      "outputs": [],
      "stateMutability": "nonpayable",
      "type": "function"
    },
    {
      "inputs": [],
      "name": "vault",
      "outputs": [
        {
          "internalType": "contract IVault",
          "name": "",
          "type": "address"
        }
      ],
      "stateMutability": "view",
      "type": "function"
    },
    {
      "inputs": [
        {
          "internalType": "address",
          "name": "pool",
          "type": "address"
        }
      ],
      "name": "withdrawPoolCreatorFees",
      "outputs": [],
      "stateMutability": "nonpayable",
      "type": "function"
    },
    {
      "inputs": [
        {
          "internalType": "address",
          "name": "pool",
          "type": "address"
        },
        {
          "internalType": "address",
          "name": "recipient",
          "type": "address"
        }
      ],
      "name": "withdrawPoolCreatorFees",
      "outputs": [],
      "stateMutability": "nonpayable",
      "type": "function"
    },
    {
      "inputs": [
        {
          "internalType": "address",
          "name": "pool",
          "type": "address"
        },
        {
          "internalType": "address",
          "name": "recipient",
          "type": "address"
        }
      ],
      "name": "withdrawProtocolFees",
      "outputs": [],
      "stateMutability": "nonpayable",
      "type": "function"
    },
    {
      "inputs": [
        {
          "internalType": "address",
          "name": "pool",
          "type": "address"
        },
        {
          "internalType": "address",
          "name": "recipient",
          "type": "address"
        },
        {
          "internalType": "contract IERC20",
          "name": "token",
          "type": "address"
        }
      ],
      "name": "withdrawProtocolFeesForToken",
      "outputs": [],
      "stateMutability": "nonpayable",
      "type": "function"
    }
  ],
  "bytecode": "0x60e0346101c257601f612a7d38819003918201601f19168301916001600160401b038311848410176101c7578084926060946040528339810103126101c25780516001600160a01b03811691908281036101c257604060208301519201519230608052156101b1578060a05260c0526706f05b59d3b2000081116101a0576020816100aa7fbf5ac0fc89bbf8819be79f280146b65ea2af2a9705cd9cfe0c9d93f6e87f307d936101dd565b80600055604051908152a16706f05b59d3b20000811161018f576020816100f17f48c5c3ccec54c4e0ea08d83d838fa9bb725eb0b52c591cb00bd6e63bca8c44f6936101dd565b80600155604051908152a160405161284e908161022f823960805181611da4015260a051818181610d0301528181610f5f01526123c6015260c051818181610245015281816103160152818161038901528181610b1101528181610c380152818161137a0152818161150101528181611696015281816117cd015281816118fa01528181611eec015281816121ae0152818161235601526124e60152f35b6353c24f4760e11b60005260046000fd5b637e6eb7fb60e01b60005260046000fd5b630647140b60e51b60005260046000fd5b600080fd5b634e487b7160e01b600052604160045260246000fd5b64174876e800810464174876e80081029080820464174876e8001490151715610218570361020757565b63419fd9e760e11b60005260046000fd5b634e487b7160e01b600052601160045260246000fdfe608080604052600436101561001357600080fd5b600090813560e01c9081630252aab514611c47575080630874327f146118cb5780630b8e059b146118925780630ddd60c6146118705780631377c16c1461176f5780632772d156146115ad5780632e1d388d1461174c5780633af527121461163957806352f125f01461160d57806355fb76af146115ef5780635c15a0b4146115b25780635e32e4e8146115ad57806371447ea81461142657806371ecc8fb146112a057806377ff76e7146110c55780637869ee18146110a85780637a2b97dc1461103d578063851c1bb3146110035780638a3c5c6914610f8e5780638d928af814610f495780638df44c5414610eb15780638f4ab9ca14610e8f5780639e95f3fd14610df3578063a93df2a414610d7d578063aaabadc514610cdd578063abaa335614610b7e578063b53a70b214610aa2578063c673bdaf14610a63578063cf7b287f146109f9578063f7061445146109c2578063fa399f2a14610345578063fbfa77cf146103005763fd267f391461018c57600080fd5b346102fd5760403660031901126102fd576101a5611c7d565b6024356101b061239b565b6706f05b59d3b2000081116102ee576101c8816125c0565b6101d182611e7e565b826101db8261202d565b92604051936101e985611d1c565b6001600160401b039081168552600160208087019182526001600160a01b03848116808752600290925260408087209851895494516001600160481b031990951695169490941792151590931b60ff60401b16919091179095557f0000000000000000000000000000000000000000000000000000000000000000169061026f816126d8565b823b156102ea5761029992849283604051809681958294631782c1bd60e21b845260048401612155565b03925af180156102df576102c6575b5050602060008051602061279983398151915291604051908152a280f35b816102d091611d4d565b6102db5782386102a8565b8280fd5b6040513d84823e3d90fd5b8380fd5b637e6eb7fb60e01b8352600483fd5b80fd5b50346102fd57806003193601126102fd576040517f00000000000000000000000000000000000000000000000000000000000000006001600160a01b03168152602090f35b50346102fd5760203660031901126102fd5761035f611c7d565b90610368612354565b6040516347a55ce560e11b81526001600160a01b03838116600483018190527f000000000000000000000000000000000000000000000000000000000000000090911690838360248183865af19283156109b7578490859461094a575b50818552600260205260018060401b0360408620541690828652600560205260408620549186831580159485610940575b8561092d575b506104068a6124bb565b95908a5b8781106106e2578c8c8c8c8c80845260036020528360018060401b036040822054169461069057506000936040858381526006602052205495600090871590811598896106d8575b896106c1575b50610462906124bb565b979060005b89811061047057005b61047a818a611e31565b51610488575b600101610467565b90916001600160a01b0361049c8385611e31565b5116906104a9838b611e31565b51893b156106bd5760405163ae63932960e01b81526004810184905230602482015260448101919091528181606481838e5af180156102df579082916106a4575b506106905750600092919080887fe505e41b0d437b47350a9990142ccf38acb11ffa0e5af8f973b9e172f3d5d5e26020610524868f611e31565b51604051908152a38b156106175761053c828b611e31565b51861561060857876105506105639261206d565b6001896000198301040190151502612091565b6001670de0b6b3a764000060001983010401901515029088855260076020526040852060018060a01b0382168652602052604085206105a3838254612060565b90556105af838c611e31565b519182039182116105f4578885526008602090815260408087206001600160a01b03909316875291905284208054600193926105ea91612060565b90555b9050610480565b634e487b7160e01b85526011600452602485fd5b630a0c22c760e01b8552600485fd5b60019190851561065c5761062b828c611e31565b519089865260076020526040862090848060a01b0316865260205261065560408620918254612060565b90556105ed565b610666828c611e31565b519089865260086020526040862090848060a01b0316865260205261065560408620918254612060565b634e487b7160e01b81526021600452602490fd5b906106ae91611d4d565b806000126102fd57808d6104ea565b5080fd5b6104629193506106d190856120a4565b9290610458565b8415159950610452565b6106ec8188611e31565b516106fa575b60010161040a565b6001600160a01b0361070c8284611e31565b5116906107198189611e31565b518b3b15610929578d8c60648293604051948593849263ae63932960e01b845289600485015230602485015260448401525af1801561091c57908e8092610903575b50506108ef57818a7fae7ebad9fc3d1d17965f063fa520d393595e2ef6c8e22ae8413b60900444e19f6020610790858d611e31565b51604051908152a38315610873576107a88189611e31565b51861561086257876105506107bc9261206d565b6001670de0b6b3a764000060001983010401901515028a600052600760205260408060002060009060018060a01b0386168252602052206107fe828254612060565b905561080a828a611e31565b5190810390811161084c5761084260406001948d600052600860205281600020600091878060a01b0316825260205220918254612060565b90555b90506106f2565b634e487b7160e01b600052601160045260246000fd5b630a0c22c760e01b60005260046000fd5b60019185156108b9576108b2604061088b848c611e31565b51928d600052600760205281600020600091878060a01b0316825260205220918254612060565b9055610845565b6108b260406108c8848c611e31565b51928d600052600860205281600020600091878060a01b0316825260205220918254612060565b634e487b7160e01b8d52602160045260248dfd5b61090c91611d4d565b610918578c388161075b565b8c80fd5b8e604051903d90823e3d90fd5b8d80fd5b610939919250836120a4565b90386103fc565b83151595506103f6565b9350503d8085853e61095c8185611d4d565b83016040848203126109b35783516001600160401b0381116109af5781610984918601611fd0565b602085015190946001600160401b0382116109ab576109a4929101611fd0565b92386103c5565b8680fd5b8580fd5b8480fd5b6040513d86823e3d90fd5b50346102fd5760403660031901126102fd576109f66109df611c7d565b6109e7611c98565b906109f1816120ed565b61227f565b80f35b50346102fd5760403660031901126102fd57610a13611c7d565b610a1b611c98565b90610a2461239b565b610a2d816124bb565b9290845b848110610a3c578580f35b600190610a5d6001600160a01b03610a548386611e31565b511685876125fb565b01610a31565b50346102fd5760203660031901126102fd5760209060ff906040906001600160a01b03610a8e611c7d565b168152600484522054166040519015158152f35b50346102fd5760603660031901126102fd57610abc611c7d565b610ac4611c98565b604435906001600160a01b0382168083036109b357610ae161239b565b6040805163c9c1661b60e01b81526001600160a01b038681166004830152602482019390935291829060449082907f0000000000000000000000000000000000000000000000000000000000000000165afa8015610b7357610b48575b506109f6926125fb565b604090813d8311610b6c575b610b5e8183611d4d565b810103126102ea5738610b3e565b503d610b54565b6040513d87823e3d90fd5b50346102fd5760403660031901126102fd57610b98611c7d565b602435610ba361239b565b6706f05b59d3b200008111610cce57610bbb816125c0565b610bc482611e7e565b82610bce8261202d565b9260405193610bdc85611d1c565b6001600160401b039081168552600160208087019182526001600160a01b03848116808752600390925260408087209851895494516001600160481b031990951695169490941792151590931b60ff60401b16919091179095557f00000000000000000000000000000000000000000000000000000000000000001690610c62816126a2565b823b156102ea57610c8c92849283604051809681958294637129b38560e11b845260048401612155565b03925af180156102df57610cb9575b505060206000805160206127d983398151915291604051908152a280f35b81610cc391611d4d565b6102db578238610c9b565b6353c24f4760e11b8352600483fd5b50346102fd57806003193601126102fd5760405163aaabadc560e01b81526020816004817f00000000000000000000000000000000000000000000000000000000000000006001600160a01b03165afa9081156102df5760209291610d50575b506040516001600160a01b039091168152f35b610d709150823d8411610d76575b610d688183611d4d565b810190611fb1565b38610d3d565b503d610d5e565b50346102fd5760203660031901126102fd57600435610d9a61239b565b6706f05b59d3b200008111610de457602081610dd67f48c5c3ccec54c4e0ea08d83d838fa9bb725eb0b52c591cb00bd6e63bca8c44f6936125c0565b80600155604051908152a180f35b6353c24f4760e11b8252600482fd5b50346102fd5760203660031901126102fd57610e0d611c7d565b90610e17826124bb565b91610e2183611dff565b936001600160a01b0316815b848110610e465760405180610e428882611ce2565b0390f35b8183526008602052604080842060019291906001600160a01b03610e6a8489611e31565b511690600091858060a01b031682526020522054610e888289611e31565b5201610e2d565b50346102fd5760203660031901126102fd576109f6610eac611c7d565b611e7e565b50346102fd5760203660031901126102fd57610ecb611c7d565b90610ed5826124bb565b91610edf83611dff565b936001600160a01b0316815b848110610f005760405180610e428882611ce2565b8183526007602052604080842060019291906001600160a01b03610f248489611e31565b511690600091858060a01b031682526020522054610f428289611e31565b5201610eeb565b50346102fd57806003193601126102fd576040517f00000000000000000000000000000000000000000000000000000000000000006001600160a01b03168152602090f35b50346102fd5760203660031901126102fd57600435610fab61239b565b6706f05b59d3b200008111610ff457602081610fe77fbf5ac0fc89bbf8819be79f280146b65ea2af2a9705cd9cfe0c9d93f6e87f307d936125c0565b808455604051908152a180f35b637e6eb7fb60e01b8252600482fd5b50346102fd5760203660031901126102fd57600435906001600160e01b0319821682036102fd57602061103583611d9a565b604051908152f35b50346102fd5760203660031901126102fd576020906040906001600160a01b03611065611c7d565b16815260038352206040519061107a82611d1c565b546001600160401b038116808352604091821c60ff1615159390920183905251918291610e42919083611cd1565b50346102fd57806003193601126102fd5760209054604051908152f35b50346102fd5760603660031901126102fd576110df611c7d565b906110e8611c98565b9060443591821515908184036102db577fd9725c347996d9a5d6001b5f7c2a2515d365258012fceff4f49e84310ed079126020604096611126612354565b6001600160a01b031680865260048252878620805460ff1916600117905592861561128557836000805160206127f983398151915261125d88995b801561127c57895b6111728c61202d565b8d519061117e82611d1c565b60018f81901b031681528781018b8152868352600289528e8320918f600180911b03905116825491604060ff901b9051151560401b169160018060481b031916171790556111cb8b61202d565b908d51916111d883611d1c565b60018f81901b031682528d888301918c835287815260038a52209160018f81901b039051168254918f60ff901b9051151560401b169160018060481b03191617179055837fa34ad86562f9716c2f1e723934cc63f44a9b4695cb8535c30dd8308d03a78564828d8f61124e905192839283611cd1565b0390a28b519182918b83611cd1565b0390a287519485526001600160a01b031693a382519182526020820152f35b60015499611169565b836000805160206127f983398151915261125d885499611161565b50346102fd5760203660031901126102fd576112ba611c7d565b6112c381611e7e565b6001600160a01b038116808352600260205260408084209051919284916112e984611d1c565b549260ff60018060401b0385169485835260401c161590602082159101528254938161141b575b50611319575080f35b6113228361202d565b6040519061132f82611d1c565b6001600160401b0390811682526020808301858152878652600290915260408086209351845492516001600160481b031990931693169290921790151590911b60ff60401b161790557f00000000000000000000000000000000000000000000000000000000000000006001600160a01b0316906113ac816126d8565b823b156102ea576113d692849283604051809681958294631782c1bd60e21b845260048401612155565b03925af180156102df57611406575b5050602060008051602061279983398151915291604051908152a238808280f35b8161141091611d4d565b6102db5782386113e5565b905083141538611310565b50346102fd5760203660031901126102fd57611440611c7d565b61144981611e7e565b6001600160a01b0381168083526003602052604080842090519192849161146f84611d1c565b549260ff60018060401b0385169485835260401c1615906020821591015260015493816115a2575b506114a0575080f35b6114a98361202d565b604051906114b682611d1c565b6001600160401b0390811682526020808301858152878652600390915260408086209351845492516001600160481b031990931693169290921790151590911b60ff60401b161790557f00000000000000000000000000000000000000000000000000000000000000006001600160a01b031690611533816126a2565b823b156102ea5761155d92849283604051809681958294637129b38560e11b845260048401612155565b03925af180156102df5761158d575b505060206000805160206127d983398151915291604051908152a238808280f35b8161159791611d4d565b6102db57823861156c565b905083141538611497565b611cae565b50346102fd5760203660031901126102fd576020906040906001600160a01b036115da611c7d565b16815260028352206040519061107a82611d1c565b50346102fd57806003193601126102fd576020600154604051908152f35b50346102fd5760203660031901126102fd576109f661162a611c7d565b61163381612184565b9061227f565b50346102fd5760403660031901126102fd57611653611c7d565b60243561165f826120ed565b670de0ad9b58f16000811161173e5761167782611e7e565b6001600160a01b038281168085526006602052604085208390559284917f000000000000000000000000000000000000000000000000000000000000000016906116c0816126a2565b823b156102ea576116ea92849283604051809681958294637129b38560e11b845260048401612155565b03925af180156102df57611729575b505060207f47f70ddbc624c299cef7841aaea0a86b677c800203e953104e958c9ec9bdab3491604051908152a280f35b8161173391611d4d565b6102db5782386116f9565b62dc369d60e21b8352600483fd5b50346102fd57806003193601126102fd576020604051670de0ad9b58f160008152f35b50346102fd5760403660031901126102fd57611789611c7d565b602435611795826120ed565b670de0ad9b58f16000811161173e576117ad82611e7e565b6001600160a01b03828116808552600560205260408520839055929084907f0000000000000000000000000000000000000000000000000000000000000000166117f6836126d8565b90803b156102db5761181f9383604051809681958294631782c1bd60e21b845260048401612155565b03925af180156109b75761184b575b5060206000805160206127b983398151915291604051908152a280f35b836118686000805160206127b98339815191529395602093611d4d565b93915061182e565b50346102fd5760403660031901126102fd5760206110356024356004356120a4565b50346102fd5760203660031901126102fd576020906040906001600160a01b036118ba611c7d565b168152600583522054604051908152f35b50346102fd5760203660031901126102fd576118e5611c7d565b60405163217cb6f560e21b81526020816004817f00000000000000000000000000000000000000000000000000000000000000006001600160a01b03165afa908115611c3c578391611bfa575b506001600160a01b031690308214611beb576001600160a01b03168083526004602052604083205460ff16611bd957808352600460205260408320600160ff19825416179055604051631705682d60e21b8152816004820152604081602481865afa9081156109b75784908592611bb5575b506119ae9061202d565b90604051916119bc83611d1c565b6001600160401b03908116835290151560208084019182528487526002905260408087209351845492516001600160481b0319909316931692909217901515821b60ff60401b16179091558051631e8ae5f760e21b8152600481018390529081602481865afa9081156109b75784908592611b81575b50611a3c9061202d565b9060405191611a4a83611d1c565b6001600160401b03908116835290151560208084019182528487526003815260408088209451855493516001600160481b0319909416941693909317911515831b60ff60401b169190911790925551630b8e059b60e01b8152600481018390529081602481865afa849181611b4a575b5092602091602494611b38575b5060405193848092630252aab560e01b82528560048301525afa839281611b04575b50611af2578280f35b82526006602052604082205538808280f35b9092506020813d602011611b30575b81611b2060209383611d4d565b810103126102ea57519138611ae9565b3d9150611b13565b83865260058352604086205538611ac7565b9150926020823d602011611b79575b81611b6660209383611d4d565b810103126109b357905190926024611aba565b3d9150611b59565b611a3c9250611ba8915060403d604011611bae575b611ba08183611d4d565b810190611d7d565b91611a32565b503d611b96565b6119ae9250611bd3915060403d604011611bae57611ba08183611d4d565b916119a4565b6301b6ee3960e71b8352600452602482fd5b63b82fd5bf60e01b8352600483fd5b90506020813d602011611c34575b81611c1560209383611d4d565b810103126102db57516001600160a01b03811681036102db5738611932565b3d9150611c08565b6040513d85823e3d90fd5b9050346106bd5760203660031901126106bd576020916040906001600160a01b03611c70611c7d565b1681526006845220548152f35b600435906001600160a01b0382168203611c9357565b600080fd5b602435906001600160a01b0382168203611c9357565b34611c93576000366003190112611c935760206040516706f05b59d3b200008152f35b908152901515602082015260400190565b602060408183019282815284518094520192019060005b818110611d065750505090565b8251845260209384019390920191600101611cf9565b604081019081106001600160401b03821117611d3757604052565b634e487b7160e01b600052604160045260246000fd5b601f909101601f19168101906001600160401b03821190821017611d3757604052565b51908115158203611c9357565b9190826040910312611c9357611d97602083519301611d70565b90565b60405160208101917f0000000000000000000000000000000000000000000000000000000000000000835263ffffffff60e01b16604082015260248152611de2604482611d4d565b51902090565b6001600160401b038111611d375760051b60200190565b90611e0982611de8565b611e166040519182611d4d565b8281528092611e27601f1991611de8565b0190602036910137565b8051821015611e455760209160051b010190565b634e487b7160e01b600052603260045260246000fd5b60005b838110611e6e5750506000910152565b8181015183820152602001611e5e565b6000611edd60446040516020810194637d1ccf9560e11b865260018060a01b0316602482015260248152611eb28282611d4d565b60405194859384926348c8949160e01b84526020600485015251809281602486015285850190611e5b565b601f01601f19168101030181837f00000000000000000000000000000000000000000000000000000000000000006001600160a01b03165af18015611fa557611f235750565b3d806000833e611f338183611d4d565b810190602081830312611c93578051906001600160401b038211611c93570181601f82011215611c93578051906001600160401b038211611d375760405192611f86601f8401601f191660200185611d4d565b82845260208383010111611c9357602080611fa394019101611e5b565b565b6040513d6000823e3d90fd5b90816020910312611c9357516001600160a01b0381168103611c935790565b9080601f83011215611c93578151611fe781611de8565b92611ff56040519485611d4d565b81845260208085019260051b820101928311611c9357602001905b82821061201d5750505090565b8151815260209182019101612010565b6001600160401b038111612047576001600160401b031690565b6306dfcc6560e41b600052604060045260245260446000fd5b9190820180921161084c57565b90670de0b6b3a7640000820291808304670de0b6b3a7640000149015171561084c57565b8181029291811591840414171561084c57565b6120ce90670de0b6b3a76400006120c764174876e8009483830383851002612091565b0490612060565b0464174876e80081029080820464174876e800149015171561084c5790565b6001600160a01b036120fe82612184565b16801561213357330361210e5750565b633efb36fd60e21b6000908152336004526001600160a01b0391909116602452604490fd5b50638bcbf35360e01b60009081526001600160a01b0391909116600452602490fd5b6001600160a01b039091168152602081019190915260400190565b51906001600160a01b0382168203611c9357565b6040516374eef59360e11b81526001600160a01b03918216600482015290606090829060249082907f0000000000000000000000000000000000000000000000000000000000000000165afa908115611fa5576000916121f0575b50604001516001600160a01b031690565b6060813d606011612277575b8161220960609383611d4d565b810103126106bd576040519160608301906001600160401b03821184831017612263575061225891604091825261223f81612170565b845261224d60208201612170565b602085015201612170565b6040820152386121df565b634e487b7160e01b81526041600452602490fd5b3d91506121fc565b90612289826124bb565b929060005b84811061229c575050505050565b6001906001600160a01b036122b18285611e31565b5116828060a01b03851690816000526008602052604080600020600090868060a01b0384168252602052205491826122ed575b5050500161228e565b806000526008602052600060408082208290888060a01b0386168252602052205561231983898461270e565b6040519283527f938f3a3a03ee425ccc0f8010b0468938cbafd3750fa43bbdf09c6f75e97e51f96020868060a01b038a1694a43880806122e4565b7f00000000000000000000000000000000000000000000000000000000000000006001600160a01b0316330361238657565b63089676d560e01b6000523360045260246000fd5b6123b06000356001600160e01b031916611d9a565b60405163aaabadc560e01b8152906020826004817f00000000000000000000000000000000000000000000000000000000000000006001600160a01b03165afa918215611fa557600092612499575b506040516326f8aa2160e21b8152600481019190915233602482015230604482015290602090829060649082906001600160a01b03165afa908115611fa55760009161245f575b501561244e57565b6323dada5360e01b60005260046000fd5b90506020813d602011612491575b8161247a60209383611d4d565b81010312611c935761248b90611d70565b38612446565b3d915061246d565b60209192506124b490823d8411610d7657610d688183611d4d565b91906123ff565b60405163ca4f280360e01b81526001600160a01b0391821660048201529190600090839060249082907f0000000000000000000000000000000000000000000000000000000000000000165afa918215611fa55760009261251d575b50815190565b90913d8082843e61252e8184611d4d565b8201916020818403126106bd578051906001600160401b0382116102db57019180601f840112156106bd5782519161256583611de8565b936125736040519586611d4d565b83855260208086019460051b8201019283116106bd57602001925b8284106125a057505050509038612517565b83516001600160a01b03811681036102db5781526020938401930161258e565b64174876e800810464174876e80081029080820464174876e800149015171561084c57036125ea57565b63419fd9e760e11b60005260046000fd5b60018060a01b0316806000526007602052604060002060018060a01b0384166000526020526040600020549182612633575b50505050565b60207f1c2887fcb98f75e66bb9a36311f2d3d22fb204e6362106f30e9df7eaf63131b5918360005260078252604060002060018060a01b03871660005282526000604081205561268485828861270e565b6040519485526001600160a01b03908116951693a43880808061262d565b6001600160a01b0316600090815260036020908152604080832054600690925290912054611d97916001600160401b03166120a4565b6001600160a01b0316600090815260026020908152604080832054600590925290912054611d97916001600160401b03166120a4565b916020916127386127466000936040519283918783019563a9059cbb60e01b875260248401612155565b03601f198101835282611d4d565b519082855af115611fa5576000513d61278f57506001600160a01b0381163b155b61276e5750565b635274afe760e01b60009081526001600160a01b0391909116600452602490fd5b6001141561276756fe97cff4b6e6d80e307faab8b730d9f69264e860f2e0e10cfb8cdaf8a2f44e839eb7cf36369623c01ed7b2eafc4025224e924a2836d5fb49428a0f65417586bf5caf47449d1c3597ccc9f5ec3acad03cef57aa90a719000441b320687087948efdce1d009285405b74cf77294916c17664de2c84eef81225c71f265f823b358bcba26469706673582212206b12eb5dfb55d99d2d09564d751b79c54c61abb26fd81de9431109eeb1a2372d64736f6c634300081a0033",
  "linkReferences": {},
  "deployedLinkReferences": {}
}