{
  "_format": "hh-sol-artifact-1",
  "contractName": "ProtocolFeeController",
  "sourceName": "contracts/_ProtocolFeeController.sol",
  "abi": [
    {
      "inputs": [
        {
          "internalType": "contract IVault",
          "name": "vault_",
          "type": "address"
        },
        {
          "internalType": "uint256",
          "name": "initialGlobalSwapFeePercentage",
          "type": "uint256"
        },
        {
          "internalType": "uint256",
          "name": "initialGlobalYieldFeePercentage",
          "type": "uint256"
        }
      ],
      "stateMutability": "nonpayable",
      "type": "constructor"
    },
    {
      "inputs": [
        {
          "internalType": "address",
          "name": "caller",
          "type": "address"
        },
        {
          "internalType": "address",
          "name": "pool",
          "type": "address"
        }
      ],
      "name": "CallerIsNotPoolCreator",
      "type": "error"
    },
    {
      "inputs": [],
      "name": "FeePrecisionTooHigh",
      "type": "error"
    },
    {
      "inputs": [],
      "name": "InvalidMigrationSource",
      "type": "error"
    },
    {
      "inputs": [
        {
          "internalType": "address",
          "name": "pool",
          "type": "address"
        }
      ],
      "name": "PoolAlreadyRegistered",
      "type": "error"
    },
    {
      "inputs": [],
      "name": "PoolCreatorFeePercentageTooHigh",
      "type": "error"
    },
    {
      "inputs": [
        {
          "internalType": "address",
          "name": "pool",
          "type": "address"
        }
      ],
      "name": "PoolCreatorNotRegistered",
      "type": "error"
    },
    {
      "inputs": [],
      "name": "ProtocolSwapFeePercentageTooHigh",
      "type": "error"
    },
    {
      "inputs": [],
      "name": "ProtocolYieldFeePercentageTooHigh",
      "type": "error"
    },
    {
      "inputs": [],
      "name": "ReentrancyGuardReentrantCall",
      "type": "error"
    },
    {
      "inputs": [
        {
          "internalType": "uint8",
          "name": "bits",
          "type": "uint8"
        },
        {
          "internalType": "uint256",
          "name": "value",
          "type": "uint256"
        }
      ],
      "name": "SafeCastOverflowedUintDowncast",
      "type": "error"
    },
    {
      "inputs": [
        {
          "internalType": "address",
          "name": "token",
          "type": "address"
        }
      ],
      "name": "SafeERC20FailedOperation",
      "type": "error"
    },
    {
      "inputs": [
        {
          "internalType": "address",
          "name": "sender",
          "type": "address"
        }
      ],
      "name": "SenderIsNotVault",
      "type": "error"
    },
    {
      "inputs": [],
      "name": "SenderNotAllowed",
      "type": "error"
    },
    {
      "inputs": [],
      "name": "VaultNotSet",
      "type": "error"
    },
    {
      "inputs": [],
      "name": "ZeroDivision",
      "type": "error"
    },
    {
      "anonymous": false,
      "inputs": [
        {
          "indexed": false,
          "internalType": "uint256",
          "name": "swapFeePercentage",
          "type": "uint256"
        }
      ],
      "name": "GlobalProtocolSwapFeePercentageChanged",
      "type": "event"
    },
    {
      "anonymous": false,
      "inputs": [
        {
          "indexed": false,
          "internalType": "uint256",
          "name": "yieldFeePercentage",
          "type": "uint256"
        }
      ],
      "name": "GlobalProtocolYieldFeePercentageChanged",
      "type": "event"
    },
    {
      "anonymous": false,
      "inputs": [
        {
          "indexed": true,
          "internalType": "address",
          "name": "pool",
          "type": "address"
        },
        {
          "indexed": false,
          "internalType": "uint256",
          "name": "aggregateSwapFeePercentage",
          "type": "uint256"
        },
        {
          "indexed": false,
          "internalType": "bool",
          "name": "isProtocolFeeExempt",
          "type": "bool"
        }
      ],
      "name": "InitialPoolAggregateSwapFeePercentage",
      "type": "event"
    },
    {
      "anonymous": false,
      "inputs": [
        {
          "indexed": true,
          "internalType": "address",
          "name": "pool",
          "type": "address"
        },
        {
          "indexed": false,
          "internalType": "uint256",
          "name": "aggregateYieldFeePercentage",
          "type": "uint256"
        },
        {
          "indexed": false,
          "internalType": "bool",
          "name": "isProtocolFeeExempt",
          "type": "bool"
        }
      ],
      "name": "InitialPoolAggregateYieldFeePercentage",
      "type": "event"
    },
    {
      "anonymous": false,
      "inputs": [
        {
          "indexed": true,
          "internalType": "address",
          "name": "pool",
          "type": "address"
        },
        {
          "indexed": true,
          "internalType": "contract IERC20",
          "name": "token",
          "type": "address"
        },
        {
          "indexed": true,
          "internalType": "address",
          "name": "recipient",
          "type": "address"
        },
        {
          "indexed": false,
          "internalType": "uint256",
          "name": "amount",
          "type": "uint256"
        }
      ],
      "name": "PoolCreatorFeesWithdrawn",
      "type": "event"
    },
    {
      "anonymous": false,
      "inputs": [
        {
          "indexed": true,
          "internalType": "address",
          "name": "pool",
          "type": "address"
        },
        {
          "indexed": false,
          "internalType": "uint256",
          "name": "poolCreatorSwapFeePercentage",
          "type": "uint256"
        }
      ],
      "name": "PoolCreatorSwapFeePercentageChanged",
      "type": "event"
    },
    {
      "anonymous": false,
      "inputs": [
        {
          "indexed": true,
          "internalType": "address",
          "name": "pool",
          "type": "address"
        },
        {
          "indexed": false,
          "internalType": "uint256",
          "name": "poolCreatorYieldFeePercentage",
          "type": "uint256"
        }
      ],
      "name": "PoolCreatorYieldFeePercentageChanged",
      "type": "event"
    },
    {
      "anonymous": false,
      "inputs": [
        {
          "indexed": true,
          "internalType": "address",
          "name": "pool",
          "type": "address"
        },
        {
          "indexed": true,
          "internalType": "address",
          "name": "poolCreator",
          "type": "address"
        },
        {
          "indexed": false,
          "internalType": "bool",
          "name": "protocolFeeExempt",
          "type": "bool"
        }
      ],
      "name": "PoolRegisteredWithFeeController",
      "type": "event"
    },
    {
      "anonymous": false,
      "inputs": [
        {
          "indexed": true,
          "internalType": "address",
          "name": "pool",
          "type": "address"
        },
        {
          "indexed": true,
          "internalType": "contract IERC20",
          "name": "token",
          "type": "address"
        },
        {
          "indexed": true,
          "internalType": "address",
          "name": "recipient",
          "type": "address"
        },
        {
          "indexed": false,
          "internalType": "uint256",
          "name": "amount",
          "type": "uint256"
        }
      ],
      "name": "ProtocolFeesWithdrawn",
      "type": "event"
    },
    {
      "anonymous": false,
      "inputs": [
        {
          "indexed": true,
          "internalType": "address",
          "name": "pool",
          "type": "address"
        },
        {
          "indexed": true,
          "internalType": "contract IERC20",
          "name": "token",
          "type": "address"
        },
        {
          "indexed": false,
          "internalType": "uint256",
          "name": "amount",
          "type": "uint256"
        }
      ],
      "name": "ProtocolSwapFeeCollected",
      "type": "event"
    },
    {
      "anonymous": false,
      "inputs": [
        {
          "indexed": true,
          "internalType": "address",
          "name": "pool",
          "type": "address"
        },
        {
          "indexed": false,
          "internalType": "uint256",
          "name": "swapFeePercentage",
          "type": "uint256"
        }
      ],
      "name": "ProtocolSwapFeePercentageChanged",
      "type": "event"
    },
    {
      "anonymous": false,
      "inputs": [
        {
          "indexed": true,
          "internalType": "address",
          "name": "pool",
          "type": "address"
        },
        {
          "indexed": true,
          "internalType": "contract IERC20",
          "name": "token",
          "type": "address"
        },
        {
          "indexed": false,
          "internalType": "uint256",
          "name": "amount",
          "type": "uint256"
        }
      ],
      "name": "ProtocolYieldFeeCollected",
      "type": "event"
    },
    {
      "anonymous": false,
      "inputs": [
        {
          "indexed": true,
          "internalType": "address",
          "name": "pool",
          "type": "address"
        },
        {
          "indexed": false,
          "internalType": "uint256",
          "name": "yieldFeePercentage",
          "type": "uint256"
        }
      ],
      "name": "ProtocolYieldFeePercentageChanged",
      "type": "event"
    },
    {
      "inputs": [],
      "name": "MAX_CREATOR_FEE_PERCENTAGE",
      "outputs": [
        {
          "internalType": "uint256",
          "name": "",
          "type": "uint256"
        }
      ],
      "stateMutability": "view",
      "type": "function"
    },
    {
      "inputs": [],
      "name": "MAX_PROTOCOL_SWAP_FEE_PERCENTAGE",
      "outputs": [
        {
          "internalType": "uint256",
          "name": "",
          "type": "uint256"
        }
      ],
      "stateMutability": "view",
      "type": "function"
    },
    {
      "inputs": [],
      "name": "MAX_PROTOCOL_YIELD_FEE_PERCENTAGE",
      "outputs": [
        {
          "internalType": "uint256",
          "name": "",
          "type": "uint256"
        }
      ],
      "stateMutability": "view",
      "type": "function"
    },
    {
      "inputs": [
        {
          "internalType": "address",
          "name": "pool",
          "type": "address"
        }
      ],
      "name": "collectAggregateFees",
      "outputs": [],
      "stateMutability": "nonpayable",
      "type": "function"
    },
    {
      "inputs": [
        {
          "internalType": "address",
          "name": "pool",
          "type": "address"
        }
      ],
      "name": "collectAggregateFeesHook",
      "outputs": [],
      "stateMutability": "nonpayable",
      "type": "function"
    },
    {
      "inputs": [
        {
          "internalType": "uint256",
          "name": "protocolFeePercentage",
          "type": "uint256"
        },
        {
          "internalType": "uint256",
          "name": "poolCreatorFeePercentage",
          "type": "uint256"
        }
      ],
      "name": "computeAggregateFeePercentage",
      "outputs": [
        {
          "internalType": "uint256",
          "name": "",
          "type": "uint256"
        }
      ],
      "stateMutability": "pure",
      "type": "function"
    },
    {
      "inputs": [
        {
          "internalType": "bytes4",
          "name": "selector",
          "type": "bytes4"
        }
      ],
      "name": "getActionId",
      "outputs": [
        {
          "internalType": "bytes32",
          "name": "",
          "type": "bytes32"
        }
      ],
      "stateMutability": "view",
      "type": "function"
    },
    {
      "inputs": [],
      "name": "getAuthorizer",
      "outputs": [
        {
          "internalType": "contract IAuthorizer",
          "name": "",
          "type": "address"
        }
      ],
      "stateMutability": "view",
      "type": "function"
    },
    {
      "inputs": [],
      "name": "getGlobalProtocolSwapFeePercentage",
      "outputs": [
        {
          "internalType": "uint256",
          "name": "",
          "type": "uint256"
        }
      ],
      "stateMutability": "view",
      "type": "function"
    },
    {
      "inputs": [],
      "name": "getGlobalProtocolYieldFeePercentage",
      "outputs": [
        {
          "internalType": "uint256",
          "name": "",
          "type": "uint256"
        }
      ],
      "stateMutability": "view",
      "type": "function"
    },
    {
      "inputs": [
        {
          "internalType": "address",
          "name": "pool",
          "type": "address"
        }
      ],
      "name": "getPoolCreatorFeeAmounts",
      "outputs": [
        {
          "internalType": "uint256[]",
          "name": "feeAmounts",
          "type": "uint256[]"
        }
      ],
      "stateMutability": "view",
      "type": "function"
    },
    {
      "inputs": [
        {
          "internalType": "address",
          "name": "pool",
          "type": "address"
        }
      ],
      "name": "getPoolCreatorSwapFeePercentage",
      "outputs": [
        {
          "internalType": "uint256",
          "name": "",
          "type": "uint256"
        }
      ],
      "stateMutability": "view",
      "type": "function"
    },
    {
      "inputs": [
        {
          "internalType": "address",
          "name": "pool",
          "type": "address"
        }
      ],
      "name": "getPoolCreatorYieldFeePercentage",
      "outputs": [
        {
          "internalType": "uint256",
          "name": "",
          "type": "uint256"
        }
      ],
      "stateMutability": "view",
      "type": "function"
    },
    {
      "inputs": [
        {
          "internalType": "address",
          "name": "pool",
          "type": "address"
        }
      ],
      "name": "getPoolProtocolSwapFeeInfo",
      "outputs": [
        {
          "internalType": "uint256",
          "name": "",
          "type": "uint256"
        },
        {
          "internalType": "bool",
          "name": "",
          "type": "bool"
        }
      ],
      "stateMutability": "view",
      "type": "function"
    },
    {
      "inputs": [
        {
          "internalType": "address",
          "name": "pool",
          "type": "address"
        }
      ],
      "name": "getPoolProtocolYieldFeeInfo",
      "outputs": [
        {
          "internalType": "uint256",
          "name": "",
          "type": "uint256"
        },
        {
          "internalType": "bool",
          "name": "",
          "type": "bool"
        }
      ],
      "stateMutability": "view",
      "type": "function"
    },
    {
      "inputs": [
        {
          "internalType": "address",
          "name": "pool",
          "type": "address"
        }
      ],
      "name": "getProtocolFeeAmounts",
      "outputs": [
        {
          "internalType": "uint256[]",
          "name": "feeAmounts",
          "type": "uint256[]"
        }
      ],
      "stateMutability": "view",
      "type": "function"
    },
    {
      "inputs": [],
      "name": "getVault",
      "outputs": [
        {
          "internalType": "contract IVault",
          "name": "",
          "type": "address"
        }
      ],
      "stateMutability": "view",
      "type": "function"
    },
    {
      "inputs": [
        {
          "internalType": "address",
          "name": "pool",
          "type": "address"
        }
      ],
      "name": "isPoolRegistered",
      "outputs": [
        {
          "internalType": "bool",
          "name": "",
          "type": "bool"
        }
      ],
      "stateMutability": "view",
      "type": "function"
    },
    {
      "inputs": [
        {
          "internalType": "address",
          "name": "pool",
          "type": "address"
        }
      ],
      "name": "migratePool",
      "outputs": [],
      "stateMutability": "nonpayable",
      "type": "function"
    },
    {
      "inputs": [
        {
          "internalType": "address",
          "name": "pool",
          "type": "address"
        },
        {
          "internalType": "address",
          "name": "poolCreator",
          "type": "address"
        },
        {
          "internalType": "bool",
          "name": "protocolFeeExempt",
          "type": "bool"
        }
      ],
      "name": "registerPool",
      "outputs": [
        {
          "internalType": "uint256",
          "name": "aggregateSwapFeePercentage",
          "type": "uint256"
        },
        {
          "internalType": "uint256",
          "name": "aggregateYieldFeePercentage",
          "type": "uint256"
        }
      ],
      "stateMutability": "nonpayable",
      "type": "function"
    },
    {
      "inputs": [
        {
          "internalType": "uint256",
          "name": "newProtocolSwapFeePercentage",
          "type": "uint256"
        }
      ],
      "name": "setGlobalProtocolSwapFeePercentage",
      "outputs": [],
      "stateMutability": "nonpayable",
      "type": "function"
    },
    {
      "inputs": [
        {
          "internalType": "uint256",
          "name": "newProtocolYieldFeePercentage",
          "type": "uint256"
        }
      ],
      "name": "setGlobalProtocolYieldFeePercentage",
      "outputs": [],
      "stateMutability": "nonpayable",
      "type": "function"
    },
    {
      "inputs": [
        {
          "internalType": "address",
          "name": "pool",
          "type": "address"
        },
        {
          "internalType": "uint256",
          "name": "poolCreatorSwapFeePercentage",
          "type": "uint256"
        }
      ],
      "name": "setPoolCreatorSwapFeePercentage",
      "outputs": [],
      "stateMutability": "nonpayable",
      "type": "function"
    },
    {
      "inputs": [
        {
          "internalType": "address",
          "name": "pool",
          "type": "address"
        },
        {
          "internalType": "uint256",
          "name": "poolCreatorYieldFeePercentage",
          "type": "uint256"
        }
      ],
      "name": "setPoolCreatorYieldFeePercentage",
      "outputs": [],
      "stateMutability": "nonpayable",
      "type": "function"
    },
    {
      "inputs": [
        {
          "internalType": "address",
          "name": "pool",
          "type": "address"
        },
        {
          "internalType": "uint256",
          "name": "newProtocolSwapFeePercentage",
          "type": "uint256"
        }
      ],
      "name": "setProtocolSwapFeePercentage",
      "outputs": [],
      "stateMutability": "nonpayable",
      "type": "function"
    },
    {
      "inputs": [
        {
          "internalType": "address",
          "name": "pool",
          "type": "address"
        },
        {
          "internalType": "uint256",
          "name": "newProtocolYieldFeePercentage",
          "type": "uint256"
        }
      ],
      "name": "setProtocolYieldFeePercentage",
      "outputs": [],
      "stateMutability": "nonpayable",
      "type": "function"
    },
    {
      "inputs": [
        {
          "internalType": "address",
          "name": "pool",
          "type": "address"
        }
      ],
      "name": "updateProtocolSwapFeePercentage",
      "outputs": [],
      "stateMutability": "nonpayable",
      "type": "function"
    },
    {
      "inputs": [
        {
          "internalType": "address",
          "name": "pool",
          "type": "address"
        }
      ],
      "name": "updateProtocolYieldFeePercentage",
      "outputs": [],
      "stateMutability": "nonpayable",
      "type": "function"
    },
    {
      "inputs": [],
      "name": "vault",
      "outputs": [
        {
          "internalType": "contract IVault",
          "name": "",
          "type": "address"
        }
      ],
      "stateMutability": "view",
      "type": "function"
    },
    {
      "inputs": [
        {
          "internalType": "address",
          "name": "pool",
          "type": "address"
        }
      ],
      "name": "withdrawPoolCreatorFees",
      "outputs": [],
      "stateMutability": "nonpayable",
      "type": "function"
    },
    {
      "inputs": [
        {
          "internalType": "address",
          "name": "pool",
          "type": "address"
        },
        {
          "internalType": "address",
          "name": "recipient",
          "type": "address"
        }
      ],
      "name": "withdrawPoolCreatorFees",
      "outputs": [],
      "stateMutability": "nonpayable",
      "type": "function"
    },
    {
      "inputs": [
        {
          "internalType": "address",
          "name": "pool",
          "type": "address"
        },
        {
          "internalType": "address",
          "name": "recipient",
          "type": "address"
        }
      ],
      "name": "withdrawProtocolFees",
      "outputs": [],
      "stateMutability": "nonpayable",
      "type": "function"
    },
    {
      "inputs": [
        {
          "internalType": "address",
          "name": "pool",
          "type": "address"
        },
        {
          "internalType": "address",
          "name": "recipient",
          "type": "address"
        },
        {
          "internalType": "contract IERC20",
          "name": "token",
          "type": "address"
        }
      ],
      "name": "withdrawProtocolFeesForToken",
      "outputs": [],
      "stateMutability": "nonpayable",
      "type": "function"
    }
  ],
  "bytecode": "0x60e0346101bb57601f6129a038819003918201601f19168301916001600160401b038311848410176101bf578084926060946040528339810103126101bb5780516001600160a01b03811691908281036101bb57604060208301519201519230608052156101ac578060a05260c0526706f05b59d3b20000811161019d576020816100aa7fbf5ac0fc89bbf8819be79f280146b65ea2af2a9705cd9cfe0c9d93f6e87f307d936101d3565b805f55604051908152a16706f05b59d3b20000811161018e576020816100f07f48c5c3ccec54c4e0ea08d83d838fa9bb725eb0b52c591cb00bd6e63bca8c44f6936101d3565b80600155604051908152a160405161277f9081610221823960805181611d60015260a051818181610cbe01528181610f14015261232c015260c051818181610242015281816103120152818161038501528181610ac901528181610bf40152818161132d015281816114b3015281816116470152818161177c015281816118ca01528181611e8201528181612132015281816122bf01526124470152f35b6353c24f4760e11b5f5260045ffd5b637e6eb7fb60e01b5f5260045ffd5b630647140b60e51b5f5260045ffd5b5f80fd5b634e487b7160e01b5f52604160045260245ffd5b64174876e800810464174876e80081029080820464174876e800149015171561020c57036101fd57565b63419fd9e760e11b5f5260045ffd5b634e487b7160e01b5f52601160045260245ffdfe6080806040526004361015610012575f80fd5b5f905f3560e01c9081630252aab514611c0e575080630874327f1461189c5780630b8e059b146118645780630ddd60c6146118435780631377c16c146117205780632772d1561461155e5780632e1d388d146116fd5780633af52712146115ea57806352f125f0146115be57806355fb76af146115a05780635c15a0b4146115635780635e32e4e81461155e57806371447ea8146113d857806371ecc8fb1461125357806377ff76e71461107a5780637869ee181461105d5780637a2b97dc14610ff2578063851c1bb314610fb85780638a3c5c6914610f435780638d928af814610efe5780638df44c5414610e695780638f4ab9ca14610e475780639e95f3fd14610dae578063a93df2a414610d38578063aaabadc514610c98578063abaa335614610b3a578063b53a70b214610a5a578063c673bdaf14610a1b578063cf7b287f146109b1578063f70614451461097a578063fa399f2a14610341578063fbfa77cf146102fc5763fd267f3914610189575f80fd5b346102f95760403660031901126102f9576101a2611c42565b6024356101ad612302565b6706f05b59d3b2000081116102ea576101c581612520565b6101ce82611e15565b826101d882611fb5565b92604051936101e685611cda565b6001600160401b039081168552600160208087019182526001600160a01b03848116808752600290925260408087209851895494516001600160481b031990951695169490941792151590931b60ff60401b16919091179095557f0000000000000000000000000000000000000000000000000000000000000000169061026c8161262d565b823b156102e65761029692849283604051809681958294631782c1bd60e21b8452600484016120d9565b03925af180156102db576102c2575b505060205f805160206126ea83398151915291604051908152a280f35b816102cc91611d09565b6102d757825f6102a5565b8280fd5b6040513d84823e3d90fd5b8380fd5b637e6eb7fb60e01b8352600483fd5b80fd5b50346102f957806003193601126102f9576040517f00000000000000000000000000000000000000000000000000000000000000006001600160a01b03168152602090f35b50346102f95760203660031901126102f95761035b611c42565b6103636122bd565b6040516347a55ce560e11b81526001600160a01b0382811660048301819052937f000000000000000000000000000000000000000000000000000000000000000090911690808360248183865af192831561096d578190829461090c575b50858252600260205260018060401b0360408320541690868352600560205260408320549183831580159485610902575b856108ef575b506104028961241d565b9590875b8781106106d5578c8952600360205260408920548d908d908d908d906001600160401b03168d8061068457505f93855f52600660205260405f2054905f91801591821591826106cb575b826106b4575b506104609061241d565b97905f5b89811061046d57005b610477818a611ded565b51610485575b600101610464565b9091906001600160a01b0361049a8285611ded565b5116916104a7828b611ded565b51893b156106b05760405163ae63932960e01b81526004810185905230602482015260448101919091528181606481838e5af180156102db57908291610698575b5061068457505f929190818c7fe505e41b0d437b47350a9990142ccf38acb11ffa0e5af8f973b9e172f3d5d5e26020610521858f611ded565b51604051908152a3841561060c57610539818b611ded565b5187156105fd578861054d61055f92611ff3565b60018a5f198301040190151502612017565b6001670de0b6b3a76400005f1983010401901515028c5f52600760205260405f2060018060a01b0384165f5260205260405f2061059d828254611fe6565b90556105a9828c611ded565b519081039081116105e9576001928d5f52600860205260405f2090848060a01b03165f526020526105df60405f20918254611fe6565b90555b905061047d565b634e487b7160e01b5f52601160045260245ffd5b630a0c22c760e01b5f5260045ffd5b60019186156106505761061f828c611ded565b51908d5f52600760205260405f2090848060a01b03165f5260205261064960405f20918254611fe6565b90556105e2565b61065a828c611ded565b51908d5f52600860205260405f2090848060a01b03165f5260205261064960405f20918254611fe6565b634e487b7160e01b81526021600452602490fd5b906106a291611d09565b805f126102f957808d6104e8565b5080fd5b6104609194506106c4908661202a565b9390610456565b8515159250610450565b6106df8188611ded565b516106ed575b600101610406565b6001600160a01b036106ff8284611ded565b51169061070c8189611ded565b518b3b156108eb578a8c60648293604051948593849263ae63932960e01b845289600485015230602485015260448401525af180156108e057908b80926108c7575b50506108b357818e7fae7ebad9fc3d1d17965f063fa520d393595e2ef6c8e22ae8413b60900444e19f6020610783858d611ded565b51604051908152a38d841561083d575061079d8189611ded565b5186156105fd576107b38f9161054d8a91611ff3565b6001670de0b6b3a76400005f198301040190151502905f52600760205260405f2060018060a01b0384165f5260205260405f206107f1828254611fe6565b90556107fd828a611ded565b519081039081116105e9576001928f5f52600860205260405f2090848060a01b03165f5260205261083360405f20918254611fe6565b90555b90506106e5565b600192861561088057610850838b611ded565b51915f52600760205260405f2090848060a01b03165f5260205261087960405f20918254611fe6565b9055610836565b61088a838b611ded565b51915f52600860205260405f2090848060a01b03165f5260205261087960405f20918254611fe6565b634e487b7160e01b8a52602160045260248afd5b6108d091611d09565b6108dc57895f8161074e565b8980fd5b6040513d8d823e3d90fd5b8a80fd5b6108fb9192508361202a565b905f6103f8565b83151595506103f2565b9350503d8082853e61091e8185611d09565b83016040848203126106b05783516001600160401b0381116102d75781610946918601611f58565b602085015190946001600160401b0382116102e657610966929101611f58565b925f6103c1565b50604051903d90823e3d90fd5b50346102f95760403660031901126102f9576109ae610997611c42565b61099f611c58565b906109a981612073565b6121ee565b80f35b50346102f95760403660031901126102f9576109cb611c42565b6109d3611c58565b906109dc612302565b6109e58161241d565b9290845b8481106109f4578580f35b600190610a156001600160a01b03610a0c8386611ded565b51168587612559565b016109e9565b50346102f95760203660031901126102f95760209060ff906040906001600160a01b03610a46611c42565b168152600484522054166040519015158152f35b50346102f95760603660031901126102f957610a74611c42565b610a7c611c58565b604435906001600160a01b038216808303610b3657610a99612302565b6040805163c9c1661b60e01b81526001600160a01b038681166004830152602482019390935291829060449082907f0000000000000000000000000000000000000000000000000000000000000000165afa8015610b2b57610b00575b506109ae92612559565b604090813d8311610b24575b610b168183611d09565b810103126102e6575f610af6565b503d610b0c565b6040513d87823e3d90fd5b8480fd5b50346102f95760403660031901126102f957610b54611c42565b602435610b5f612302565b6706f05b59d3b200008111610c8957610b7781612520565b610b8082611e15565b82610b8a82611fb5565b9260405193610b9885611cda565b6001600160401b039081168552600160208087019182526001600160a01b03848116808752600390925260408087209851895494516001600160481b031990951695169490941792151590931b60ff60401b16919091179095557f00000000000000000000000000000000000000000000000000000000000000001690610c1e816125f8565b823b156102e657610c4892849283604051809681958294637129b38560e11b8452600484016120d9565b03925af180156102db57610c74575b505060205f8051602061270a83398151915291604051908152a280f35b81610c7e91611d09565b6102d757825f610c57565b6353c24f4760e11b8352600483fd5b50346102f957806003193601126102f95760405163aaabadc560e01b81526020816004817f00000000000000000000000000000000000000000000000000000000000000006001600160a01b03165afa9081156102db5760209291610d0b575b506040516001600160a01b039091168152f35b610d2b9150823d8411610d31575b610d238183611d09565b810190611f39565b5f610cf8565b503d610d19565b50346102f95760203660031901126102f957600435610d55612302565b6706f05b59d3b200008111610d9f57602081610d917f48c5c3ccec54c4e0ea08d83d838fa9bb725eb0b52c591cb00bd6e63bca8c44f693612520565b80600155604051908152a180f35b6353c24f4760e11b8252600482fd5b50346102f95760203660031901126102f957610dc8611c42565b90610dd28261241d565b91610ddc83611dbb565b936001600160a01b0316815b848110610e015760405180610dfd8882611ca1565b0390f35b818352600860205260408320600191906001600160a01b03610e238388611ded565b5116838060a01b03165f5260205260405f2054610e408289611ded565b5201610de8565b50346102f95760203660031901126102f9576109ae610e64611c42565b611e15565b50346102f95760203660031901126102f957610e83611c42565b90610e8d8261241d565b91610e9783611dbb565b936001600160a01b0316815b848110610eb85760405180610dfd8882611ca1565b818352600760205260408320600191906001600160a01b03610eda8388611ded565b5116838060a01b03165f5260205260405f2054610ef78289611ded565b5201610ea3565b50346102f957806003193601126102f9576040517f00000000000000000000000000000000000000000000000000000000000000006001600160a01b03168152602090f35b50346102f95760203660031901126102f957600435610f60612302565b6706f05b59d3b200008111610fa957602081610f9c7fbf5ac0fc89bbf8819be79f280146b65ea2af2a9705cd9cfe0c9d93f6e87f307d93612520565b808455604051908152a180f35b637e6eb7fb60e01b8252600482fd5b50346102f95760203660031901126102f957600435906001600160e01b0319821682036102f9576020610fea83611d56565b604051908152f35b50346102f95760203660031901126102f9576020906040906001600160a01b0361101a611c42565b16815260038352206040519061102f82611cda565b546001600160401b038116808352604091821c60ff1615159390920183905251918291610dfd919083611c90565b50346102f957806003193601126102f95760209054604051908152f35b50346102f95760603660031901126102f957611094611c42565b9061109d611c58565b9060443591821515908184036102d7577fd9725c347996d9a5d6001b5f7c2a2515d365258012fceff4f49e84310ed0791260206040966110db6122bd565b6001600160a01b031680865260048252878620805460ff1916600117905592861561123957835f8051602061272a83398151915261121188995b801561123057895b6111268c611fb5565b8d519061113282611cda565b60018f81901b031681528781018b8152868352600289528e8320918f600180911b03905116825491604060ff901b9051151560401b169160018060481b0319161717905561117f8b611fb5565b908d519161118c83611cda565b60018f81901b031682528d888301918c835287815260038a52209160018f81901b039051168254918f60ff901b9051151560401b169160018060481b03191617179055837fa34ad86562f9716c2f1e723934cc63f44a9b4695cb8535c30dd8308d03a78564828d8f611202905192839283611c90565b0390a28b519182918b83611c90565b0390a287519485526001600160a01b031693a382519182526020820152f35b6001549961111d565b835f8051602061272a833981519152611211885499611115565b50346102f95760203660031901126102f95761126d611c42565b61127681611e15565b6001600160a01b0381168083526002602052604080842090519192849161129c84611cda565b549260ff60018060401b0385169485835260401c16159060208215910152825493816113cd575b506112cc575080f35b6112d583611fb5565b604051906112e282611cda565b6001600160401b0390811682526020808301858152878652600290915260408086209351845492516001600160481b031990931693169290921790151590911b60ff60401b161790557f00000000000000000000000000000000000000000000000000000000000000006001600160a01b03169061135f8161262d565b823b156102e65761138992849283604051809681958294631782c1bd60e21b8452600484016120d9565b03925af180156102db576113b8575b505060205f805160206126ea83398151915291604051908152a25f808280f35b816113c291611d09565b6102d757825f611398565b90508314155f6112c3565b50346102f95760203660031901126102f9576113f2611c42565b6113fb81611e15565b6001600160a01b0381168083526003602052604080842090519192849161142184611cda565b549260ff60018060401b0385169485835260401c161590602082159101526001549381611553575b50611452575080f35b61145b83611fb5565b6040519061146882611cda565b6001600160401b0390811682526020808301858152878652600390915260408086209351845492516001600160481b031990931693169290921790151590911b60ff60401b161790557f00000000000000000000000000000000000000000000000000000000000000006001600160a01b0316906114e5816125f8565b823b156102e65761150f92849283604051809681958294637129b38560e11b8452600484016120d9565b03925af180156102db5761153e575b505060205f8051602061270a83398151915291604051908152a25f808280f35b8161154891611d09565b6102d757825f61151e565b90508314155f611449565b611c6e565b50346102f95760203660031901126102f9576020906040906001600160a01b0361158b611c42565b16815260028352206040519061102f82611cda565b50346102f957806003193601126102f9576020600154604051908152f35b50346102f95760203660031901126102f9576109ae6115db611c42565b6115e481612108565b906121ee565b50346102f95760403660031901126102f957611604611c42565b60243561161082612073565b670de0ad9b58f1600081116116ef5761162882611e15565b6001600160a01b038281168085526006602052604085208390559284917f00000000000000000000000000000000000000000000000000000000000000001690611671816125f8565b823b156102e65761169b92849283604051809681958294637129b38560e11b8452600484016120d9565b03925af180156102db576116da575b505060207f47f70ddbc624c299cef7841aaea0a86b677c800203e953104e958c9ec9bdab3491604051908152a280f35b816116e491611d09565b6102d757825f6116aa565b62dc369d60e21b8352600483fd5b50346102f957806003193601126102f9576020604051670de0ad9b58f160008152f35b50346118315760403660031901126118315761173a611c42565b60243561174682612073565b670de0ad9b58f1600081116118355761175e82611e15565b6001600160a01b038281165f818152600560205260409020839055927f0000000000000000000000000000000000000000000000000000000000000000909116906117a88161262d565b823b15611831576117d2925f9283604051809681958294631782c1bd60e21b8452600484016120d9565b03925af1801561182657611810575b5060207fb7cf36369623c01ed7b2eafc4025224e924a2836d5fb49428a0f65417586bf5c91604051908152a280f35b61181d9193505f90611d09565b5f9160206117e1565b6040513d5f823e3d90fd5b5f80fd5b62dc369d60e21b5f5260045ffd5b34611831576040366003190112611831576020610fea60243560043561202a565b34611831576020366003190112611831576001600160a01b03611885611c42565b165f526005602052602060405f2054604051908152f35b34611831576020366003190112611831576118b5611c42565b60405163217cb6f560e21b81526020816004817f00000000000000000000000000000000000000000000000000000000000000006001600160a01b03165afa908115611826575f91611bcc575b506001600160a01b031690308214611bbd576001600160a01b03165f8181526004602052604090205460ff16611bab57805f52600460205260405f20600160ff19825416179055604051631705682d60e21b8152816004820152604081602481865afa908115611826575f905f92611b87575b5061197f90611fb5565b906040519161198d83611cda565b6001600160401b03908116835290151560208084019182525f85815260029091526040908190209351845492516001600160481b0319909316931692909217901515821b60ff60401b16179091558051631e8ae5f760e21b8152600481018390529081602481865afa908115611826575f905f92611b53575b50611a1090611fb5565b9060405191611a1e83611cda565b6001600160401b03908116835290151560208084019182525f858152600382526040908190209451855493516001600160481b0319909416941693909317911515831b60ff60401b169190911790925551630b8e059b60e01b8152600481018390529081602481865afa5f9181611b1c575b5092602091602494611b0a575b5060405193848092630252aab560e01b82528560048301525afa5f9281611ad6575b50611ac657005b5f52600660205260405f20555f80f35b9092506020813d602011611b02575b81611af260209383611d09565b8101031261183157519183611abf565b3d9150611ae5565b835f526005835260405f205584611a9d565b9150926020823d602011611b4b575b81611b3860209383611d09565b8101031261183157905190926024611a90565b3d9150611b2b565b611a109250611b7a915060403d604011611b80575b611b728183611d09565b810190611d39565b91611a06565b503d611b68565b61197f9250611ba5915060403d604011611b8057611b728183611d09565b91611975565b6301b6ee3960e71b5f5260045260245ffd5b63b82fd5bf60e01b5f5260045ffd5b90506020813d602011611c06575b81611be760209383611d09565b8101031261183157516001600160a01b03811681036118315782611902565b3d9150611bda565b34611831576020366003190112611831576020906001600160a01b03611c32611c42565b165f526006825260405f20548152f35b600435906001600160a01b038216820361183157565b602435906001600160a01b038216820361183157565b34611831575f3660031901126118315760206040516706f05b59d3b200008152f35b908152901515602082015260400190565b60206040818301928281528451809452019201905f5b818110611cc45750505090565b8251845260209384019390920191600101611cb7565b604081019081106001600160401b03821117611cf557604052565b634e487b7160e01b5f52604160045260245ffd5b601f909101601f19168101906001600160401b03821190821017611cf557604052565b5190811515820361183157565b919082604091031261183157611d53602083519301611d2c565b90565b60405160208101917f0000000000000000000000000000000000000000000000000000000000000000835263ffffffff60e01b16604082015260248152611d9e604482611d09565b51902090565b6001600160401b038111611cf55760051b60200190565b90611dc582611da4565b611dd26040519182611d09565b8281528092611de3601f1991611da4565b0190602036910137565b8051821015611e015760209160051b010190565b634e487b7160e01b5f52603260045260245ffd5b5f6040516020810192637d1ccf9560e11b845260018060a01b0316602482015260248152611e44604482611d09565b6044604051809481936348c8949160e01b8352602060048401525180918160248501528484015e8181018301859052601f01601f19168101030181837f00000000000000000000000000000000000000000000000000000000000000006001600160a01b03165af1801561182657611eb95750565b3d805f833e611ec88183611d09565b810190602081830312611831578051906001600160401b038211611831570181601f820112156118315780516001600160401b038111611cf55760405192611f1a601f8301601f191660200185611d09565b81845260208284010111611831575f928160208094018483015e010152565b9081602091031261183157516001600160a01b03811681036118315790565b9080601f83011215611831578151611f6f81611da4565b92611f7d6040519485611d09565b81845260208085019260051b82010192831161183157602001905b828210611fa55750505090565b8151815260209182019101611f98565b6001600160401b038111611fcf576001600160401b031690565b6306dfcc6560e41b5f52604060045260245260445ffd5b919082018092116105e957565b90670de0b6b3a7640000820291808304670de0b6b3a764000014901517156105e957565b818102929181159184041417156105e957565b61205490670de0b6b3a764000061204d64174876e8009483830383851002612017565b0490611fe6565b0464174876e80081029080820464174876e80014901517156105e95790565b6001600160a01b0361208482612108565b1680156120b85733036120945750565b633efb36fd60e21b5f908152336004526001600160a01b0391909116602452604490fd5b50638bcbf35360e01b5f9081526001600160a01b0391909116600452602490fd5b6001600160a01b039091168152602081019190915260400190565b51906001600160a01b038216820361183157565b6040516374eef59360e11b81526001600160a01b03918216600482015290606090829060249082907f0000000000000000000000000000000000000000000000000000000000000000165afa908115611826575f91612173575b50604001516001600160a01b031690565b90506060813d6060116121e6575b8161218e60609383611d09565b810103126118315760405190606082016001600160401b03811183821017611cf5576121db9160409182526121c2816120f4565b84526121d0602082016120f4565b6020850152016120f4565b60408201525f612162565b3d9150612181565b906121f88261241d565b92905f5b84811061220a575050505050565b6001906001600160a01b0361221f8285611ded565b5116828060a01b03851690815f52600860205260405f20848060a01b0382165f5260205260405f20549182612258575b505050016121fc565b805f52600860205260405f20858060a01b0383165f526020525f6040812055612282838984612662565b6040519283527f938f3a3a03ee425ccc0f8010b0468938cbafd3750fa43bbdf09c6f75e97e51f96020868060a01b038a1694a45f808061224f565b7f00000000000000000000000000000000000000000000000000000000000000006001600160a01b031633036122ef57565b63089676d560e01b5f523360045260245ffd5b6123165f356001600160e01b031916611d56565b60405163aaabadc560e01b8152906020826004817f00000000000000000000000000000000000000000000000000000000000000006001600160a01b03165afa918215611826575f926123fb575b506040516326f8aa2160e21b8152600481019190915233602482015230604482015290602090829060649082906001600160a01b03165afa908115611826575f916123c1575b50156123b257565b6323dada5360e01b5f5260045ffd5b90506020813d6020116123f3575b816123dc60209383611d09565b81010312611831576123ed90611d2c565b5f6123aa565b3d91506123cf565b602091925061241690823d8411610d3157610d238183611d09565b9190612364565b60405163ca4f280360e01b81526001600160a01b03918216600482015291905f90839060249082907f0000000000000000000000000000000000000000000000000000000000000000165afa918215611826575f9261247d575b50815190565b9091503d805f833e61248f8183611d09565b810190602081830312611831578051906001600160401b03821161183157019080601f83011215611831578151906124c682611da4565b926124d46040519485611d09565b82845260208085019360051b82010191821161183157602001915b81831061250057505050905f612477565b82516001600160a01b0381168103611831578152602092830192016124ef565b64174876e800810464174876e80081029080820464174876e80014901517156105e9570361254a57565b63419fd9e760e11b5f5260045ffd5b60018060a01b0316805f52600760205260405f2060018060a01b0384165f5260205260405f2054918261258d575b50505050565b60207f1c2887fcb98f75e66bb9a36311f2d3d22fb204e6362106f30e9df7eaf63131b591835f526007825260405f2060018060a01b0387165f5282525f60408120556125da858288612662565b6040519485526001600160a01b03908116951693a45f808080612587565b6001600160a01b03165f90815260036020908152604080832054600690925290912054611d53916001600160401b031661202a565b6001600160a01b03165f90815260026020908152604080832054600590925290912054611d53916001600160401b031661202a565b9160209161268b6126995f936040519283918783019563a9059cbb60e01b8752602484016120d9565b03601f198101835282611d09565b519082855af115611826575f513d6126e057506001600160a01b0381163b155b6126c05750565b635274afe760e01b5f9081526001600160a01b0391909116600452602490fd5b600114156126b956fe97cff4b6e6d80e307faab8b730d9f69264e860f2e0e10cfb8cdaf8a2f44e839eaf47449d1c3597ccc9f5ec3acad03cef57aa90a719000441b320687087948efdce1d009285405b74cf77294916c17664de2c84eef81225c71f265f823b358bcba2646970667358221220989a6a32b0f2548fd932f25c77be681dab169467229e10e1bfc0c14bbd8f7c5e64736f6c634300081a0033",
  "linkReferences": {},
  "deployedLinkReferences": {}
}