{
  "_format": "hh-sol-artifact-1",
  "contractName": "StablePool",
  "sourceName": "contracts/_StablePool.sol",
  "abi": [
    {
      "inputs": [
        {
          "components": [
            {
              "internalType": "string",
              "name": "name",
              "type": "string"
            },
            {
              "internalType": "string",
              "name": "symbol",
              "type": "string"
            },
            {
              "internalType": "uint256",
              "name": "amplificationParameter",
              "type": "uint256"
            },
            {
              "internalType": "string",
              "name": "version",
              "type": "string"
            }
          ],
          "internalType": "struct StablePool.NewPoolParams",
          "name": "params",
          "type": "tuple"
        },
        {
          "internalType": "contract IVault",
          "name": "vault",
          "type": "address"
        }
      ],
      "stateMutability": "nonpayable",
      "type": "constructor"
    },
    {
      "inputs": [],
      "name": "AmpUpdateAlreadyStarted",
      "type": "error"
    },
    {
      "inputs": [],
      "name": "AmpUpdateDurationTooShort",
      "type": "error"
    },
    {
      "inputs": [],
      "name": "AmpUpdateNotStarted",
      "type": "error"
    },
    {
      "inputs": [],
      "name": "AmpUpdateRateTooFast",
      "type": "error"
    },
    {
      "inputs": [],
      "name": "AmplificationFactorTooHigh",
      "type": "error"
    },
    {
      "inputs": [],
      "name": "AmplificationFactorTooLow",
      "type": "error"
    },
    {
      "inputs": [],
      "name": "ECDSAInvalidSignature",
      "type": "error"
    },
    {
      "inputs": [
        {
          "internalType": "uint256",
          "name": "length",
          "type": "uint256"
        }
      ],
      "name": "ECDSAInvalidSignatureLength",
      "type": "error"
    },
    {
      "inputs": [
        {
          "internalType": "bytes32",
          "name": "s",
          "type": "bytes32"
        }
      ],
      "name": "ECDSAInvalidSignatureS",
      "type": "error"
    },
    {
      "inputs": [
        {
          "internalType": "uint256",
          "name": "deadline",
          "type": "uint256"
        }
      ],
      "name": "ERC2612ExpiredSignature",
      "type": "error"
    },
    {
      "inputs": [
        {
          "internalType": "address",
          "name": "signer",
          "type": "address"
        },
        {
          "internalType": "address",
          "name": "owner",
          "type": "address"
        }
      ],
      "name": "ERC2612InvalidSigner",
      "type": "error"
    },
    {
      "inputs": [
        {
          "internalType": "address",
          "name": "account",
          "type": "address"
        },
        {
          "internalType": "uint256",
          "name": "currentNonce",
          "type": "uint256"
        }
      ],
      "name": "InvalidAccountNonce",
      "type": "error"
    },
    {
      "inputs": [],
      "name": "InvalidShortString",
      "type": "error"
    },
    {
      "inputs": [
        {
          "internalType": "uint8",
          "name": "bits",
          "type": "uint8"
        },
        {
          "internalType": "uint256",
          "name": "value",
          "type": "uint256"
        }
      ],
      "name": "SafeCastOverflowedUintDowncast",
      "type": "error"
    },
    {
      "inputs": [
        {
          "internalType": "address",
          "name": "sender",
          "type": "address"
        }
      ],
      "name": "SenderIsNotVault",
      "type": "error"
    },
    {
      "inputs": [],
      "name": "SenderNotAllowed",
      "type": "error"
    },
    {
      "inputs": [],
      "name": "StableComputeBalanceDidNotConverge",
      "type": "error"
    },
    {
      "inputs": [],
      "name": "StableInvariantDidNotConverge",
      "type": "error"
    },
    {
      "inputs": [
        {
          "internalType": "string",
          "name": "str",
          "type": "string"
        }
      ],
      "name": "StringTooLong",
      "type": "error"
    },
    {
      "inputs": [],
      "name": "VaultNotSet",
      "type": "error"
    },
    {
      "inputs": [],
      "name": "ZeroDivision",
      "type": "error"
    },
    {
      "anonymous": false,
      "inputs": [
        {
          "indexed": false,
          "internalType": "uint256",
          "name": "startValue",
          "type": "uint256"
        },
        {
          "indexed": false,
          "internalType": "uint256",
          "name": "endValue",
          "type": "uint256"
        },
        {
          "indexed": false,
          "internalType": "uint256",
          "name": "startTime",
          "type": "uint256"
        },
        {
          "indexed": false,
          "internalType": "uint256",
          "name": "endTime",
          "type": "uint256"
        }
      ],
      "name": "AmpUpdateStarted",
      "type": "event"
    },
    {
      "anonymous": false,
      "inputs": [
        {
          "indexed": false,
          "internalType": "uint256",
          "name": "currentValue",
          "type": "uint256"
        }
      ],
      "name": "AmpUpdateStopped",
      "type": "event"
    },
    {
      "anonymous": false,
      "inputs": [
        {
          "indexed": true,
          "internalType": "address",
          "name": "owner",
          "type": "address"
        },
        {
          "indexed": true,
          "internalType": "address",
          "name": "spender",
          "type": "address"
        },
        {
          "indexed": false,
          "internalType": "uint256",
          "name": "value",
          "type": "uint256"
        }
      ],
      "name": "Approval",
      "type": "event"
    },
    {
      "anonymous": false,
      "inputs": [],
      "name": "EIP712DomainChanged",
      "type": "event"
    },
    {
      "anonymous": false,
      "inputs": [
        {
          "indexed": true,
          "internalType": "address",
          "name": "from",
          "type": "address"
        },
        {
          "indexed": true,
          "internalType": "address",
          "name": "to",
          "type": "address"
        },
        {
          "indexed": false,
          "internalType": "uint256",
          "name": "value",
          "type": "uint256"
        }
      ],
      "name": "Transfer",
      "type": "event"
    },
    {
      "inputs": [],
      "name": "DOMAIN_SEPARATOR",
      "outputs": [
        {
          "internalType": "bytes32",
          "name": "",
          "type": "bytes32"
        }
      ],
      "stateMutability": "view",
      "type": "function"
    },
    {
      "inputs": [],
      "name": "PERMIT_TYPEHASH",
      "outputs": [
        {
          "internalType": "bytes32",
          "name": "",
          "type": "bytes32"
        }
      ],
      "stateMutability": "view",
      "type": "function"
    },
    {
      "inputs": [
        {
          "internalType": "address",
          "name": "owner",
          "type": "address"
        },
        {
          "internalType": "address",
          "name": "spender",
          "type": "address"
        }
      ],
      "name": "allowance",
      "outputs": [
        {
          "internalType": "uint256",
          "name": "",
          "type": "uint256"
        }
      ],
      "stateMutability": "view",
      "type": "function"
    },
    {
      "inputs": [
        {
          "internalType": "address",
          "name": "spender",
          "type": "address"
        },
        {
          "internalType": "uint256",
          "name": "amount",
          "type": "uint256"
        }
      ],
      "name": "approve",
      "outputs": [
        {
          "internalType": "bool",
          "name": "",
          "type": "bool"
        }
      ],
      "stateMutability": "nonpayable",
      "type": "function"
    },
    {
      "inputs": [
        {
          "internalType": "address",
          "name": "account",
          "type": "address"
        }
      ],
      "name": "balanceOf",
      "outputs": [
        {
          "internalType": "uint256",
          "name": "",
          "type": "uint256"
        }
      ],
      "stateMutability": "view",
      "type": "function"
    },
    {
      "inputs": [
        {
          "internalType": "uint256[]",
          "name": "balancesLiveScaled18",
          "type": "uint256[]"
        },
        {
          "internalType": "uint256",
          "name": "tokenInIndex",
          "type": "uint256"
        },
        {
          "internalType": "uint256",
          "name": "invariantRatio",
          "type": "uint256"
        }
      ],
      "name": "computeBalance",
      "outputs": [
        {
          "internalType": "uint256",
          "name": "newBalance",
          "type": "uint256"
        }
      ],
      "stateMutability": "view",
      "type": "function"
    },
    {
      "inputs": [
        {
          "internalType": "uint256[]",
          "name": "balancesLiveScaled18",
          "type": "uint256[]"
        },
        {
          "internalType": "enum Rounding",
          "name": "rounding",
          "type": "uint8"
        }
      ],
      "name": "computeInvariant",
      "outputs": [
        {
          "internalType": "uint256",
          "name": "",
          "type": "uint256"
        }
      ],
      "stateMutability": "view",
      "type": "function"
    },
    {
      "inputs": [],
      "name": "decimals",
      "outputs": [
        {
          "internalType": "uint8",
          "name": "",
          "type": "uint8"
        }
      ],
      "stateMutability": "pure",
      "type": "function"
    },
    {
      "inputs": [],
      "name": "eip712Domain",
      "outputs": [
        {
          "internalType": "bytes1",
          "name": "fields",
          "type": "bytes1"
        },
        {
          "internalType": "string",
          "name": "name",
          "type": "string"
        },
        {
          "internalType": "string",
          "name": "version",
          "type": "string"
        },
        {
          "internalType": "uint256",
          "name": "chainId",
          "type": "uint256"
        },
        {
          "internalType": "address",
          "name": "verifyingContract",
          "type": "address"
        },
        {
          "internalType": "bytes32",
          "name": "salt",
          "type": "bytes32"
        },
        {
          "internalType": "uint256[]",
          "name": "extensions",
          "type": "uint256[]"
        }
      ],
      "stateMutability": "view",
      "type": "function"
    },
    {
      "inputs": [
        {
          "internalType": "address",
          "name": "owner",
          "type": "address"
        },
        {
          "internalType": "address",
          "name": "spender",
          "type": "address"
        },
        {
          "internalType": "uint256",
          "name": "amount",
          "type": "uint256"
        }
      ],
      "name": "emitApproval",
      "outputs": [],
      "stateMutability": "nonpayable",
      "type": "function"
    },
    {
      "inputs": [
        {
          "internalType": "address",
          "name": "from",
          "type": "address"
        },
        {
          "internalType": "address",
          "name": "to",
          "type": "address"
        },
        {
          "internalType": "uint256",
          "name": "amount",
          "type": "uint256"
        }
      ],
      "name": "emitTransfer",
      "outputs": [],
      "stateMutability": "nonpayable",
      "type": "function"
    },
    {
      "inputs": [
        {
          "internalType": "bytes4",
          "name": "selector",
          "type": "bytes4"
        }
      ],
      "name": "getActionId",
      "outputs": [
        {
          "internalType": "bytes32",
          "name": "",
          "type": "bytes32"
        }
      ],
      "stateMutability": "view",
      "type": "function"
    },
    {
      "inputs": [],
      "name": "getAggregateFeePercentages",
      "outputs": [
        {
          "internalType": "uint256",
          "name": "aggregateSwapFeePercentage",
          "type": "uint256"
        },
        {
          "internalType": "uint256",
          "name": "aggregateYieldFeePercentage",
          "type": "uint256"
        }
      ],
      "stateMutability": "view",
      "type": "function"
    },
    {
      "inputs": [],
      "name": "getAmplificationParameter",
      "outputs": [
        {
          "internalType": "uint256",
          "name": "value",
          "type": "uint256"
        },
        {
          "internalType": "bool",
          "name": "isUpdating",
          "type": "bool"
        },
        {
          "internalType": "uint256",
          "name": "precision",
          "type": "uint256"
        }
      ],
      "stateMutability": "view",
      "type": "function"
    },
    {
      "inputs": [],
      "name": "getAmplificationState",
      "outputs": [
        {
          "components": [
            {
              "internalType": "uint64",
              "name": "startValue",
              "type": "uint64"
            },
            {
              "internalType": "uint64",
              "name": "endValue",
              "type": "uint64"
            },
            {
              "internalType": "uint32",
              "name": "startTime",
              "type": "uint32"
            },
            {
              "internalType": "uint32",
              "name": "endTime",
              "type": "uint32"
            }
          ],
          "internalType": "struct AmplificationState",
          "name": "amplificationState",
          "type": "tuple"
        },
        {
          "internalType": "uint256",
          "name": "precision",
          "type": "uint256"
        }
      ],
      "stateMutability": "view",
      "type": "function"
    },
    {
      "inputs": [],
      "name": "getCurrentLiveBalances",
      "outputs": [
        {
          "internalType": "uint256[]",
          "name": "balancesLiveScaled18",
          "type": "uint256[]"
        }
      ],
      "stateMutability": "view",
      "type": "function"
    },
    {
      "inputs": [],
      "name": "getMaximumInvariantRatio",
      "outputs": [
        {
          "internalType": "uint256",
          "name": "",
          "type": "uint256"
        }
      ],
      "stateMutability": "pure",
      "type": "function"
    },
    {
      "inputs": [],
      "name": "getMaximumSwapFeePercentage",
      "outputs": [
        {
          "internalType": "uint256",
          "name": "",
          "type": "uint256"
        }
      ],
      "stateMutability": "pure",
      "type": "function"
    },
    {
      "inputs": [],
      "name": "getMinimumInvariantRatio",
      "outputs": [
        {
          "internalType": "uint256",
          "name": "",
          "type": "uint256"
        }
      ],
      "stateMutability": "pure",
      "type": "function"
    },
    {
      "inputs": [],
      "name": "getMinimumSwapFeePercentage",
      "outputs": [
        {
          "internalType": "uint256",
          "name": "",
          "type": "uint256"
        }
      ],
      "stateMutability": "pure",
      "type": "function"
    },
    {
      "inputs": [],
      "name": "getRate",
      "outputs": [
        {
          "internalType": "uint256",
          "name": "",
          "type": "uint256"
        }
      ],
      "stateMutability": "view",
      "type": "function"
    },
    {
      "inputs": [],
      "name": "getStablePoolDynamicData",
      "outputs": [
        {
          "components": [
            {
              "internalType": "uint256[]",
              "name": "balancesLiveScaled18",
              "type": "uint256[]"
            },
            {
              "internalType": "uint256[]",
              "name": "tokenRates",
              "type": "uint256[]"
            },
            {
              "internalType": "uint256",
              "name": "staticSwapFeePercentage",
              "type": "uint256"
            },
            {
              "internalType": "uint256",
              "name": "totalSupply",
              "type": "uint256"
            },
            {
              "internalType": "uint256",
              "name": "bptRate",
              "type": "uint256"
            },
            {
              "internalType": "uint256",
              "name": "amplificationParameter",
              "type": "uint256"
            },
            {
              "internalType": "uint256",
              "name": "startValue",
              "type": "uint256"
            },
            {
              "internalType": "uint256",
              "name": "endValue",
              "type": "uint256"
            },
            {
              "internalType": "uint32",
              "name": "startTime",
              "type": "uint32"
            },
            {
              "internalType": "uint32",
              "name": "endTime",
              "type": "uint32"
            },
            {
              "internalType": "bool",
              "name": "isAmpUpdating",
              "type": "bool"
            },
            {
              "internalType": "bool",
              "name": "isPoolInitialized",
              "type": "bool"
            },
            {
              "internalType": "bool",
              "name": "isPoolPaused",
              "type": "bool"
            },
            {
              "internalType": "bool",
              "name": "isPoolInRecoveryMode",
              "type": "bool"
            }
          ],
          "internalType": "struct StablePoolDynamicData",
          "name": "data",
          "type": "tuple"
        }
      ],
      "stateMutability": "view",
      "type": "function"
    },
    {
      "inputs": [],
      "name": "getStablePoolImmutableData",
      "outputs": [
        {
          "components": [
            {
              "internalType": "contract IERC20[]",
              "name": "tokens",
              "type": "address[]"
            },
            {
              "internalType": "uint256[]",
              "name": "decimalScalingFactors",
              "type": "uint256[]"
            },
            {
              "internalType": "uint256",
              "name": "amplificationParameterPrecision",
              "type": "uint256"
            }
          ],
          "internalType": "struct StablePoolImmutableData",
          "name": "data",
          "type": "tuple"
        }
      ],
      "stateMutability": "view",
      "type": "function"
    },
    {
      "inputs": [],
      "name": "getStaticSwapFeePercentage",
      "outputs": [
        {
          "internalType": "uint256",
          "name": "",
          "type": "uint256"
        }
      ],
      "stateMutability": "view",
      "type": "function"
    },
    {
      "inputs": [],
      "name": "getTokenInfo",
      "outputs": [
        {
          "internalType": "contract IERC20[]",
          "name": "tokens",
          "type": "address[]"
        },
        {
          "components": [
            {
              "internalType": "enum TokenType",
              "name": "tokenType",
              "type": "uint8"
            },
            {
              "internalType": "contract IRateProvider",
              "name": "rateProvider",
              "type": "address"
            },
            {
              "internalType": "bool",
              "name": "paysYieldFees",
              "type": "bool"
            }
          ],
          "internalType": "struct TokenInfo[]",
          "name": "tokenInfo",
          "type": "tuple[]"
        },
        {
          "internalType": "uint256[]",
          "name": "balancesRaw",
          "type": "uint256[]"
        },
        {
          "internalType": "uint256[]",
          "name": "lastBalancesLiveScaled18",
          "type": "uint256[]"
        }
      ],
      "stateMutability": "view",
      "type": "function"
    },
    {
      "inputs": [],
      "name": "getTokens",
      "outputs": [
        {
          "internalType": "contract IERC20[]",
          "name": "tokens",
          "type": "address[]"
        }
      ],
      "stateMutability": "view",
      "type": "function"
    },
    {
      "inputs": [],
      "name": "getVault",
      "outputs": [
        {
          "internalType": "contract IVault",
          "name": "",
          "type": "address"
        }
      ],
      "stateMutability": "view",
      "type": "function"
    },
    {
      "inputs": [],
      "name": "incrementNonce",
      "outputs": [],
      "stateMutability": "nonpayable",
      "type": "function"
    },
    {
      "inputs": [],
      "name": "name",
      "outputs": [
        {
          "internalType": "string",
          "name": "",
          "type": "string"
        }
      ],
      "stateMutability": "view",
      "type": "function"
    },
    {
      "inputs": [
        {
          "internalType": "address",
          "name": "owner",
          "type": "address"
        }
      ],
      "name": "nonces",
      "outputs": [
        {
          "internalType": "uint256",
          "name": "",
          "type": "uint256"
        }
      ],
      "stateMutability": "view",
      "type": "function"
    },
    {
      "inputs": [
        {
          "components": [
            {
              "internalType": "enum SwapKind",
              "name": "kind",
              "type": "uint8"
            },
            {
              "internalType": "uint256",
              "name": "amountGivenScaled18",
              "type": "uint256"
            },
            {
              "internalType": "uint256[]",
              "name": "balancesScaled18",
              "type": "uint256[]"
            },
            {
              "internalType": "uint256",
              "name": "indexIn",
              "type": "uint256"
            },
            {
              "internalType": "uint256",
              "name": "indexOut",
              "type": "uint256"
            },
            {
              "internalType": "address",
              "name": "router",
              "type": "address"
            },
            {
              "internalType": "bytes",
              "name": "userData",
              "type": "bytes"
            }
          ],
          "internalType": "struct PoolSwapParams",
          "name": "request",
          "type": "tuple"
        }
      ],
      "name": "onSwap",
      "outputs": [
        {
          "internalType": "uint256",
          "name": "",
          "type": "uint256"
        }
      ],
      "stateMutability": "view",
      "type": "function"
    },
    {
      "inputs": [
        {
          "internalType": "address",
          "name": "owner",
          "type": "address"
        },
        {
          "internalType": "address",
          "name": "spender",
          "type": "address"
        },
        {
          "internalType": "uint256",
          "name": "amount",
          "type": "uint256"
        },
        {
          "internalType": "uint256",
          "name": "deadline",
          "type": "uint256"
        },
        {
          "internalType": "uint8",
          "name": "v",
          "type": "uint8"
        },
        {
          "internalType": "bytes32",
          "name": "r",
          "type": "bytes32"
        },
        {
          "internalType": "bytes32",
          "name": "s",
          "type": "bytes32"
        }
      ],
      "name": "permit",
      "outputs": [],
      "stateMutability": "nonpayable",
      "type": "function"
    },
    {
      "inputs": [
        {
          "internalType": "uint256",
          "name": "rawEndValue",
          "type": "uint256"
        },
        {
          "internalType": "uint256",
          "name": "endTime",
          "type": "uint256"
        }
      ],
      "name": "startAmplificationParameterUpdate",
      "outputs": [],
      "stateMutability": "nonpayable",
      "type": "function"
    },
    {
      "inputs": [],
      "name": "stopAmplificationParameterUpdate",
      "outputs": [],
      "stateMutability": "nonpayable",
      "type": "function"
    },
    {
      "inputs": [
        {
          "internalType": "bytes4",
          "name": "interfaceId",
          "type": "bytes4"
        }
      ],
      "name": "supportsInterface",
      "outputs": [
        {
          "internalType": "bool",
          "name": "",
          "type": "bool"
        }
      ],
      "stateMutability": "view",
      "type": "function"
    },
    {
      "inputs": [],
      "name": "symbol",
      "outputs": [
        {
          "internalType": "string",
          "name": "",
          "type": "string"
        }
      ],
      "stateMutability": "view",
      "type": "function"
    },
    {
      "inputs": [],
      "name": "totalSupply",
      "outputs": [
        {
          "internalType": "uint256",
          "name": "",
          "type": "uint256"
        }
      ],
      "stateMutability": "view",
      "type": "function"
    },
    {
      "inputs": [
        {
          "internalType": "address",
          "name": "to",
          "type": "address"
        },
        {
          "internalType": "uint256",
          "name": "amount",
          "type": "uint256"
        }
      ],
      "name": "transfer",
      "outputs": [
        {
          "internalType": "bool",
          "name": "",
          "type": "bool"
        }
      ],
      "stateMutability": "nonpayable",
      "type": "function"
    },
    {
      "inputs": [
        {
          "internalType": "address",
          "name": "from",
          "type": "address"
        },
        {
          "internalType": "address",
          "name": "to",
          "type": "address"
        },
        {
          "internalType": "uint256",
          "name": "amount",
          "type": "uint256"
        }
      ],
      "name": "transferFrom",
      "outputs": [
        {
          "internalType": "bool",
          "name": "",
          "type": "bool"
        }
      ],
      "stateMutability": "nonpayable",
      "type": "function"
    },
    {
      "inputs": [],
      "name": "version",
      "outputs": [
        {
          "internalType": "string",
          "name": "",
          "type": "string"
        }
      ],
      "stateMutability": "view",
      "type": "function"
    }
  ],
  "bytecode": "0x61020080604052346107f757613cc0803803809161001d82856107fb565b833981016040828203126107f75781516001600160401b0381116107f75782016080818303126107f757604051608081016001600160401b038111828210176106025760405281516001600160401b0381116107f7578361007f91840161081e565b815260208201516001600160401b0381116107f757836100a091840161081e565b60208201908152604083810151908301908152606084015191949093906001600160401b0383116107f7576020926100d8920161081e565b60608301819052940151906001600160a01b038216908183036107f757519351604094855161010787826107fb565b6001815260208101603160f81b815261011f83610873565b6101205261012c826109f5565b6101405282516020840120918260e05251902080610100524660a05287519060208201927f8b73c3c69bb8fe3d512ecc4cf759cc79239f7b179b0ffacaa9a75d522b39400f84528983015260608201524660808201523060a082015260a0815261019760c0826107fb565b5190206080523060c0526101608490528051906001600160401b0382116106025760035490600182811c921680156107ed575b60208310146105e45781601f84931161077f575b50602090601f8311600114610719575f9261070e575b50508160011b915f199060031b1c1916176003555b8051906001600160401b0382116106025760045490600182811c92168015610704575b60208310146105e45781601f849311610696575b50602090601f8311600114610630575f92610625575b50508160011b915f199060031b1c1916176004555b336101805215610616576101a08190526101e05282516001600160401b03811161060257600554600181811c911680156105f8575b60208210146105e457601f811161059e575b506020601f821160011461053b57819293945f92610530575b50508160011b915f199060031b1c1916176005555b60018151106105215761c35081511161051257516103e88102908082046103e814901517156104fe576001600160401b0381116104e857600654906001600160401b03811663ffffffff42116104d05742608081901b63ffffffff60801b1692851b6fffffffffffffffff00000000000000001663ffffffff60a01b1983166001600160c01b031990951694909417939093179190911760a09290921b63ffffffff60a01b169190911760065581519081527fa0d01593e47e69d07e0ccd87bece09411e07dd1ed40ca8f2e7af2976542a023390602090a1516131929081610b2e823960805181612cc7015260a05181612d7e015260c05181612c91015260e05181612d1601526101005181612d3c015261012051816111e10152610140518161120b01526101605181818161030301528181610454015281816105ea015281816107c10152818161080e0152818161086a0152818161093701528181610f410152818161115b015281816115000152818161160c01528181611a6a01528181611c7801528181611e6a01528181612290015281816125130152612a6d0152610180518161278501526101a051818181610201015281816118c90152612aeb01526101c0518150506101e0518181816106b801528181610b8201528181610c1f01528181610e8901526112c00152f35b6306dfcc6560e41b5f5260206004524260245260445ffd5b906306dfcc6560e41b5f5260045260245260445ffd5b634e487b7160e01b5f52601160045260245ffd5b6309b80d3960e41b5f5260045ffd5b63ab92332360e01b5f5260045ffd5b015190505f806102cb565b601f1982169060055f52805f20915f5b8181106105865750958360019596971061056e575b505050811b016005556102e0565b01515f1960f88460031b161c191690555f8080610560565b9192602060018192868b01518155019401920161054b565b60055f5260205f20601f830160051c810191602084106105da575b601f0160051c01905b8181106105cf57506102b2565b5f81556001016105c2565b90915081906105b9565b634e487b7160e01b5f52602260045260245ffd5b90607f16906102a0565b634e487b7160e01b5f52604160045260245ffd5b630647140b60e51b5f5260045ffd5b015190505f80610256565b60045f9081528281209350601f198516905b81811061067e5750908460019594939210610666575b505050811b0160045561026b565b01515f1960f88460031b161c191690555f8080610658565b92936020600181928786015181550195019301610642565b60045f529091507f8a35acfbc15ff81a39ae7d344fd709f28e8600b4aa8c65c6b64bfe7fe36bd19b601f840160051c810191602085106106fa575b90601f859493920160051c01905b8181106106ec5750610240565b5f81558493506001016106df565b90915081906106d1565b91607f169161022c565b015190505f806101f4565b60035f9081528281209350601f198516905b818110610767575090846001959493921061074f575b505050811b01600355610209565b01515f1960f88460031b161c191690555f8080610741565b9293602060018192878601518155019501930161072b565b60035f529091507fc2575a0e9e593c00f959f8c92f12db2869c3395a3b0502d05e2516446f71f85b601f840160051c810191602085106107e3575b90601f859493920160051c01905b8181106107d557506101de565b5f81558493506001016107c8565b90915081906107ba565b91607f16916101ca565b5f80fd5b601f909101601f19168101906001600160401b0382119082101761060257604052565b81601f820112156107f7578051906001600160401b0382116106025760405192610852601f8401601f1916602001856107fb565b828452602083830101116107f757815f9260208093018386015e8301015290565b908151602081105f146108ed575090601f8151116108ad57602081519101516020821061089e571790565b5f198260200360031b1b161790565b604460209160405192839163305a27a960e01b83528160048401528051918291826024860152018484015e5f828201840152601f01601f19168101030190fd5b6001600160401b038111610602575f54600181811c911680156109eb575b60208210146105e457601f81116109b9575b50602092601f821160011461095a57928192935f9261094f575b50508160011b915f199060031b1c1916175f5560ff90565b015190505f80610937565b601f198216935f8052805f20915f5b8681106109a15750836001959610610989575b505050811b015f5560ff90565b01515f1960f88460031b161c191690555f808061097c565b91926020600181928685015181550194019201610969565b5f8052601f60205f20910160051c810190601f830160051c015b8181106109e0575061091d565b5f81556001016109d3565b90607f169061090b565b908151602081105f14610a20575090601f8151116108ad57602081519101516020821061089e571790565b6001600160401b03811161060257600154600181811c91168015610b23575b60208210146105e457601f8111610af0575b50602092601f8211600114610a8f57928192935f92610a84575b50508160011b915f199060031b1c19161760015560ff90565b015190505f80610a6b565b601f1982169360015f52805f20915f5b868110610ad85750836001959610610ac0575b505050811b0160015560ff90565b01515f1960f88460031b161c191690555f8080610ab2565b91926020600181928685015181550194019201610a9f565b60015f52601f60205f20910160051c810190601f830160051c015b818110610b185750610a51565b5f8155600101610b0b565b90607f1690610a3f56fe6080806040526004361015610012575f80fd5b5f905f3560e01c90816301ffc9a714611f735750806306fdde0314611ea9578063095ea7b314611e2857806316a0b3e014611d8157806318160ddd14611d6757806321da5e1914611ce657806323b872dd14611c2b57806323de665114611bd7578063273c1adf14611bb55780632f1a0bc91461188f57806330adf81f14611867578063313ce5671461184b5780633644e5151461183057806354fd4d50146117895780635687f2b8146117335780635c1e6259146115c3578063627cdcb9146115a9578063654cf15d14611586578063679aefce1461156b5780636daccffa1461153957806370a08231146114b557806372c98186146113685780637ecebe001461132f57806381fa807c1461129357806384b0196e146111c4578063851c1bb31461118a5780638d928af81461114557806395d89b4114611062578063984de9e814610fba578063a9059cbb14610efe578063aa6ca80814610e5e578063abb1dc4414610bf3578063b156aa0a14610b57578063b677fa5614610b34578063cbd4e28014610719578063ce20ece7146106f9578063d335b0cf1461068b578063d505accf146104d1578063dd62ed3e146103f95763eb0f24d6146101d6575f80fd5b346103a957806003193601126103a9576040516374eef59360e11b81523060048201526060816024817f00000000000000000000000000000000000000000000000000000000000000006001600160a01b03165afa80156103ac576102509183916103ca575b50602001516001600160a01b031630612ab0565b610258612819565b156103bb57807fa0d01593e47e69d07e0ccd87bece09411e07dd1ed40ca8f2e7af2976542a0233602061028b8594612c32565b6006546001600160401b038216916102a242612c63565b63ffffffff60a01b60a082901b166001600160c01b03199390931663ffffffff60a01b19851617600160401b600160801b03604093841b161763ffffffff60801b60809290921b91909116179190911760065551908152a160018060a01b037f0000000000000000000000000000000000000000000000000000000000000000166040519160208301526020825261033b604083612043565b803b156103b757610387839291839260405194858094819363c808824760e01b83526f105b5c155c19185d1954dd1bdc1c195960821b6004840152604060248401526044830190611fa9565b03925af180156103ac576103985750f35b816103a291612043565b6103a95780f35b80fd5b6040513d84823e3d90fd5b5050fd5b634673a67560e01b8252600482fd5b6103ec915060603d6060116103f2575b6103e48183612043565b810190612356565b5f61023c565b503d6103da565b50346103a95760403660031901126103a957610413611fcd565b9061041c611fe3565b60405163927da10560e01b81523060048201526001600160a01b039384166024820152908316604482015291602090839060649082907f0000000000000000000000000000000000000000000000000000000000000000165afa9081156104c5579061048e575b602090604051908152f35b506020813d6020116104bd575b816104a860209383612043565b810103126104b95760209051610483565b5f80fd5b3d915061049b565b604051903d90823e3d90fd5b50346103a95760e03660031901126103a9576104eb611fcd565b906104f4611fe3565b604435906064359360843560ff8116810361068757854211610673576105a86105b19161052084612da4565b9760405160208101915f8051602061313d833981519152835260018060a01b0387169a8b604084015260018060a01b038916606084015289608084015260a083015260c082015260c0815261057660e082612043565b519020610581612c8e565b906040519161190160f01b83526002830152602282015260c43591604260a4359220613064565b909291926130dc565b6001600160a01b03169480860361065c5750906020916105e5604051948593849363e1f21c6760e01b855260048501612253565b0381857f00000000000000000000000000000000000000000000000000000000000000006001600160a01b03165af180156103ac57610622575080f35b6020813d602011610654575b8161063b60209383612043565b810103126106505761064c90612246565b5080f35b5080fd5b3d915061062e565b6325c0072360e11b85526004869052602452604484fd5b63313c898160e11b85526004869052602485fd5b8480fd5b50346103a957806003193601126103a95760405163b45090f960e01b8152306004820152906020826024817f00000000000000000000000000000000000000000000000000000000000000006001600160a01b03165afa9081156104c5579061048e57602090604051908152f35b50346103a957806003193601126103a957602060405164e8d4a510008152f35b50346103a957806003193601126103a9576040516101c081016001600160401b03811182821017610b205760405260608152606060208201528160408201528160608201528160808201528160a08201528160c08201528160e08201528161010082015281610120820152816101408201528161016082015281610180820152816101a08201526040516329ae7ec560e11b8152306004820152828160248160018060a01b037f0000000000000000000000000000000000000000000000000000000000000000165afa908115610a9d578391610afe575b508152604051633f1b0def60e11b815230600482015282816024817f00000000000000000000000000000000000000000000000000000000000000006001600160a01b03165afa908115610a9d578391610ada575b5060208281019190915260405163b45090f960e01b815230600482015290816024817f00000000000000000000000000000000000000000000000000000000000000006001600160a01b03165afa908115610a9d578391610aa8575b5060408201526108b0612275565b60608201526108bd6124f8565b60808201526108ca612819565b151561014083015260a082015263ffffffff60606108e66122fa565b80516001600160401b0390811660c086015260208201511660e085015260408181015184166101008601529101519091166101208301525163f29486a160e01b81523060048201526101a0816024817f00000000000000000000000000000000000000000000000000000000000000006001600160a01b03165afa908115610a9d57610120929391610a6e575b5060e081015115156101608401526101008101511515610180840152015115156101a08201526040518091602082526101a06109d66109c083516101c060208701526101e0860190612114565b6020840151858203601f19016040870152612114565b916040810151606085015260608101516080850152608081015160a085015260a081015160c085015260c081015160e085015260e081015161010085015263ffffffff6101008201511661012085015263ffffffff6101208201511661014085015261014081015115156101608501526101608101511515610180850152610180810151151582850152015115156101c08301520390f35b610a9091506101a03d8111610a96575b610a888183612043565b81019061265f565b5f610973565b503d610a7e565b6040513d85823e3d90fd5b90506020813d602011610ad2575b81610ac360209383612043565b810103126104b957515f6108a2565b3d9150610ab6565b610af691503d8085833e610aee8183612043565b8101906124af565b90505f610846565b610b1a91503d8085833e610b128183612043565b8101906127d6565b5f6107f1565b634e487b7160e01b83526041600452602483fd5b50346103a957806003193601126103a9576020604051670853a0d2313c00008152f35b50346103a957806003193601126103a9576040516329ae7ec560e11b815230600482015281816024817f00000000000000000000000000000000000000000000000000000000000000006001600160a01b03165afa9081156103ac5782610bd49392610bd8575b5050604051918291602083526020830190612114565b0390f35b610bec92503d8091833e610b128183612043565b5f80610bbe565b50346103a957806003193601126103a9576040516333f0703b60e11b81523060048201529080826024817f00000000000000000000000000000000000000000000000000000000000000006001600160a01b03165afa9081156104c55780928180918194610d03575b5090610c7994939291604051958695608087526080870190612147565b8581036020870152602080855192838152019401915b818110610cbd5750505081610caf9185610bd49594036040870152612114565b908382036060850152612114565b91949550919260206060600192604088518051610cd981612183565b8352858060a01b038582015116858401520151151560408201520195019101918695949392610c8f565b9450925050503d8082843e610d188184612043565b8201916080818403126106505780516001600160401b038111610e5a5783610d419183016123bc565b60208201516001600160401b038111610e565782019380601f86011215610e56578451610d6d81612066565b95610d7b6040519788612043565b81875260206060818901930282010190838211610e5257602001915b818310610def5750505060408301516001600160401b0381116106875781610dc0918501612452565b606084015190936001600160401b038211610deb57610de0929101612452565b90939190925f610c5c565b8580fd5b606083850312610e5257604051610e0581612028565b83516002811015610e4e57815260208401516001600160a01b0381168103610e4e579181606093602080940152610e3e60408701612246565b6040820152815201920191610d97565b8880fd5b8680fd5b8380fd5b8280fd5b50346103a957806003193601126103a95760405163ca4f280360e01b815230600482015281816024817f00000000000000000000000000000000000000000000000000000000000000006001600160a01b03165afa9081156103ac5782610bd49392610edb575b5050604051918291602083526020830190612147565b610ef792503d8091833e610eef8183612043565b81019061242a565b5f80610ec5565b50346103a95760403660031901126103a957610f3c6020610f1d611fcd565b604051809381926317d5759960e31b8352602435903360048501612253565b0381857f00000000000000000000000000000000000000000000000000000000000000006001600160a01b03165af180156103ac57610f81575b602060405160018152f35b6020813d602011610fb2575b81610f9a60209383612043565b8101031261065057610fac9150612246565b5f610f76565b3d9150610f8d565b50346103a95760403660031901126103a9576004356001600160401b03811161065057610feb90369060040161207d565b906024359160028310156106505761100b90611005612819565b50612dc6565b918261101d575b602083604051908152f35b60019061102981612183565b0361103a57506020905b905f611012565b6001820180921161104e5750602090611033565b634e487b7160e01b81526011600452602490fd5b50346103a957806003193601126103a9576040519080600454906110858261218d565b808552916001811690811561111e57506001146110c1575b610bd4846110ad81860382612043565b604051918291602083526020830190611fa9565b600481527f8a35acfbc15ff81a39ae7d344fd709f28e8600b4aa8c65c6b64bfe7fe36bd19b939250905b808210611104575090915081016020016110ad8261109d565b9192600181602092548385880101520191019092916110eb565b60ff191660208087019190915292151560051b850190920192506110ad915083905061109d565b50346103a957806003193601126103a9576040517f00000000000000000000000000000000000000000000000000000000000000006001600160a01b03168152602090f35b50346103a95760203660031901126103a957600435906001600160e01b0319821682036103a95760206111bc8361277b565b604051908152f35b50346103a957806003193601126103a95761126690610bd46112057f0000000000000000000000000000000000000000000000000000000000000000612fce565b9161122f7f000000000000000000000000000000000000000000000000000000000000000061302d565b61127460405191611241602084612043565b8383525f368137604051968796600f60f81b885260e0602089015260e0880190611fa9565b908682036040880152611fa9565b9146606086015230608086015260a085015283820360c0850152612114565b50346103a957806003193601126103a95760405163f29486a160e01b81523060048201526101a0816024817f00000000000000000000000000000000000000000000000000000000000000006001600160a01b03165afa9081156103ac5760409291611310575b5060608282015191015182519182526020820152f35b61132991506101a03d8111610a9657610a888183612043565b5f6112fa565b50346103a95760203660031901126103a9576020906040906001600160a01b03611357611fcd565b168152600283522054604051908152f35b50346103a95760203660031901126103a9576004356001600160401b0381116106505760e06003198236030112610650576040519060e082016001600160401b038111838210176114a15760405280600401356002811015610e565782526024810135602083015260448101356001600160401b038111610e56576113f3906004369184010161207d565b6040830152606481013560608301526084810135608083015260a48101356001600160a01b03811681036104b95760a083015260c4810135906001600160401b038211610e56570136602382011215610e5a5760048101356001600160401b0381116114a15760405191611471601f8301601f191660200184612043565b818352366024828401011161068757936020826111bc9594936024839801838601378301015260c082015261254e565b634e487b7160e01b84526041600452602484fd5b50346103a95760203660031901126103a9576114cf611fcd565b604051633de222bb60e21b81523060048201526001600160a01b0391821660248201529190602090839060449082907f0000000000000000000000000000000000000000000000000000000000000000165afa9081156104c5579061048e57602090604051908152f35b50346103a957806003193601126103a9576060611554612819565b604051918252151560208201526103e86040820152f35b50346103a957806003193601126103a95760206111bc6124f8565b50346103a957806003193601126103a957602060405167016345785d8a00008152f35b50346103a957806003193601126103a95761064c33612da4565b50346103a957806003193601126103a9576040516115e081612028565b6060808252602082019081526040808301848152905163ca4f280360e01b8152306004820152909190847f00000000000000000000000000000000000000000000000000000000000000006001600160a01b03168183602481845afa80156103ac576024938391611719575b508652604051633f1b0def60e11b815230600482015292839182905afa90811561170e5785916116f3575b5081949394526103e88252604051926020845260808401945194606060208601528551809152602060a086019601915b8181106116d45750505082936116c99151601f19858303016040860152612114565b905160608301520390f35b82516001600160a01b03168752602096870196909201916001016116a7565b61170791503d8087833e610aee8183612043565b505f611677565b6040513d87823e3d90fd5b61172d91503d8085833e610eef8183612043565b5f61164c565b50346103a95760207f8c5be1e5ebec7d5bd14f71427d1e84f3dd0314c0f7b2291e5b200ac8c7c3b925611765366120da565b92919390611771612a6b565b6040519384526001600160a01b03908116941692a380f35b50346103a957806003193601126103a9576040519080600554906117ac8261218d565b808552916001811690811561111e57506001146117d357610bd4846110ad81860382612043565b600581527f036b6384b5eca791c62761152d0c79bb0604c104a5fb6f4eb0703f3154bb3db0939250905b808210611816575090915081016020016110ad8261109d565b9192600181602092548385880101520191019092916117fd565b50346103a957806003193601126103a95760206111bc612c8e565b50346103a957806003193601126103a957602060405160128152f35b50346103a957806003193601126103a95760206040515f8051602061313d8339815191528152f35b50346104b95760403660031901126104b9576004356024356040516374eef59360e11b815230600482015260608160248160018060a01b037f0000000000000000000000000000000000000000000000000000000000000000165afa8015611b1e5761190f915f916103ca5750602001516001600160a01b031630612ab0565b60018210611ba65761c3508211611b975761192a428261239c565b620151808110611b885761193c612819565b919091611b79576103e88402938085046103e81481151715611b385782851115611b4c576305265c000290848204620151801485151715611b385760029161198761198d92856123a9565b90612c0d565b11611b295761199e6119a491612c32565b92612c32565b916119b76119b142612c63565b92612c63565b60068054608085811b63ffffffff60801b16604088811b600160401b600160801b03166001600160c01b03199094166001600160401b03978816908117949094179190911760a086901b63ffffffff60a01b16179093558251828152969094166020870181905263ffffffff95861692870183905294909216606086018190529194919290917f1835882ee7a34ac194f717a35e09bb1d24c82a3b9d854ab6c9749525b714cdf29190a160018060a01b037f0000000000000000000000000000000000000000000000000000000000000000169260405194602086015260408501526060840152608083015260808252611ab260a083612043565b803b156104b957611afe5f9291839260405194858094819363c808824760e01b83526f105b5c155c19185d1954dd185c9d195960821b6004840152604060248401526044830190611fa9565b03925af18015611b1e57611b10575080f35b611b1c91505f90612043565b005b6040513d5f823e3d90fd5b630e3845c960e11b5f5260045ffd5b634e487b7160e01b5f52601160045260245ffd5b5062015180820290828204620151801483151715611b3857600291611987611b7492876123a9565b61198d565b6317980f3f60e11b5f5260045ffd5b6366b5811560e11b5f5260045ffd5b6309b80d3960e41b5f5260045ffd5b63ab92332360e01b5f5260045ffd5b346104b9575f3660031901126104b9576020604051674563918244f400008152f35b346104b95760207fddf252ad1be2c89b69c2b068fc378daa952ba7f163c4a11628f55a4df523b3ef611c08366120da565b92919390611c14612a6b565b6040519384526001600160a01b03908116941692a3005b346104b957611c39366120da565b604051630aed65f560e11b81523360048201526001600160a01b0393841660248201529183166044830152606482015290602090829060849082905f907f0000000000000000000000000000000000000000000000000000000000000000165af18015611b1e57611caf57602060405160018152f35b6020813d602011611cde575b81611cc860209383612043565b810103126104b957611cd990612246565b610f76565b3d9150611cbb565b346104b9575f3660031901126104b9575f6060604051611d0581611ff9565b828152826020820152826040820152015260a0611d206122fa565b63ffffffff60606040519260018060401b03815116845260018060401b03602082015116602085015282604082015116604085015201511660608201526103e86080820152f35b346104b9575f3660031901126104b95760206111bc612275565b346104b95760603660031901126104b9576004356001600160401b0381116104b957611db190369060040161207d565b611db9612819565b5090611dc781611005612819565b80611e02575b6020926111bc9291611de290604435906123a9565b91602435926001670de0b6b3a76400005f198301040190151502916128cc565b9060018201809211611b385790611dcd565b634e487b7160e01b5f52602160045260245ffd5b346104b95760403660031901126104b957611e656020611e46611fcd565b6040518093819263e1f21c6760e01b8352602435903360048501612253565b03815f7f00000000000000000000000000000000000000000000000000000000000000006001600160a01b03165af18015611b1e57611caf57602060405160018152f35b346104b9575f3660031901126104b9576040515f600354611ec98161218d565b8084529060018116908115611f4f5750600114611ef1575b610bd4836110ad81850382612043565b60035f9081527fc2575a0e9e593c00f959f8c92f12db2869c3395a3b0502d05e2516446f71f85b939250905b808210611f35575090915081016020016110ad611ee1565b919260018160209254838588010152019101909291611f1d565b60ff191660208086019190915291151560051b840190910191506110ad9050611ee1565b346104b95760203660031901126104b9576004359063ffffffff60e01b82168092036104b9576020916301ffc9a760e01b148152f35b805180835260209291819084018484015e5f828201840152601f01601f1916010190565b600435906001600160a01b03821682036104b957565b602435906001600160a01b03821682036104b957565b608081019081106001600160401b0382111761201457604052565b634e487b7160e01b5f52604160045260245ffd5b606081019081106001600160401b0382111761201457604052565b601f909101601f19168101906001600160401b0382119082101761201457604052565b6001600160401b0381116120145760051b60200190565b9080601f830112156104b957813561209481612066565b926120a26040519485612043565b81845260208085019260051b8201019283116104b957602001905b8282106120ca5750505090565b81358152602091820191016120bd565b60609060031901126104b9576004356001600160a01b03811681036104b957906024356001600160a01b03811681036104b9579060443590565b90602080835192838152019201905f5b8181106121315750505090565b8251845260209384019390920191600101612124565b90602080835192838152019201905f5b8181106121645750505090565b82516001600160a01b0316845260209384019390920191600101612157565b60021115611e1457565b90600182811c921680156121bb575b60208310146121a757565b634e487b7160e01b5f52602260045260245ffd5b91607f169161219c565b5f92918154916121d48361218d565b808352926001811690811561222957506001146121f057505050565b5f9081526020812093945091925b83831061220f575060209250010190565b6001816020929493945483858701015201910191906121fe565b915050602093945060ff929192191683830152151560051b010190565b519081151582036104b957565b6001600160a01b03918216815291166020820152604081019190915260600190565b6040516339370aa960e21b81523060048201526020816024817f00000000000000000000000000000000000000000000000000000000000000006001600160a01b03165afa908115611b1e575f916122cb575090565b90506020813d6020116122f2575b816122e660209383612043565b810103126104b9575190565b3d91506122d9565b6040519061230782611ff9565b81606063ffffffff60065460018060401b038116845260018060401b038160401c166020850152818160801c16604085015260a01c16910152565b51906001600160a01b03821682036104b957565b908160609103126104b957612394604080519261237284612028565b61237b81612342565b845261238960208201612342565b602085015201612342565b604082015290565b91908203918211611b3857565b81810292918115918404141715611b3857565b9080601f830112156104b9578151906123d482612066565b926123e26040519485612043565b82845260208085019360051b8201019182116104b957602001915b81831061240a5750505090565b82516001600160a01b03811681036104b9578152602092830192016123fd565b906020828203126104b95781516001600160401b0381116104b95761244f92016123bc565b90565b9080601f830112156104b957815161246981612066565b926124776040519485612043565b81845260208085019260051b8201019283116104b957602001905b82821061249f5750505090565b8151815260209182019101612492565b9190916040818403126104b95780516001600160401b0381116104b957836124d8918301612452565b60208201519093906001600160401b0381116104b95761244f9201612452565b604051634f037ee760e01b81523060048201526020816024817f00000000000000000000000000000000000000000000000000000000000000006001600160a01b03165afa908115611b1e575f916122cb575090565b60408101906125608251611005612819565b908161265a575b61256f612819565b5091815161257c81612183565b61258581612183565b612600576125ec916020916125e66125d26125f29751936060810151938560808301519788930151996125c28b6125bc89856128b8565b516127c9565b6125cc88846128b8565b526128cc565b956125dd83856128b8565b510391836128b8565b526128b8565b5161239c565b5f198101908111611b385790565b6126459161264c9451906125e6612631606083015180958560206080870151960151996125c28b6125ec89856128b8565b9561263c83856128b8565b510191836128b8565b519061239c565b60018101809111611b385790565b612567565b809103906101a082126104b957604051916101408301906001600160401b0382118483101761201457608091604052126104b95760405161269f81611ff9565b6126a882612246565b81526126b660208301612246565b60208201526126c760408301612246565b60408201526126d860608301612246565b606082015282526080810151602083015260a0810151604083015260c0810151606083015260e081015164ffffffffff811681036104b957608083015261010081015163ffffffff811681036104b957612772916101809160a08501526127426101208201612246565b60c08501526127546101408201612246565b60e08501526127666101608201612246565b61010085015201612246565b61012082015290565b60405160208101917f0000000000000000000000000000000000000000000000000000000000000000835263ffffffff60e01b166040820152602481526127c3604482612043565b51902090565b91908201809211611b3857565b906020828203126104b95781516001600160401b0381116104b95761244f9201612452565b8115612805570490565b634e487b7160e01b5f52601260045260245ffd5b6128216122fa565b8051602082015160408301516060909301516001600160401b0391821693929091169163ffffffff91821691164282111561288f576001938380821115612877578261287394039242039103026127fb565b0191565b508161288a9303914203908403026127fb565b900391565b5050505f9091565b8051156128a45760200190565b634e487b7160e01b5f52603260045260245ffd5b80518210156128a45760209160051b010190565b9190916128db835180926123a9565b906128e584612897565b516128f9826128f387612897565b516123a9565b916001905b8587828410612a295761291a94935061264592508991506128b8565b9361292584806123a9565b956103e88702908782046103e81488151715611b385761294f6129559261198761295c96886123a9565b926128b8565b51906123a9565b926103e883028381046103e81484151715611b385761298c6129929261298661299c9588946127fb565b906127c9565b956127c9565b61198785846127c9565b5f5b60ff81106129b55763372f681760e21b5f5260045ffd5b816129c9856129c483806123a9565b6127c9565b908060011b9080820460021490151715611b3857600191611987866129f18a6129f6956127c9565b61239c565b928381811115612a1957031115612a11576001905b0161299e565b509250505090565b90031115612a1157600190612a0b565b612a6391612a4c84612a4787989961295560019899612a51976128b8565b6123a9565b6127fb565b94612a5c858a6128b8565b51906127c9565b9201906128fe565b7f00000000000000000000000000000000000000000000000000000000000000006001600160a01b03163303612a9d57565b63089676d560e01b5f523360045260245ffd5b906001600160a01b031680612c035750612ad45f356001600160e01b03191661277b565b60405163aaabadc560e01b815291906020836004817f00000000000000000000000000000000000000000000000000000000000000006001600160a01b03165afa928315611b1e575f93612bbc575b506040516326f8aa2160e21b815260048101919091523360248201526001600160a01b0391821660448201529160209183916064918391165afa908115611b1e575f91612b82575b5015612b7357565b6323dada5360e01b5f5260045ffd5b90506020813d602011612bb4575b81612b9d60209383612043565b810103126104b957612bae90612246565b5f612b6b565b3d9150612b90565b9092506020813d602011612bfb575b81612bd860209383612043565b810103126104b95751906001600160a01b03821682036104b95790916064612b23565b3d9150612bcb565b90503303612b7357565b908015612c23575f198201046001019015150290565b630a0c22c760e01b5f5260045ffd5b6001600160401b038111612c4c576001600160401b031690565b6306dfcc6560e41b5f52604060045260245260445ffd5b63ffffffff8111612c775763ffffffff1690565b6306dfcc6560e41b5f52602060045260245260445ffd5b307f00000000000000000000000000000000000000000000000000000000000000006001600160a01b03161480612d7b575b15612ce9577f000000000000000000000000000000000000000000000000000000000000000090565b60405160208101907f8b73c3c69bb8fe3d512ecc4cf759cc79239f7b179b0ffacaa9a75d522b39400f82527f000000000000000000000000000000000000000000000000000000000000000060408201527f000000000000000000000000000000000000000000000000000000000000000060608201524660808201523060a082015260a081526127c360c082612043565b507f00000000000000000000000000000000000000000000000000000000000000004614612cc0565b6001600160a01b03165f90815260026020526040902080546001810190915590565b5f82515f5b818110612fb657508115612fae57919092612de78385936123a9565b925f916103e7198501858111926001810194858211965b60ff8210612e14576208651960e51b5f5260045ffd5b805f5b848110612eb55750908187612e4882612a478f8f9a9998976103e891612e3d919c6123a9565b0461298689886123a9565b90611b38576103e8612e5b8c93886123a9565b0491611b3857612e74612e7a926129866001958d6123a9565b906127fb565b948581811115612ea557031115612e98576001905b01909192612dfe565b5050509550505050505090565b90031115612e9857600190612e8f565b95909493929a91612f9f612f91876001935f80612ed28d896128b8565b518d612f7b6040805193612ee68286612043565b6015855274737461626c65206d6174682062616c616e6365735b60581b6020860152612f67825192612f188185612043565b600484526302e901e960e51b602085015251948593612f50602086019863c67ea9d160e01b8a526080602488015260a4870190611fa9565b916044860152602319858303016064860152611fa9565b90608483015203601f198101835282612043565b51906a636f6e736f6c652e6c6f675afa506123a9565b612e74866128f38b876128b8565b96019a9293949095919a612e17565b505050505f90565b91612fc7600191612a5c85886128b8565b9201612dcb565b60ff81146130145760ff811690601f82116130055760405191612ff2604084612043565b6020808452838101919036833783525290565b632cd44ac360e21b5f5260045ffd5b5060405161244f81613026815f6121c5565b0382612043565b60ff81146130515760ff811690601f82116130055760405191612ff2604084612043565b5060405161244f816130268160016121c5565b91906fa2a8918ca85bafe22016d0b997e4df60600160ff1b0384116130d1579160209360809260ff5f9560405194855216868401526040830152606082015282805260015afa15611b1e575f516001600160a01b038116156130c757905f905f90565b505f906001905f90565b5050505f9160039190565b6004811015611e1457806130ee575050565b600181036131055763f645eedf60e01b5f5260045ffd5b60028103613120575063fce698f760e01b5f5260045260245ffd5b60031461312a5750565b6335e2f38360e21b5f5260045260245ffdfe6e71edae12b1b97f4d1f60370fef10105fa2faae0126114a169c64845d6126c9a2646970667358221220bb6df59ab9c89cff7feeefa803fd4ea091c6a4e5149b17bb9becac5496e0f90a64736f6c634300081a0033",
  "linkReferences": {},
  "deployedLinkReferences": {}
}